:100000000C94930D0C94D70D0C94D70D0C94D70D24
:100010000C94D70D0C94D70D0C94D70D0C94D70DD0
:100020000C94D70D0C94D70D0C9497190C94691A55
:100030000C94D70D0C94D70D0C94D70D0C94D70DB0
:100040000C94D70D0C94462F0C94D70D0C94D70D0F
:100050000C94D70D0C94E5280C94D70D0C94D70D67
:100060000C94D70D0C94D70D0C94D70D0C94D70D80
:100070000C94D70D0C94D70D0C94D70D0C94D70D70
:100080000C94D70D0C94D70D0C94D70D0C94D70D60
:100090000C94D70D0C94D70D0C94D70D0C94D70D50
:1000A0000C94D70D0C94D70D0C94D70DCE1AF01AD2
:1000B000DB1BF01ADB1B321B551BDB1BAA1BBD1BFA
:1000C000B71EB71EF81EF81E3A1F761F762176213E
:1000D0008E1F76218520852050217621762164216E
:1000E0001E0030002B000130E0000000221404004C
:1000F00014001A001E00E30021141D0015001B004F
:10010000E2002A002E140900160006005200280002
:100110002200130017001900510046002E000A00AB
:1001200007000500000003520000490000002900FC
:100130000000035401542A0000002800000003546A
:1001400032000D000B000E00000003522D000F00C6
:1001500011003300500000002E02180008001000AB
:100160004F002C002D141C000C00360225144C00EE
:100170003800360012002100271400002014370236
:1001800023000130E40000000352E200E0000030F0
:100190000030000000302B00003000300030003014
:1001A00000300030003000300030003000300030CF
:1001B00000300030010000300030003000300030EE
:1001C000010000300030003000300030000000300E
:1001D0002A00003000000030000000300100003034
:1001E00000000030000000300030003000300030EF
:1001F00000000030003000300030003001000030DE
:10020000003000300030003001000030003000309D
:10021000003000300030003000300030003000305E
:10022000003000304C00E600E400003000300000F8
:100230003400023001000100010000002400010030
:100240000100010034000100220001000100010052
:100250000100010020000100010001000100010077
:100260001E00010001000100010001002600010044
:100270000100010000000100010001000000010078
:10028000000001000000010000000100000001006A
:100290002700010001000100000001001F00010013
:1002A00001000100010001002100010001000230F5
:1002B00001000100230001000100023002300100B2
:1002C000250002300100023002300100023010002F
:1002D0000230010001000000010001000100E10006
:1002E000010000003A0001000100010001000100CE
:1002F0003B00010001000100010001003C00010081
:10030000010001004E0001003D000100010001005C
:100310004B0001003E00010001000100000001004F
:100320003F0001000000010000000100400001004A
:100330000000010000000100410001000100010077
:100340000000010042000100010001004A0001001C
:1003500043000100010001004D00010044000100C4
:100360000100010001000100450001000100010041
:1003700001000050000001000100E5000100000044
:1003800000000000000000000000000020000080CD
:1003900020000080000000008400008000000000B9
:1003A0003000008021000080210000805200008089
:1003B000800000803200008031000080400000801A
:1003C00041000080500000808100008033000080E8
:1003D0004200008043000080000000001100008007
:1003E00082000080340000804400008045000080CE
:1003F0000000000051000080830000803500008074
:1004000046000080470000800000000010000080CF
:1004100000000000B200008000000000100000801A
:10042000000000001000008000000000B00000800C
:1004300000000000B00000800000000010000080FC
:1004400093000080A50000806000008061000080B3
:10045000000000001000008092000080A4000080D6
:1004600062000080630000800000000052000080F5
:1004700091000080A300008064000080650000807F
:10048000000000001100008090000080A2000080A9
:10049000A10000806600008067000080540000809A
:1004A0009400008000000000A00000807000008028
:1004B0007100008053000080000000000000000078
:1004C0000000000072000080720000800000000048
:1004D000000000000000000000000000000000001C
:1004E000000000000000000000000000000000000C
:1004F00000000000000000000000000000000000FC
:1005000000000000000000000000000000000000EB
:1005100000000000000000000000000000000000DB
:1005200000000000000000000000000000000000CB
:1005300000000000000000000000000000000000BB
:1005400000000000000000000000000000000000AB
:10055000000000000000000000000000000000009B
:10056000000000000000000000000000000000008B
:10057000000000000000000000000000000000007B
:10058000000000000000000000000000000000006B
:10059000000000000000000000000000000000005B
:1005A000000000000000000000000000000000004B
:1005B000000000000000000000000000000000003B
:1005C000000000000000000000000000000000002B
:1005D000000000000000000000000000000000001B
:1005E000000000000000000000000000000000000B
:1005F00000000000000000000000000000000000FB
:1006000000000000000000000000000000000000EA
:1006100000000000000000000000000000000000DA
:10062000000000000000360200000000360200005A
:100630000000370000000000220000000000000061
:100640000000000064000000000000000000000046
:100650002100000000000000000000000000000079
:10066000000000000000000020000000000000006A
:10067000000000000000000000000000000000007A
:100680002D0000000000000000000000000000003D
:10069000000000000000000022002D0050000000BB
:1006A000000000000000000000000000000000004A
:1006B000000000000000000000000000000000003A
:1006C000000000000000000000000000000000002A
:1006D000000000000000000000000000000000001A
:1006E00010020000000000000000000000000000F8
:1006F0000000000000000000640200000000000094
:1007000000000000640064025000000000000000CF
:100710002100210050000000000000000000000047
:100720000000000000000000200020005000000039
:1007300000000000000000000000000000000000B9
:100740003800000000000000000000000000000071
:100750000000000000000000000000000000000099
:100760000000000000000000000000000000000089
:100770000000000000000000000000000000000079
:100780000000000000000000000000000000000069
:100790000000000000000000000000000000000059
:1007A0000000000000002200000000002500000002
:1007B00000000000000000002D00000000002200EA
:1007C0002D000000000000000000000000000000FC
:1007D00023000000000000000000000000000000F6
:1007E0000000000000000000000000000000000009
:1007F00000000000000000000000000000000000F9
:1008000036020000000000000000000000000000B0
:1008100000000000000000002D0036020000220051
:100820002D00360200000000000000000000000063
:1008300000000000000000000000000000000000B8
:1008400000000000000000000000000000000000A8
:100850000000000000000000000000000000000098
:100860001000000000000000000000000000000078
:1008700000000000000000002D0010000000220019
:100880002D0010000000000000000000000000002B
:100890000000000000000000000000000000000058
:1008A0000000000000000000000000000000000048
:1008B0000000000000000000000000000000000038
:1008C00036000000000000000000000000000000F2
:1008D00000000000000000002D0036000000220093
:1008E0002D003600000000000000000000000000A5
:1008F00000000000000000000000000000000000F8
:1009000000000000000000000000000000000000E7
:1009100000000000000000000000000000000000D7
:10092000000000000000360000000000210016005A
:10093000000021003300000036020000000000002B
:10094000000000001100210017000000000000005E
:1009500010000000000000000000000021000F0057
:100960000F00000000000000000000000000000078
:100970000000000000000000000000000000000077
:100980002E140000000000000000000021001900EB
:10099000080000000000000000000000000000004F
:1009A0000000000000000000000000000000000047
:1009B0000000000000000000000000000000000037
:1009C0000000000000000000000000000000000027
:1009D0000000000000000000000000000000000017
:1009E0002D000000000000000000000021000700B2
:1009F00000000000000000000000000000000000F7
:100A000000000000000000000000000000000000E6
:100A100000000000000000000000000000000000D6
:100A200000000000000000000000000000000000C6
:100A300000000000000000000000000000000000B6
:100A40002D14000000000000000000000000000065
:100A50000000000000000000000000000000000096
:100A60000000000000000000000000000000000086
:100A70000000000000000000000000000000000076
:100A80000000000000000000000000000000000066
:100A90000000000000000000000000000000000056
:100AA00000000000000038000000000029000000E5
:100AB0000000000000000000320000000000000004
:100AC0000000000000000000000000000000000026
:100AD00025000000000000000000000000000000F1
:100AE0000000000000000000000000000000000006
:100AF00000000000000000000000000000000000F6
:100B000021140000000000000000000000000000B0
:100B100000000000000000000000000000000000D5
:100B200000000000000000000000000000000000C5
:100B300000000000000000000000000000000000B5
:100B400000000000000000000000000000000000A5
:100B50000000000000000000000000000000000095
:100B60002200000000000000000000000000000063
:100B70000000000000000000000000000000000075
:100B80000000000000000000000000000000000065
:100B90000000000000000000000000000000000055
:100BA0000000000000000000000000000000000045
:100BB0000000000000000000000000000000000035
:100BC00022140000000000000000000000000000EF
:100BD0000000000000000000000000000000000015
:100BE0000000000000000000000000000000000005
:100BF00000000000000000000000000000000000F5
:100C000000000000000000000000000000000000E4
:100C100000000000000000000000000000000000D4
:100C20000000000000001E02000000001F02000083
:100C3000000020020000000021020000000022024B
:100C40000000000023020000000024020000000059
:100C50002502000000002602000000001E022702FC
:100C600000001E021E0200001E021F0200001E02E3
:100C7000200200001E02210200001E0222020000CB
:100C80002702000000001E02270200001F022702A8
:100C90000000200227020000210227020000220299
:100CA000270200002302270200002402270200007E
:100CB0002502270200002602270200001E0227024A
:100CC00027021E021E0227021E021F0227021E0208
:100CD000200227021E02210227021E0222022702F0
:100CE0000000000000001E02000000001F020000C3
:100CF000000020020000000021020000000022028B
:100D00000000000023020000000024020000000098
:100D10002502000000002602000000001E0227023B
:100D200000001E021E0200001E021F0200001E0222
:100D3000200200001E02210200001E02220200000A
:100D40002702000000001E02270200001F022702E7
:100D500000002002270200002102270200002202D8
:100D600027020000230227020000240227020000BD
:100D70002502270200002602270200001E02270289
:100D800027021E021E0227021E021F0227021E0247
:100D9000200227021E02210227021E02220227022F
:100DA0000000000000002C00000000002B000000EC
:100DB000000000000000000028000000000000000B
:100DC0000000000000000000000000000000000023
:100DD000000000000008000000001C0000000008E7
:100DE0001C000000160000000008160000001C1681
:100DF000000000081C1600000000000000150000A4
:100E00000000110000000015110000000F0000009C
:100E100000150F00000016000000000F0F0000007A
:100E20000A00000000150A000000110A0000000A74
:100E3000110000000F0A0000000000000000070081
:100E4000000000070F00000006000000001506006B
:100E50000000110600000000000000001300000068
:100E60000015130000001613000000130F0000000F
:100E7000050000000015050000000A0A000000003F
:100E800000000000050F000000000000000000004E
:100E90000000000F050000000B000000001D000016
:100EA000000019000000001D110000001A000000E1
:100EB000001D0F000000160B0000000F19000000BD
:100EC0000A0B000000150A0B00003300000000159B
:100ED000330000001B00000000000000000016337B
:100EE0000000000F33000000060B00000015060B89
:100EF000000011060B00001519000000130B000084
:100F000000000000000000000000000F060B0000C1
:100F10000900000000150900000033050000000072
:100F2000000000000F090000000000000000331363
:100F3000000000000000000017000000001517006E
:100F40000000111700000015111700000F17000016
:100F50000000000000001617000000151617000022
:100F60000E00000000150E000000110E0000000031
:100F7000000000000E0F0000000000000000160E30
:100F80000000000F0E000000061700000000000027
:100F90000000170C121100000000000013170000E1
:100FA00000000000000011161700000F13000000E1
:100FB000060E000000000000000005170000000001
:100FC00000000000060E0F000000000000000000FE
:100FD0000000000000000000170B00000015170BB8
:100FE000000011170B00001D170B00000F170B005E
:100FF00000000000000000000000000000000000F1
:101000000A0B1700001D0E000000110A170B00004C
:10101000000000001B170000000000000000071780
:101020000B0000000000000017060B00000000008D
:1010300000000000000000000000000013170B007B
:1010400000000000000000000000000000000000A0
:101050000917000000000000000000000000000070
:10106000000000000000000000000000000033133A
:101070001700000000000000160000000015160018
:101080000000111600000015111600000F160000D8
:1010900000150F16000016160000000F0F160000B6
:1010A0000A16000000150A160000110A1600000AB0
:1010B00011160000000000000000000000000716EC
:1010C00000000000000000000616000000150616D3
:1010D00000001106081600000000000013160000B2
:1010E0000015131600001613160000130F08160043
:1010F000051600000015051600000A0A160000007B
:1011000000000000050F08160000000000000000AD
:101110000000000F051600000B160000001D160051
:10112000000019081600001D111600001A0816000C
:10113000001D0F160000160B0816000F19081600E8
:101140000A0B160000000000000033160000001516
:10115000331600001B0816000000000000001633C4
:101160001600000F331600000700000000150700EE
:10117000000011070000001D07000000130B1600FF
:1011800000150F07000000000000000F070000001E
:10119000070A0000000000000000330516000000F0
:1011A00000000000000000000000000000003313F9
:1011B00016000000000000001716000000151716AA
:1011C0000000111716000000000000000F171600A5
:1011D0000000000000001617160000151617160074
:1011E0000E16000000150E160000110E160000006D
:1011F0000000000000000000000000000000160ECB
:101200001600000F0E160000061716000000000062
:101210000000170C12111600000000000000000072
:1012200000000000000000000000000F1316000086
:10123000060E160000000000000005171600000052
:1012400000000000060E0F0816000000000000005D
:101250000000000000000000170B16000015170B1F
:10126000160011170B16001D170B160000000000CA
:10127000000000000000000000000000000000006E
:101280000A0B1716001D0E160000110A170B160088
:101290000000000000000000000000000000071730
:1012A0000B160000000000000716000000150716CE
:1012B000000011071600001D0716000013170B167B
:1012C00000150F07160000000000000F07160000B1
:1012D000000000000000000000000000000000000E
:1012E00000000000000000000000000000003313B8
:1012F00017160000000000000000000000080800B1
:101300000000121200000012080000001414000077
:10131000001408000000141200000008141200005D
:10132000181800000018080000001812000000083B
:1013300018120000181400000008181400001218F9
:1013400014000008121814000C0C0000000C080017
:1013500000000C12000000080C1200000C14000029
:1013600000080C140000120C14000008120C1400E9
:101370000C18000000080C1800000C1218000008DF
:10138000120C1800140C18000008140C1800121489
:101390000C18000812140C180000000000080000CF
:1013A00000001200000000081200000014000000FD
:1013B00000081400000012140000000812140000BD
:1013C00018000000000818000000121800000008B3
:1013D000121800001418000000081418000012145D
:1013E00018000008121418000C00000000080C007F
:1013F0000000120C00000008120C0000140C000089
:101400000008140C000012140C00000812140C0048
:10141000180C00000008180C000012180C0000083E
:1014200012180C0014180C00000814180C001214E8
:10143000180C00081214180C000000000014000022
:101440000000160000000014160000000600000056
:101450000014060000001606000000141606000026
:1014600017000000001417000000161700000014F9
:1014700016170000070000000014070000000A0013
:10148000000000140A0000001D00000000141D00F0
:101490000000161D00000000000000001300000006
:1014A00000141300000016130000001416130000AF
:1014B000171D00000014171700001B000000001487
:1014C0001B000000071D00000014070700000A1D94
:1014D000000000140A0A00000B00000000140B00BA
:1014E0000000160B00000014160B0000060B000095
:1014F0000014060B000016060B00000000000000A0
:10150000170B00000014170B00000000000000146F
:1015100016170B00090000000014090000000A0B58
:10152000000000140A0B00001D0B000000141D0B2E
:10153000000000000000000000000000130B00008D
:101540000014130B000016130B00001416130B00ED
:101550000E00000000140E000000160E0000001423
:10156000160E000005000000001405000000000039
:101570000000001405050000110000000014110017
:101580000000161100000014111100001A000000E4
:1015900000141A00000016160000001416160000B1
:1015A00019000000001419000000161900000000C6
:1015B00000000000070819000014071900000A11B4
:1015C000000000140A110000330000000014330072
:1015D0000000163300000014163300001311000041
:1015E0000014333300000000000000141313000047
:1015F0000D00000000140D000000000000000000BD
:10160000000000000708330000140733000000004A
:1016100000000014070D00001C00000000141C0056
:101620000000161C00000014161C0000061C000020
:10163000001406060000000000000000000000008A
:10164000171C000000000000000016171C0000001E
:1016500000000000071C00000014090900000A1C1B
:101660000000001409170000331C000000000000F7
:10167000000000000000000000000000131C00003B
:1016800000000000000016131C00001416130B1CB1
:101690000E1100000014060E11001B1C00000000BB
:1016A00000000000051C00000014051C00000000E4
:1016B00000000000000000001500000000141500EC
:1016C000000016081500001415150000061500008E
:1016D0000014061500001606150000141606150065
:1016E000171500000014171500001617150000004C
:1016F00000000000071500000014071500000A157F
:10170000000000140A1500001D1500000000000074
:1017100000000000000000000000000013150000A1
:1017200000141315000016131500001413131500F0
:10173000000000000014171715001B150000000022
:10174000000000000708150000140707150000003E
:10175000000000140A0A1500150B0000000000002C
:101760000000160B1500000000000000060B15001D
:101770000014060615000000000000000000000034
:10178000170B15000014170B0F00000000000000DD
:1017900000000000091500000014091500000000F9
:1017A00000000014090915000000000000000000FE
:1017B000000000000000000000000000130B1500F6
:1017C0000014130B150000000000000000000000D2
:1017D0000E150000000000000000000000000000E6
:1017E00000000000051500000014051500000000B1
:1017F00000000014050515000F00000000140F0084
:101800000000160F00000014160F0000060F000065
:101810000014060F0000000000000000000000009F
:10182000040000000014040000001604000000146E
:101830001604000007080F000014060400000A0F39
:10184000000000140A0F00003315000000140F0FF1
:10185000000000000000000000000000130F000066
:101860000014130F000016130F00001413130F00C1
:101870000D081500000000000000160815190000F2
:101880000000000000000000001407070F00000027
:10189000000000140A0A0F000F1C000000000000E6
:1018A0000000160F1C0000000000000006151C00C0
:1018B000001406060F0000000000000000000000F9
:1018C00017151C000000000000001617151C000072
:1018D00000000000090F00000014090F00000000C4
:1018E0000000001409090F000000000000000000C3
:1018F000000000000000000000000000130B0F00BB
:1019000000000000000000000000000000000000D7
:101910000E0F0000000000000000000000000000AA
:1019200000000000050F00000014050F000000007B
:101930000000000000000000160345007200670070
:101940006F0044006F007800200045005A0000003E
:1019500016034500720067006F0044006F007800B6
:10196000200045005A0000000403090409026D002C
:10197000040100A0FA09040000010301010009218B
:1019800011010001223F000705810308000A090434
:1019900001000103010200092111010001224D0093
:1019A0000705820308000A09040200010300000081
:1019B0000921110100012236000705830308000AEE
:1019C00009040300010300000009211101000122A4
:1019D0003900070584031000011201100100000006
:1019E00008EDFE071301000102000105010906A12F
:1019F00001050719E029E715002501950875018102
:101A000002050819012905950575019102950175D1
:101A100003910105071900297715002501957875AF
:101A2000018102C005010980A1018502160100267D
:101A3000B7001A01002AB700751095018100C00592
:101A40000C0901A1018503160100269C021A010060
:101A50002A9C02751095018100C005010902A101AF
:101A60000901A100050919012905150025019505A0
:101A70007501810295017503810105010930093164
:101A80001581257F95027508810609381581257F06
:101A9000950175088106050C0A38021581257F9588
:101AA0000175088106C0C005010906A101050719D5
:101AB000E029E7150025019508750181029501755A
:101AC00008810105081901290595057501910295FF
:101AD00001750391010507190029FF150025FF95E0
:101AE0000675088100C00000000000000000000032
:101AF00000010204060A0F17202C3A4A5D71879DE7
:101B0000B3C7DAE9F5FCFFFCF5E9DAC7B39D8771E5
:101B10005D4A3A2C20170F0A06040201000000005B
:101B200000000000000011241FBECFEFDAE0DEBF8E
:101B3000CDBF04B603FE24C08091D4029091D5029B
:101B4000A091D602B091D7028730904BA740B04BFE
:101B5000B9F41092D4021092D5021092D6021092CB
:101B6000D70214BE84B7877F84BF88E10FB6F8948C
:101B700080936000109260000FBEE0E0FFE30995E3
:101B800011E0A0E0B1E0E0E1F2E602C005900D92C4
:101B9000A03AB107D9F712E0A0EAB1E001C01D9266
:101BA000A43DB107E1F70E94DD160C9406310C94B8
:101BB00000008091150290911602A0911702B09139
:101BC0001802892B8A2B8B2B69F481E0409111023A
:101BD000509112026091130270911402452B462B12
:101BE000472B09F080E0817008950F931F93CF93E6
:101BF000DF931F92CDB7DEB7182F69830E9490271D
:101C0000082F812F0E94A0276981862F0E943F1DE7
:101C1000802F0F90DF91CF911F910F910C94A027EF
:101C2000803141F09CEF980F9A3110F481E00895D3
:101C30008333E1F380E008952F923F924F925F92B9
:101C40006F927F928F929F92AF92BF92CF92DF92CC
:101C5000EF92FF920F931F93CF93DF9300D000D0AA
:101C6000CDB7DEB70E949027898382E10E94992731
:101C70008091060250900A02282F2170622E8270F5
:101C80008A8380910702882371F0882483948230AC
:101C900009F0812C77247394833009F0712C82E051
:101CA0000E94932702C0712C812C80E0C82E81E015
:101CB000D82E95E0A92E92E0B92E1C821B82412CD1
:101CC000912CF50181915F01882309F49CC0442483
:101CD00043942B813C812130310509F4412CEB8167
:101CE000FC81E659FE4F90812B813C8125303105E6
:101CF00019F461101DC018C02B813C8124303105BE
:101D000049F4662089F051100FC08695869500EA47
:101D100017E0CDC02B813C812630310529F46620A7
:101D200019F0552009F4C1C0F6010081118102C0EB
:101D300008EF12E10115110509F465C0913009F0B1
:101D4000BAC0F5E08F9F000D111D1124E12CF12C7C
:101D5000212C8E2DF801EE0DFF1D34903320A9F0BB
:101D6000832D0E943F1D832D0E94071E939488207F
:101D700019F021E0921629F07720E1F032E0931279
:101D800019C082E00E94992715C09A81992309F40D
:101D90003AC08130C1F52B813C812630310599F55F
:101DA000222089F1822D0E943F1D822D0E94071E54
:101DB000939429C03FEFE31AF30A85E0E816F10493
:101DC00011F1232CC6CF802F0E94100E882309F416
:101DD0007BC0802F0E943F1D802F0E94071E93947E
:101DE000811077C0711079C0F2E0EF0EF11C26E08F
:101DF000E216F10441F0F101EE0DFF1D0591149181
:101E00000115110501F72B813C812F5F3F4F3C836A
:101E10002B8332E0C30ED11C2B813C812C30310549
:101E200009F04FCF992099F08091A001843611F4E8
:101E30001092A001E091A00181E08E0F8093A0019B
:101E4000FF27E7FDF095EF55FE4F908223C06620F7
:101E500009F141101FC01091A001115017FD13E6A8
:101E6000C12EDD24C7FCD094C6018F559E4F6C0156
:101E7000FC01F080FF2071F000E08AE20E943F1D2B
:101E80008AE20E94071E0F5F0F11F7CFF601108242
:101E90001093A00189810E94A027E5E0F2E0119251
:101EA00022E0E131F207D9F71FC000E216E0011588
:101EB000110509F4A8CF180136E0839F200C311CCE
:101EC0001124E12CF12C97CF602F812F0E94F50D6A
:101ED00083CF91E0991286CF03C0E2E09E1284CFB7
:101EE00082E00E94992780CF0F900F900F900F9063
:101EF000DF91CF911F910F91FF90EF90DF90CF90E6
:101F0000BF90AF909F908F907F906F905F904F9019
:101F10003F902F9008957F928F929F92AF92BF92A1
:101F2000CF92DF92EF92FF920F931F93CF93DF93A5
:101F3000EC01613009F4B5C020F0623009F4C2C090
:101F4000EAC08981488150E0682F70E0FA0136E0EC
:101F5000839FE00DF11D1124EE0FFF1FEE0FFF1FF9
:101F6000E058FC4F85919591A591B4910097A105FA
:101F7000B10509F4D0C02A81B7FF63C0AC014F702E
:101F80005527C12CD12C7601C39404C0CC0CDD1C88
:101F9000EE1CFF1C4A95D2F764E0B695A79597957D
:101FA00087956A95D1F7382F3F70732E032F10E075
:101FB000D801AA58BE4FF801EE0FFF1FE85EFE4F92
:101FC000C081D181460157010C9004C0880C991C36
:101FD000AA1CBB1C0A94D2F72223C9F082E0381352
:101FE00003C081EE0E943F1D88819981AA81BB8137
:101FF00088299929AA29BB2988839983AA83BB8325
:10200000F801EB5FFD4F80818C29808384C0809430
:102010009094A094B094488159816A817B81482131
:1020200059216A217B21488359836A837B830E94DB
:10203000D90D81110E941C0E92E079126CC081EEC4
:102040002DC036E0369FF001379FF00D1124E40FCC
:10205000F51FEE0FFF1FEE0FFF1FE053FB4FC59064
:10206000D590E590F490C114D104E104F10409F491
:1020700046C0CC2DE0911C01F0911D0140815181A1
:10208000628173814427552766277076452B462B3E
:10209000472B81F535C00E94071E8C2D0E94071E1C
:1020A0003AC08A81882339F081EE0E943F1D82E088
:1020B0000E940A2630C081EE0E94071E82E00E9424
:1020C0002B2629C06881798180E00E94BC1362E1DF
:1020D00070E00E94A730FC01EE0FFF1FEA5BFE4F8D
:1020E000608181819A81992319F00E94F50D13C0B6
:1020F000862FD4CF222379F26C2D8D2DF6CFC0E020
:10210000222319F0682F892FF0CF0E94071ECC23BD
:1021100011F08C2FC3CF80E090E0DF91CF911F9121
:102120000F91FF90EF90DF90CF90BF90AF909F9076
:102130008F907F9008950895609196027091970214
:1021400080919802909199020E940E28569A5E9A68
:1021500025982D9826982E9827982F98813029F029
:10216000833029F4269A2E9A02C0259A2D9A0E942D
:10217000D90D811102C0279A2F9A08950C949C10B2
:1021800056985E9825982D9826982E9827982F98DF
:102190008FEF90E0909389008093880090938B005C
:1021A00080938A0090938D0080938C00259A2D9ABD
:1021B0002FEF80E792E0215080409040E1F700C08F
:1021C0000000269A2E9A2FEF80E792E0215080405F
:1021D0009040E1F700C00000279A2F9A2FEF80E788
:1021E00092E0215080409040E1F700C00000259827
:1021F0002D982FEF80E792E0215080409040E1F74A
:1022000000C0000026982E982FEF80E792E0215022
:1022100080409040E1F700C0000027982F98569822
:102220005E9825982D9826982E9827982F9808958F
:1022300089EA8093800089E08093810024982C981B
:102240003F988AB18F748AB96E98479A8BB1806B28
:102250008BB9769A0E94C0100C949B1080E28093F8
:1022600030018091190281110EC00E947D1181E020
:10227000809319022FEF83ED90E32150804090402E
:10228000E1F700C0000080E40E94831180933001D8
:1022900081112EC00E94AD1180933001811128C0A0
:1022A0000E94AD1180933001811122C08FE30E9402
:1022B000AD118093300181111BC00E94A51180E4F3
:1022C0000E94831180933001811112C08CE00E9422
:1022D000AD118093300181110BC00E94AD1180932C
:1022E0003001811105C08FE30E94AD118093300150
:1022F0000E94A5118091300108951092B9008AE0E2
:102300008093B800089594EA9093BC009091BC002B
:1023100097FFFCCF9091B900987F983021F09031D1
:1023200011F081E008958093BB0084E88093BC00A5
:102330008091BC0087FFFCCF8091B900887F8831F5
:1023400011F0803471F780E0089584E98093BC0037
:102350008091BC0084FDFCCF08958093BB0084E88D
:102360008093BC008091BC0087FFFCCF9091B900A6
:10237000987F81E0983209F480E0089584E88093A2
:10238000BC008091BC0087FFFCCF8091BB0008950A
:1023900080913001811115C080E40E9483118093E7
:1023A000300181110CC082E10E94AD118093300197
:1023B000811105C08FEF0E94AD11809330010E9402
:1023C000A51184B1807F84B985B1807F85B98AB138
:1023D000837F8AB98BB1837F8BB93E9846980895E5
:1023E0000E942E11809330010E94C81180B38C701E
:1023F00080BB81B3836F81BBE9E2F2E0ABE1B2E085
:1024000011921D9282E0E733F807D1F70C9418116E
:10241000BF92CF92DF92EF92FF920F931F93CF93D1
:10242000DF9380913001882379F080911A028F5FC9
:1024300080931A02811108C00E942E1180933001EE
:10244000811102C00E94C0100BE112E0C0E0D0E098
:10245000DD24D39482E0C82EEE24E394F12CC7301F
:1024600000F580913001811162C080E40E948311E7
:1024700080933001811112C082E10E94AD118093DE
:10248000300181110BC0C7010C2E01C0880F0A94C6
:10249000EAF780950E94AD11809330010E94A5114A
:1024A00046C0CA30A1F028F4C83059F0C93061F0F4
:1024B00005C0CC3089F070F0CD3089F0209A289892
:1024C00010C0219A29980DC0229A2A980AC0239AEE
:1024D0002B9807C0529A01C0539A5B9802C03E9A4B
:1024E0004698E0EAEA95F1F78FB179995AC092E0FF
:1024F00081708D25892B7C9B02C090E001C094E007
:10250000892B7D9B02C090E001C098E0892B7E9BC7
:1025100002C090E001C090E1892B9FB19095991F76
:102520009927991F9295990F907E892B0FC08091C2
:10253000300181114BC080E40E94831180933001EF
:10254000882389F1B12C0E94A5118B2DF80190816F
:10255000981719F08083C09231010E94C81121960A
:102560000F5F1F4FCE30D10509F079CF8091310137
:10257000882371F1815080933101882339F08FE9EC
:102580009FE00197F1F700C0000022C0A9E2B2E08D
:10259000EBE1F2E081918D9392E0E932F907D1F716
:1025A00017C090E0A5CF83E10E94AD118093300168
:1025B0008111C8CF81E40E94831180933001811181
:1025C000C1CF0E94BE11B82EB094BDCF80E0BECF67
:1025D0000E94BE1081E0DF91CF911F910F91FF907B
:1025E000EF90DF90CF90BF900895E82FF0E0E75D87
:1025F000FD4F8081089508958B3B910578F4883ACA
:10260000910540F5853A9105D0F48430910508F0A4
:10261000B1C08130910509F4ADC06BC0803E910519
:1026200008F467C0883E910508F4A4C09C01205FAF
:1026300031092031310508F05CC090650895853A74
:10264000910509F459C0863A910509F458C083E808
:1026500090E40895883A910509F454C0893A9105A7
:1026600009F453C08A3A910509F452C08B3A910596
:1026700009F451C08C3A910509F450C08D3A910586
:1026800009F44FC0803B910509F44EC08E3A910584
:1026900009F44DC08F3A910509F44CC0813B910576
:1026A00009F44BC0823B910509F44AC0833B910574
:1026B00009F449C0843B910509F448C0853B910564
:1026C00009F447C0863B910509F446C0873B910554
:1026D00009F445C0883B910509F444C0893B910544
:1026E00009F443C08A3B910509F042C08AE296E4AE
:1026F000089580E090E0089581E890E4089582E8EC
:1027000090E4089582EE94E4089589EE94E40895A7
:102710008AEE94E4089585EB94E4089586EB94E4BE
:10272000089587EB94E408958CEC94E408958DEC7F
:1027300094E4089583E895E408958AE895E408957B
:1027400082E995E4089584E995E4089581E296E4A8
:10275000089583E296E4089584E296E4089585E27C
:1027600096E4089586E296E4089587E296E4089553
:1027700080E094E40895089596E0799FF001112493
:1027800094E5899FE00DF11D1124E60FF11DEE0F78
:10279000FF1FE052FF4F859194910895880F991F74
:1027A000805A9040FC01859194910895880F991F5B
:1027B00080529F4FFC0185919491089526E0729F6D
:1027C000F001112444E5849FE00DF11D1124E60F72
:1027D000F11DEE0FFF1FE052FF4F25913491C9010B
:1027E0009A9581159F4110F4C9010895C90190522D
:1027F0008115904128F4C9019F700E94D613089555
:10280000C90190538115904120F4C9019927906C1A
:102810000895211580E5380771F40E9499219FEFF2
:1028200024E34CE0915020404040E1F700C000001C
:102830000E940A29FEC0213080E5380731F48091DA
:10284000B20281608093B202F4C0C9019055811533
:10285000904108F050C0832F99278F7099278130BD
:102860009105D9F4A9014370552702C0880F991F1B
:102870004A95E2F79C68A90164E0440F551F6A95E8
:10288000E1F744275370842B952B73E0220F331FFD
:102890007A95E1F7207633271DC08230910529F41F
:1028A000922F8827816F906A089583309105A9F44B
:1028B000A9014370552781E090E002C0880F991F5D
:1028C0004A95E2F79C6843E0220F331F4A95E1F7EF
:1028D000207E3770822B932B08950497F1F4A90181
:1028E0004370552781E090E002C0880F991F4A95F8
:1028F000E2F79A68E8CFC90190578115904120F41A
:10290000C9019F7090620895C90190588115904146
:1029100020F4C9019F70906A0895203E3105E0F4CB
:10292000203C310558F52133310509F470C048F4D5
:102930002932310509F464C02A32310509F46EC028
:1029400074C029333105F1F022383105D9F025332F
:10295000310509F44EC069C0233E310589F138F4D0
:10296000203E3105C1F0223E3105E1F05EC0263E39
:10297000310569F1273E3105A9F157C0C9010E940F
:10298000CE1308958091C50280FD02C081FF4DC025
:1029900080EE90E04BC08091C50280FFF9CF89E3C3
:1029A00090E044C08091C50282FF0EC08091C502B4
:1029B00084FF03C080E090E039C083EE90E036C031
:1029C0008091C50282FFF2CF82EE90E02FC080910D
:1029D000C50283FF0BC08091C50284FDEBCF87EE5B
:1029E00090E024C08091C50283FFF5CF86EE90E091
:1029F0001DC08091C50285FF07C089E290E016C026
:102A00008091C50285FFF9CF85E390E00FC08091EA
:102A1000C50286FF07C08AE290E008C08091C50227
:102A200086FFF9CF81E390E001C0C9010E94FC124A
:102A30000895089508950C941A15809147020895F9
:102A4000CF93DF9300D01F92CDB7DEB72091CB029A
:102A5000243019F523E029839B838A832093E9009E
:102A60008FEF9091E800815095FD06C095ED9A9505
:102A7000F1F700008111F5CF8091E80085FF0DC0CE
:102A800040E050E063E070E0CE0101960E948A17BA
:102A90008091E8008E778093E8000F900F900F9060
:102AA000DF91CF910895CF93DF9300D01F92CDB7E0
:102AB000DEB72091CB02243021F522E029839B83CD
:102AC0008A8383E08093E9008FEF9091E800815042
:102AD00095FD06C095ED9A95F1F700008111F5CFAF
:102AE0008091E80085FF0DC040E050E063E070E0B9
:102AF000CE0101960E948A178091E8008E7780931C
:102B0000E8000F900F900F90DF91CF9108952091E2
:102B1000CB022430F1F422E02093E9002FEF309132
:102B2000E800215035FD06C035ED3A95F1F700007B
:102B30002111F5CF2091E80025FF0BC040E050E0C7
:102B400065E070E00E948A178091E8008E7780939C
:102B5000E8000895CF93DF93EC018091CB0284309D
:102B600009F046C090913C019923D9F090913D0124
:102B70009923B9F08093E9008FEF9091E80081509C
:102B800095FD06C095E19A95F1F700008111F5CF0A
:102B90008091E80085FF2CC040E050E060E170E0EB
:102BA00017C081E08093E9008FEF9091E800815099
:102BB00095FD06C095ED9A95F1F700008111F5CFCE
:102BC0008091E80085FF14C040E050E068E070E0CC
:102BD000CE010E948A178091E8008E778093E800EA
:102BE00080E1FE01A7E3B2E001900D928A95E1F742
:102BF000DF91CF9108958091CA02811109C00E948E
:102C00001C190E9479198091E20084608093E2008F
:102C100008951092CA02089508950C94332F0E94CB
:102C2000A1280E94392F0E94161C0C941B1542E00B
:102C300061EC81E00E94961842E061EC82E00E9423
:102C4000961842E061EC83E00E94961842E161EC44
:102C500084E00C9496188091CD02833009F455C01D
:102C600030F4813071F0823009F48EC008958A30DA
:102C700009F47AC08B3009F460C0893009F09CC037
:102C800020C08091CC02813A09F096C08091E80082
:102C9000877F8093E8008091D0029091D102892BA8
:102CA00021F060E080E090E003C060E187E392E023
:102CB00070E00E94D3178091E8008B778093E80042
:102CC00008958091CC02813209F076C08091D002C3
:102CD0009091D102009719F0039709F06DC080918F
:102CE000E800877F8093E8008091E80082FD05C0BE
:102CF0008091CB028111F8CF5FC08091F100809369
:102D000047028091E8008B7753C08091CC02813AD2
:102D100009F052C08091D0029091D102892B09F024
:102D20004BC08091E800877F8093E8008091E800A5
:102D300080FFFCCF80913C0136C08091CC02813273
:102D4000D9F58091D0029091D102892BA9F580917B
:102D5000E800877F8093E8000E94CB188091CE0224
:102D600080933C010C9499218091CC02813221F511
:102D70008091E800877F8093E8000E94CB188091C3
:102D8000CF028093480208958091CC02813AA1F449
:102D90008091E800877F8093E8008091E80080FFC1
:102DA000FCCF809148028093F1008091E8008E77FB
:102DB0008093E8000C94CB18089584B7877F84BF74
:102DC00088E10FB6F89480936000109260000FBE07
:102DD00090E080E80FB6F8948093610090936100D2
:102DE0000FBE0E94651C0E941C190E9479198091D7
:102DF000E20084608093E20078940E94F41B0E94B9
:102E0000671C82E391E00E94111C0E94212F809197
:102E1000CB02853069F40E9461288091C902882321
:102E2000B1F30E948C28882391F30E947417EFCF8E
:102E30000E946D1CECCF292F332723303105A9F0D8
:102E40006CF42130310509F442C02230310509F01B
:102E500043C08DE690E02CE639E142C021323105D5
:102E6000C9F02232310519F137C099278130910517
:102E700041F08230910541F0892B71F5E8E6F9E1E6
:102E800005C0E0E5F9E102C0E8E3F9E1849190E0F2
:102E90009F0126C0643000F5E62FF0E0EE0FFF1F23
:102EA000E257FE4F2081318189E090E019C0643003
:102EB00098F4E62FF0E0DF01AA0FBB1FAA57BE4F20
:102EC0002D913C91EE57FE4F808190E009C082E148
:102ED00090E029ED39E104C080E090E020E030E0AE
:102EE000FA0131832083089580E189BD82E189BDA3
:102EF00009B400FEFDCF8091D8008F7D8093D8006B
:102F00008091E00082608093E0008091E00081FD8C
:102F1000FCCF0895CF92DF92EF92FF920F931F9311
:102F2000CF93DF937C018B01EA010E94EC188111A1
:102F300031C0209731F088819981081B190BE80E68
:102F4000F91EC12CD12C0115110519F18091E80051
:102F500085FD14C08091E8008E778093E80020976B
:102F600041F0888199818C0D9D1D9983888385E02E
:102F700011C00E94EC18882331F30CC0F701819135
:102F80007F018093F10001501109FFEFCF1ADF0A92
:102F9000DACF80E0DF91CF911F910F91FF90EF90FA
:102FA000DF90CF9008952091D2023091D30226175E
:102FB000370748F06115710539F42091E8002E7744
:102FC0002093E80001C0B901FC0120E06115710502
:102FD000B9F18091CB02882309F440C0853009F40F
:102FE0003FC08091E80083FD3DC08091E80082FFF2
:102FF00006C08091E80082FF26C080E0089580919D
:10300000E80080FFE3CF2091F3008091F20090E090
:10301000922B6115710551F08830910538F421919A
:103020002093F100615071090196F3CF21E00897D8
:1030300009F020E08091E8008E778093E800C6CF09
:103040002111C7CFD6CF8091CB02882339F08530AC
:1030500039F08091E80083FFCCCF04C082E008956E
:1030600083E0089581E008952091D2023091D30247
:103070002617370748F06115710539F42091E800EB
:103080002E772093E80001C0B901FC0120E0611512
:103090007105C1F18091CB02882309F441C08530CC
:1030A00009F440C08091E80083FD3EC08091E800B3
:1030B00082FF06C08091E80082FF27C080E008956B
:1030C0008091E80080FFE3CF2091F3008091F2002F
:1030D00090E0922B6115710559F08830910540F40C
:1030E00024912093F1003196615071090196F2CF3D
:1030F00021E0089709F020E08091E8008E77809326
:10310000E800C5CF2111C6CFD5CF8091CB0288234F
:1031100039F0853039F08091E80083FFCBCF04C0CF
:1031200082E0089583E0089581E00895982F973014
:1031300058F59093E900981739F07091EC002091C0
:10314000ED005091F00003C0242F762F50E021FFB6
:1031500019C03091EB003E7F3093EB003091ED00D1
:103160003D7F3093ED003091EB0031603093EB0008
:103170007093EC002093ED005093F0002091EE004E
:1031800027FF07C09F5FD3CF8F708093E90081E056
:10319000089580E008958091CC0287FD05C080915C
:1031A000E80080FF0EC012C08091E80082FD05C0DB
:1031B0008091CB028111F8CF08958091E8008B7740
:1031C00008C08091CB028111EACF08958091E80078
:1031D0008E778093E80008958091E4009091E50057
:1031E00045E62091EC0020FF21C02091E80020FD61
:1031F00021C02091CB02222389F0253089F0209133
:10320000EB0025FD0FC02091E4003091E500281768
:10321000390739F3415041F0C901E3CF82E0089505
:1032200083E0089581E0089584E008952091E80006
:1032300022FFDFCF80E008950E948A190E94921930
:10324000E0EEF0E0808181608083E8EDF0E0808155
:103250008F77808319BCA7EDB0E08C918E7F8C9323
:1032600080818F7E80831092CA0208950F931F93EE
:10327000CF93DF930E948A190E949219C8EDD0E083
:1032800088818F77888388818068888388818F7D13
:10329000888319BC1092CB021092C7021092C90207
:1032A0001092C80200EE10E0F80180818B7F8083CD
:1032B00088818160888342E060E080E00E94961807
:1032C000E1EEF0E080818E7F8083E2EEF0E08081AD
:1032D00081608083808188608083F80180818E7F17
:1032E0008083888180618883DF91CF911F910F91C6
:1032F0000895E8EDF0E080818F7E8083E7EDF0E0D7
:1033000080818160808384E082BF81E08093CA02F3
:103310000C943619E8EDF0E080818E7F8083109266
:10332000E20008951092DA001092E10008951F92D1
:103330000F920FB60F9211242F933F934F935F93E9
:103340006F937F938F939F93AF93BF93EF93FF936D
:103350008091E10082FF0BC08091E20082FF07C0F4
:103360008091E1008B7F8093E1000E94F31B8091AC
:10337000DA0080FF1FC08091D80080FF1BC08091C1
:10338000DA008E7F8093DA008091D90080FF0DC033
:1033900080E189BD82E189BD09B400FEFDCF81E0F5
:1033A0008093CB020E94FB1505C019BC1092CB0282
:1033B0000E9409168091E10080FF19C08091E2000F
:1033C00080FF15C08091E2008E7F8093E2008091A3
:1033D000E20080618093E2008091D8008062809357
:1033E000D80019BC85E08093CB020E940D16809115
:1033F000E10084FF30C08091E20084FF2CC080E1B6
:1034000089BD82E189BD09B400FEFDCF8091D8005D
:103410008F7D8093D8008091E1008F7E8093E100C2
:103420008091E2008F7E8093E2008091E2008160D3
:103430008093E2008091C702882311F084E007C0E6
:103440008091E30087FF02C083E001C081E08093A8
:10345000CB020E940F168091E10083FF29C080916A
:10346000E20083FF25C08091E100877F8093E10027
:1034700082E08093CB021092C7028091E1008E7FA0
:103480008093E1008091E2008E7F8093E200809142
:10349000E20080618093E20042E060E080E00E9410
:1034A00096188091F00088608093F0000E940C16BE
:1034B000FF91EF91BF91AF919F918F917F916F910C
:1034C0005F914F913F912F910F900FBE0F901F90E2
:1034D00018951F920F920FB60F9211242F933F93BE
:1034E0004F935F936F937F938F939F93AF93BF930C
:1034F000CF93EF93FF93C091E900CF708091EC00E0
:103500001092E9008091F000877F8093F00078941A
:103510000E94A51A1092E9008091F00088608093C3
:10352000F000C093E900FF91EF91CF91BF91AF916F
:103530009F918F917F916F915F914F913F912F91CB
:103540000F900FBE0F901F9018951F93CF93DF938E
:10355000CDB7DEB7AA970FB6F894DEBF0FBECDBFCA
:10356000ECECF2E08091F100819322E0E43DF2077F
:10357000C9F70E942B168091E80083FF1CC120919F
:10358000CC023091CD02832F90E08A30910508F073
:1035900012C1FC01EA5AFF4F0C94CF30203881F061
:1035A000223809F008C18091D0028F708093E90021
:1035B0008091EB0085FB882780F91092E90006C016
:1035C0008091C8029091C902911182609091E800A7
:1035D000977F9093E8008093F1001092F100C5C0AE
:1035E000822F8D7F09F0E7C0222319F0223061F08D
:1035F000E2C08091CE02813009F0DDC0333009F0A5
:1036000080E08093C90228C08091CE02811124C03D
:103610002091D0022F7009F4CEC02093E900809150
:10362000EB0080FF19C08091EB00333011F4806211
:1036300011C080618093EB0081E090E0022E01C018
:10364000880F0A94EAF78093EA001092EA008091CA
:10365000EB0088608093EB001092E9008091E80015
:10366000877F86C02111A7C01091CE021F7780915D
:10367000E3008078812B8093E3008091E800877FCE
:103680008093E8000E94CB188091E80080FFFCCF77
:103690008091E30080688093E300112311F083E0C0
:1036A00001C082E08093CB0286C02058223008F00F
:1036B00082C08091CE029091CF028C3D23E0920790
:1036C00079F583E08A838AE289834FB7F894DE0133
:1036D000139620E03EE051E2E32FF0E050935700D4
:1036E000E49120FF03C0E295EF703F5FEF708E2FF3
:1036F00090E0EA3010F0C79601C0C0968D939D937C
:103700002F5F243149F74FBF8091E800877F809376
:10371000E8006AE270E0CE0101960E94D31714C05F
:10372000AE014F5F5F4F6091D0020E941B17009760
:1037300009F441C02091E800277F2093E800BC01F4
:1037400089819A810E9434188091E8008B77809358
:10375000E80031C0203879F58091E800877F8093B8
:10376000E8008091C7028093F1008091E8008E7795
:103770008093E8000E94CB181EC021111CC09091BC
:10378000CE029230C0F48091E800877F8093E800F9
:103790009093C7020E94CB188091C702811104C088
:1037A0008091E30087FF02C084E001C081E0809344
:1037B000CB020E9417168091E80083FF0AC0809117
:1037C000E800877F8093E8008091EB00806280931F
:1037D000EB00AA960FB6F894DEBF0FBECDBFDF9107
:1037E000CF911F9108950895CF938091CB028823A4
:1037F000B1F08091E9008F709091EC0090FF02C0D1
:1038000090E801C090E0C92FC82B1092E900809188
:10381000E80083FD0E94A51ACF70C093E900CF9104
:10382000089590934E0280934D020895E0914D02C9
:10383000F0914E02309721F00190F081E02D099433
:1038400080E00895E0914D02F0914E02309721F012
:103850000280F381E02D09940895E0914D02F091EA
:103860004E02309721F00480F581E02D09940895EF
:1038700020914B0230914C028217930771F0909384
:103880004C0280934B02E0914D02F0914E02309732
:1038900021F00680F781E02D0994089520914902D6
:1038A00030914A028217930771F090934A028093F5
:1038B0004902E0914D02F0914E02309721F00084D0
:1038C000F185E02D0994089508950C94641C0E94DC
:1038D000A7280E94F0110C946D29CF92DF92EF92ED
:1038E000FF920F931F93CF93DF93CDB7DEB72B9744
:1038F0000FB6F894DEBF0FBECDBF0E94081230E5B0
:10390000E32E32E0F32E00E010E0C02E802F0E9464
:10391000F512F701D1907F01D826B1F40F5F1F4F48
:103920000E30110591F78FEF89838A831B820E94E5
:10393000B0288160782F9D838C8349815A816B8167
:103940008D810E94101D41C09091B20291FF04C070
:103950008B870E94FB128B8520E030E04D2D50E0DC
:10396000922FBA01022E02C0759567950A94E2F76C
:1039700060FF25C02E83CF82EE24E394F12C02C099
:10398000EE0CFF1C9A95E2F790E08E219F2121E03A
:10399000892B09F420E028870E94B0288160782FC5
:1039A0009A8789874E815F8168858A850E94101D6C
:1039B000F801E05BFD4F80818E25808306C02F5F7C
:1039C0003F4F2630310561F6A9CF0E94512C10914E
:1039D0004F020E94161C1817A1F00E94161C80931B
:1039E0004F022B960FB6F894DEBF0FBECDBFDF910E
:1039F000CF911F910F91FF90EF90DF90CF900C949B
:103A00001B152B960FB6F894DEBF0FBECDBFDF910E
:103A1000CF911F910F91FF90EF90DF90CF9008957D
:103A2000CF93DF93CDB7DEB72B970FB6F894DEBFF9
:103A30000FBECDBF4F83588769877A878B87DE019A
:103A4000119686E0FD0111928A95E9F785E0FE0165
:103A5000379601900D928A95E1F749815A816B81E1
:103A60007C818D819E810E9465242B960FB6F894EF
:103A7000DEBF0FBECDBFDF91CF9108950895CF93E4
:103A8000C82F882309F4C1C0823859F40E94161C3B
:103A900081FDBBC089E30E940F270E94DF2789E3D5
:103AA0000CC0833879F40E94161C80FDAEC083E5FB
:103AB0000E940F270E94DF2783E50E944F27CF91A6
:103AC0000C94DF27843859F40E94161C82FD9DC097
:103AD00087E40E940F270E94DF2787E4EECF8CEF58
:103AE0008C0F813A48F48C2F0E94892E81118DC051
:103AF0008C2F0E940F27E3CF80E28C0F883048F490
:103B0000C77081E001C0880FCA95EAF70E94932729
:103B1000D6CF8BE58C0F833078F4C53A29F0C63ABE
:103B200031F482E890E005C081E890E002C083E8CB
:103B300090E0CF910C94381C88E58C0F833108F00D
:103B400064C0C83A39F1C93A41F1CA3A49F1CB3AAD
:103B500051F1CC3A59F1CD3A61F1C03B69F1CE3A1D
:103B600071F1CF3A79F1C13B81F1C23B89F1C33B9D
:103B700091F1C43B99F1C53BA1F1C63BA9F1C73B0B
:103B8000B1F1C83BB9F1C93BC1F1CA3BC9F58AE201
:103B900092E038C082EE90E035C089EE90E032C00D
:103BA0008AEE90E02FC085EB90E02CC086EB90E091
:103BB00029C087EB90E026C08CEC90E023C08DEC10
:103BC00090E020C083E891E01DC08AE891E01AC02F
:103BD00082E991E017C084E991E014C081E292E0AB
:103BE00011C083E292E00EC084E292E00BC085E255
:103BF00092E008C086E292E005C087E292E002C04F
:103C000080E090E0CF910C944E1CCF9108958823D2
:103C100009F44BC0823859F40E94161C81FF45C03C
:103C200089E30E940F270E94DF2789E30CC08338B5
:103C300071F40E94161C80FF38C083E50E940F2794
:103C40000E94DF2783E50E944F270C94DF278438EA
:103C500059F40E94161C82FF28C087E40E940F2797
:103C60000E94DF2787E4EFCF9CEF980F913A58F33B
:103C700090E2980F983050F4877091E001C0990F4E
:103C80008A95EAF7892F0E949927DFCF9BE5980F45
:103C9000933020F480E090E00C94381C885A8331F3
:103CA00020F480E090E00C944E1C0895882321F0CD
:103CB0000E9493270C94DF270895882321F00E9407
:103CC00099270C94DF270895CF92DF92EF92FF920D
:103CD0000F931F93CF93DF93CDB7DEB728970FB61F
:103CE000F894DEBF0FBECDBF8C0185E0F801DE0188
:103CF000119601900D928A95E1F7F801D080E1804C
:103D0000F280558152955F7023813481232B39F0E5
:103D1000FFEFEF1206C081E0DF1203C003C081E0B5
:103D200001C080E080FDE2C2C8015F830E943E1DA9
:103D3000D982EA8269817A818F2D0E940B279E8326
:103D400088870E94BF260E9492254E815F816885E8
:103D5000FF2029F00E94B32768855F814E81E42F00
:103D6000E295EF70F0E0E05AFF4F0C94CF30842FD3
:103D7000807F142F1F70882311F01295107FFF2071
:103D8000B1F0112309F467C280E2860F883028F46D
:103D9000812F68870E94932704C0812F68870E9423
:103DA000A627688568870E94DF27688554C2862F0A
:103DB00068870E94071E6885112309F497C2605E18
:103DC000812F683018F40E94992702C00E94AC2706
:103DD00028960FB6F894DEBF0FBECDBFDF91CF910E
:103DE0001F910F91FF90EF90DF90CF900C94DF2701
:103DF000242F207F842F8F70203211F08295807FB6
:103E0000662319F0613019F12BC0FF20B1F0552362
:103E100009F493C1513009F090C128960FB6F89477
:103E2000DEBF0FBECDBFDF91CF911F910F91FF90ED
:103E3000EF90DF90CF900C94C627552319F05130A6
:103E400009F454C28E830E94C9278E8189C1FF2044
:103E500021F0523008F04AC270C1511147C280C1EE
:103E6000FF2021F0552309F468C1F5C1552309F459
:103E700077C105C2242F26952695237030E02115A1
:103E8000310521F021303105C9F030C2FF2021F089
:103E9000862F942F937002C080E090E028960FB692
:103EA000F894DEBF0FBECDBFDF91CF911F910F9170
:103EB000FF90EF90DF90CF900C94381CFF2021F002
:103EC000862F942F937002C080E090E028960FB662
:103ED000F894DEBF0FBECDBFDF91CF911F910F9140
:103EE000FF90EF90DF90CF900C944E1C862FFF2018
:103EF00019F00E94592B02C00E94C12B28960FB6C0
:103F0000F894DEBF0FBECDBFDF91CF911F910F910F
:103F1000FF90EF90DF90CF900C94462C842F83700D
:103F200009F076C0F110E2C1262F22952695277060
:103F3000220F220F862F8F70C82ED12CE12CF12C4E
:103F4000022E04C0CC0CDD1CEE1CFF1C0A94D2F720
:103F500064FF10C06FE070E080E090E004C0660F86
:103F6000771F881F991F2A95D2F7609570958095C5
:103F7000909503C060E070E0CB01242F2695269534
:103F80002370422F50E042305105D1F043305105AB
:103F900059F16C297D298E299F294130510541F124
:103FA00028960FB6F894DEBF0FBECDBFDF91CF913C
:103FB0001F910F91FF90EF90DF90CF900C94B72559
:103FC0006C297D298E299F2928960FB6F894DEBF8B
:103FD0000FBECDBFDF91CF911F910F91FF90EF905A
:103FE000DF90CF900C94D1250E94B725C701B60170
:103FF00028960FB6F894DEBF0FBECDBFDF91CF91EC
:104000001F910F91FF90EF90DF90CF900C949D2522
:10401000FF2019F0842F817001C08695882309F450
:1040200065C1262F229526952770220F220F862FF5
:104030008F70C82ED12CE12CF12C022E04C0CC0C98
:10404000DD1CEE1CFF1C0A94D2F764FF10C06FE069
:1040500070E080E090E004C0660F771F881F991F12
:104060002A95D2F7609570958095909503C060E091
:1040700070E0CB01242F269526952370422F50E027
:1040800042305105D1F04330510559F16C297D2959
:104090008E299F294130510541F128960FB6F89499
:1040A000DEBF0FBECDBFDF91CF911F910F91FF906B
:1040B000EF90DF90CF900C948B266C297D298E2970
:1040C0009F2928960FB6F894DEBF0FBECDBFDF91B3
:1040D000CF911F910F91FF90EF90DF90CF900C94B4
:1040E000A5260E948B26C701B60128960FB6F89424
:1040F000DEBF0FBECDBFDF91CF911F910F91FF901B
:10410000EF90DF90CF900C947126603FC9F118F4C6
:10411000603E50F49BC0623F09F460C008F44AC09E
:10412000633F09F46FC092C0162F1F70842F8F71E8
:10413000FF2099F00E940A26812F28960FB6F89446
:10414000DEBF0FBECDBFDF91CF911F910F91FF90CA
:10415000EF90DF90CF900C94561E0E942B26812F5B
:1041600028960FB6F894DEBF0FBECDBFDF91CF917A
:104170001F910F91FF90EF90DF90CF900C945D1EF8
:10418000FF20A1F05111B2C0842F8F7128960FB675
:10419000F894DEBF0FBECDBFDF91CF911F910F917D
:1041A000FF90EF90DF90CF900C945026523008F0A3
:1041B0009DC0EACFFF20A1F0842F8F7128960FB603
:1041C000F894DEBF0FBECDBFDF91CF911F910F914D
:1041D000FF90EF90DF90CF900C940A26FF2061F3C0
:1041E000842F8F7128960FB6F894DEBF0FBECDBF17
:1041F000DF91CF911F910F91FF90EF90DF90CF90C3
:104200000C942B26FF2091F0842F8F7128960FB6E7
:10421000F894DEBF0FBECDBFDF91CF911F910F91FC
:10422000FF90EF90DF90CF900C94F52528960FB675
:10423000F894DEBF0FBECDBFDF91CF911F910F91DC
:10424000FF90EF90DF90CF900C94EB25FF20A1F032
:10425000552309F4B1CF862F28960FB6F894DEBF08
:104260000FBECDBFDF91CF911F910F91FF90EF90C7
:10427000DF90CF900C943F1D552309F4B1CF862FCA
:1042800028960FB6F894DEBF0FBECDBFDF91CF9159
:104290001F910F91FF90EF90DF90CF900C94071E2D
:1042A0004F70C8010E948B0F28960FB6F894DEBF9E
:1042B0000FBECDBFDF91CF911F910F91FF90EF9077
:1042C000DF90CF900C9412254F70C80128960FB63E
:1042D000F894DEBF0FBECDBFDF91CF911F910F913C
:1042E000FF90EF90DF90CF900C94BB1328960FB601
:1042F000F894DEBF0FBECDBFDF91CF911F910F911C
:10430000FF90EF90DF90CF9008950E94B3270E9416
:10431000C3270E9482270E94DF270E94F22C0E945E
:10432000462C80E090E00E94381C80E090E00C94E5
:104330004E1C0E94A3270C9485210E940027292F40
:1043400022952F7030E02C3031054CF42A303105A5
:104350006CF4225031092230310590F407C02C3022
:10436000310551F02F30310539F00AC0803E10F090
:10437000803F31F481E0089593FB882780F9089508
:1043800080E00895CF93DF9300D000D01F92CDB787
:10439000DEB70F900F900F900F900F90DF91CF919D
:1043A0000895CF93DF9300D000D000D0CDB7DEB713
:1043B00026960FB6F894DEBF0FBECDBFDF91CF912A
:1043C00008951F93CF93DF93C0915E0216E0809112
:1043D0005F02C81799F0D0E01C9FF0011D9FF00DFF
:1043E0001124E05AFD4F40815181628173818481A3
:1043F00095810E94D1212196C770E9CFDF91CF919D
:104400001F91089540919002509191026091920203
:104410007091930280919402909195020C94D12115
:10442000CF938091950282958F7009F05FC0809143
:104430009202882309F45AC020915E02A0915F0283
:1044400060919002709191028091930290919402F8
:1044500031E06F3F09F030E0B32FC6E02A1709F4CE
:1044600045C0009721F07F3F21F44B2F03C041E06E
:1044700001C040E030E040FD35C0C29FF001C39F65
:10448000F00D1124E05AFD4F418174132BC040817F
:10449000641328C04281411125C0438154814817CB
:1044A000590710F441505109481B590B483C51051C
:1044B000C8F4809195028F7080618093950286E0A8
:1044C000829FF001839FF00D1124EB59FD4F8081F5
:1044D0008F708061808380E992E00E94641ECF919A
:1044E0000C94E1212F5F3F4F2770B8CFCF910895F3
:1044F000CF92DF92EF92FF920F931F93CF93DF93B0
:10450000CDB7DEB762970FB6F894DEBF0FBECDBF52
:104510008C0185E0F801DE011D9601900D928A95CF
:10452000E1F7D8014C9111965C91119712966C911C
:1045300012971396ED90FC90149770919002E09171
:10454000910220919302309194022115310531F0AE
:10455000EF3F31F481E07F3F19F403C081E001C0F7
:1045600080E0B82FB170CB2E80FD6CC1D09092024C
:10457000DD2009F4F5C0F0919502E216F30638F05B
:10458000C701821B930B883C910548F09BC0209586
:1045900030952E0D3F1D283C310508F093C08F2F1C
:1045A000807F09F052C0E51314C0741312C0D62ED8
:1045B00061110FC0FF70F061F09395020E9402221A
:1045C00080E992E00E94641E80919502F801858343
:1045D0006CC1EF2831F05F3F31F481E04F3F19F4B7
:1045E00003C081E001C080E080FD03C081E0862738
:1045F00001C080E0F82FF170FF2E80FF1CC0809179
:104600005E0220915F0236E0821709F428C190E033
:10461000389FF001399FF00D1124E05AFD4F718150
:10462000571306C07081471303C07281671303C01C
:1046300001968770E9CFD62E662309F436C18091A2
:10464000950281608093950253C0E51308C07413EE
:1046500006C0611104C0D8011596FC93AEC04D8709
:104660005E878D859E856A8B0E949D216A8988233D
:1046700029F1D62E662311F120919502822F829581
:104680008F7090E002970CF460C08091900290913E
:10469000910298878F831986FB86EA862C87CE0144
:1046A000079651C0E51731F14D875E878D859E8550
:1046B0006A8B0E949D216A8981112EC0C8010E94C7
:1046C000641EA4C08F2F807F69F77E2DF98AE88A47
:1046D00089890E94C22180E992E00E94641EE0E97B
:1046E000F2E086E0DF011D928A95E9F70E9402223E
:1046F000D12CDBC07413D8CF6111D6CFD801159659
:10470000FC93C8010E94641EE0E9F2E086E0DF014C
:104710001D928A95E9F7C9C0D62E662379F22091B9
:104720009502822F82958F7090E0029774F08091AD
:104730009002909191029A8389831B82FD82EC8280
:104740002E83CE0101960E94641E86E0F801A0E946
:10475000B2E001900D928A95E1F70E9410226FC09D
:10476000E216F30628F0C701821B930B9C0104C0DC
:10477000209530952E0D3F1D283C310508F052C084
:10478000D62E662309F49ACFE5132CC074132AC0E1
:104790008091950280FD1DC0982F92959F70C9F061
:1047A000D80115968C9315979F3039F09F5F92959D
:1047B000907F8F70892B15968C93C8010E94641E80
:1047C00086E0F801A0E9B2E001900D928A95E1F748
:1047D00036C086E0F801A0E9B2E001900D928A951A
:1047E000E1F763C04D875E878D859E850E949D2180
:1047F000882379F086E0F801A0E9B2E001900D92FB
:104800008A95E1F70E9410220E940222DD24D394AF
:104810004CC080919502816080939502C8010E94EE
:10482000641E43C07E2DF98AE88A89890E94C221CC
:10483000E0E9F2E086E0DF011D928A95E9F70E9447
:10484000022233C0662309F439CF4D875E878D85F8
:104850009E850E949D21882309F430CFCBCF4D87C0
:104860005E878D859E850E940027292F22952F70B7
:1048700030E0223031052CF49F7041F0811106C0E8
:104880000CC0243031052CF49F7049F4805E8830D0
:1048900020F0C8010E94641ECF2CDC2C06C0D80179
:1048A00015969C91907F91F7F8CF8D2D62960FB65B
:1048B000F894DEBF0FBECDBFDF91CF911F910F9156
:1048C000FF90EF90DF90CF9008951F93CF93DF93E9
:1048D000CDB7DEB72C970FB6F894DEBF0FBECDBFB5
:1048E0004F83588769877A878B879C87CE01079685
:1048F0000E9478228823C1F02F8138858A859B8584
:10490000892B31F03F3F11F080E003C02F3FE1F7EA
:1049100081E0811147C04F81588569857A858B85F3
:104920009C850E94D1213EC086E0FE013796DE01C3
:10493000119601900D928A95E1F7FF81E8854A85ED
:104940005B854115510531F0EF3F31F481E0FF3FC8
:1049500019F403C081E001C080E080FD23C02091F4
:104960005F0230E0C90101968770992760915E026D
:1049700070E086179707F1F1F983EA835D834C8332
:1049800096E0929FD001939FB00D1124A05ABD4F85
:10499000FE01319601900D929A95E1F780935F02A6
:1049A0000E94E12116E080915E0290915F028917DA
:1049B00079F1189FC0011124805A9D4F0E947822DE
:1049C000882331F1E0915E021E9FF0011124E05A2C
:1049D000FD4F4081518162817381848195810E9464
:1049E000D12180915E0290E0019687709927809393
:1049F0005E02D9CF0E94992110925F0210925E024E
:104A0000E0E9F2E086E0DF011D928A95E9F7CACF7E
:104A10002C960FB6F894DEBF0FBECDBFDF91CF91BD
:104A20001F910895EF92FF920F931F93CF93DF93FF
:104A3000FC01009709F46FC0F12CEE24E394EF0120
:104A400021968491843740F4843008F055C0813039
:104A500081F0823021F15FC0853709F447C0C0F191
:104A60009CE7980F903708F056C08F770E94071E7A
:104A700045C08F010E5F1F4FFE01849190E2980F99
:104A8000983050F48770FE2D01C0FF0F8A95EAF729
:104A90008F2F0E94B62715C00E943F1D14C08F01A2
:104AA0000E5F1F4FFE01849190E2980F983068F4DA
:104AB0008770FE2D01C0FF0F8A95EAF78F2F0E94A5
:104AC000BC270E94DF27E80119C00E94071EFBCF08
:104AD000CF010296FE01C491CC2361F0EFE9FFE023
:104AE0003197F1F700C00000C150F6CFCF01029618
:104AF000FE01F490EC0102C00E943F1D8F2D88231F
:104B000041F0EFE9FFE03197F1F700C0000081507C
:104B1000F6CFFE0194CFDF91CF911F910F91FF90BF
:104B2000EF900895089560939A0270939B0280938A
:104B30009C0290939D020C9485210F931F930091EA
:104B40009A0210919B0220919C0230919D02062BAB
:104B5000172B282B392B00939A0210939B0220933A
:104B60009C0230939D021F910F910C9485210F930D
:104B70001F9300919A0210919B0220919C02309108
:104B80009D02062317232823392300939A021093AA
:104B90009B0220939C0230939D021F910F910C94D5
:104BA00085210F931F9300919A0210919B022091EF
:104BB0009C0230919D02062717272827392700934A
:104BC0009A0210939B0220939C0230939D021F91A6
:104BD0000F910C94852110929602109297021092D8
:104BE0009802109299020C94852141E050E060E017
:104BF00070E004C0440F551F661F771F8A95D2F7D7
:104C00004093960250939702609398027093990292
:104C10000C94852141E050E060E070E004C0440F56
:104C2000551F661F771F8A95D2F780919602909143
:104C30009702A0919802B0919902842B952BA62BF4
:104C4000B72B8093960290939702A0939802B0930B
:104C500099020C94852141E050E060E070E004C0CE
:104C6000440F551F661F771F8A95D2F740955095C0
:104C7000609570958091960290919702A09198020C
:104C8000B091990284239523A623B723809396029B
:104C900090939702A0939802B09399020C94852167
:104CA00041E050E060E070E004C0440F551F661F13
:104CB000771F8A95D2F78091960290919702A091E2
:104CC0009802B091990284279527A627B727809349
:104CD000960290939702A0939802B09399020C9435
:104CE00085210F931F9300919602109197022091B6
:104CF000980230919902062B172B282B392B009301
:104D000096021093970220939802309399021F9174
:104D10000F910C9485210F931F930091960210918F
:104D20009702209198023091990206231723282395
:104D300039230093960210939702209398023093A0
:104D400099021F910F910C9485210F931F9300914D
:104D500096021091970220919802309199020627AD
:104D6000172728273927009396021093970220933C
:104D70009802309399021F910F910C948521089508
:104D8000CF92DF92EF92FF920F931F93CF93DF9317
:104D9000EC01C0909A02D0909B02E0909C02F090AF
:104DA0009D028091960290919702A0919802B091F5
:104DB0009902C82AD92AEA2AFB2A0FE110E0B70192
:104DC000A601002E04C076956795579547950A94DD
:104DD000D2F740FD05C00150110988F780E007C0F7
:104DE000BE01802F0E94DE130197A9F3802FDF916F
:104DF000CF911F910F91FF90EF90DF90CF9008958A
:104E0000CF93DF93EC010E94C026BE010E94DE1307
:104E1000DF91CF910895CB010E94002708959091D2
:104E20003C019923D9F090913D019923B9F0982F35
:104E30009695969596959F3088F5E0913E01F09174
:104E40003F01E90FF11D877021E030E001C0220F22
:104E50008A95EAF78181822B8183089540913E01F2
:104E600050913F0120E030E09FEFFA01E20FF31F85
:104E70006281681799F09F3F19F4611101C0922F68
:104E80002F5F3F4F2E30310581F79F3F39F0FA01F8
:104E9000E90FF11D97FDFA95828308950895909189
:104EA0003C019923E1F090913D019923C1F0982FA5
:104EB0009695969596959F3020F5E0913E01F0915C
:104EC0003F01E90FF11D877021E030E001C0220FA2
:104ED0008A95EAF7209581812823218308954091BE
:104EE0003E0150913F0120E030E0FA01E20FF31F54
:104EF0009281981301C012822F5F3F4F2E303105EF
:104F0000A1F7089581E090E0E0913E01F0913F012A
:104F1000E80FF91F1082019680319105A9F70895D5
:104F20008091B10208959091B102982B9093B102B3
:104F3000089580959091B10298239093B1020895BD
:104F40008093B10208951092B10208959091B00239
:104F5000982B9093B002089580959091B002982379
:104F60009093B00208951092B00208959091AF020C
:104F7000982B9093AF02089580959091AF0298235B
:104F80009093AF0208951092AF02089580939E020D
:104F9000089510929E02089540913E0150913F0164
:104FA00020E030E080E0FA01E20FF31F91819111DF
:104FB0008F5F2F5F3F4F2F303105A9F70895E091A4
:104FC0003E01F0913F018091B1028083E0913E016A
:104FD000F0913F0180819091B002892B8083E09114
:104FE0003E01F0913F0180819091AF02892B808337
:104FF00090919E02992361F0E0913E01F0913F0172
:105000008081892B80830E94CC27811110929E027F
:1050100080913E0190913F010C94221CCF92DF922F
:10502000EF92FF920F931F936C01EE24FF24C114A3
:10503000D104E104F10421F46B017C0180E001C0A2
:1050400080E133272F2D1E2D0D2D01151105210572
:10505000310519F0885F6801790197018601A4E0A4
:105060003695279517950795AA95D1F7011511053E
:105070002105310519F08C5F6801790197018601DE
:10508000F2E03695279517950795FA95D1F7011512
:1050900011052105310519F08E5F68017901B7010D
:1050A000A6017695679557954795452B462B472B37
:1050B00009F08F5F1F910F91FF90EF90DF90CF90DD
:1050C00008958091CB02843021F11092B30220E444
:1050D00088E190E00FB6F894A895809360000FBE29
:1050E0002093600080E00E941B1583B7817F84605D
:1050F00083BF83B7816083BF7894889583B78E7FA1
:1051000083BF88E10FB6F89480936000109260002E
:105110000FBE089508950895CF930E948A280E9493
:1051200008120E948B28C0E08C2F0E94F51281117A
:1051300005C0CF5FCE30C1F780E001C081E0CF91E4
:1051400008950E9499210E94161C0C941B1582E060
:1051500084BD93E095BD9AEF97BD80936E0008954E
:105160002FB7F8948091B4029091B502A091B60245
:10517000B091B7022FBF0895CF92DF92EF92FF92C6
:105180000F931F932FB7F8944091B4025091B5023A
:105190006091B6027091B7022FBF6A017B01EE24C5
:1051A000FF248C0120E030E0C016D106E206F306B1
:1051B00010F441505109481B590BCA011F910F911E
:1051C000FF90EF90DF90CF9008951F920F920FB64F
:1051D0000F9211248F939F93AF93BF938091B4024A
:1051E0009091B502A091B602B091B7020196A11DAF
:1051F000B11D8093B4029093B502A093B602B09310
:10520000B702BF91AF919F918F910F900FBE0F90FA
:105210001F9018950E941C19F8942FEF87EA91E6C9
:10522000215080409040E1F700C0000087E090EB03
:10523000DC018093D4029093D502A093D602B09360
:10524000D7022CE088E190E00FB6F894A8958093FF
:1052500060000FBE20936000FFCFEF92FF920F938C
:105260001F93CF93DF93E82EF12C8F2D0E94F51220
:10527000C0E0D0E0082F10E098010C2E02C0359558
:1052800027950A94E2F720FD05C02196C630D10586
:1052900099F709C06C2F7F2D80E00E94BC13E812A3
:1052A000F4CF81E005C0F3948EE0F812DECF80E009
:1052B000DF91CF911F910F91FF90EF900895CF93C1
:1052C000C82F8CE20E942D29882321F08C2FCF91AA
:1052D0000C942D2980E0CF910895CF930E94B22A9B
:1052E000811102C00E94982AC5E6C15049F00E946F
:1052F00008128FE39CE90197F1F700C00000F5CF99
:1053000089E20E945F29811111C18AE20E945F290E
:1053100081110E94982A85E00E945F2981110E94D4
:105320000A290E94BD2A8093B20287E00E945F2969
:10533000882399F18BE10E945F29882351F0909195
:10534000B20291FB882780F921E0822780FB91F946
:1053500022C08EE00E945F29882351F09091B20212
:1053600092FB882780F921E0822780FB92F913C005
:1053700080E10E945F299091B202882341F093FB63
:10538000882780F921E0822780FB93F904C0892FC8
:10539000809580FB90F99093B2028091B2020E94B6
:1053A000C12A0E94CF2A8093C50280EE0E945F2905
:1053B000882341F08091C502982F909590FB80F949
:1053C0008093C50289E30E945F29882359F0909158
:1053D000C50291FB882780F921E0822780FB91F9A3
:1053E0009093C50282EE0E945F29882359F0909124
:1053F000C50292FB882780F921E0822780FB92F981
:105400009093C50286EE0E945F29882359F09091FF
:10541000C50293FB882780F921E0822780FB93F95E
:105420009093C50283EE0E945F29882359F09091E2
:10543000C50294FB882780F921E0822780FB94F93C
:105440009093C50285E30E945F29882359F09091CB
:10545000C50295FB882780F921E0822780FB95F91A
:105460009093C50281E30E945F29882359F09091AF
:10547000C50296FB882780F921E0822780FB96F9F8
:105480009093C50281E10E945F29882359F0909191
:10549000C50297FB882780F921E0822780FB97F9D6
:1054A0009093C5028091C5020E94D32A8091C502C3
:1054B00087FB882780F980933D0187E20E945F295E
:1054C000C82F8EE10E945F298111C2608FE10E9486
:1054D0005F298111C46080E20E945F298111C86048
:1054E00081E20E945F298111C06182E20E945F29EE
:1054F0008111C06283E20E945F298111C06484E24D
:105500000E945F29882311F0C06802C0CC2329F0D3
:105510008C2F0E94CA2A6C2F03C00E94C62A682FB3
:1055200070E080E090E0CF910C949325CF910895A6
:105530006DEE7EEF80E090E00E94F13060E082E06E
:1055400090E00E94E33060E083E090E00E94E3306E
:1055500060E084E090E00E94E33060E085E090E06D
:105560000C94E33080E090E00E94DD3021E08D3E3D
:105570009E4F09F020E0822F089582E090E00C9485
:10558000D530682F82E090E00C94E33083E090E027
:105590000C94D530682F83E090E00C94E33084E0E5
:1055A00090E00C94D530682F84E090E00C94E330C8
:1055B0008091BA0280FF0BC06091430185E0689F33
:1055C000B001112475956795759567952AC081FF7F
:1055D00009C06091430185E0689FB0011124759571
:1055E00067951FC082FF07C06091430185E0689FF7
:1055F000B001112416C04091BB024423C9F0609150
:105600004201461788F72091430185E0289F9001C9
:105610001124429FC001439F900D112470E00E940D
:10562000BB306038710540F46115710539F002C076
:1056300065E070E0862F08958FE7089581E0089572
:105640008091BA0280FF08C06091410170E07595B9
:1056500067957595679521C081FF06C060914101EE
:1056600070E07595679519C082FF04C06091410193
:1056700070E010C08091BB028823C1F060914001AE
:105680008617A0F790914101989FC001112470E006
:105690000E94BB306038710528F46115710521F056
:1056A000862F08958FE7089581E0089561E070E006
:1056B000F4CF803F21F40E94D82A819504C0813F15
:1056C00029F40E94D82A8093BE020895823F21F4D3
:1056D0000E94D82A819504C0833F29F40E94D82AC9
:1056E0008093BD020895893F19F40E94202B05C0C4
:1056F0008A3F31F40E94202B81958093BF02089548
:105700008B3F21F40E94202B819504C08C3F29F40B
:105710000E94202B8093C0020895843F21F4809141
:10572000BC02816017C0853F21F48091BC02826079
:1057300011C0863F21F48091BC0284600BC0873F7A
:1057400021F48091BC02886005C0883F31F48091CB
:10575000BC0280618093BC0208958D3F21F480914A
:10576000BA0281600BC08E3F21F48091BA02826040
:1057700005C08F3F29F48091BA0284608093BA02F9
:105780000895803F39F48091BE0287FF6CC010926B
:10579000BE0269C0813F29F48091BE021816BCF395
:1057A00062C09091BD02823F29F497FF5CC01092C5
:1057B000BD0259C0833F19F41916CCF354C0893F78
:1057C00041F48091BF0218160CF04DC01092BF0238
:1057D0004AC08A3F29F48091BF0287FF44C0F6CFB8
:1057E0008B3F39F48091C00287FF3DC01092C00208
:1057F0003AC08C3F29F48091C0021816BCF333C024
:10580000843F21F48091BC028E7F17C0853F21F434
:105810008091BC028D7F11C0863F21F48091BC0233
:105820008B7F0BC0873F21F48091BC02877F05C02E
:10583000883F31F48091BC028F7E8093BC0213C0FC
:105840008D3F21F48091BA028E7F0BC08E3F21F4F0
:105850008091BA028D7F05C08F3F29F48091BA02F2
:105860008B7F8093BA028091BD0281110EC080911E
:10587000BE0281110AC08091BF02811106C08091D1
:10588000C002811102C01092BB0208958CEB92E01D
:105890000E942D1C0E94B0289093B9028093B802F8
:1058A00008951F93CF93DF938091B8029091B9022E
:1058B0000E94BC284091BB02442321F02091440166
:1058C00030E006C0209145015AE0259F9001112447
:1058D0008217930708F482C08091BD021091BE0226
:1058E000D091BF02C091C002811107C0111105C043
:1058F000D11103C0CC2309F471C04F3F19F04F5FA1
:105900004093BB02181624F40E94D82A8093BD024B
:105910008091BD0287FF05C00E94D82A819580939F
:10592000BD02111624F40E94D82A8093BE028091F1
:10593000BE0287FF05C00E94D82A81958093BE02CF
:105940006091BD02662339F11091BE02112319F155
:10595000772767FD7095872F972F0E94B82F23E335
:1059600033E343E35FE30E941C300E94852F609382
:10597000BD02612F772767FD7095872F972F0E94B3
:10598000B82F23E333E343E35FE30E941C300E941C
:10599000852F6093BE021D1624F40E94202B809355
:1059A000BF028091BF0287FF05C00E94202B819516
:1059B0008093BF021C1624F40E94202B8093C00207
:1059C0008091C00287FF05C00E94202B81958093A3
:1059D000C002DF91CF911F910C94462CDF91CF91A3
:1059E0001F910895ECEBF2E085E0DF011D928A95AE
:1059F000E9F71092BB021092BA020895833081F148
:105A000028F4813059F08230D1F00895853009F4BE
:105A100049C0B8F1863009F456C008952091450177
:105A2000862F90E0820F911D8F3F910520F4620F29
:105A30006093450108958FEF80934501089520916B
:105A40004401862F90E0820F911D8F3F910520F435
:105A5000620F6093440108958FEF8093440108958D
:105A600020914301862F90E0820F911D8F3F910579
:105A700020F4620F6093430108958FEF80934301F8
:105A8000089520914201862F90E0820F911D8F3F53
:105A9000910520F4620F6093420108958FEF809387
:105AA0004201089520914101862F90E0820F911DBF
:105AB0008F3F910520F4620F6093410108958FEFAD
:105AC00080934101089520914001862F90E0820F3C
:105AD000911D8F3F910520F4620F6093400108955E
