:100000000C9445090C9489090C9489090C9489096C
:100010000C9489090C9489090C9489090C94890918
:100020000C9489090C9489090C941B150C94DF1409
:100030000C9489090C9489090C9489090C948909F8
:100040000C9489090C94602A0C9489090C948909F0
:100050000C9489090C949D230C9489090C948909AA
:100060000C9489090C9489090C9489090C948909C8
:100070000C9489090C9489090C9489090C948909B8
:100080000C9489090C9489090C9489090C948909A8
:100090000C9489090C9489090C9489090C94890998
:1000A0000C9489090C9489090C94890900000000BA
:1000B00000140000000016000000001416000000EC
:1000C00006000000001406000000160600000014E0
:1000D0001606000017000000001417000000161795
:1000E00000000014161700000700000000140700AD
:1000F00000000A00000000140A0000001D000000BB
:1001000000141D000000161D00000000000000008B
:100110001300000000141300000016130000001468
:1001200016130000171D00000014171700001B0015
:10013000000000141B000000071D0000001407074A
:1001400000000A1D000000140A0A00000B00000055
:1001500000140B000000160B00000014160B00002A
:10016000060B00000014060B000016060B00000032
:1001700000000000170B00000014170B0000000027
:100180000000001416170B000900000000140900FD
:1001900000000A0B000000140A0B00001D0B0000F9
:1001A00000141D0B00000000000000000000000013
:1001B000130B00000014130B000016130B000014A7
:1001C00016130B000E00000000140E000000160EA7
:1001D00000000014160E00000500000000140500C9
:1001E00000000000000000140505000011000000E0
:1001F000001411000000161100000014111100007D
:100200001A00000000141A00000016160000001466
:10021000161600001900000000141900000016193D
:100220000000000000000000070819000014071972
:1002300000000A11000000140A1100003300000041
:1002400000143300000016330000001416330000C1
:1002500013110000001433330000000000000014EC
:10026000131300000D00000000140D00000000003A
:1002700000000000000000000708330000140733EE
:100280000000000000000014070D00001C0000002A
:1002900000141C000000161C00000014161C0000B6
:1002A000061C00000014060600000000000000000C
:1002B00000000000171C00000000000000001617DE
:1002C0001C00000000000000071C000000140909C9
:1002D00000000A1C0000001409170000331C000075
:1002E000000000000000000000000000000000000E
:1002F000131C000000000000000016131C00001476
:1003000016130B1C0E1100000014060E11001B1C0E
:100310000000000000000000051C00000014051C87
:1003200000000000000000000000000015000000B8
:100330000014150000001608150000141515000023
:10034000061500000014061500001606150000141E
:1003500016061500171500000014171500001617D3
:10036000150000000000000007150000001407152C
:1003700000000A15000000140A1500001D150000F9
:10038000000000000000000000000000000000006D
:1003900013150000001413150000161315000014A7
:1003A00013131500000000000014171715001B158B
:1003B00000000000000000000708150000140707F7
:1003C00015000000000000140A0A1500150B0000BB
:1003D000000000000000160B1500000000000000E7
:1003E000060B1500001406061500000000000000B2
:1003F00000000000170B15000014170B0F00000081
:10040000000000000000000009150000001409159C
:1004100000000000000000140909150000000000A1
:1004200000000000000000000000000000000000CC
:10043000130B15000014130B150000000000000042
:10044000000000000E150000000000000000000089
:100450000000000000000000051500000014051554
:100460000000000000000014050515000F0000004A
:1004700000140F000000160F00000014160F0000FB
:10048000060F000000000000000000000000000057
:100490000000000004000000001404000000160426
:1004A000000000141604000007080F0000140604E2
:1004B00000000A0F000000140A0F000033150000AE
:1004C00000140F0F000000000000000000000000FA
:1004D000130F00000014130F000016130F00001478
:1004E00013130F000D08150000000000000016088F
:1004F00015190000000000000000000000140707AC
:100500000F000000000000140A0A0F000F1C00007A
:10051000000000000000160F1C000000000000009A
:1005200006151C00001406060F0000000000000065
:100530000000000017151C00000000000000161746
:10054000151C000000000000090F00000014090F36
:10055000000000000000001409090F000000000066
:10056000000000000000000000000000000000008B
:10057000130B0F000000000000000000000000004E
:10058000000000000E0F000000000000000000004E
:100590000000000000000000050F00000014050F1F
:1005A000000000000000000000000000000000004B
:1005B00000140000000012000000000C12000000F7
:1005C000080000000008140000000C0800000008EB
:1005D00008000000180000000014180000001218A5
:1005E00000000012120000000C00000000140C00BB
:1005F0000000120C000000000000000000000000DD
:10060000001500000000110000000015110000009E
:100610000F00000000150F00000016000000000F82
:100620000F0000000A00000000150A000000110A77
:100630000000000A110000000F0A00000000000086
:1006400000000700000000070F0000000600000087
:100650000015060000001106000000000000000068
:100660001300000000151300000016130000001313
:100670000F000000050000000015050000000A0A38
:100680000000000000000000050F00000000000056
:10069000000000000000000F050000000B0000003B
:1006A000001D0000000019000000001D11000000E6
:1006B0001A000000001D0F000000160B0000000FC4
:1006C000190000000A0B000000150A0B000033009F
:1006D00000000015330000001B00000000000000B7
:1006E000000016330000000F33000000060B00006E
:1006F0000015060B000011060B0000151900000084
:10070000130B000000000000000000000000000FBC
:10071000060B000009000000001509000000330569
:1007200000000000000000000F09000000000000B1
:10073000000033130000000000000000170000005C
:100740000015170000001117000000151117000018
:100750000F17000000000000000016170000001531
:10076000161700000E00000000150E000000110E0C
:1007700000000000000000000E0F0000000000005C
:100780000000160E0000000F0E000000061700000B
:10079000000000000000170C121100000000000013
:1007A0001317000000000000000011161700000FD2
:1007B00013000000060E00000000000000000517F6
:1007C0000000000000000000060E0F000000000006
:1007D000000000000000000000000000170B0000F7
:1007E0000015170B000011170B00001D170B000060
:1007F0000F170B00000000000000000000000000C8
:10080000000000000A0B1700001D0E000000110A76
:10081000170B0000000000001B1700000000000084
:10082000000007170B0000000000000017060B0077
:1008300000000000000000000000000000000000B8
:1008400013170B0000000000000000000000000073
:100850000000000009170000000000000000000078
:100860000000000000000000000000000000000088
:100870000000331317000000000000001600000005
:1008800000151600000011160000001511160000DA
:100890000F16000000150F16000016160000000FBE
:1008A0000F1600000A16000000150A160000110AB3
:1008B0001600000A111600000000000000000000F1
:1008C00000000716000000000000000006160000EF
:1008D00000150616000011060816000000000000B2
:1008E000131600000015131600001613160000134F
:1008F0000F081600051600000015051600000A0A6C
:100900001600000000000000050F0816000000009F
:10091000000000000000000F051600000B1600008C
:10092000001D1600000019081600001D1116000019
:100930001A081600001D0F160000160B0816000FEF
:10094000190816000A0B16000000000000003316FC
:1009500000000015331600001B08160000150F07D5
:10096000000016331600000F3316000007000000C9
:1009700000150700000011070000001D070000001F
:10098000130B160000000000000000000000000033
:1009900000000000070A000000000000000033050E
:1009A0001600000000000000000000000000000031
:1009B00000003313160000000000000017160000AE
:1009C00000151716000011171600000000000000A7
:1009D0000F17160000000000000016171600001583
:1009E000161716000E16000000150E160000110E48
:1009F00016000000000000000000000000000000E1
:100A00000000160E1600000F0E1600000617160046
:100A100000000000000000000000000000000000D6
:100A20000000000000000000000000000000000FB7
:100A300013160000060E1600000000000000051747
:100A40001600000000000000060E0F08160000004F
:100A5000000000000000000000000000170B16005E
:100A60000015170B160011170B16001D170B16009B
:100A70000000000000000000000000000000000076
:100A8000000000000A0B1716001D0E160000110AC8
:100A9000170B16000000000000000000000000001E
:100AA000000007170B1600000000000007160000EA
:100AB00000150716000011071600001D071600009C
:100AC00013170B1600150F07160000000000000F8B
:100AD00007160000000000000000000000000000F9
:100AE0000000000000000000000000000000000006
:100AF0000000331317160000000000000000000083
:100B00000008000000001C00000000081C0000009D
:100B100000000000002C000000002A00000000007F
:100B2000000000002B00000000000000000000009A
:100B3000000000000000000028000000000000008D
:100B400000000000000000000000000000000000A5
:100B50000000000000000000000000000000006134
:100B600000008010000080110000800000000000E4
:100B7000000000000000002214000020000080217E
:100B8000000080360000000000000000000000218E
:100B900014000022000080230000800000000031CB
:100BA000000080000000002E1400002400008025BA
:100BB00000008000000000300000800000000022E3
:100BC00000000026000080270000800000000000D8
:100BD000000000000000002E0000002A0000002895
:100BE0000000000000000000000000000000000005
:100BF00000000000000000000000000000000000F5
:100C000000000000000000000000000000000000E4
:100C100000000000000000000000000000000032A2
:100C2000000000600000804C000000000000000098
:100C3000000000000000002D000000400000804186
:100C40000000800000000000000000000000002EF6
:100C500002000042000080430000800000000033DA
:100C6000000080000000002D1400004400008045BA
:100C700000008010000000320000800000000038FA
:100C8000000000460000804700008036020000009F
:100C900000000020140000370200005000008051C6
:100CA00000008000000000000000000000000000C4
:100CB0000000000000000000000000000000000034
:100CC00000000000000000240200000000000000FE
:100CD00000000037000000000000000000000022BB
:100CE0000200000000000000000000000000000002
:100CF00000000000000000200200000000000000D2
:100D00000000000000000000000000000000001EC5
:100D100002000000000000000000000000000000D1
:100D2000000000000000002602000000000000009B
:100D300000000000000000000000000000000000B3
:100D400000000000000000000000000000000000A3
:100D50000000000000000000000000000000000093
:100D6000000000000000000000000000000000275C
:100D70000200000000000000000000000000000071
:100D8000000000000000001F020000000000000042
:100D90000000000000000000000000000000002132
:100DA0000200000000000000000000000000000041
:100DB000000000000000002302000000000000000E
:100DC000000000640000000000000000000000259A
:100DD00002000000000000000000006402000000AB
:100DE00000000024140000100200000000000000B9
:100DF00000000000000000000000001E0030002B7A
:100E0000000030E00000002214040014001A001E4C
:100E100000E30021141D0015001B00E2002A002E33
:100E200014090016000600520028002200130017C3
:100E3000001900510046002E000A000700050000BE
:100E400000035249002A0000002900000003543921
:100E5000002A00000028000000035432000D000B9F
:100E6000000E00000003522D000F0011003300504F
:100E70000001542E021800080010004F002C002D15
:100E8000141C000C00360225144C003800360012E9
:100E9000002100271400002014370223000030E452
:100EA0000000000230023002300230010000003A3F
:100EB00000023002300230023001003B00023002FA
:100EC000300230010002303C0002300230023001BA
:100ED0000002303D00023002300230010001003ECD
:100EE00000023002300230000001003F000100002B
:100EF00000010000000100400001000000010000AE
:100F000000010041000230023002300000010042C6
:100F100000023002300230010001004300023002C2
:100F20003002300100023044000230023002300250
:100F3000300230450002300230023002300100023F
:100F40003002300230023001000000340001300174
:100F50000001000100000024000100010001003434
:100F60000001002200010001000100010001002039
:100F700000010001000100010001001E000100014C
:100F80000001000100010026000100010001000035
:100F9000000100010001000000010000000100014B
:100FA0000001000000010000000100270001000115
:100FB000000100000001001F00010001000100010C
:100FC00000010021000100010001300100010023A7
:100FD0000001000100013001300100250001300155
:100FE000000130013001000130100001300100012A
:100FF000000000010001000100E100010000003AD2
:1010000000010001000100010001003B000100019E
:10101000000100010001003C000100010001004E40
:101020000001003D000100010001004B0001003EF5
:1010300000010001000100000001003F000100006C
:10104000000100000001004000010000000100005C
:101050000001004100010001000100000001004208
:10106000000100010001004A0001004300010001ED
:101070000001004D000100440001000100010001D9
:101080000001004500010001000100010001000114
:101090000001000100E5000100000005010906A1B2
:1010A00001050719E029E71500250195087501815B
:1010B0000295017508810105081901290595057535
:1010C0000191029501750391010507190029FF158A
:1010D0000025FF950675088100C005010902A101E0
:1010E0000901A1000509190129051500250195052A
:1010F00075018102950175038101050109300931EE
:101100001581257F95027508810609381581257F8F
:10111000950175088106050C0A38021581257F9511
:101120000175088106C0C005010980A1018502166C
:10113000010026B7001A01002AB700751095018139
:1011400000C0050C0901A1018503160100269C02BF
:101150001A01002A9C02751095018100C005010941
:1011600006A101050719E029E71500250195087575
:10117000018102050819012905950575019102955E
:1011800001750391010507190029771500250195BF
:101190007875018102C01201100100000008EDFE07
:1011A000071301000102000109026D00040100A003
:1011B000FA090400000103010100092111010001E5
:1011C000223F000705810308000A0904010001030A
:1011D000010200092111010001224D0007058203CF
:1011E00008000A090402000103000000092111019E
:1011F00000012236000705830308000A09040300E2
:101200000103000000092111010001223900070536
:1012100084031000010403090416034500720067EB
:10122000006F0044006F007800200045005A000065
:101230000016034500720067006F0044006F0078DD
:1012400000200045005A00000000000000000000DF
:1012500000000000010204060A0F17202C3A4A5D24
:1012600071879DB3C7DAE9F5FCFFFCF5E9DAC7B38E
:101270009D87715D4A3A2C20170F0A06040201006F
:101280000000000000000000000011241FBECFEF8E
:10129000DAE0DEBFCDBF04B603FE24C080911502A4
:1012A00090911602A0911702B09118028750904BAE
:1012B000A740B04BB9F4109215021092160210928A
:1012C00017021092180214BE84B7877F84BF88E18A
:1012D0000FB6F89480936000109260000FBEE0E0BB
:1012E000FFE3099511E0A0E0B1E0E6E3F8E502C014
:1012F00005900D92A035B107D9F712E0A0E5B1E055
:1013000001C01D92A531B107E1F70E94FD100C94B8
:10131000192C0C94000080E090E008951F936091D8
:10132000DC017091DD018091DE019091DF010E946E
:10133000CF22182F569A5E9A25982D9826982E9887
:1013400027982F980E94791781FF02C0259A2D9A1D
:10135000113029F0133029F4269A2E9A02C0279AC8
:101360002F9A8091500190915101A0915201B0911A
:1013700053010097A105B10511F0269A2E9A80E03D
:1013800090E01F910895FF920F931F93182F062F3F
:101390000E946C22F82E812F0E947C22802F0E94B6
:1013A00035198F2D0E947C221F910F91FF90089577
:1013B0004F925F926F927F928F929F92AF92BF9265
:1013C000CF92DF92EF92FF920F931F93CF93DF9311
:1013D0000E946C22582E82E10E94752290E0C92E54
:1013E00091E0D92E882400E09924EE24FF2485E0A2
:1013F000482EF701EC5AFE4F108181E0E816F10407
:1014000099F48824123011F48824839400E0133076
:1014100011F401E002C0113021F0882011F4002302
:1014200019F082E00E946F22F601A080B180A11421
:10143000B10429F1149D30011124C0E0D0E0FE0177
:10144000E60DF71DEA0DFB1D14911123C1F0812F4C
:101450000E943519812F0E94E2189394882019F078
:10146000F1E09F1629F0002331F082E0981619F47C
:1014700082E00E9475222196C530D10501F70894BB
:10148000E11CF11CE2E0F0E0CE0EDF1EF7E0EF160B
:10149000F10409F0AECF852D0E947C22E4E5F1E055
:1014A000119281E0EB35F807D9F7DF91CF911F91C9
:1014B0000F91FF90EF90DF90CF90BF90AF909F90F3
:1014C0008F907F906F905F904F900895AF92BF92F2
:1014D000CF92DF92EF92FF920F931F93CF93DF9300
:1014E000EC01613009F4E6C0613008F4D2C062302A
:1014F00009F0FAC0898196E0899FD0011124888182
:10150000A80FB11DFD01EE0FFF1FEE0FFF1FE55AE3
:10151000F44F25913591459154912115310541059F
:10152000510509F4E1C057FF79C0C9018F7090706F
:10153000E1E0EE2EF12C012D112D04C0EE0CFF1C6C
:10154000001F111F8A95D2F774E05695479537957D
:1015500027957A95D1F76FE0D62ED222AD2CBB24F9
:10156000F501EC5DFE4FC0808A81882351F181E056
:10157000D81619F481EE0E943519A801970104C00C
:10158000220F331F441F551FCA94D2F78091500178
:1015900090915101A0915201B0915301822B932B54
:1015A000A42BB52B8093500190935101A09352012D
:1015B000B0935301F501EC5AFE4F80818E29808350
:1015C00093C0D801C70104C0880F991FAA1FBB1F71
:1015D000CA94D2F780959095A095B095209150012E
:1015E0003091510140915201509153018223932334
:1015F000A423B5238093500190935101A0935201ED
:10160000B09353010097A105B10511F40E94D809C8
:1016100081E0D81609F068C081EE64C0622FFD0138
:10162000EE0FFF1FEE0FFF1FE555F34FE590F5900E
:1016300005911491E114F1040105110511F4DD2463
:1016400012C0DE2C8091500190915101A091520165
:10165000B091530180709070A07CB0700097A1058C
:10166000B10509F04EC08A81882361F008C08F2D32
:101670006E2D34C0822F0E94E2188E2D33C0832F2E
:1016800099272CC0862F0E94E218DD2069F18D2D4C
:1016900029C08A81882339F081EE0E94351982E0C1
:1016A0000E94782121C081EE0E94E21882E00E940F
:1016B00058211AC06881798180E00E94A20E62E1FF
:1016C00070E00E94C12BFC01EE0FFF1FE55DFE4F95
:1016D000608191818A81882321F0892F0E94C3092A
:1016E00003C0862F0E94E21880E090E0DF91CF9146
:1016F0001F910F91FF90EF90DF90CF90BF90AF9030
:1017000008958A81882309F0B2CFB4CF8EE899E09A
:10171000009711F0FC01099580E090E0089556983B
:101720005E9825982D9826982E9827982F988FEFB9
:1017300090E0909389008093880090938B00809331
:101740008A0090938D0080938C00259A2D9A84EFC7
:1017500091E020E931E0F9013197F1F70197D9F7EC
:10176000269A2E9A84EF91E020E931E0F901319731
:10177000F1F70197D9F7279A2F9A84EF91E020E9A2
:1017800031E0F9013197F1F70197D9F725982D98B4
:1017900084EF91E020E931E0F9013197F1F7019709
:1017A000D9F726982E9884EF91E020E931E0F901ED
:1017B0003197F1F70197D9F727982F9856985E98A7
:1017C00025982D9826982E9827982F98089589EA7D
:1017D0008093800089E08093810024982C983F9822
:1017E0008AB18F748AB96E98479A8BB1806B8BB926
:1017F000769A0E948F0B8BE899E0009711F0FC011C
:10180000099580E090E0089580E280930E01809138
:101810005B01882371F40E94530C81E080935B018B
:1018200080E197E220E931E0F9013197F1F7019782
:10183000D9F780E40E94590C80930E01882371F53A
:101840000E94870C80930E01882341F50E94870C2B
:1018500080930E01882311F58FE30E94870C8093FB
:101860000E018823D9F40E947F0C80E40E94590C59
:1018700080930E01882391F48CE00E94870C809362
:101880000E01882359F40E94870C80930E0188234F
:1018900029F48FE30E94870C80930E010E947F0C35
:1018A00080910E0108951092B9008AE08093B800EB
:1018B0000895982F84EA8093BC008091BC0087FF34
:1018C000FCCF8091B900887F883021F0803111F001
:1018D00081E008959093BB0084E88093BC008091E0
:1018E000BC0087FFFCCF9091B900987F983111F42C
:1018F00080E0089580E0903409F081E0089584E963
:101900008093BC008091BC0084FDFCCF089580933F
:10191000BB0084E88093BC008091BC0087FFFCCFB3
:101920008091B90090E0887F883209F091E0892F9A
:10193000089584E88093BC008091BC0087FFFCCFB1
:101940008091BB000895ECE5F1E0E80FF11D808186
:101950000895089580910E018823A9F480E40E94DF
:10196000590C80930E01882361F482E10E94870C58
:1019700080930E01882329F48FEF0E94870C8093B7
:101980000E010E947F0C84B1807F84B985B1807F75
:1019900085B98AB1837F8AB98BB1837F8BB93E9831
:1019A000469808950E94040C80930E010E94AA0C90
:1019B00080B38C7080BB81B3836F81BB80E090E08B
:1019C000FC01E45AFE4F1082FC01E659FE4F1082E2
:1019D00001968E309105A1F787EE9BE0009711F0FC
:1019E000FC0109950895BF92CF92DF92EF92FF928A
:1019F0000F931F93CF93DF9380910E01882379F08B
:101A0000809178018F5F80937801882341F40E9450
:101A1000040C80930E01882311F40E948F0B2AE698
:101A2000E22E21E0F22EC0E0D0E090EAB92E81E073
:101A3000C82ED12C02E0C73010F580910E0188230A
:101A400009F045C080E40E94590C80930E01882360
:101A500099F482E10E94870C80930E01882361F43F
:101A6000C6010C2E02C0880F991F0A94E2F78095D8
:101A70000E94870C80930E010E947F0C28C0CA3000
:101A8000D9F0CB3040F4C83089F0C93090F4C73079
:101A900009F0A0C008C0CC30A1F0CC3080F0CD302F
:101AA00009F098C011C0209A289894C0219A2998CA
:101AB00091C0229A2A988EC0239A2B988BC0529A52
:101AC00001C0539A5B9886C03E9A469883C0809125
:101AD0000E01882311F010E03EC080E40E94590CF2
:101AE00080930E01882399F483E10E94870C8093F0
:101AF0000E01882361F481E40E94590C80930E0149
:101B0000882329F40E94990C182F109501C010E029
:101B10000E947F0C20C042E07C9902C034E001C0EA
:101B200030E07D9902C028E001C020E07E9902C02B
:101B300090E101C090E08FB18095881F8827881FB1
:101B40008295880F807E152F1C251170142B132B66
:101B5000122B192B182BF7018081811719F0108394
:101B600000930F010E94AA0C21960894E11CF11C1D
:101B7000CE30D10509F05FCF80910F018823C9F0E5
:101B8000815080930F01882329F080EA9FE001971C
:101B9000F1F70FC020E030E0F901E45AFE4FD9011F
:101BA000A659BE4F8C9180832F5F3F4F2E30310559
:101BB00099F786E89BE0009711F0FC01099581E018
:101BC000DF91CF911F910F91FF90EF90DF90CF9019
:101BD000BF9008958B2D8A95F1F75FB1799B9BCFCC
:101BE00040E09ACF08959C018B3B910578F4883AA8
:101BF000910548F5853A9105B8F48430910508F0CF
:101C00009FC08130910509F099C095C0803E910533
:101C100008F494C0883E910508F492C0805F90401B
:101C2000409708F08BC085C0853A910519F481E88A
:101C300090E47DC0863A910519F083E890E477C07E
:101C400082E890E474C0883A910519F482EE94E435
:101C50006EC0893A910519F489EE94E468C08A3A15
:101C6000910519F48AEE94E462C08B3A910519F457
:101C700085EB94E45CC08C3A910519F486EB94E40E
:101C800056C08D3A910519F487EB94E450C0803B1F
:101C9000910519F48CEC94E44AC08E3A910519F43C
:101CA0008DEC94E444C08F3A910519F483E895E4EF
:101CB0003EC0813B910519F48AE895E438C0823B27
:101CC000910519F482E995E432C0833B910519F43A
:101CD00084E995E42CC0843B910519F481E296E4F3
:101CE00026C0853B910519F483E296E420C0863B2B
:101CF000910519F484E296E41AC0873B910519F422
:101D000085E296E414C0883B910519F486E296E4D6
:101D10000EC0893B910519F487E296E408C08A3B1E
:101D2000910519F080E094E402C08AE296E49C01F7
:101D300007C0306505C021E030E002C020E030E09F
:101D4000C9010895E62FF0E0EE0FFF1F9CE0799F98
:101D500090011124E20FF31F98EA899FC00111241A
:101D6000E80FF91FE550F24F25913491C90108950C
:101D7000FC01EE0FFF1FE55EF04F25913491C90184
:101D80000895FC01EE0FFF1FE556FF4E259134919B
:101D9000C90108950E94A20EAC018050914080506C
:101DA0009F4118F4CA019F710895CA018050904262
:101DB0008050904128F4CA019F700E94C10E08957E
:101DC000CA01805090438050904120F4CA01907025
:101DD000906C089580E54030580771F40E94CF1848
:101DE00084EC99E020E931E0F9013197F1F70197AE
:101DF000D9F70E94C2230EC120E54130520731F4C9
:101E00008091F30181608093F30104C1CA01805085
:101E100090458050904108F056C0652F77276F702D
:101E2000707061307105F9F49A01A4E0220F331F3C
:101E3000AA95E1F720703370CA01F3E0880F991F6B
:101E4000FA95E1F780769070282B392B3C68437027
:101E5000507002C0660F771F4A95E2F76F7170707D
:101E6000262B372B2EC06230710529F4942F88273A
:101E7000816F906A08956330710551F49A0173E09F
:101E8000220F331F7A95E1F7207E37703C680CC033
:101E90006430710561F59A0163E0220F331F6A9582
:101EA000E1F7207E37703A684370507081E090E02F
:101EB00002C0880F991F4A95E2F78F719070282B06
:101EC000392BC9010895CA01805090478050904134
:101ED00020F4CA019F7090620895CA018050904812
:101EE0008050904120F4CA019F70906A0895403E4E
:101EF0005105F0F4403C510588F54133510509F492
:101F000076C04233510548F44932510509F465C0A1
:101F10004A32510509F07AC06FC04933510511F1B9
:101F200042385105F9F04533510509F06FC050C0F2
:101F3000433E510569F1443E510540F4403E510590
:101F4000C1F0423E510509F061C01DC0463E510539
:101F500059F1473E510509F059C02BC0CA010E94F2
:101F6000B80E08958091060280FD0AC081FD08C068
:101F70004DC08091060280FF03C089E390E047C016
:101F800080EE90E044C08091060282FD08C004C04B
:101F90008091060282FF03C082EE90E038C084FD8B
:101FA00011C083EE90E033C08091060283FD08C02B
:101FB00004C08091060283FF03C086EE90E027C034
:101FC00084FF03C080E090E022C087EE90E01FC055
:101FD0008091060285FF05C007C08091060285FF3B
:101FE00003C085E390E013C089E290E010C08091C7
:101FF000060286FF05C007C08091060286FF03C067
:1020000081E390E004C08AE290E001C0CA010E942E
:10201000F30D08950895089510920B020895089500
:1020200080917A010895DF93CF9300D00F92CDB7BE
:10203000DEB7AC0180910C02843029F583E08093F7
:10204000E9002FEF95ED05C0892F8A95F1F722233E
:1020500029F08091E800215085FFF6CF8091E800BB
:1020600085FF11C05B834A8383E08983CE0101969B
:1020700063E070E040E050E00E9481138091E8004E
:102080008E778093E8000F900F900F90CF91DF91A3
:102090000895DF93CF9300D00F92CDB7DEB7AC0198
:1020A00080910C02843029F583E08093E9002FEFC2
:1020B00095ED05C0892F8A95F1F7222329F08091AB
:1020C000E800215085FFF6CF8091E80085FF11C020
:1020D0005B834A8382E08983CE01019663E070E0EE
:1020E00040E050E00E9481138091E8008E77809359
:1020F000E8000F900F900F90CF91DF910895AC0101
:1021000080910C02843001F582E08093E9002FEF8A
:1021100095ED05C0892F8A95F1F7222329F080914A
:10212000E800215085FFF6CF8091E80085FF0CC0C4
:10213000CA0165E070E040E050E00E9481138091A8
:10214000E8008E778093E80008950F931F93182F6F
:10215000092F90910C02943009F04CC0809110012D
:102160008823E1F080911B018823C1F09093E9005E
:102170009FEF25E105C0822F8A95F1F7992329F079
:102180008091E800915085FFF6CF8091E80085FFAF
:1021900031C0812F902F60E170E018C081E0809302
:1021A000E9009FEF25ED05C0822F8A95F1F799236D
:1021B00029F08091E800915085FFF6CF8091E800EA
:1021C00085FF18C0812F902F68E070E040E050E05C
:1021D0000E9481138091E8008E778093E800ABE73E
:1021E000B1E0212F302FC901FC0180E101900D9257
:1021F0008150E1F71F910F91089584B7877F84BFC5
:1022000088E10FB6F89480936000109260000FBED2
:1022100080E090E020E80FB6F8942093610080936E
:1022200061000FBE0E94CD170E945F140E94C0146F
:102230008091E20084608093E20078940E945E17AF
:102240000E94691881E191E00E9474170E943B2A64
:102250000CC00E94182380910A02882331F00E944A
:102260004723882311F00E94961280910C0285303A
:1022700081F30E94D317F9CF80910B02882349F490
:102280000E945F140E94C0148091E20084608093D9
:10229000E200089580910E02833009F457C0843023
:1022A00030F4813071F0823009F0B1C098C08A30CA
:1022B00009F485C08B3009F46AC0893009F0A7C0E1
:1022C00020C080910D02813A09F0A1C08091E80000
:1022D000877F8093E8008091110290911202892BF0
:1022E00021F48BE791E060E103C080E090E060E0E2
:1022F00070E00E94AC128091E8008B778093E80038
:10230000089580910D02813209F081C080911102FF
:1023100090911202009719F0039709F078C080910C
:10232000E800877F8093E80005C080910C02882335
:1023300009F46DC08091E80082FFF7CF8091F10031
:1023400080937A018091E8008B771CC080910D0208
:10235000813A09F05CC08091110290911202892BA0
:1023600009F055C08091E800877F8093E800809154
:10237000E80080FFFCCF809110018093F1008091F4
:10238000E8008E778093E8000E940C1408958091F5
:102390000D028132E1F58091110290911202892B98
:1023A000B1F58091E800877F8093E8000E940C14CB
:1023B00080910F02809310010E94CF1808958091A0
:1023C0000D02813221F58091E800877F8093E8003B
:1023D0000E940C14809110028093790108958091DD
:1023E0000D02813AA1F48091E800877F8093E80094
:1023F0008091E80080FFFCCF809179018093F1000B
:102400008091E8008E778093E8000E940C14089574
:1024100081E061EC42E00E94D41382E061EC42E092
:102420000E94D41383E061EC42E00E94D41384E064
:1024300061EC42E10E94D41308950E9440230E945F
:10244000532A0E9479170E940B1008950E944D2A6A
:102450000895DA019330C1F0943030F4913051F0A6
:10246000923009F05BC00BC0913221F1923209F039
:1024700055C037C0E6E9F1E122E130E053C0E8EAB7
:10248000F1E12DE630E04EC0813051F0813020F096
:10249000823009F043C008C0E5E1F2E1849107C051
:1024A000E9E1F2E1849103C0E1E3F2E18491282FB4
:1024B00030E038C0613051F0613028F0623059F0BE
:1024C000633061F50BC0EAEBF1E102C0E3EDF1E14D
:1024D00029E030E027C0ECEEF1E1FACFE5E0F2E1EF
:1024E000F7CF613061F0613028F0623069F063301D
:1024F000A9F40FC0EBE9F0E12FE330E013C0EAEDFF
:10250000F0E12DE430E00EC0E7E2F1E126E330E057
:1025100009C0EDE5F1E129E330E004C0E0E0F0E0DE
:1025200020E030E0ED93FC93C901089580E189BD7E
:1025300082E189BD09B400FEFDCF8091D8008F7D76
:102540008093D8008091E00082608093E0008091C9
:10255000E00081FDFCCF08959C0140911302509151
:1025600014024617570718F4F90190E043C06115AB
:10257000710511F0AB01F8CF8091E8008E77809360
:10258000E80040E050E0F0CF80910C02882309F48D
:1025900047C0853009F446C08091E80083FD44C0FF
:1025A0008091E80082FD36C08091E80080FF22C063
:1025B0008091F3009091F200782F60E0292F30E0B5
:1025C000262B372B07C081918093F100415050405A
:1025D0002F5F3F4F4115510519F02830310598F311
:1025E00090E02830310509F491E08091E8008E7781
:1025F0008093E8004115510539F6992329F60AC060
:1026000080910C02882361F0853061F08091E800B0
:1026100083FD0AC08091E80082FFF2CF80E0089538
:1026200082E0089583E0089581E008959C0140913F
:102630001302509114024617570718F4F90190E05D
:1026400044C06115710511F0AB01F8CF8091E8002D
:102650008E778093E80040E050E0F0CF80910C024C
:10266000882309F448C0853009F447C08091E80008
:1026700083FD45C08091E80082FD37C08091E8006D
:1026800080FF23C08091F3009091F200782F60E0EA
:10269000292F30E0262B372B08C084918093F1003E
:1026A0003196415050402F5F3F4F4115510519F071
:1026B0002830310590F390E02830310509F491E09D
:1026C0008091E8008E778093E8004115510531F63E
:1026D000992321F60AC080910C02882361F085308D
:1026E00061F08091E80083FD0AC08091E80082FFDC
:1026F000F2CF80E0089582E0089583E0089581E0BC
:102700000895BF92CF92DF92EF92FF920F931F93A3
:10271000CF93DF93182F092F7B016A010E942D149C
:10272000B82E8823B1F5812F902F9C01E901C114A7
:10273000D10439F0F60180819181E81AF90AC80FB5
:10274000D91F00E010E022C08091E80085FD16C08E
:102750008091E8008E778093E800C114D10449F09D
:10276000F60180819181800F911F9183808385E0A4
:1027700011C00E942D14882349F00CC089918093C8
:10278000F1000894E108F1080F5F1F4FE114F10414
:10279000D9F68B2DDF91CF911F910F91FF90EF9084
:1027A000DF90CF90BF900895382F282F2EC0822F12
:1027B0008F708093E900231721F4762F942F50E037
:1027C00006C07091EC009091ED005091F00091FFE7
:1027D0001BC08091EB008E7F8093EB008091ED0019
:1027E0008D7F8093ED008091EB0081608093EB0002
:1027F0007093EC009093ED005093F0008091EE0008
:1028000087FD02C080E008952F5F273080F23F707F
:102810003093E90081E0089580910D0288239CF4B3
:1028200004C080910C028823B9F08091E80082FFF7
:10283000F8CF8091E8008B778093E800089580912D
:102840000C02882349F08091E80080FFF8CF809146
:10285000E8008E778093E80008954091E40050915D
:10286000E50024E68091EC0080FF24C08091E80020
:1028700080FD1EC080910C02882311F482E008952F
:10288000853011F483E008958091EB0085FF02C04C
:1028900081E008958091E4009091E5008417950708
:1028A00009F3222311F484E008952150AC01DACF1A
:1028B00080E008958091E80082FFDCCFF9CF0E948C
:1028C000D2140E94DA14E0EEF0E08081816080830F
:1028D000A8EDB0E08C918F778C9319BCE7EDF0E018
:1028E00080818E7F80838C918F7E8C9310920B02DF
:1028F0000895EF92FF920F931F930E94D2140E94AB
:10290000DA1408ED10E0F80180818F7780838081F0
:102910008068808380818F7D808319BC10920C0237
:102920001092080210920A021092090280EEE82E1C
:10293000F12CF70180818B7F8083F8018081816099
:10294000808380E060E042E00E94D413E1EEF0E09A
:1029500080818E7F8083E2EEF0E0808181608083E1
:10296000808188608083F70180818E7F8083F80179
:102970008081806180831F910F91FF90EF90089577
:10298000E8EDF0E080818F7E8083E7EDF0E08081EC
:102990008160808384E082BF81E080930B020E948B
:1029A00079140895E8EDF0E080818E7F80831092A5
:1029B000E20008951092DA001092E10008951F924B
:1029C0000F920FB60F9211241F932F933F934F93A3
:1029D0005F936F937F938F939F93AF93BF93EF9387
:1029E000FF931091E9008091EC001092E900809132
:1029F000F000877F8093F00078940E94ED1510928C
:102A0000E9008091F00088608093F0001F701093BF
:102A1000E900FF91EF91BF91AF919F918F917F91CD
:102A20006F915F914F913F912F911F910F900FBE2A
:102A30000F901F9018951F920F920FB60F921124AE
:102A40002F933F934F935F936F937F938F939F93B6
:102A5000AF93BF93EF93FF938091E10082FF0BC090
:102A60008091E20082FF07C08091E1008B7F80931C
:102A7000E1000E945D178091DA0080FF1FC0809105
:102A8000D80080FF1BC08091DA008E7F8093DA002F
:102A90008091D90080FF0DC080E189BD82E189BDB0
:102AA00009B400FEFDCF81E080930C020E943C112E
:102AB00005C019BC10920C020E940C108091E1001C
:102AC00080FF19C08091E20080FF15C08091E20074
:102AD0008E7F8093E2008091E20080618093E2002B
:102AE0008091D80080628093D80019BC85E08093E3
:102AF0000C020E9426128091E10084FF30C0809178
:102B0000E20084FF2CC080E189BD82E189BD09B467
:102B100000FEFDCF8091D8008F7D8093D8008091FA
:102B2000E1008F7E8093E1008091E2008F7E8093B0
:102B3000E2008091E20081608093E20080910802CF
:102B4000882311F084E007C08091E30087FD02C074
:102B500081E001C083E080930C020E941D128091ED
:102B6000E10083FF29C08091E20083FF25C08091AE
:102B7000E100877F8093E10082E080930C02109255
:102B800008028091E1008E7F8093E1008091E20055
:102B90008E7F8093E2008091E20080618093E2006A
:102BA00080E060E042E00E94D4138091F0008860F1
:102BB0008093F0000E940F10FF91EF91BF91AF91B1
:102BC0009F918F917F916F915F914F913F912F9145
:102BD0000F900FBE0F901F9018951F93DF93CF9308
:102BE000CDB7DEB7AC970FB6F894DEBF0FBECDBF42
:102BF000EDE0F2E08091F100819322E0E531F2070F
:102C0000C9F70E944A118091E80083FF3EC180917C
:102C10000D0230910E02353009F487C0363040F491
:102C20003130C9F1313070F0333009F02EC133C08A
:102C3000383009F4F9C0393009F409C1363009F0E7
:102C400024C197C0803821F0823809F01EC108C025
:102C50009091090280910A02882399F0926011C034
:102C6000809111028F708093E9008091EB0090E0D9
:102C700025E0969587952A95E1F7982F9170109207
:102C8000E9008091E800877F8093E8009093F1004D
:102C90001092F100D4C0882319F0823009F0F5C0F9
:102CA00090E08F719070009721F0029709F0EDC0CD
:102CB0000CC080910F02813009F0E7C010920A0227
:102CC000333069F580930A022AC080910F0288236D
:102CD00031F5209111022F7009F4D7C02093E9003B
:102CE0008091EB0080FF1BC0333021F48091EB001A
:102CF000806213C08091EB0080618093EB0081E0E3
:102D000090E002C0880F991F2A95E2F78093EA00AD
:102D10001092EA008091EB0088608093EB001092A3
:102D2000E9008091E800877F8DC0882309F0ADC05D
:102D300010910F021F778091E3008078812B8093A0
:102D4000E3008091E800877F8093E8000E940C14E4
:102D50008091E80080FFFCCF8091E3008068809341
:102D6000E300112311F482E001C083E080930C02A0
:102D70008CC08058823008F088C080910F029091FA
:102D8000100223E08C3D920709F034C083E08C836D
:102D90008AE28B837FB7F894DE0115966EE040E0FF
:102DA00050E011E2E62FF0E010935700849140FFCD
:102DB00003C082958F706F5F8F70282F30E08A304C
:102DC00018F0C901C79602C0C901C0968D939D93A2
:102DD0004F5F5F4F4431510529F77FBF8091E80075
:102DE000877F8093E800CE0103966AE270E00E943C
:102DF000AC1214C060911102AE014F5F5F4F0E9490
:102E00002912BC01009709F440C08091E800877F37
:102E10008093E80089819A810E9416138091E800CE
:102E20008B778093E80031C0803879F58091E80095
:102E3000877F8093E800809108028093F100809161
:102E4000E8008E778093E8000E940C141EC088234F
:102E5000E1F490910F029230C0F48091E800877FF6
:102E60008093E800909308020E940C14809108025D
:102E7000882331F48091E30087FD02C081E001C026
:102E800084E080930C020E9408128091E80083FF86
:102E90000AC08091E800877F8093E8008091EB0072
:102EA00080628093EB00AC960FB6F894DEBF0FBE45
:102EB000CDBFCF91DF911F91089508951F93809109
:102EC0000C02882379F01091E9008091EC001092B7
:102ED000E9008091E80083FF02C00E94ED151F7099
:102EE0001093E9001F9108959093900180938F01B2
:102EF0000895E0918F01F0919001309711F480E0F6
:102F000008950190F081E02D09950895E0918F01D9
:102F1000F0919001309721F00280F381E02D099526
:102F20000895E0918F01F0919001309721F0048095
:102F3000F581E02D099508959C0180918D01909176
:102F40008E012817390779F030938E0120938D0177
:102F5000E0918F01F0919001309729F00680F78180
:102F6000E02DC901099508959C0180918B019091F4
:102F70008C012817390779F030938C0120938B014D
:102F8000E0918F01F0919001309729F00084F18554
:102F9000E02DC9010995089508950E94CC17089560
:102FA0000E940B100895BF92CF92DF92EF92FF9292
:102FB0000F931F93DF93CF93CDB7DEB72A970FB64A
:102FC000F894DEBF0FBECDBF0E94F30CEE24FF24A9
:102FD000BE2C8E2D0E94A30CC82EF701EE56FE4F7C
:102FE000D080D82609F43FC08091F30181FF02C050
:102FF0000E94A90C00E010E0ED2DF0E0CF01002EC2
:1030000002C0959587950A94E2F780FF27C00E9439
:1030100065230983BA826C2D70E0002E02C075957D
:1030200067950A94E2F7617070706B8381609D838D
:103030008C83402F5B2D782F8D810E943E1CF701E1
:10304000EE56FE4F81E090E0002E02C0880F991FDF
:103050000A94E2F72081282720831DC00F5F1F4FAD
:103060000630110559F60894E11CF11C8EE0E816B3
:10307000F10409F0ADCF0E9465232FEF2E832F833B
:1030800018868160782F9A8789874FEF5FEF60E01D
:103090008A850E943E1C0E943A27109191010E944D
:1030A0007917181731F00E947917809391010E94C7
:1030B000D0172A960FB6F894DEBF0FBECDBFCF91C2
:1030C000DF911F910F91FF90EF90DF90CF90BF9015
:1030D00008950E945C230E94D20C0E94222408952D
:1030E000DF93CF9300D000D00F92CDB7DEB70F9013
:1030F0000F900F900F900F90CF91DF910895DF9375
:10310000CF9300D000D000D0CDB7DEB726960FB653
:10311000F894DEBF0FBECDBFCF91DF9108950E941E
:10312000B520482F892F82958F70282F30E02C30C2
:1031300031054CF42A3031056CF4225030402230F5
:103140003105C0F407C02C30310551F02F30310566
:1031500089F406C0403E10F0403F61F481E00895DC
:103160009F70892F90E023E0969587952A95E1F747
:103170008170089580E008950E948F220E945E224F
:103180000E94A7220E9423270E942F2780E090E020
:103190000E949C1780E090E00E94B41708950E945E
:1031A0007F220E94BC180895882321F00E94752276
:1031B0000E94A7220895882321F00E946F220E9476
:1031C000A7220895282F882309F44EC0823859F485
:1031D0000E94791781FF48C089E30E94EC210E9478
:1031E000A72289E30CC0833869F40E94791780FF15
:1031F0003BC083E50E94EC210E94A72283E50E9448
:103200002A221FC0843859F40E94791782FF2CC0EB
:1032100087E40E94EC210E94A72287E4F0CF84502B
:10322000813A10F4822FEBCF822F805E883060F4D9
:10323000277081E090E001C0880F2A95EAF70E948C
:1032400075220E94A7220895822F855A833028F480
:1032500080E090E00E949C170895285A233120F4C2
:1032600080E090E00E94B41708951F93182F8823E0
:1032700009F4D0C0823859F40E94791781FDCAC080
:1032800089E30E94EC210E94A72289E30CC08338C5
:1032900079F40E94791780FDBDC083E50E94EC217E
:1032A0000E94A72283E50E942A220E94A722B2C080
:1032B000843859F40E94791782FDACC087E40E94DB
:1032C000EC210E94A72287E4EECF8450813A50F48B
:1032D000812F0E946C29882309F09CC0812F0E94B5
:1032E000EC21E3CF812F805E883050F4177081E0AD
:1032F00090E001C0880F1A95EAF70E946F22D5CF9F
:10330000812F855A8330A0F4153A19F481E890E0B2
:103310000CC0163A19F482E890E007C0173A19F089
:1033200080E090E002C083E890E00E949C1772C0A9
:10333000812F885A833108F06DC0183A19F482EE53
:1033400090E066C0193A19F489EE90E061C01A3A2B
:1033500019F48AEE90E05CC01B3A19F485EB90E01A
:1033600057C01C3A19F486EB90E052C01B3B19F48D
:1033700083EB90E04DC01C3B19F484EB90E048C017
:103380001D3A19F487EB90E043C0103B19F48CEC24
:1033900090E03EC01E3A19F48DEC90E039C01F3A1F
:1033A00019F483E891E034C0113B19F48AE891E004
:1033B0002FC0123B19F482E991E02AC0133B19F4A3
:1033C00084E991E025C0143B19F481E292E020C029
:1033D000153B19F483E292E01BC0163B19F484E21A
:1033E00092E016C0173B19F485E292E011C0183B39
:1033F00019F486E292E00CC0193B19F487E292E0DE
:1034000007C01A3B19F080E090E002C08AE292E027
:103410000E94B4171F910895AF92BF92CF92DF928E
:10342000EF92FF920F931F93DF93CF93CDB7DEB749
:103430002A970FB6F894DEBF0FBECDBF5C01DE0148
:103440001196FC0185E001900D928150E1F70B810E
:10345000F501F580F2944FE0F422DE011696FE01AC
:10346000319685E001900D928150E1F73E812F81E8
:1034700089859A85892B09F4F0C12F3F09F0C0C1D5
:103480003F3F09F0BDC1E9C18D2D8F70222311F49A
:10349000182F03C0182F1295107F002349F0112315
:1034A00009F488C1812F0E9482220E94A72282C132
:1034B0008C2D0E94E218112309F4CFC1812F0E94A4
:1034C00088220E94A722C9C18D2D8F70203211F44D
:1034D000182F03C0182F1295107FCC2021F0F1E097
:1034E000CF1611F516C0002359F0FF2009F431C1A1
:1034F00021E0F21609F02DC1812F0E949222ADC168
:10350000FF2021F081E0F81609F4A7C10E9495225E
:1035100026C1002329F0E1E0EF1508F49EC119C18E
:10352000FF2009F09AC11BC1002321F0FF2009F4FC
:1035300010C140C1FF2009F412C147C18D2D8695ED
:103540008695837090E0009721F0019709F085C17E
:103550000AC0002319F0C601937002C080E090E019
:103560000E949C177AC1002319F0C601937002C013
:1035700080E090E00E94B41770C1002321F08C2DF0
:103580000E94312603C08C2D0E949B260E942F276B
:1035900064C18D2D837009F05EC0002309F05DC108
:1035A0002C2D229526952770220F220F8C2D8F709F
:1035B000E82EFF2400E010E0022E04C0EE0CFF1CF9
:1035C000001F111F0A94D2F7C4FC05C060E070E030
:1035D00080E090E00FC06FE070E080E090E004C019
:1035E000660F771F881F991F2A95D2F760957095EF
:1035F00080959095D694D694F3E0DF224D2D50E03F
:1036000041305105A9F0423051051CF4452B49F0D9
:1036100024C14230510589F04330510509F01DC1E4
:1036200013C06E297F29802B912B0E94C72115C1C1
:103630006E297F29802B912B0BC06E297F29802B2F
:10364000912B0E94B62109C10E94C721C801B70170
:103650000E94D82102C190E0002311F4969587952D
:10366000817009F4FAC02C2D229526952770220F1F
:10367000220F8C2D8F70E82EFF2400E010E0022E28
:1036800004C0EE0CFF1C001F111F0A94D2F7C4FCEB
:1036900005C060E070E080E090E00FC06FE070E097
:1036A00080E090E004C0660F771F881F991F2A955D
:1036B000D2F76095709580959095D694D69423E036
:1036C000D2224D2D50E041305105A9F04230510534
:1036D0001CF4452B49F0C1C04230510589F04330FC
:1036E000510509F0BAC013C06E297F29802B912B98
:1036F0000E941A21B2C06E297F29802B912B0BC00A
:103700006E297F29802B912B0E940921A6C00E943F
:103710001A21C801B7010E942B219FC080EFC81653
:1037200011F18C1528F0E0EECE1608F43FC009C068
:10373000F2EFCF1661F1CF1628F123EFC216B1F5E3
:103740002BC01C2D1F708D2D8F71002331F00E9416
:103750007821812F0E94DB1880C00E945821812F80
:103760000E94D4187AC0002321F0FF2009F075C010
:1037700004C081E08F1508F470C08D2D8F710E94F8
:103780003C216BC08D2D8F71002329F119C08D2D27
:103790008F710023A9F01FC0002329F08D2D8F7198
:1037A0000E9494215AC00E94A42157C0002359F0BE
:1037B000FF2021F08C2D0E9435194FC08D2D8F7167
:1037C0000E9478214AC0FF2021F08C2D0E94E2182F
:1037D00044C08D2D8F710E9458213FC0EFE0DE2242
:1037E000C5016C2D4D2D0E94660A0E943A2035C0FD
:1037F000FFE0DF22C5016C2D4D2D0E94F20D2DC082
:1038000089819A810E94B5206C010E94B4200E9497
:10381000B3208D2D82958F7090E08530910509F44D
:10382000ACCE8630910554F4843091050CF086CEF0
:103830002D2D207F02970CF047CE26CE8C3091059F
:103840003CF48A3091050CF069CF089731F4A1CE91
:103850008C30910519F20F9759F22A960FB6F89409
:10386000DEBF0FBECDBFCF91DF911F910F91FF90B3
:10387000EF90DF90CF90BF90AF900895DF93CF93FC
:10388000CDB7DEB72B970FB6F894DEBF0FBECDBF16
:10389000342F4F83252F588769877A878B87472F47
:1038A000582FFE01319686E0DF011D928A95E9F7D7
:1038B0006B8339832A834C835D83432F522F8D8101
:1038C0009E810E947B1F2B960FB6F894DEBF0FBE21
:1038D000CDBFCF91DF9108950F931F930091A70162
:1038E00015C010E0F801EE0FFF1FE00FF11FEE0F03
:1038F000FF1FE855FE4F40815181628173818481B1
:1039000095810E947F180F5F1F4F07708091A6015D
:10391000081739F71F910F9108954091A001509118
:10392000A1016091A2017091A3018091A4019091E5
:10393000A5010E947F1808950F931F93CF93DF93E3
:103940008091A50182958F7009F06DC08091A201D0
:10395000882309F468C06091A7010091A6014091F5
:10396000A3015091A4011091A1017091A001EA015D
:10397000C095D09555C04115510509F44FC01F3F62
:1039800049F480E090E07F3F11F481E090E08823EB
:1039900009F044C0262F30E0F901EE0FFF1FE20FBF
:1039A000F31FDF01AA0FBB1FA855BE4F11968C91C4
:1039B0001197181799F58C91781781F5EE0FFF1F65
:1039C000E655FE4F8081882349F513968D919C9191
:1039D00014978417950718F0841B950B02C08C0F61
:1039E0009D1F883C9105D0F48091A5018F70806166
:1039F0008093A501F901EE0FFF1FE20FF31FEE0FF9
:103A0000FF1FE355FE4F80818F708061808380EAC5
:103A100091E00E940C1A0E946C1C05C06F5F6770D9
:103A2000601709F0A8CFDF91CF911F910F910895F2
:103A3000DF92EF92FF920F931F93DF93CF93CDB757
:103A4000DEB76B970FB6F894DEBF0FBECDBF8C010B
:103A5000DC011296DC9012974C9111965C911197B3
:103A60001396ED90FC9014972091A3013091A4013E
:103A70006091A1017091A0012115310509F4DBC10C
:103A80006F3F09F003C27F3F09F000C2D4C1E216C4
:103A9000F30640F0C701821B930B883C910508F0A8
:103AA000EEC008C0209530952E0D3F1D283C3105F5
:103AB00008F0E5C08091A501807F09F095C06F3FB7
:103AC00009F0EAC17F3F09F0E7C115C0741799F406
:103AD000DD2089F48091A5018F7080618093A5011C
:103AE0000E948D1C80EA91E00E940C1A8091A50131
:103AF000F8018583BCC1FD82EC825A834983DB8255
:103B0000DE011696FE01319685E001900D928150FE
:103B1000E1F76885DE011B96FE01369685E001908F
:103B20000D928150E1F72C853B858E859F85892BF1
:103B300009F451C02F3F09F0B3C13F3F09F0B0C1B4
:103B40004AC0FD82EC825A834983DB82DE011B96E8
:103B5000FE01319685E001900D928150E1F7FC84E1
:103B60007B856D858091A7019091A6011FC0282FAC
:103B700030E0F901EE0FFF1FE20FF31FDF01AA0F84
:103B8000BB1FA855BE4F11968C911197F81651F492
:103B90008C91781739F4EE0FFF1FE655FE4F8081A8
:103BA0006817C9F42F5F3F4F822F87708917F9F686
:103BB0008DC19F7059F0442349F459C19F7031F071
:103BC000D80115968C91807F09F451C1405E483030
:103BD00008F44DC148C1DD2009F449C18091A50117
:103BE00081608093A50143C16F3F09F05DC17F3FB4
:103BF00009F05AC114C0741791F4DD2081F480914A
:103C0000A501F8018583C8010E940C1AA0EAB1E061
:103C1000F80186E001900D928150E1F720C15A83AE
:103C2000498389819A810E948F18882309F41BC1D6
:103C3000DD2009F418C13091A501832F82958F7082
:103C400090E002979CF09091A1012091A001FE01CB
:103C5000709686E0DF011D928A95E9F7998B288B93
:103C6000FC8AEB8A3D8BCF010E940C1AA0EAB1E0DE
:103C7000F80186E001900D928150E1F7EEC080914D
:103C8000A501807FA9F47E2DFD82EC825A834983B1
:103C9000DB826D2D8D810E94701800EA11E0C80151
:103CA0000E940C1A86E0F80111928A95E9F7C0C0CB
:103CB0006F3F09F0FDC07F3F09F0FAC014C07417D0
:103CC00091F4DD2081F48091A501D80115968C93A3
:103CD000C8010E940C1AE0EAF1E086E0DF011D92C3
:103CE0008A95E9F7BEC05A83498389819A810E94E7
:103CF0008F18882309F4B7C0DD2009F4B4C03091CF
:103D0000A501832F82958F7090E002979CF090918F
:103D1000A1012091A001FE01769686E0DF011D92AF
:103D20008A95E9F79F8B2E8BFA8EE98E3B8FCF0118
:103D30000E940C1AA0EAB1E0F80186E001900D9211
:103D40008150E1F78AC06F3F09F0B6C07F3F09F0AC
:103D5000B3C071C0E216F30640F0C701821B930B9B
:103D6000883C910508F053C008C0209530952E0D71
:103D70003F1D283C310508F04AC0DD2009F473C01E
:103D80006F3F09F09FC07F3F09F09CC029C07417A6
:103D900039F59091A50190FD1AC0892F82958F70F9
:103DA000B1F0F80195838F3031F08F5F8295807F7D
:103DB0009F70982B9583C8010E940C1AA0EAB1E06D
:103DC000F80186E001900D928150E1F748C0A0EA29
:103DD000B1E0F80186E001900D928150E1F741C019
:103DE0005A83498389819A810E948F18882349F0D8
:103DF000A0EAB1E0F80186E001900D928150E1F770
:103E00002CC08091A50181608093A5012CC07E2DDE
:103E1000FD82EC825A834983DB826D2D8D810E9465
:103E20007018E0EAF1E086E0DF011D928A95E9F77B
:103E30000E948D1C1CC0DD20B1F05A83498389810A
:103E40009A810E948F18882371F0A0EAB1E0F801EE
:103E500086E001900D928150E1F70E949C1C0E9427
:103E60008D1C81E005C0C8010E940C1AFACF80E0C9
:103E70006B960FB6F894DEBF0FBECDBFCF91DF912A
:103E80001F910F91FF90EF90DF9008958091A20114
:103E9000882309F458CFFBCD651709F02CCE16CE38
:103EA000613009F498CE4DCE651709F0B8CEA3CE97
:103EB000651709F018CF03CF8091A201882309F07C
:103EC000BACF48CF651709F08BCF61CF5A834983AA
:103ED00089819A810E94B520482F892F82958F7001
:103EE000282F30E0223031050CF463CE2430310528
:103EF0000CF0B9CF63CE0F931F93DF93CF93CDB761
:103F0000DEB72C970FB6F894DEBF0FBECDBF4F8340
:103F1000588769877A878B879C878E01095F1F4F37
:103F2000C8010E94181D8823D9F028853F818A8501
:103F30009B85892B09F46BC02F3F49F480E090E00A
:103F40003F3F11F481E090E0882309F060C04F8189
:103F5000588569857A858B859C850E947F1857C016
:103F6000DE011196F80186E001900D928150E1F793
:103F7000F981EA814C815D814115510509F447C001
:103F8000EF3F09F04CC0FF3F09F049C040C0F98342
:103F9000EA835D834C83F901EE0FFF1FE20FF31FED
:103FA000EE0FFF1FE855FE4FDE01119686E00D90E3
:103FB00001928150E1F76093A6010E946C1C27C01A
:103FC000919FC001112488559E4F0E94181D88237F
:103FD00009F445C08091A70190E0FC01EE0FFF1F9E
:103FE000E80FF91FEE0FFF1FE855FE4F408151818A
:103FF00062817381848195810E947F188091A701DD
:1040000090E00196877090708093A70101C016E040
:104010009091A7018091A601981791F620C08091F8
:10402000A601282F30E02F5F3F4FB90167707070F5
:10403000215030408091A70190E06817790709F07E
:10404000A6CF0E94CF181092A6011092A701E0EA15
:10405000F1E086E0DF011D928A95E9F7D8CF2C9632
:104060000FB6F894DEBF0FBECDBFCF91DF911F9189
:104070000F910895CF92DF92EF92FF921F93CF930B
:10408000DF93EC01009709F466C010E090EAC92EB6
:104090009FE0D92E81E0E82EF12CFE01219694912B
:1040A000943748F4943008F044C0913079F092305D
:1040B00009F051C01BC0953709F437C0953750F14E
:1040C000892F8458803708F046C037C0FE012196FA
:1040D0009491892F805E883060F597708E2D01C095
:1040E000880F9A95EAF70E9482220FC0FE0121965E
:1040F0009491892F805E883058F497708E2D01C07E
:10410000880F9A95EAF70E9488220E94A72219C078
:10411000892F15C0FE01249104C0C6010197F1F753
:1041200021502223D1F721960CC0FE012196149133
:1041300008C0892F0E94351904C0892F8F770E94EB
:10414000E218212F04C0C6010197F1F72150222364
:1041500009F4A3CFF8CFDF91CF911F91FF90EF909B
:10416000DF90CF90089508950895CF92DF92EF9257
:10417000FF920F931F93CF93DF936C01E090D801D0
:10418000F090D9010091DA011091DB018091DC01FE
:104190009091DD01A091DE01B091DF01E82AF92ABA
:1041A0000A2B1B2BCFE1D0E0D801C7010C2E04C095
:1041B000B695A795979587950A94D2F781709070D8
:1041C000892B41F08C2FB6010E94CA0E9C018130D0
:1041D000910551F421978FEFCF3FD80729F780E061
:1041E000B6010E94CA0E9C01822FDF91CF911F91D0
:1041F0000F91FF90EF90DF90CF9008956093DC01D6
:104200007093DD018093DE019093DF010E94BC1862
:1042100008959B01AC016091DC017091DD018091FA
:10422000DE019091DF0162277327842795270E9482
:10423000FE2008959B01AC016091DC017091DD01CD
:104240008091DE019091DF01622373238423952303
:104250000E94FE2008959B01AC016091DC017091E9
:10426000DD018091DE019091DF01622B732B842BA5
:10427000952B0E94FE20089521E030E040E050E0C0
:1042800004C0220F331F441F551F8A95D2F7809117
:10429000DC019091DD01A091DE01B091DF012827C2
:1042A00039274A275B27CA01B9010E94FE200895D9
:1042B00021E030E040E050E004C0220F331F441FF3
:1042C000551F8A95D2F7209530954095509580914D
:1042D000DC019091DD01A091DE01B091DF01282386
:1042E00039234A235B23CA01B9010E94FE200895A5
:1042F00021E030E040E050E004C0220F331F441FB3
:10430000551F8A95D2F78091DC019091DD01A09133
:10431000DE01B091DF01282B392B4A2B5B2BCA0120
:10432000B9010E94FE20089521E030E040E050E015
:1043300004C0220F331F441F551F8A95D2F7CA01AC
:10434000B9010E94FE20089560E070E080E090E0F6
:104350000E94FE2008956093D8017093D901809344
:10436000DA019093DB010E94BC1808959B01AC0117
:104370006091D8017091D9018091DA019091DB01AF
:1043800062277327842795270E94AB2108959B01FC
:10439000AC016091D8017091D9018091DA019091BE
:1043A000DB0162237323842395230E94AB210895AC
:1043B0009B01AC016091D8017091D9018091DA0123
:1043C0009091DB01622B732B842B952B0E94AB21E8
:1043D00008950E94AB210895382F80911001882301
:1043E000E1F080911B018823C1F0832F869586958B
:1043F00086958F3070F5E0911C01F0911D01E80F5A
:10440000F11D377081E090E002C0880F991F3A9546
:10441000E2F72181282B21830895A0911C01B091FE
:104420001D01FD0120E08FEF9281931791F08F3FE6
:1044300019F4992309F4822F2F5F31962E30A1F7BA
:104440008F3F39F0992787FD9095A80FB91F1296D5
:104450003C930895482F809110018823E9F08091C2
:104460001B018823C9F0842F8695869586958F3009
:1044700020F5E0911C01F0911D01E80FF11D47703E
:1044800081E090E002C0880F991F4A95E2F780957D
:10449000218182238183089520E030E0E0911C0196
:1044A000F0911D01E20FF31F8281841709F412823B
:1044B0002F5F3F4F2E30310589F7089581E090E05E
:1044C000E0911C01F0911D01E80FF91F1082019687
:1044D00080319105A9F708958091F0010895909198
:1044E000F001982B9093F001089580959091F00140
:1044F00098239093F00108958093F001089510920D
:10450000F00108959091F201982B9093F201089593
:1045100080959091F20198239093F2010895109262
:10452000F20108958093F10108951092F101089528
:10453000E0911C01F0911D0120E091E08181811149
:104540002F5F9F5F31969031C9F7822F0895E091D8
:104550001C01F0911D018091F0018083E0911C010C
:10456000F0911D0180819091F201892B80839091BF
:10457000F101992369F0E0911C01F0911D01808106
:10458000892B80830E949822882311F00E94952213
:1045900080911C0190911D010E94861708959B0136
:1045A000AC01AA27BB270097A105B10521F4DA01C8
:1045B000C90160E001C060E1292F3A2F4B2F552738
:1045C000211531054105510519F49C01AD0101C0CA
:1045D000685FDA01C90174E0B695A795979587954C
:1045E0007A95D1F70097A105B10519F4DA01C9014F
:1045F00001C06C5F9C01AD01F2E05695479537957F
:104600002795FA95D1F7211531054105510519F482
:104610009C01AD0101C06E5F569547953795279572
:10462000211531054105510509F06F5F862F089569
:1046300080910C02843009F11092F40120E488E1A9
:1046400090E00FB6F894A895809360000FBE209379
:10465000600083B7817F846083BF83B7816083BF3D
:104660007894889583B78E7F83BF88E10FB6F894DE
:1046700080936000109260000FBE08950895089521
:104680000E94CF180E9479170E940B1008951F9363
:104690000E943E230E94F30C0E943F2310E0812FD2
:1046A0000E94A30C882311F081E004C01F5F1E301C
:1046B000B1F780E01F91089582E084BD93E095BD3D
:1046C0009AEF97BD80936E0008958FB7F89420916C
:1046D000F5013091F6014091F7015091F8018FBF3B
:1046E000C9010895EF92FF920F931F93BC018FB7FA
:1046F000F894E090F501F090F6010091F701109127
:10470000F8018FBFA801970140705070CB01A0E065
:10471000B0E0281739074A075B0720F09701261BEE
:10472000370B05C09B01209530952E0D3F1DC9010B
:104730001F910F91FF90EF9008951F920F920FB667
:104740000F9211248F939F93AF93BF938091F501A4
:104750009091F601A091F701B091F8010196A11D89
:10476000B11D8093F5019093F601A093F701B093EA
:10477000F801BF91AF919F918F910F900FBE0F9055
:104780001F9018950E945F14F89480E29EE420E93F
:1047900031E0F9013197F1F70197D9F787E090EB14
:1047A000A7E0B0EB8093150290931602A093170236
:1047B000B09318022CE088E190E00FB6F894A89529
:1047C000809360000FBE20936000FFCFEF92FF92B6
:1047D0000F931F93CF93DF93082F10E0812F0E9438
:1047E000A30CC0E0D0E0E82EFF24C7010C2E02C0CD
:1047F000959587950A94E2F780FF09C080E06C2FB9
:10480000712F0E94A20E081711F481E008C02196B2
:10481000C630D10551F71F5F1E3001F780E0DF91F0
:10482000CF911F910F91FF90EF9008951F93182F34
:104830008CE20E94E623882319F0812F0E94E62350
:104840001F9108951F93CF93DF930E949025882393
:1048500011F40E949B2514E6C0E4DCE905C00E9427
:10486000F30CCE010197F1F71150C8F789E20E94CD
:104870001624882309F02FC18AE20E941624882377
:1048800011F00E949B2585E00E941624882311F0D8
:104890000E94C2230E948B258093F30187E00E942F
:1048A00016248823B9F18BE10E941624882349F04D
:1048B0009091F301892F869580958170880F9D7F57
:1048C00026C08EE00E941624882359F09091F301AF
:1048D000892F8695869580958170880F880F9B7F9C
:1048E00016C080E10E9416249091F301882359F0AC
:1048F000892F86958695869580958170880F880F7B
:10490000880F977F04C0892F809581709E7F982B98
:104910009093F3018091F3010E947B250E948125F1
:104920008093060280EE0E941624882349F080912D
:104930000602982F909591708E7F892B80930602A6
:1049400089E30E941624882359F090910602892F4A
:10495000869580958170880F9D7F982B9093060295
:1049600082EE0E941624882369F090910602892F16
:104970008695869580958170880F880F9B7F982BF0
:104980009093060286EE0E941624882379F0909177
:104990000602892F86958695869580958170880F69
:1049A000880F880F977F982B9093060283EE0E94C2
:1049B0001624882369F090910602892F82958F70C2
:1049C000809581708295807F9F7E982B90930602C0
:1049D00085E30E941624882379F090910602892F9E
:1049E000829586958770809581708295880F807EEC
:1049F0009F7D982B9093060281E30E9416248823C2
:104A000089F090910602892F82958695869583700C
:104A1000809581708295880F880F807C9F7B982B72
:104A20009093060281E10E941624882379F08091F8
:104A30000602982F991F9927991F21E09227979591
:104A4000992797958F77892B80930602809106028C
:104A50000E946F2580910602881F8827881F8093F7
:104A60001B0187E20E941624182F8EE10E94162453
:104A7000811112608FE10E9416248111146080E27E
:104A80000E9416248111186081E20E94162481116F
:104A9000106182E20E9416248111106283E20E945A
:104AA00016248111106484E20E941624811110687A
:104AB000112341F0812F0E947525612F70E080E065
:104AC00090E007C00E94862590E0A0E0B0E0BC0125
:104AD000CD010E94E921DF91CF911F910895682FA8
:104AE00084E090E00E94F62B0895682F83E090E028
:104AF0000E94F62B0895682F82E090E00E94F62B2A
:104B0000089584E090E00E94E82B089583E090E00F
:104B10000E94E82B089582E090E00E94E82B08951F
:104B200080E090E00E94F02B20E08D5E9E4F09F423
:104B300021E0822F089580E090E06DEE7EEF0E94EC
:104B4000042C82E090E060E00E94F62B83E090E08D
:104B500060E00E94F62B84E090E060E00E94F62B7B
:104B600085E090E060E00E94F62B08958091FF01BF
:104B700080FF0BC09091200185E0989FC001112417
:104B8000959587959595879530C081FF09C090913F
:104B9000200185E0989FC00111249595879525C037
:104BA00082FF03C0909120010DC08091FE018823F7
:104BB00019F485E090E00895609121019091200121
:104BC000861728F085E0989FC00111240EC0899FA8
:104BD00090011124C901880F991F880F991F820F16
:104BE000931F70E00E94D52BCB018038910510F007
:104BF0008FE70895009709F481E008958091FF01FF
:104C000080FF05C0809122018695869518C081FF9E
:104C100004C080912201869512C082FF03C080915A
:104C200022010DC02091FE01222319F481E090E0C1
:104C300008956091230180912201261710F090E0E1
:104C400007C0289FC001112470E00E94D52BCB0122
:104C50008038910510F08FE70895009709F481E0FE
:104C60000895803F21F40E94B625819504C0813FBC
:104C700029F40E94B6258093FB010895823F21F418
:104C80000E94B625819504C0833F29F40E94B62571
:104C90008093FA010895893F19F40E94FE2505C00A
:104CA0008A3F31F40E94FE2581958093FC0108958E
:104CB0008B3F21F40E94FE25819504C08C3F29F48E
:104CC0000E94FE258093FD010895843F21F4809188
:104CD000F901816017C0853F21F48091F90182605C
:104CE00011C0863F21F48091F90184600BC0873F99
:104CF00021F48091F901886005C0883F31F48091EA
:104D0000F90180618093F90108958D3F21F480912C
:104D1000FF01816005C08E3F31F48091FF01826008
:104D20008093FF0108958F3F29F48091FF018460F3
:104D30008093FF010895803F29F48091FB0187FF54
:104D40006FC007C0813F41F48091FB0118160CF041
:104D500067C01092FB0164C0823F29F48091FA0180
:104D600087FF5EC007C0833F41F48091FA011816A7
:104D70000CF056C01092FA0153C0893F29F480917B
:104D8000FC0118163CF04CC08A3F39F48091FC01BC
:104D900087FF46C01092FC0143C08B3F29F48091ED
:104DA000FD0187FF3DC006C08C3F39F48091FD01B5
:104DB0001816B4F51092FD0133C0843F21F48091A0
:104DC000F9018E7F05C0853F31F48091F9018D7F17
:104DD0008093F90125C0863F21F48091F9018B7FF2
:104DE000F7CF873F21F48091F901877FF1CF883F8A
:104DF00021F48091F9018F7EEBCF8D3F21F48091DA
:104E0000FF018E7F0BC08E3F21F48091FF018D7FCB
:104E100005C08F3F29F48091FF018B7F8093FF01B4
:104E20008091FA01882371F48091FB01882351F469
:104E30008091FC01882331F48091FD01882311F4D5
:104E40001092FE010895E9EFF1E085E0DF011D9287
:104E50008A95E9F71092FE011092FF01089589EFFB
:104E600091E00E9491170E94652390930102809324
:104E7000000208951F9380910002909101020E9408
:104E80007223AC012091FE01222321F080911F01A9
:104E900090E006C090911E018AE0989FC001112405
:104EA0004817590708F485C09091FA01992369F4CD
:104EB0008091FB01882349F48091FC01882329F427
:104EC0008091FD01882309F474C02F3F19F02F5FF2
:104ED0002093FE01191624F40E94B6258093FA014E
:104EE0008091FA0187FF05C00E94B62581958093C5
:104EF000FA018091FB01181624F40E94B6258093D4
:104F0000FB018091FB0187FF05C00E94B6258195BA
:104F10008093FB016091FA01662339F11091FB0146
:104F2000112319F1772767FD7095872F972F0E941E
:104F3000D22A23E333E343E35FE30E94362B0E944C
:104F40009F2A6093FA01612F772767FD7095872F5D
:104F5000972F0E94D22A23E333E343E35FE30E94C7
:104F6000362B0E949F2A6093FB018091FC0118164A
:104F700024F40E94FE258093FC018091FC0187FFB0
:104F800005C00E94FE2581958093FC018091FD0162
:104F9000181624F40E94FE258093FD018091FD01E6
:104FA00087FF05C00E94FE2581958093FD010E9428
:104FB0002F271F91089580E0089580E008958330A1
:104FC00099F1843030F4813069F0823009F06FC09B
:104FD0001AC0853009F44AC08530B8F1863009F02E
:104FE00066C055C020911E01822F90E0860F911D52
:104FF0008F3F910520F4260F20931E0108958FEF17
:1050000080931E01089520911F01822F90E0860F4A
:10501000911D8F3F910520F4260F20931F010895C5
:105020008FEF80931F01089520912001822F90E03F
:10503000860F911D8F3F910520F4260F20932001AC
:1050400008958FEF80932001089520912101822FF0
:1050500090E0860F911D8F3F910520F4260F20933D
:10506000210108958FEF809321010895209122015D
:10507000822F90E0860F911D8F3F910520F4260F1F
:105080002093220108958FEF8093220108952091AB
:105090002301822F90E0860F911D8F3F910520F410
:1050A000260F2093230108958FEF80932301089505
:1050B000833031F1843030F4813061F0823009F096
:1050C0004AC013C0853091F1853028F1863009F04F
:1050D00042C037C080911E01681720F4861B809360
:1050E0001E01089510921E01089580911F016817F6
:1050F00020F4861B80931F01089510921F010895CC
:1051000080912001681720F4861B80932001089568
:1051100010922001089580912101681720F4861BC8
:105120008093210108951092210108958091220118
:10513000681720F4861B80932201089510922201A3
:10514000089580912301681720F4861B8093230122
:10515000089510922301089521E030E040E050E0EE
:1051600004C0220F331F441F551F8A95D2F7CA016E
:10517000B9010E94E9210E94CF1808958D3109F4E8
:1051800042C08E3118F58E3009F470C08F3068F44B
:10519000873009F45BC0883018F4863091F53FC041
:1051A0008830C1F18B3069F595C0863109F492C021
:1051B000873130F4803109F465C0813111F578C050
:1051C000893109F487C08B31E1F446C0853309F495
:1051D00078C0863348F4873209F473C0873208F404
:1051E00072C0893271F46DC0833430F48A3308F0B0
:1051F0006CC0883331F46EC0833409F462C08834E3
:10520000B9F080E008950E94592A0E9479170E94FF
:105210000B105EC00E948B250E94812559C0809191
:10522000F301807F8093F30181E08093020208956F
:105230000E94CF1880E197E220E931E0F90131972F
:10524000F1F70197D9F70E94C22342C08091F30180
:1052500080FF2AC0807F29C08091F301982F969506
:1052600090959170292F220F8D7F19C08091F301A5
:10527000982F9695969590959170292F220F220F31
:105280008B7F0DC08091F301982F969596959695FA
:1052900090959170292F220F220F220F877F822B4A
:1052A0008093F3019923B1F081608093F30110C0E2
:1052B0000E94CF1880911B0191E0892780931B01E8
:1052C00007C080E003C08D5101C089530E94AC2803
:1052D00081E0089581E008951F93182F80910202C4
:1052E000813089F0813020F0823009F0BFC03BC0AE
:1052F000E0911C01F0911D01E081E13169F0E232A1
:1053000009F0B6C009C0E0911C01F0911D01E081D7
:10531000E13111F0E23249F4812F0E94DB2788232A
:10532000F9F4812F0E94BE28A4C0812F0E94DD279E
:105330008823B1F4143161F0153128F41B3081F069
:10534000103141F40AC0193219F0183319F408C0A9
:105350001092020280E090E08CC082E08093020212
:1053600081E090E086C0193201F11A3270F41431F4
:10537000E1F0153120F4173009F064C065C0812FC9
:105380008E51863008F05EC01BC01E3409F455C033
:105390001F3420F41B3409F055C049C0113509F4FD
:1053A00042C0123509F04EC03AC0809103028823F2
:1053B00019F01092030246C081E08093020259C0A6
:1053C0001232F9F0133260F41F3199F0103218F4F0
:1053D0001E3109F510C0103281F01132E1F40FC016
:1053E000143299F0143278F0153289F0163299F4AB
:1053F00010C082E011C081E00FC083E00DC084E0E6
:105400000BC085E009C086E007C087E005C088E0E2
:1054100003C089E001C080E08093030213C0809143
:10542000030261E007C08091030261E009C080913E
:1054300003026AE00E94DF2705C0809103026AE050
:105440000E94582881E015C09AE090931E0184E1E3
:1054500080931F0183E0809320019093210188E0D5
:105460008093220188E280932301ECCF1092020204
:1054700080E01F910895E1E8F0E0808188608083FA
:105480008081816080839FB7F89483E08093890056
:1054900080ED809388009FBF0895EFE6F0E0808163
:1054A000826080830895EFE6F0E080818D7F8083C5
:1054B0000895EFE6F0E0808192E0892780830895E7
:1054C0001F920F920FB60F9211242F933F934F9379
:1054D0005F936F937F938F939F93AF93BF93EF935C
:1054E000FF9380910402909105020196909305022A
:1054F00080930402882319F482E00E940B10E0914B
:105500000502E695E695F0E0E75BFD4EE4918091BB
:1055100004028E1719F480E00E940B10FF91EF91A6
:10552000BF91AF919F918F917F916F915F914F91BB
:105530003F912F910F900FBE0F901F90189504D0A0
:105540006894B1118DC0089570D088F09F5790F085
:10555000B92F9927B751A0F0D1F0660F771F881F98
:10556000991F1AF0BA95C9F712C0B13081F077D0FF
:10557000B1E0089574C0672F782F8827B85F39F09D
:10558000B93FCCF3869577956795B395D9F73EF4F7
:1055900090958095709561957F4F8F4F9F4F08959F
:1055A000E89409C097FB3EF49095809570956195BD
:1055B0007F4F8F4F9F4F9923A9F0F92F96E9BB2773
:1055C0009395F695879577956795B795F111F8CFEF
:1055D000FAF4BB0F11F460FF1BC06F5F7F4F8F4F5A
:1055E0009F4F16C0882311F096E911C0772321F050
:1055F0009EE8872F762F05C0662371F096E8862FE8
:1056000070E060E02AF09A95660F771F881FDAF73E
:10561000880F9695879597F9089557FD9058440FF0
:10562000551F59F05F3F71F04795880F97FB991F01
:1056300061F09F3F79F087950895121613061406BE
:10564000551FF2CF4695F1DF08C01616170618064B
:10565000991FF1CF86957105610508940895E89426
:10566000BB2766277727CB0197F908950BD078C021
:1056700069D028F06ED018F0952309F05AC05FC0A9
:105680001124EECFCADFA0F3959FD1F3950F50E020
:10569000551F629FF001729FBB27F00DB11D639FE4
:1056A000AA27F00DB11DAA1F649F6627B00DA11D8A
:1056B000661F829F2227B00DA11D621F739FB00D30
:1056C000A11D621F839FA00D611D221F749F3327A0
:1056D000A00D611D231F849F600D211D822F762F39
:1056E0006A2F11249F5750408AF0E1F088234AF036
:1056F000EE0FFF1FBB1F661F771F881F9150504082
:10570000A9F79E3F510570F014C0AACF5F3FECF39C
:10571000983EDCF3869577956795B795F795E7956D
:105720009F5FC1F7FE2B880F911D9695879597F97E
:10573000089597F99F6780E870E060E008959FEF13
:1057400080EC089500240A94161617061806090618
:10575000089500240A9412161306140605060895E7
:10576000092E0394000C11F4882352F0BB0F40F46F
:10577000BF2B11F460FF04C06F5F7F4F8F4F9F4FAF
:105780000895AA1BBB1B51E107C0AA1FBB1FA61788
:10579000B70710F0A61BB70B881F991F5A95A9F7DA
:1057A00080959095BC01CD01089597FB092E0726A1
:1057B0000AD077FD04D0E5DF06D000201AF47095FA
:1057C00061957F4F0895F6F7909581959F4F0895C5
:1057D000F999FECF92BD81BDF89A992780B50895B9
:1057E000A8E1B0E042E050E00C940B2C262FF99990
:1057F000FECF1FBA92BD81BD20BD0FB6F894FA9AB4
:10580000F99A0FBE019608950E94F62B272F0C944B
:10581000F72BDC01CB01FC01F999FECF06C0F2BDEC
:10582000E1BDF89A319600B40D9241505040B8F75E
:065830000895F894FFCF7B
:1058360000000000AC00AC05FC05FC0A100B2002C1
:10584600011010A5107F104910131001E0010A1471
:10585600030A0828001600080C141437000000007C
:10586600000000241400000000000064022314005D
:105876000026141F1400000000200064002500000C
:00000001FF
