:100000000C946F0D0C94B30D0C94B30D0C94B30DB4
:100010000C94B30D0C94B30D0C94B30D0C94B30D60
:100020000C94B30D0C94B30D0C943A1A0C94FE1965
:100030000C94B30D0C94B30D0C94B30D0C94B30D40
:100040000C94B30D0C94D32F0C94B30D0C94B30DEE
:100050000C94B30D0C9407290C94B30D0C94B30DB0
:100060000C94B30D0C94B30D0C94B30D0C94B30D10
:100070000C94B30D0C94B30D0C94B30D0C94B30D00
:100080000C94B30D0C94B30D0C94B30D0C94B30DF0
:100090000C94B30D0C94B30D0C94B30D0C94B30DE0
:1000A0000C94B30D0C94B30D0C94B30D0000000030
:1000B00000140000000016000000001416000000EC
:1000C00006000000001406000000160600000014E0
:1000D0001606000017000000001417000000161795
:1000E00000000014161700000700000000140700AD
:1000F00000000A00000000140A0000001D000000BB
:1001000000141D000000161D00000000000000008B
:100110001300000000141300000016130000001468
:1001200016130000171D00000014171700001B0015
:10013000000000141B000000071D0000001407074A
:1001400000000A1D000000140A0A00000B00000055
:1001500000140B000000160B00000014160B00002A
:10016000060B00000014060B000016060B00000032
:1001700000000000170B00000014170B0000000027
:100180000000001416170B000900000000140900FD
:1001900000000A0B000000140A0B00001D0B0000F9
:1001A00000141D0B00000000000000000000000013
:1001B000130B00000014130B000016130B000014A7
:1001C00016130B000E00000000140E000000160EA7
:1001D00000000014160E00000500000000140500C9
:1001E00000000000000000140505000011000000E0
:1001F000001411000000161100000014111100007D
:100200001A00000000141A00000016160000001466
:10021000161600001900000000141900000016193D
:100220000000000000000000070819000014071972
:1002300000000A11000000140A1100003300000041
:1002400000143300000016330000001416330000C1
:1002500013110000001433330000000000000014EC
:10026000131300000D00000000140D00000000003A
:1002700000000000000000000708330000140733EE
:100280000000000000000014070D00001C0000002A
:1002900000141C000000161C00000014161C0000B6
:1002A000061C00000014060600000000000000000C
:1002B00000000000171C00000000000000001617DE
:1002C0001C00000000000000071C000000140909C9
:1002D00000000A1C0000001409170000331C000075
:1002E000000000000000000000000000000000000E
:1002F000131C000000000000000016131C00001476
:1003000016130B1C0E1100000014060E11001B1C0E
:100310000000000000000000051C00000014051C87
:1003200000000000000000000000000015000000B8
:100330000014150000001608150000141515000023
:10034000061500000014061500001606150000141E
:1003500016061500171500000014171500001617D3
:10036000150000000000000007150000001407152C
:1003700000000A15000000140A1500001D150000F9
:10038000000000000000000000000000000000006D
:1003900013150000001413150000161315000014A7
:1003A00013131500000000000014171715001B158B
:1003B00000000000000000000708150000140707F7
:1003C00015000000000000140A0A1500150B0000BB
:1003D000000000000000160B1500000000000000E7
:1003E000060B1500001406061500000000000000B2
:1003F00000000000170B15000014170B0F00000081
:10040000000000000000000009150000001409159C
:1004100000000000000000140909150000000000A1
:1004200000000000000000000000000000000000CC
:10043000130B15000014130B150000000000000042
:10044000000000000E150000000000000000000089
:100450000000000000000000051500000014051554
:100460000000000000000014050515000F0000004A
:1004700000140F000000160F00000014160F0000FB
:10048000060F000000000000000000000000000057
:100490000000000004000000001404000000160426
:1004A000000000141604000007080F0000140604E2
:1004B00000000A0F000000140A0F000033150000AE
:1004C00000140F0F000000000000000000000000FA
:1004D000130F00000014130F000016130F00001478
:1004E00013130F000D08150000000000000016088F
:1004F00015190000000000000000000000140707AC
:100500000F000000000000140A0A0F000F1C00007A
:10051000000000000000160F1C000000000000009A
:1005200006151C00001406060F0000000000000065
:100530000000000017151C00000000000000161746
:10054000151C000000000000090F00000014090F36
:10055000000000000000001409090F000000000066
:10056000000000000000000000000000000000008B
:10057000130B0F000000000000000000000000004E
:10058000000000000E0F000000000000000000004E
:100590000000000000000000050F00000014050F1F
:1005A000000000000000000000000000000000004B
:1005B0000008000000001200000000081200000007
:1005C00014000000000814000000121400000008CD
:1005D0001214000018000000000818000000121893
:1005E0000000000812180000141800000008141879
:1005F0000000121418000008121418000C0000006B
:1006000000080C000000120C00000008120C000092
:10061000140C00000008140C000012140C00000858
:1006200012140C00180C00000008180C000012181E
:100630000C00000812180C0014180C000008141804
:100640000C001214180C00081214180C0000000002
:10065000000808000000121200000012080000004C
:100660001414000000140800000014120000000818
:1006700014120000181800000018080000001812DA
:1006800000000008181200001814000000081814D8
:100690000000121814000008121814000C0C0000BE
:1006A000000C080000000C12000000080C120000F2
:1006B0000C14000000080C140000120C14000008B8
:1006C000120C14000C18000000080C1800000C128A
:1006D00018000008120C1800140C18000008140C64
:1006E000180012140C18000812140C180000000056
:1006F00000150000000011000000001511000000AE
:100700000F00000000150F00000016000000000F91
:100710000F0000000A00000000150A000000110A86
:100720000000000A110000000F0A00000000000095
:1007300000000700000000070F0000000600000096
:100740000015060000001106000000000000000077
:100750001300000000151300000016130000001322
:100760000F000000050000000015050000000A0A47
:100770000000000000000000050F00000000000065
:10078000000000000000000F050000000B0000004A
:10079000001D0000000019000000001D11000000F5
:1007A0001A000000001D0F000000160B0000000FD3
:1007B000190000000A0B000000150A0B00003300AE
:1007C00000000015330000001B00000000000000C6
:1007D000000016330000000F33000000060B00007D
:1007E0000015060B000011060B0000151900000093
:1007F000130B000000000000000000000000000FCC
:10080000060B000009000000001509000000330578
:1008100000000000000000000F09000000000000C0
:10082000000033130000000000000000170000006B
:100830000015170000001117000000151117000027
:100840000F17000000000000000016170000001540
:10085000161700000E00000000150E000000110E1B
:1008600000000000000000000E0F0000000000006B
:100870000000160E0000000F0E000000061700001A
:10088000000000000000170C121100000000000022
:100890001317000000000000000011161700000FE1
:1008A00013000000060E0000000000000000051705
:1008B0000000000000000000060E0F000000000015
:1008C000000000000000000000000000170B000006
:1008D0000015170B000011170B00001D170B00006F
:1008E0000F170B00000000000000000000000000D7
:1008F000000000000A0B1700001D0E000000110A86
:10090000170B0000000000001B1700000000000093
:10091000000007170B0000000000000017060B0086
:1009200000000000000000000000000000000000C7
:1009300013170B0000000000000000000000000082
:100940000000000009170000000000000000000087
:100950000000000000000000000000000000000097
:100960000000331317000000000000001600000014
:1009700000151600000011160000001511160000E9
:100980000F16000000150F16000016160000000FCD
:100990000F1600000A16000000150A160000110AC2
:1009A0001600000A11160000000000000000000000
:1009B00000000716000000000000000006160000FE
:1009C00000150616000011060816000000000000C1
:1009D000131600000015131600001613160000135E
:1009E0000F081600051600000015051600000A0A7B
:1009F0001600000000000000050F081600000000AF
:100A0000000000000000000F051600000B1600009B
:100A1000001D1600000019081600001D1116000028
:100A20001A081600001D0F160000160B0816000FFE
:100A3000190816000A0B160000000000000033160B
:100A400000000015331600001B081600000000000F
:100A5000000016331600000F3316000007000000D8
:100A600000150700000011070000001D070000002E
:100A7000130B160000150F07000000000000000F08
:100A800007000000070A0000000000000000330516
:100A90001600000000000000000000000000000040
:100AA00000003313160000000000000017160000BD
:100AB00000151716000011171600000000000000B6
:100AC0000F17160000000000000016171600001592
:100AD000161716000E16000000150E160000110E57
:100AE00016000000000000000000000000000000F0
:100AF0000000160E1600000F0E1600000617160056
:100B0000000000000000170C121116000000000089
:100B10000000000000000000000000000000000FC6
:100B200013160000060E1600000000000000051756
:100B30001600000000000000060E0F08160000005E
:100B4000000000000000000000000000170B16006D
:100B50000015170B160011170B16001D170B1600AA
:100B60000000000000000000000000000000000085
:100B7000000000000A0B1716001D0E160000110AD7
:100B8000170B16000000000000000000000000002D
:100B9000000007170B1600000000000007160000F9
:100BA00000150716000011071600001D07160000AB
:100BB00013170B1600150F07160000000000000F9A
:100BC0000716000000000000000000000000000008
:100BD0000000000000000000000000000000000015
:100BE0000000331317160000000000000000000092
:100BF0000008000000001C00000000081C000000AD
:100C00000000000000002C00000000002B0000008D
:100C100000000000000000002800000000000000AC
:100C200000000000000000000000000000000000C4
:100C30000000000000001E02000000001F02000073
:100C4000000020020000000021020000000022023B
:100C50000000000023020000000024020000000049
:100C60002502000000002602000000001E022702EC
:100C700000001E021E0200001E021F0200001E02D3
:100C8000200200001E02210200001E0222020000BB
:100C90002702000000001E02270200001F02270298
:100CA0000000200227020000210227020000220289
:100CB000270200002302270200002402270200006E
:100CC0002502270200002602270200001E0227023A
:100CD00027021E021E0227021E021F0227021E02F8
:100CE000200227021E02210227021E0222022702E0
:100CF0000000000000001E02000000001F020000B3
:100D0000000020020000000021020000000022027A
:100D10000000000023020000000024020000000088
:100D20002502000000002602000000001E0227022B
:100D300000001E021E0200001E021F0200001E0212
:100D4000200200001E02210200001E0222020000FA
:100D50002702000000001E02270200001F022702D7
:100D600000002002270200002102270200002202C8
:100D700027020000230227020000240227020000AD
:100D80002502270200002602270200001E02270279
:100D900027021E021E0227021E021F0227021E0237
:100DA000200227021E02210227021E02220227021F
:100DB00000000000000038000000000029000000D2
:100DC00000000000000000003200000000000000F1
:100DD0000000000000000000000000000000000013
:100DE00025000000000000000000000000000000DE
:100DF00000000000000000000000000000000000F3
:100E000000000000000000000000000000000000E2
:100E1000211400000000000000000000000000009D
:100E200000000000000000000000000000000000C2
:100E300000000000000000000000000000000000B2
:100E400000000000000000000000000000000000A2
:100E50000000000000000000000000000000000092
:100E60000000000000000000000000000000000082
:100E70002200000000000000000000000000000050
:100E80000000000000000000000000000000000062
:100E90000000000000000000000000000000000052
:100EA0000000000000000000000000000000000042
:100EB0000000000000000000000000000000000032
:100EC0000000000000000000000000000000000022
:100ED00022140000000000000000000000000000DC
:100EE0000000000000000000000000000000000002
:100EF00000000000000000000000000000000000F2
:100F000000000000000000000000000000000000E1
:100F100000000000000000000000000000000000D1
:100F200000000000000000000000000000000000C1
:100F30000000000000003600000000002100160044
:100F40000000210033000000360200000000000015
:100F50000000000011002100170000000000000048
:100F600010000000000000000000000021000F0041
:100F70000F00000000000000000000000000000062
:100F80000000000000000000000000000000000061
:100F90002E140000000000000000000021001900D5
:100FA0000800000000000000000000000000000039
:100FB0000000000000000000000000000000000031
:100FC0000000000000000000000000000000000021
:100FD0000000000000000000000000000000000011
:100FE0000000000000000000000000000000000001
:100FF0002D0000000000000000000000210007009C
:1010000000000000000000000000000000000000E0
:1010100000000000000000000000000000000000D0
:1010200000000000000000000000000000000000C0
:1010300000000000000000000000000000000000B0
:1010400000000000000000000000000000000000A0
:101050002D1400000000000000000000000000004F
:101060000000000000000000000000000000000080
:101070000000000000000000000000000000000070
:101080000000000000000000000000000000000060
:101090000000000000000000000000000000000050
:1010A0000000000000000000000000000000000040
:1010B00000000000000022000000000025000000E9
:1010C00000000000000000002D00000000002200D1
:1010D0002D000000000000000000000000000000E3
:1010E00023000000000000000000000000000000DD
:1010F00000000000000000000000000000000000F0
:1011000000000000000000000000000000000000DF
:101110003602000000000000000000000000000097
:1011200000000000000000002D0036020000220038
:101130002D0036020000000000000000000000004A
:10114000000000000000000000000000000000009F
:10115000000000000000000000000000000000008F
:10116000000000000000000000000000000000007F
:10117000100000000000000000000000000000005F
:1011800000000000000000002D0010000000220000
:101190002D00100000000000000000000000000012
:1011A000000000000000000000000000000000003F
:1011B000000000000000000000000000000000002F
:1011C000000000000000000000000000000000001F
:1011D00036000000000000000000000000000000D9
:1011E00000000000000000002D003600000022007A
:1011F0002D0036000000000000000000000000008C
:1012000000000000000000000000000000000000DE
:1012100000000000000000000000000000000000CE
:1012200000000000000000000000000000000000BE
:10123000000000000000360200000000360200003E
:101240000000370000000000220000000000000045
:10125000000000006400000000000000000000002A
:10126000210000000000000000000000000000005D
:10127000000000000000000020000000000000004E
:10128000000000000000000000000000000000005E
:101290002D00000000000000000000000000000021
:1012A000000000000000000022002D00500000009F
:1012B000000000000000000000000000000000002E
:1012C000000000000000000000000000000000001E
:1012D000000000000000000000000000000000000E
:1012E00000000000000000000000000000000000FE
:1012F00010020000000000000000000000000000DC
:101300000000000000000000640200000000000077
:1013100000000000640064025000000000000000B3
:10132000210021005000000000000000000000002B
:10133000000000000000000020002000500000001D
:10134000000000000000000000000000000000009D
:101350003800000000000000000000000000000055
:10136000000000000000000000000000000000007D
:10137000000000000000000000000000000000006D
:10138000000000000000000000000000000000005D
:10139000000000000000000000000000000000004D
:1013A000000000000000000000000000000000003D
:1013B000000000000000000000000000200000808D
:1013C0002000008000000000840000800000000079
:1013D0003000008021000080210000805200008049
:1013E00080000080320000803100008040000080DA
:1013F00041000080500000808100008033000080A8
:1014000042000080430000800000000011000080C6
:10141000820000803400008044000080450000808D
:101420000000000051000080830000803500008033
:10143000460000804700008000000000100000808F
:1014400000000000B20000800000000010000080DA
:10145000000000001000008000000000B0000080CC
:1014600000000000B00000800000000010000080BC
:1014700093000080A5000080600000806100008073
:10148000000000001000008092000080A400008096
:1014900062000080630000800000000052000080B5
:1014A00091000080A300008064000080650000803F
:1014B000000000001100008090000080A200008069
:1014C000A10000806600008067000080540000805A
:1014D0009400008000000000A000008070000080E8
:1014E0007100008053000080000000000000000038
:1014F00000000000210000802100008000000000AA
:1015000000000000000000000000000000000000DB
:1015100000000000000000000000000000000000CB
:1015200000000000000000000000000000000000BB
:1015300000000000000000000000000000000000AB
:10154000000000000000000000000000000000009B
:10155000000000000000000000000000000000008B
:10156000000000000000000000000000000000007B
:10157000000000000000000000000000000000006B
:10158000000000000000000000000000000000005B
:10159000000000000000000000000000000000004B
:1015A000000000000000000000000000000000003B
:1015B000000000000000000000000000000000002B
:1015C000000000000000000000000000000000001B
:1015D000000000000000000000000000000000000B
:1015E00000000000000000000000000000000000FB
:1015F00000000000000000000000000000000000EB
:1016000000000000000000000000000000000000DA
:1016100000000000000000000000000000000000CA
:1016200000000000000000000000000000000000BA
:1016300000000000000000000000000000000000AA
:10164000000000000000000000000000000000009A
:101650001E0030002B000130E000000022140400C6
:1016600014001A001E00E30021141D0015001B00C9
:10167000E2002A002E14090016000600520028007D
:101680002200130017001900510046002E000A0026
:101690000700050000000352000049000000290077
:1016A0000000035401542A000000280000000354E5
:1016B00032000D000B000E00000003522D000F0041
:1016C00011003300500000002E0218000800100026
:1016D0004F002C002D141C000C00360225144C0069
:1016E00038003600120021002714000020143702B1
:1016F00023000130E40000000352E200E00000306B
:101700000030000000302B0000300030003000308E
:101710000030003000300030003000300030003049
:101720000030003001000030003000300030003068
:101730000100003000300030003000300000003088
:101740002A000030000000300000003001000030AE
:101750000000003000000030003000300030003069
:101760000000003000300030003000300100003058
:101770000030003000300030010000300030003018
:1017800000300030003000300030003000300030D9
:10179000003000304C00E600E40000300030000073
:1017A00034000230010001000100000024000100AB
:1017B00001000100340001002200010001000100CD
:1017C00001000100200001000100010001000100F2
:1017D0001E000100010001000100010026000100BF
:1017E00001000100000001000100010000000100F3
:1017F00000000100000001000000010000000100E5
:101800002700010001000100000001001F0001008D
:10181000010001000100010021000100010002306F
:10182000010001002300010001000230023001002C
:1018300025000230010002300230010002301000A9
:101840000230010001000000010001000100E10080
:10185000010000003A000100010001000100010048
:101860003B00010001000100010001003C000100FB
:10187000010001004E0001003D00010001000100D7
:101880004B0001003E0001000100010000000100CA
:101890003F000100000001000000010040000100C5
:1018A00000000100000001004100010001000100F2
:1018B0000000010042000100010001004A00010097
:1018C00043000100010001004D000100440001003F
:1018D00001000100010001004500010001000100BC
:1018E00001000050000001000100E50001000000BF
:1018F00005010906A101050719E029E715002501E1
:101900009508750181029501750881010508190185
:10191000290595057501910295017503910105074A
:10192000190029FF150025FF950675088100C005DF
:10193000010902A1010901A10005091901290515E3
:101940000025019505750181029501750381010549
:1019500001093009311581257F9502750881060935
:10196000381581257F950175088106050C0A380216
:101970001581257F950175088106C0C00501098084
:10198000A101850216010026B7001A01002AB7003E
:10199000751095018100C0050C0901A10185031690
:1019A0000100269C021A01002A9C027510950181F3
:1019B00000C005010906A101050719E029E7150086
:1019C000250195087501810205081901290595056C
:1019D0007501910295017503910105071900297799
:1019E00015002501957875018102C01201100100D2
:1019F000000008EDFE071301000102000109026D5D
:101A000000040100A0FA090400000103010100091B
:101A10002111010001223F000705810308000A0986
:101A20000401000103010200092111010001224DFE
:101A3000000705820308000A0904020001030000F0
:101A40000009211101000122360007058303080067
:101A50000A0904030001030000000921110100012B
:101A6000223900070584031000010403090416034A
:101A70004500720067006F0044006F00780020008E
:101A800045005A00000016034500720067006F0011
:101A900044006F007800200045005A00000000005C
:101AA000000000000000000000010204060A0F17F9
:101AB000202C3A4A5D71879DB3C7DAE9F5FCFFFC3B
:101AC000F5E9DAC7B39D87715D4A3A2C20170F0AF2
:101AD00006040201000000000000000000001124C4
:101AE0001FBECFEFDAE0DEBFCDBF04B603FE24C0D9
:101AF0008091B6029091B702A091B802B091B9025C
:101B00008750904BA740B04BB9F41092B602109298
:101B1000B7021092B8021092B90214BE84B7877F40
:101B200084BF88E10FB6F894809360001092600043
:101B30000FBEE0E0FFE3099511E0A0E0B1E0ECE1C9
:101B4000F3E602C005900D92A238B107D9F712E072
:101B5000A2E8B1E001C01D92A63BB107E1F70E94E7
:101B60001C160C948C310C94000080918201909191
:101B70008301A0918401B09185010097A105B10571
:101B800019F080E090E0089520E080918601909126
:101B90008701A0918801B09189010097A105B10545
:101BA00009F021E081E02827822F0895282F803135
:101BB00019F480E090E0089584508A3118F481E0AF
:101BC00090E0089580E090E0233311F481E090E00C
:101BD0000895089560917C0270917D0280917E024B
:101BE00090917F020E943628569A5E9A25982D98E9
:101BF00026982E9827982F98813019F0833031F449
:101C000003C0259A2D9A02C0269A2E9A0E94B50DDD
:101C1000882311F4279A2F9A0895FF920F931F9308
:101C2000182F062F0E94BA27F82E812F0E94CA274C
:101C3000802F0E94571E8F2D0E94CA271F910F913F
:101C4000FF9008952F923F924F925F926F927F92F2
:101C50008F929F92AF92BF92CF92DF92EF92FF92BC
:101C60000F931F93DF93CF9300D000D000D0CDB758
:101C7000DEB70E94BA278A8382E10E94C32720919F
:101C80008F01298380918B0190E033243394382293
:101C9000DC01A270B070BC83AB8380918C0188237F
:101CA00019F4442455240DC04424823011F44424F2
:101CB00043945524833011F45524539482E00E94B8
:101CC000BD2758E1852E51E0952EAA242224EE242A
:101CD000FF24F701E657FE4F8081882309F4B4C042
:101CE0002224B1E0EB16F10411F022242394F70131
:101CF000EE5AFE4FE081F5E0EF16F10439F433209F
:101D0000F9F04CE4C42E46E0D42E21C024E0E216C3
:101D1000F10461F43320A1F03981332389F48695ED
:101D2000869530EBC32E30E1D32E57C096E0E916EE
:101D3000F10431F4332021F0A981AA2309F4D6C09B
:101D4000D401CD90DC90C114D10409F47DC0E13000
:101D500009F043C0B5E08B9F30011124BB2410E093
:101D6000F601E60DF71D04910023A9F0802F0E94D3
:101D7000571E802F0E94041EA394442019F0E1E016
:101D8000AE1629F0552001F1F2E0AF16E9F482E039
:101D90000E94C32719C02B813C81232B09F454C016
:101DA00031E0B31609F050C086E0E816F10409F0FE
:101DB0004BC0112309F448C0812F0E94571E812F68
:101DC0000E94041EA39440C00894611C711C94E0FE
:101DD000B916D1F1B394102FC3CFA3E08A9F30017D
:101DE000112400E010E0F801E60DF71DEE0FFF1FD3
:101DF000EC0DFD1D259134913E832D83232B21F184
:101E0000BD808B2D0E94D60D882321F08B2D0E9442
:101E1000571E04C08E816D810E940D0E8B2D0E9475
:101E2000041EA394442019F031E0A31629F0552094
:101E300031F082E0A81619F482E00E94C3270F5FF8
:101E40001F4F0330110579F60894E11CF11CA2E044
:101E5000B0E08A0E9B1EBCE0EB16F10409F039CF0E
:101E6000AA2099F08091FA01843611F41092FA01B7
:101E70008091FA01E82FFF27E7FDF095EA56FE4F23
:101E8000A0828F5F8093FA0126C0332021F12220A7
:101E900011F50091FA01015007FD03E6C02EDD2483
:101EA000C7FCD094F601EA56FE4FF080FF2099F06F
:101EB00010E007C08AE20E94571E8AE20E94041EB8
:101EC0001F5F1F15B8F3E6E9F1E0CE0EDF1ED60165
:101ED0001C920093FA018A810E94CA27EAE8F1E085
:101EE0001192B1E0E639FB07D9F705C090E3C92E9E
:101EF00092E1D92E72CF26960FB6F894DEBF0FBEB0
:101F0000CDBFCF91DF911F910F91FF90EF90DF90A8
:101F1000CF90BF90AF909F908F907F906F905F9089
:101F20004F903F902F9008958F929F92AF92BF92C3
:101F3000CF92DF92EF92FF920F931F93CF93DF9395
:101F40005C01613009F4CFC0613020F0623009F0EB
:101F5000F8C0DBC0FC01818196E0899FD00111248B
:101F60008081A80FB11DFD01EE0FFF1FEE0FFF1FB7
:101F7000E055FC4E2591359145915491211531053F
:101F80004105510509F4DDC057FF71C0C9018F70CB
:101F9000907061E0E62EF12C012D112D04C0EE0CA5
:101FA000FF1C001F111F8A95D2F794E056954795A4
:101FB000379527959A95D1F78FE0982E9222C92CC4
:101FC000DD24F601EA5BFE4F8080F601EE0FFF1F75
:101FD000E050FF4FC081D181F5018281882311F14A
:101FE000F2E09F1619F481EE0E94571EA801970196
:101FF00004C0220F331F441F551F8A94D2F78881D3
:102000009981AA81BB81822B932BA42BB52B88832A
:102010009983AA83BB83F601E657FE4F80818E2900
:1020200080838FC0A801970104C0220F331F441F73
:10203000551F8A94D2F72095309540955095888108
:102040009981AA81BB8182239323A423B52388830A
:102050009983AA83BB830E94B50D882311F00E9447
:10206000220E82E0981609F06CC081EE68C0622FE3
:10207000FD01EE0FFF1FEE0FFF1FE050FB4EE5903E
:10208000F59005911491E114F1040105110511F485
:10209000DD2412C0DE2CE0910401F0910501808165
:1020A0009181A281B38180709070A070B07300970D
:1020B000A105B10509F054C0F5018281882361F0C2
:1020C00008C08F2D6E2D37C0822F0E94041E8E2DCA
:1020D00036C0832F99272FC0862F0E94041EDD2033
:1020E00081F18D2D2CC0FC018281882339F081EE95
:1020F0000E94571E82E00E94C62623C081EE0E94E5
:10210000041E82E00E94A6261CC0FC016081718131
:1021100080E00E94BE1362E170E00E943431FC0155
:10212000EE0FFF1FE25AFE4F60819181F50182811F
:10213000882321F0892F0E940D0E03C0862F0E9454
:10214000041E80E090E0DF91CF911F910F91FF90EE
:10215000EF90DF90CF90BF90AF909F908F900895B9
:10216000F5018281882309F0ACCFAECF0E94EA0D41
:10217000089556985E9825982D9826982E98279819
:102180002F988FEF90E09093890080938800909330
:102190008B0080938A0090938D0080938C00259A09
:1021A0002D9A84EF91E020E931E0F9013197F1F7C0
:1021B0000197D9F7269A2E9A84EF91E020E931E031
:1021C000F9013197F1F70197D9F7279A2F9A84EF00
:1021D00091E020E931E0F9013197F1F70197D9F762
:1021E00025982D9884EF91E020E931E0F9013197AD
:1021F000F1F70197D9F726982E9884EF91E020E91E
:1022000031E0F9013197F1F70197D9F727982F9825
:1022100056985E9825982D9826982E9827982F984E
:10222000089589EA8093800089E080938100249852
:102230002C983F988AB18F748AB96E98479A8BB15F
:10224000806B8BB9769A0E94B9100E94E90D0895AF
:1022500080E2809330018091FB01882371F40E9419
:10226000771181E08093FB0180E197E220E931E082
:10227000F9013197F1F70197D9F780E40E947D11B8
:1022800080933001882371F50E94AB118093300157
:10229000882341F50E94AB1180933001882311F50A
:1022A0008FE30E94AB11809330018823D9F40E9400
:1022B000A31180E40E947D1180933001882391F462
:1022C0008CE00E94AB1180933001882359F40E9466
:1022D000AB1180933001882329F48FE30E94AB1166
:1022E000809330010E94A3118091300108951092D3
:1022F000B9008AE08093B8000895982F84EA80930B
:10230000BC008091BC0087FFFCCF8091B900887F22
:10231000883021F0803111F081E008959093BB0066
:1023200084E88093BC008091BC0087FFFCCF909133
:10233000B900987F983111F480E0089580E09034DE
:1023400009F081E0089584E98093BC008091BC008D
:1023500084FDFCCF08958093BB0084E88093BC008B
:102360008091BC0087FFFCCF8091B90090E0887F0E
:10237000883209F091E0892F089584E88093BC00A9
:102380008091BC0087FFFCCF8091BB000895ECEFEB
:10239000F1E0E80FF11D80810895089580913001EA
:1023A0008823A9F480E40E947D1180933001882362
:1023B00061F482E10E94AB1180933001882329F4FB
:1023C0008FEF0E94AB11809330010E94A31184B162
:1023D000807F84B985B1807F85B98AB1837F8AB9CE
:1023E0008BB1837F8BB93E98469808950E9428113F
:1023F000809330010E94CE1180B38C7080BB81B37A
:10240000836F81BB80E090E0FC01E450FE4F1082BE
:10241000FC01E65FFD4F108201968E309105A1F719
:102420000E9411110895BF92CF92DF92EF92FF9216
:102430000F931F93CF93DF9380913001882379F01E
:10244000809118028F5F80931802882341F40E94C4
:10245000281180933001882311F40E94B9102AE0DA
:10246000E22E22E0F22EC0E0D0E090EAB92E81E028
:10247000C82ED12C02E0C73010F58091300188239E
:1024800009F045C080E40E947D11809330018823CB
:1024900099F482E10E94AB1180933001882361F4AA
:1024A000C6010C2E02C0880F991F0A94E2F780958E
:1024B0000E94AB11809330010E94A31128C0CA3042
:1024C000D9F0CB3040F4C83089F0C93090F4C7302F
:1024D00009F09CC008C0CC30A1F0CC3080F0CD30E9
:1024E00009F094C011C0209A289890C0219A299888
:1024F0008DC0229A2A988AC0239A2B9887C0529A14
:1025000001C0539A5B9882C03E9A46987FC08091E2
:102510003001882311F010E03EC080E40E947D115C
:1025200080933001882399F483E10E94AB1180935A
:102530003001882361F481E40E947D118093300191
:10254000882329F40E94BD11182F109501C010E0B6
:102550000E94A31120C042E07C9902C034E001C077
:1025600030E07D9902C028E001C020E07E9902C0E1
:1025700090E101C090E08FB18095881F8827881F67
:102580008295880F807E152F1C251170142B132B1C
:10259000122B192B182BF7018081811719F010834A
:1025A000009331010E94CE1121960894E11CF11C88
:1025B000CE30D10509F05FCF809131018823C9F079
:1025C000815080933101882329F080EA9FE00197B0
:1025D000F1F70FC020E030E0F901E450FE4FD901DF
:1025E000A65FBD4F8C9180832F5F3F4F2E3031050A
:1025F00099F70E94B61081E0DF91CF911F910F9162
:10260000FF90EF90DF90CF90BF9008958B2D8A952B
:10261000F1F75FB1799B9FCF40E09ECF08959C0179
:102620008B3B910578F4883A910548F5853A9105F8
:10263000B8F48430910508F09FC08130910509F00D
:1026400099C095C0803E910508F494C0883E9105DC
:1026500008F492C0805F9040409708F08BC085C01E
:10266000853A910519F481E890E47DC0863A910598
:1026700019F083E890E477C082E890E474C0883A67
:10268000910519F482EE94E46EC0893A910519F42B
:1026900089EE94E468C08A3A910519F48AEE94E4CC
:1026A00062C08B3A910519F485EB94E45CC08C3AD6
:1026B000910519F486EB94E456C08D3A910519F40E
:1026C00087EB94E450C0803B910519F48CEC94E4C2
:1026D0004AC08E3A910519F48DEC94E444C08F3AC7
:1026E000910519F483E895E43EC0813B910519F406
:1026F0008AE895E438C0823B910519F482E995E4B3
:1027000032C0833B910519F484E995E42CC0843BE5
:10271000910519F481E296E426C0853B910519F4F0
:1027200083E296E420C0863B910519F484E296E4A6
:102730001AC0873B910519F485E296E414C0883BE2
:10274000910519F486E296E40EC0893B910519F4CF
:1027500087E296E408C08A3B910519F080E094E492
:1027600002C08AE296E49C0107C0306505C021E002
:1027700030E002C020E030E0C9010895E62FF0E02B
:10278000EE0FFF1F9CE0799F90011124E20FF31FD1
:1027900098EA899FC0011124E80FF91FE05BF94E08
:1027A00025913491C9010895FC01EE0FFF1FE059F6
:1027B000F84E25913491C9010895FC01EE0FFF1FD9
:1027C000E051F74E25913491C90108950E94BE133E
:1027D000AC018050914080509F4118F4CA019F7114
:1027E0000895CA01805090428050904128F4CA0157
:1027F0009F700E94DD130895CA018050904380505D
:10280000904120F4CA019070906C089580E54030AA
:10281000580771F40E94F11D84EC99E020E931E041
:10282000F9013197F1F70197D9F70E942C290EC1D0
:1028300020E54130520731F4809194028160809309
:10284000940204C1CA01805090458050904108F024
:1028500056C0652F77276F70707061307105F9F47D
:102860009A01A4E0220F331FAA95E1F7207033707C
:10287000CA01F3E0880F991FFA95E1F7807690700E
:10288000282B392B3C684370507002C0660F771FAD
:102890004A95E2F76F717070262B372B2EC062308D
:1028A000710529F4942F8827816F906A0895633009
:1028B000710551F49A0173E0220F331F7A95E1F705
:1028C000207E37703C680CC06430710561F59A0158
:1028D00063E0220F331F6A95E1F7207E37703A6874
:1028E0004370507081E090E002C0880F991F4A95B4
:1028F000E2F78F719070282B392BC9010895CA0116
:10290000805090478050904120F4CA019F7090629F
:102910000895CA01805090488050904120F4CA0127
:102920009F70906A0895403E5105F0F4403C510577
:1029300088F54133510509F476C04233510548F416
:102940004932510509F465C04A32510509F07AC08F
:102950006FC04933510511F142385105F9F0453343
:10296000510509F06FC050C0433E510569F1443E26
:10297000510540F4403E5105C1F0423E510509F079
:1029800061C01DC0463E510559F1473E510509F051
:1029900059C02BC0CA010E94D41308958091A70288
:1029A00080FD0AC081FD08C04DC08091A70280FF54
:1029B00003C089E390E047C080EE90E044C080917E
:1029C000A70282FD08C004C08091A70282FF03C055
:1029D00082EE90E038C084FD11C083EE90E033C0F9
:1029E0008091A70283FD08C004C08091A70283FFE5
:1029F00003C086EE90E027C084FF03C080E090E033
:102A000022C087EE90E01FC08091A70285FF05C01D
:102A100007C08091A70285FF03C085E390E013C043
:102A200089E290E010C08091A70286FF05C007C030
:102A30008091A70286FF03C081E390E004C08AE290
:102A400090E001C0CA010E940F13089508950895EF
:102A50000E94271508951092AC0208950895809160
:102A60001A020895DF93CF9300D00F92CDB7DEB74F
:102A7000AC018091AD02843029F583E08093E900B8
:102A80002FEF95ED05C0892F8A95F1F7222329F0C4
:102A90008091E800215085FFF6CF8091E80085FF06
:102AA00011C05B834A8383E08983CE01019663E092
:102AB00070E040E050E00E94A0188091E8008E771E
:102AC0008093E8000F900F900F90CF91DF910895C1
:102AD000DF93CF9300D00F92CDB7DEB7AC018091DA
:102AE000AD02843029F583E08093E9002FEF95ED66
:102AF00005C0892F8A95F1F7222329F08091E800FB
:102B0000215085FFF6CF8091E80085FF11C05B83DF
:102B10004A8382E08983CE01019663E070E040E061
:102B200050E00E94A0188091E8008E778093E80022
:102B30000F900F900F90CF91DF910895AC0180918D
:102B4000AD02843001F582E08093E9002FEF95ED2E
:102B500005C0892F8A95F1F7222329F08091E8009A
:102B6000215085FFF6CF8091E80085FF0CC0CA0197
:102B700065E070E040E050E00E94A0188091E8001D
:102B80008E778093E80008950F931F93182F092FD5
:102B90009091AD02943009F04CC0809132018823AD
:102BA000E1F080913D018823C1F09093E9009FEF0F
:102BB00025E105C0822F8A95F1F7992329F08091AC
:102BC000E800915085FFF6CF8091E80085FF31C085
:102BD000812F902F60E170E018C081E08093E900C0
:102BE0009FEF25ED05C0822F8A95F1F7992329F0F3
:102BF0008091E800915085FFF6CF8091E80085FF35
:102C000018C0812F902F68E070E040E050E00E94F3
:102C1000A0188091E8008E778093E800ABE1B2E0E5
:102C2000212F302FC901FC0180E101900D928150CC
:102C3000E1F71F910F91089584B7877F84BF88E1E2
:102C40000FB6F89480936000109260000FBE80E091
:102C500090E020E80FB6F894209361008093610023
:102C60000FBE0E94EC1C0E947E190E94DF19809109
:102C7000E20084608093E20078940E947D1C0E94B0
:102C8000881D83E391E00E94931C0E94AE2F0CC02C
:102C90000E9488288091AB02882331F00E94B128DD
:102CA000882311F00E94B5178091AD02853081F321
:102CB0000E94F21CF9CF8091AC02882349F40E9453
:102CC0007E190E94DF198091E20084608093E20007
:102CD00008958091AF02833009F457C0843030F4F6
:102CE000813071F0823009F0B1C098C08A3009F4A7
:102CF00085C08B3009F46AC0893009F0A7C020C0B4
:102D00008091AE02813A09F0A1C08091E800877FEE
:102D10008093E8008091B2029091B302892B21F454
:102D20008BE192E060E103C080E090E060E070E061
:102D30000E94CB178091E8008B778093E80008957C
:102D40008091AE02813209F081C08091B2029091EF
:102D5000B302009719F0039709F078C08091E8005A
:102D6000877F8093E80005C08091AD02882309F435
:102D70006DC08091E80082FFF7CF8091F1008093D1
:102D80001A028091E8008B771CC08091AE02813AD4
:102D900009F05CC08091B2029091B302892B09F0D6
:102DA00055C08091E800877F8093E8008091E8001B
:102DB00080FFFCCF809132018093F1008091E80088
:102DC0008E778093E8000E942B1908958091AE02BF
:102DD0008132E1F58091B2029091B302892BB1F575
:102DE0008091E800877F8093E8000E942B198091F2
:102DF000B002809332010E94F11D08958091AE02CD
:102E0000813221F58091E800877F8093E8000E945D
:102E10002B198091B1028093190208958091AE021E
:102E2000813AA1F48091E800877F8093E800809147
:102E3000E80080FFFCCF809119028093F10080911F
:102E4000E8008E778093E8000E942B19089581E0B6
:102E500061EC42E00E94F31882E061EC42E00E94E3
:102E6000F31883E061EC42E00E94F31884E061EC27
:102E700042E10E94F31808950E9481280E94C62F03
:102E80000E94981C0E94281508950E94C02F089542
:102E9000DA019330C1F0943030F4913051F0923037
:102EA00009F05BC00BC0913221F1923209F055C09C
:102EB00037C0EBEEF9E122E130E053C0EDEFF9E18C
:102EC0002DE630E04EC0813051F0813020F082306C
:102ED00009F043C008C0EAE6FAE1849107C0EEE6D3
:102EE000FAE1849103C0E6E8FAE18491282F30E00A
:102EF00038C0613051F0613028F0623059F06330F1
:102F000061F50BC0EFE0FAE102C0E8E2FAE129E086
:102F100030E027C0E1E4FAE1FACFEAE5FAE1F7CFE1
:102F2000613061F0613028F0623069F06330A9F4FB
:102F30000FC0E0EFF8E12FE330E013C0EFE2F9E17A
:102F40002DE430E00EC0ECE7F9E126E330E009C003
:102F5000E2EBF9E129E330E004C0E0E0F0E020E05A
:102F600030E0ED93FC93C901089580E189BD82E1D1
:102F700089BD09B400FEFDCF8091D8008F7D80937C
:102F8000D8008091E00082608093E0008091E000B2
:102F900081FDFCCF08959C014091B4025091B5028F
:102FA0004617570718F4F90190E043C06115710501
:102FB00011F0AB01F8CF8091E8008E778093E800A4
:102FC00040E050E0F0CF8091AD02882309F447C083
:102FD000853009F446C08091E80083FD44C08091AB
:102FE000E80082FD36C08091E80080FF22C0809119
:102FF000F3009091F200782F60E0292F30E0262B2B
:10300000372B07C081918093F100415050402F5FD2
:103010003F4F4115510519F02830310598F390E0E4
:103020002830310509F491E08091E8008E77809393
:10303000E8004115510539F6992329F60AC0809117
:10304000AD02882361F0853061F08091E80083FD56
:103050000AC08091E80082FFF2CF80E0089582E00C
:10306000089583E0089581E008959C014091B402A1
:103070005091B5024617570718F4F90190E044C083
:103080006115710511F0AB01F8CF8091E8008E77E2
:103090008093E80040E050E0F0CF8091AD028823BB
:1030A00009F448C0853009F447C08091E80083FDE9
:1030B00045C08091E80082FD37C08091E80080FF24
:1030C00023C08091F3009091F200782F60E0292FC7
:1030D00030E0262B372B08C084918093F100319685
:1030E000415050402F5F3F4F4115510519F0283096
:1030F000310590F390E02830310509F491E080919A
:10310000E8008E778093E8004115510531F6992348
:1031100021F60AC08091AD02882361F0853061F00C
:103120008091E80083FD0AC08091E80082FFF2CF21
:1031300080E0089582E0089583E0089581E0089595
:10314000BF92CF92DF92EF92FF920F931F93CF9394
:10315000DF93182F092F7B016A010E944C19B82EAA
:103160008823B1F5812F902F9C01E901C114D1046E
:1031700039F0F60180819181E81AF90AC80FD91F48
:1031800000E010E022C08091E80085FD16C080912B
:10319000E8008E778093E800C114D10449F0F6016D
:1031A00080819181800F911F9183808385E011C080
:1031B0000E944C19882349F00CC089918093F1003A
:1031C0000894E108F1080F5F1F4FE114F104D9F6EC
:1031D0008B2DDF91CF911F910F91FF90EF90DF909A
:1031E000CF90BF900895382F282F2EC0822F8F7038
:1031F0008093E900231721F4762F942F50E006C026
:103200007091EC009091ED005091F00091FF1BC087
:103210008091EB008E7F8093EB008091ED008D7F9D
:103220008093ED008091EB0081608093EB007093C0
:10323000EC009093ED005093F0008091EE0087FD3C
:1032400002C080E008952F5F273080F23F703093F6
:10325000E90081E008958091AE0288239CF404C0C7
:103260008091AD028823B9F08091E80082FFF8CF09
:103270008091E8008B778093E80008958091AD02FB
:10328000882349F08091E80080FFF8CF8091E80022
:103290008E778093E80008954091E4005091E50016
:1032A00024E68091EC0080FF24C08091E80080FD3E
:1032B0001EC08091AD02882311F482E0089585300C
:1032C00011F483E008958091EB0085FF02C081E056
:1032D00008958091E4009091E5008417950709F323
:1032E000222311F484E008952150AC01DACF80E06C
:1032F00008958091E80082FFDCCFF9CF0E94F11998
:103300000E94F919E0EEF0E0808181608083A8EDF1
:10331000B0E08C918F778C9319BCE7EDF0E0808161
:103320008E7F80838C918F7E8C931092AC02089557
:10333000EF92FF920F931F930E94F1190E94F919C7
:1033400008ED10E0F80180818F77808380818068AC
:10335000808380818F7D808319BC1092AD02109292
:10336000A9021092AB021092AA0280EEE82EF12C74
:10337000F70180818B7F8083F80180818160808369
:1033800080E060E042E00E94F318E1EEF0E080812E
:103390008E7F8083E2EEF0E0808181608083808197
:1033A00088608083F70180818E7F8083F80180812F
:1033B000806180831F910F91FF90EF900895E8ED59
:1033C000F0E080818F7E8083E7EDF0E08081816096
:1033D000808384E082BF81E08093AC020E949819D0
:1033E0000895E8EDF0E080818E7F80831092E20006
:1033F00008951092DA001092E10008951F920F9242
:103400000FB60F9211241F932F933F934F935F9307
:103410006F937F938F939F93AF93BF93EF93FF939C
:103420001091E9008091EC001092E9008091F00089
:10343000877F8093F00078940E940C1B1092E90023
:103440008091F00088608093F0001F701093E90075
:10345000FF91EF91BF91AF919F918F917F916F916C
:103460005F914F913F912F911F910F900FBE0F9041
:103470001F9018951F920F920FB60F9211242F9341
:103480003F934F935F936F937F938F939F93AF93EC
:10349000BF93EF93FF938091E10082FF0BC0809177
:1034A000E20082FF07C08091E1008B7F8093E10002
:1034B0000E947C1C8091DA0080FF1FC08091D800A0
:1034C00080FF1BC08091DA008E7F8093DA008091AC
:1034D000D90080FF0DC080E189BD82E189BD09B4BA
:1034E00000FEFDCF81E08093AD020E945B1605C017
:1034F00019BC1092AD020E942B158091E10080FF53
:1035000019C08091E20080FF15C08091E2008E7F9B
:103510008093E2008091E20080618093E2008091DC
:10352000D80080628093D80019BC85E08093AD02FA
:103530000E9445178091E10084FF30C08091E20035
:1035400084FF2CC080E189BD82E189BD09B400FE01
:10355000FDCF8091D8008F7D8093D8008091E100CD
:103560008F7E8093E1008091E2008F7E8093E20065
:103570008091E20081608093E2008091A90288231B
:1035800011F084E007C08091E30087FD02C081E074
:1035900001C083E08093AD020E943C178091E1005E
:1035A00083FF29C08091E20083FF25C08091E10064
:1035B000877F8093E10082E08093AD021092A902A0
:1035C0008091E1008E7F8093E1008091E2008E7F08
:1035D0008093E2008091E20080618093E20080E0CD
:1035E00060E042E00E94F3188091F00088608093D0
:1035F000F0000E942E15FF91EF91BF91AF919F9126
:103600008F917F916F915F914F913F912F910F908B
:103610000FBE0F901F9018951F93DF93CF93CDB7D8
:10362000DEB7AC970FB6F894DEBF0FBECDBFEEEAA3
:10363000F2E08091F100819322E0E63BF207C9F7C6
:103640000E9469168091E80083FF3EC18091AE021E
:103650003091AF02353009F487C0363040F4313054
:10366000C9F1313070F0333009F02EC133C0383039
:1036700009F4F9C0393009F409C1363009F024C120
:1036800097C0803821F0823809F01EC108C090919F
:10369000AA028091AB02882399F0926011C08091B8
:1036A000B2028F708093E9008091EB0090E025E0FA
:1036B000969587952A95E1F7982F91701092E900D9
:1036C0008091E800877F8093E8009093F10010924A
:1036D000F100D4C0882319F0823009F0F5C090E0E1
:1036E0008F719070009721F0029709F0EDC00CC027
:1036F0008091B002813009F0E7C01092AB02333004
:1037000069F58093AB022AC08091B002882331F51D
:103710002091B2022F7009F4D7C02093E900809164
:10372000EB0080FF1BC0333021F48091EB008062FE
:1037300013C08091EB0080618093EB0081E090E00A
:1037400002C0880F991F2A95E2F78093EA00109231
:10375000EA008091EB0088608093EB001092E90012
:103760008091E800877F8DC0882309F0ADC010915B
:10377000B0021F778091E3008078812B8093E30073
:103780008091E800877F8093E8000E942B19809148
:10379000E80080FFFCCF8091E30080688093E30025
:1037A000112311F482E001C083E08093AD028CC04C
:1037B0008058823008F088C08091B0029091B102A8
:1037C00023E08C3D920709F034C083E08C838AE2C9
:1037D0008B837FB7F894DE0115966EE040E050E0F1
:1037E00011E2E62FF0E010935700849140FF03C0F0
:1037F00082958F706F5F8F70282F30E08A3018F0BD
:10380000C901C79602C0C901C0968D939D934F5FB1
:103810005F4F4431510529F77FBF8091E800877FD2
:103820008093E800CE0103966AE270E00E94CB1715
:1038300014C06091B202AE014F5F5F4F0E94481703
:10384000BC01009709F440C08091E800877F809315
:10385000E80089819A810E9435188091E8008B7771
:103860008093E80031C0803879F58091E800877F47
:103870008093E8008091A9028093F1008091E80094
:103880008E778093E8000E942B191EC08823E1F4F4
:103890009091B0029230C0F48091E800877F8093CD
:1038A000E8009093A9020E942B198091A902882315
:1038B00031F48091E30087FD02C081E001C084E023
:1038C0008093AD020E9427178091E80083FF0AC011
:1038D0008091E800877F8093E8008091EB00806210
:1038E0008093EB00AC960FB6F894DEBF0FBECDBF51
:1038F000CF91DF911F91089508951F938091AD029C
:10390000882379F01091E9008091EC001092E90091
:103910008091E80083FF02C00E940C1B1F7010936F
:10392000E9001F9108959093300280932F0208952B
:10393000E0912F02F0913002309711F480E0089569
:103940000190F081E02D09950895E0912F02F0910A
:103950003002309721F00280F381E02D099508951F
:10396000E0912F02F0913002309721F00480F58130
:10397000E02D099508959C0180912D0290912E02D1
:103980002817390779F030932E0220932D02E09109
:103990002F02F0913002309729F00680F781E02D58
:1039A000C901099508959C0180912B0290912C02E8
:1039B0002817390779F030932C0220932B02E091DD
:1039C0002F02F0913002309729F00084F185E02D2C
:1039D000C9010995089508950E94EB1C08950E945D
:1039E00028150895BF92CF92DF92EF92FF920F9326
:1039F0001F93DF93CF93CDB7DEB72A970FB6F89416
:103A0000DEBF0FBECDBF0E941312EE24FF24BE2CDA
:103A10008E2D0E94C711C82EF701EE5CFD4FD0809D
:103A2000D82609F43FC08091940281FF02C00E9411
:103A3000CD1100E010E0ED2DF0E0CF01002E02C02E
:103A4000959587950A94E2F780FF27C00E94CF28BA
:103A50000983BA826C2D70E0002E02C075956795BF
:103A60000A94E2F7617070706B8381609D838C8330
:103A7000402F5B2D782F8D810E947F21F701EE5C16
:103A8000FD4F81E090E0002E02C0880F991F0A943C
:103A9000E2F72081282720831DC00F5F1F4F0630CB
:103AA000110559F60894E11CF11C8EE0E816F104AA
:103AB00009F0ADCF0E94CF282FEF2E832F831886D9
:103AC0008160782F9A8789874FEF5FEF60E08A8562
:103AD0000E947F210E94A42C109131020E94981C08
:103AE000181731F00E94981C809331020E94EF1C3D
:103AF0002A960FB6F894DEBF0FBECDBFCF91DF91EF
:103B00001F910F91FF90EF90DF90CF90BF9008959D
:103B10000E94C6280E94F6110E948C2908950895DB
:103B2000DF93CF9300D000D00F92CDB7DEB70F90C8
:103B30000F900F900F900F90CF91DF910895DF932A
:103B4000CF9300D000D000D0CDB7DEB726960FB609
:103B5000F894DEBF0FBECDBFCF91DF9108950E94D4
:103B60003D26482F892F82958F70282F30E02C30EA
:103B700031054CF42A3031056CF4225030402230AB
:103B80003105C0F407C02C30310551F02F3031051C
:103B900089F406C0403E10F0403F61F481E0089592
:103BA0009F70892F90E023E0969587952A95E1F7FD
:103BB0008170089580E008950E94DD270E94ED271E
:103BC0000E94AC270E9405280E948D2C0E94992CEF
:103BD00080E090E00E94BB1C80E090E00E94D31C3B
:103BE00008950E94CD270E94DC1D0895882321F0AE
:103BF0000E94C3270E9405280895882321F00E946F
:103C0000BD270E9405280895282F882309F44EC057
:103C1000823859F40E94981C81FF48C089E30E94B1
:103C20003A270E94052889E30CC0833869F40E9472
:103C3000981C80FF3BC083E50E943A270E9405281C
:103C400083E50E9478271FC0843859F40E94981C8D
:103C500082FF2CC087E40E943A270E94052887E44F
:103C6000F0CF8450813A10F4822FEBCF822F805E08
:103C7000883060F4277081E090E001C0880F2A95B9
:103C8000EAF70E94C3270E9405280895822F855ACB
:103C9000833028F480E090E00E94BB1C0895285AED
:103CA000233120F480E090E00E94D31C08951F93FC
:103CB000182F882309F4D0C0823859F40E94981C28
:103CC00081FDCAC089E30E943A270E94052889E342
:103CD0000CC0833879F40E94981C80FDBDC083E538
:103CE0000E943A270E94052883E50E9478270E94B7
:103CF0000528B2C0843859F40E94981C82FDACC0DB
:103D000087E40E943A270E94052887E4EECF84507A
:103D1000813A50F4812F0E94DF2E882309F09CC045
:103D2000812F0E943A27E3CF812F805E883050F4A4
:103D3000177081E090E001C0880F1A95EAF70E94A1
:103D4000BD27D5CF812F855A8330A0F4153A19F4B9
:103D500081E890E00CC0163A19F482E890E007C0C0
:103D6000173A19F080E090E002C083E890E00E94EA
:103D7000BB1C72C0812F885A833108F06DC0183A7D
:103D800019F482EE90E066C0193A19F489EE90E0D9
:103D900061C01A3A19F48AEE90E05CC01B3A19F43B
:103DA00085EB90E057C01C3A19F486EB90E052C0C6
:103DB0001B3B19F483EB90E04DC01C3B19F484EBE2
:103DC00090E048C01D3A19F487EB90E043C0103BE7
:103DD00019F48CEC90E03EC01E3A19F48DEC90E0A2
:103DE00039C01F3A19F483E891E034C0113B19F44B
:103DF0008AE891E02FC0123B19F482E991E02AC0D1
:103E0000133B19F484E991E025C0143B19F481E2D5
:103E100092E020C0153B19F483E292E01BC0163BF0
:103E200019F484E292E016C0173B19F485E292E09F
:103E300011C0183B19F486E292E00CC0193B19F44A
:103E400087E292E007C01A3B19F080E090E002C0E0
:103E50008AE292E00E94D31C1F910895AF92BF9214
:103E6000CF92DF92EF92FF920F931F93DF93CF9346
:103E7000CDB7DEB72A970FB6F894DEBF0FBECDBF21
:103E80005C01DE011196FC0185E001900D928150EC
:103E9000E1F70B81F501F580F2944FE0F422DE01A9
:103EA0001696FE01319685E001900D928150E1F762
:103EB0003E812F8189859A85892B09F40FC22F3F76
:103EC00009F0FBC13F3F09F0F8C108C20E94DD279D
:103ED0008D2D82958F7090E08530910509F4AAC0F0
:103EE0008630910554F4843091050CF084C02D2D5A
:103EF000207F02970CF045C013C08C30910544F42C
:103F00008A3091050CF067C1089709F0E7C19EC09F
:103F10008C30910509F4BFC10F9709F0DFC1C5C10D
:103F20008D2D8F70222311F4182F03C0182F129596
:103F3000107F002389F0112309F499C18C2D805E34
:103F4000883020F4812F0E94BD2703C0812F0E945A
:103F5000D0270E9405288BC18C2D0E94041E11239E
:103F600009F4BCC1F0E2CF0E27E02C1520F0812F20
:103F70000E94C32703C0812F0E94D6270E940528D4
:103F8000ADC18D2D8F70203211F4182F03C0182F62
:103F90001295107FCC2021F081E0C81611F516C0D3
:103FA000002359F0FF2009F431C1E1E0FE1609F0C9
:103FB0002DC1812F0E94F02791C1FF2021F0F1E057
:103FC000FF1609F48BC10E94F32726C1002329F0B4
:103FD00021E02F1508F482C119C1FF2009F07EC12C
:103FE0001BC1002321F0FF2009F410C140C1FF20B4
:103FF00009F412C147C18D2D86958695837090E096
:10400000009721F0019709F069C10AC0002319F057
:10401000C601937002C080E090E00E94BB1C5EC1AC
:10402000002319F0C601937002C080E090E00E9466
:10403000D31C54C1002321F08C2D0E949B2B03C064
:104040008C2D0E94052C0E94992C48C18D2D8370C7
:1040500009F05EC0002309F041C12C2D2295269560
:104060002770220F220F8C2D8F70E82EFF2400E086
:1040700010E0022E04C0EE0CFF1C001F111F0A945A
:10408000D2F7C4FC05C060E070E080E090E00FC0B3
:104090006FE070E080E090E004C0660F771F881F3B
:1040A000991F2A95D2F76095709580959095D69432
:1040B000D694E3E0DE224D2D50E041305105A9F0C9
:1040C000423051051CF4452B49F008C142305105DE
:1040D00089F04330510509F001C113C06E297F29D1
:1040E000802B912B0E941527F9C06E297F29802BE8
:1040F000912B0BC06E297F29802B912B0E940427C6
:10410000EDC00E941527C801B7010E942627E6C00E
:1041100090E0002311F496958795817009F4DEC034
:104120002C2D229526952770220F220F8C2D8F7013
:10413000E82EFF2400E010E0022E04C0EE0CFF1C6D
:10414000001F111F0A94D2F7C4FC05C060E070E0A4
:1041500080E090E00FC06FE070E080E090E004C08D
:10416000660F771F881F991F2A95D2F76095709563
:1041700080959095D694D694F3E0DF224D2D50E0B3
:1041800041305105A9F0423051051CF4452B49F04E
:10419000A5C04230510589F04330510509F09EC059
:1041A00013C06E297F29802B912B0E94682696C010
:1041B0006E297F29802B912B0BC06E297F29802BA4
:1041C000912B0E9457268AC00E946826C801B70119
:1041D0000E94792683C020EFC21611F12C1528F019
:1041E00080EEC81608F43FC009C0E2EFCE1661F1B8
:1041F000CE1628F1F3EFCF16B1F52BC01C2D1F7092
:104200008D2D8F71002331F00E94C626812F0E94D0
:10421000FD1D64C00E94A626812F0E94F61D5EC06F
:10422000002321F0FF2009F059C004C021E02F1520
:1042300008F454C08D2D8F710E948A264FC08D2D99
:104240008F71002329F119C08D2D8F710023A9F0E2
:104250001FC0002329F08D2D8F710E94E2263EC0E1
:104260000E94F2263BC0002359F0FF2021F08C2D44
:104270000E94571E33C08D2D8F710E94C6262EC0FE
:10428000FF2021F08C2D0E94041E28C08D2D8F71DF
:104290000E94A62623C08FE0D822C5016C2D4D2D8B
:1042A0000E94940F0E947B2519C0EFE0DE22C50119
:1042B0006C2D4D2D0E940E1311C0C5010E948F1D43
:1042C00069817A81802F0E9448266C010E94F52521
:1042D0000E94F425002309F4FBCDF8CD2A960FB6F1
:1042E000F894DEBF0FBECDBFCF91DF911F910F912C
:1042F000FF90EF90DF90CF90BF90AF900895DF9345
:10430000CF93CDB7DEB72B970FB6F894DEBF0FBEB5
:10431000CDBF342F4F83252F588769877A878B87A6
:10432000472F582FFE01319686E0DF011D928A95B6
:10433000E9F76B8339832A834C835D83432F522FA4
:104340008D819E810E94BC242B960FB6F894DEBF0F
:104350000FBECDBFCF91DF9108950F931F930091B2
:10436000470215C010E0F801EE0FFF1FE00FF11F2C
:10437000EE0FFF1FE85BFD4F408151816281738129
:10438000848195810E949F1D0F5F1F4F0770809150
:104390004602081739F71F910F9108954091400286
:1043A0005091410260914202709143028091440217
:1043B000909145020E949F1D08950F931F93CF93E4
:1043C000DF938091450282958F7009F06DC08091D6
:1043D0004202882309F468C06091470200914602B6
:1043E0004091430250914402109141027091400269
:1043F000EA01C095D09555C04115510509F44FC04B
:104400001F3F49F480E090E07F3F11F481E090E0AD
:10441000882309F044C0262F30E0F901EE0FFF1F7A
:10442000E20FF31FDF01AA0FBB1FA85BBD4F119660
:104430008C911197181799F58C91781781F5EE0FDB
:10444000FF1FE65BFD4F8081882349F513968D9110
:104450009C9114978417950718F0841B950B02C044
:104460008C0F9D1F883C9105D0F4809145028F7080
:10447000806180934502F901EE0FFF1FE20FF31FE9
:10448000EE0FFF1FE35BFD4F80818F7080618083A3
:1044900080E492E00E942E1F0E94AD2105C06F5F54
:1044A0006770601709F0A8CFDF91CF911F910F912E
:1044B0000895DF92EF92FF920F931F93DF93CF93B4
:1044C000CDB7DEB76B970FB6F894DEBF0FBECDBF8A
:1044D0008C01DC011296DC9012974C9111965C9144
:1044E00011971396ED90FC90149720914302309110
:1044F000440260914102709140022115310509F496
:10450000DBC16F3F09F003C27F3F09F000C2D4C195
:10451000E216F30640F0C701821B930B883C91051D
:1045200008F0EEC008C0209530952E0D3F1D283CA8
:10453000310508F0E5C080914502807F09F095C003
:104540006F3F09F0EAC17F3F09F0E7C115C074175A
:1045500099F4DD2089F4809145028F708061809309
:1045600045020E94CE2180E492E00E942E1F80919D
:104570004502F8018583BCC1FD82EC825A834983E0
:10458000DB82DE011696FE01319685E001900D92E8
:104590008150E1F76885DE011B96FE01369685E0C5
:1045A00001900D928150E1F72C853B858E859F858A
:1045B000892B09F451C02F3F09F0B3C13F3F09F0E7
:1045C000B0C14AC0FD82EC825A834983DB82DE019E
:1045D0001B96FE01319685E001900D928150E1F726
:1045E000FC847B856D8580914702909146021FC0B7
:1045F000282F30E0F901EE0FFF1FE20FF31FDF015C
:10460000AA0FBB1FA85BBD4F11968C911197F8168E
:1046100051F48C91781739F4EE0FFF1FE65BFD4FD4
:1046200080816817C9F42F5F3F4F822F87708917E9
:10463000F9F68DC19F7059F0442349F459C19F7018
:1046400031F0D80115968C91807F09F451C1405EFC
:10465000483008F44DC148C1DD2009F449C18091BA
:10466000450281608093450243C16F3F09F05DC1FF
:104670007F3F09F05AC114C0741791F4DD2081F412
:1046800080914502F8018583C8010E942E1FA0E495
:10469000B2E0F80186E001900D928150E1F720C16F
:1046A0005A83498389819A810E94AF1D882309F426
:1046B0001BC1DD2009F418C130914502832F82957A
:1046C0008F7090E002979CF09091410220914002FF
:1046D000FE01709686E0DF011D928A95E9F7998BBD
:1046E000288BFC8AEB8A3D8BCF010E942E1FA0E411
:1046F000B2E0F80186E001900D928150E1F7EEC042
:1047000080914502807FA9F47E2DFD82EC825A8340
:104710004983DB826D2D8D810E94901D00E412E0A3
:10472000C8010E942E1F86E0F80111928A95E9F7D0
:10473000C0C06F3F09F0FDC07F3F09F0FAC014C050
:10474000741791F4DD2081F480914502D80115960B
:104750008C93C8010E942E1FE0E4F2E086E0DF01A6
:104760001D928A95E9F7BEC05A83498389819A814F
:104770000E94AF1D882309F4B7C0DD2009F4B4C03E
:1047800030914502832F82958F7090E002979CF0C4
:104790009091410220914002FE01769686E0DF0171
:1047A0001D928A95E9F79F8B2E8BFA8EE98E3B8FAF
:1047B000CF010E942E1FA0E4B2E0F80186E0019034
:1047C0000D928150E1F78AC06F3F09F0B6C07F3F7C
:1047D00009F0B3C071C0E216F30640F0C701821BB6
:1047E000930B883C910508F053C008C02095309584
:1047F0002E0D3F1D283C310508F04AC0DD2009F48C
:1048000073C06F3F09F09FC07F3F09F09CC029C073
:10481000741739F59091450290FD1AC0892F829541
:104820008F70B1F0F80195838F3031F08F5F8295F2
:10483000807F9F70982B9583C8010E942E1FA0E453
:10484000B2E0F80186E001900D928150E1F748C096
:10485000A0E4B2E0F80186E001900D928150E1F70A
:1048600041C05A83498389819A810E94AF1D882360
:1048700049F0A0E4B2E0F80186E001900D92815089
:10488000E1F72CC0809145028160809345022CC0E5
:104890007E2DFD82EC825A834983DB826D2D8D81D2
:1048A0000E94901DE0E4F2E086E0DF011D928A950F
:1048B000E9F70E94CE211CC0DD20B1F05A83498364
:1048C00089819A810E94AF1D882371F0A0E4B2E033
:1048D000F80186E001900D928150E1F70E94DD2100
:1048E0000E94CE2181E005C0C8010E942E1FFACF90
:1048F00080E06B960FB6F894DEBF0FBECDBFCF91B0
:10490000DF911F910F91FF90EF90DF9008958091BC
:104910004202882309F458CFFBCD651709F02CCE4D
:1049200016CE613009F498CE4DCE651709F0B8CE99
:10493000A3CE651709F018CF03CF809142028823D8
:1049400009F0BACF48CF651709F08BCF61CF5A83F2
:10495000498389819A810E943D26482F892F82951B
:104960008F70282F30E0223031050CF463CE2430D4
:1049700031050CF0B9CF63CE0F931F93DF93CF9324
:10498000CDB7DEB72C970FB6F894DEBF0FBECDBF04
:104990004F83588769877A878B879C878E01095F49
:1049A0001F4FC8010E9459228823D9F028853F81D2
:1049B0008A859B85892B09F46BC02F3F49F480E0E1
:1049C00090E03F3F11F481E090E0882309F060C05F
:1049D0004F81588569857A858B859C850E949F1DAE
:1049E00057C0DE011196F80186E001900D928150CA
:1049F000E1F7F981EA814C815D814115510509F4A6
:104A000047C0EF3F09F04CC0FF3F09F049C040C02C
:104A1000F983EA835D834C83F901EE0FFF1FE20FF8
:104A2000F31FEE0FFF1FE85BFD4FDE01119686E0DE
:104A30000D9001928150E1F7609346020E94AD21F2
:104A400027C0919FC0011124885B9D4F0E9459226D
:104A5000882309F445C08091470290E0FC01EE0FE5
:104A6000FF1FE80FF91FEE0FFF1FE85BFD4F4081AE
:104A7000518162817381848195810E949F1D809103
:104A8000470290E00196877090708093470201C0C2
:104A900016E09091470280914602981791F620C047
:104AA00080914602282F30E02F5F3F4FB901677099
:104AB0007070215030408091470290E0681779076C
:104AC00009F0A6CF0E94F11D1092460210924702F3
:104AD000E0E4F2E086E0DF011D928A95E9F7D8CFA5
:104AE0002C960FB6F894DEBF0FBECDBFCF91DF91ED
:104AF0001F910F910895CF92DF92EF92FF921F9333
:104B0000CF93DF93EC01009709F466C010E090EAC0
:104B1000C92E9FE0D92E81E0E82EF12CFE012196CE
:104B20009491943748F4943008F044C0913079F06F
:104B3000923009F051C01BC0953709F437C0953742
:104B400050F1892F8458803708F046C037C0FE01E5
:104B500021969491892F805E883060F597708E2D14
:104B600001C0880F9A95EAF70E94E0270FC0FE0166
:104B700021969491892F805E883058F497708E2DFD
:104B800001C0880F9A95EAF70E94E6270E9405283F
:104B900019C0892F15C0FE01249104C0C6010197D8
:104BA000F1F721502223D1F721960CC0FE01219666
:104BB000149108C0892F0E94571E04C0892F8F7737
:104BC0000E94041E212F04C0C6010197F1F7215055
:104BD000222309F4A3CFF8CFDF91CF911F91FF904B
:104BE000EF90DF90CF90089508950895AF92BF920F
:104BF000DF92EF92FF920F931F93CF93DF935C01AD
:104C0000E0907802F090790200917A0210917B0294
:104C100080917C0290917D02A0917E02B0917F02F2
:104C2000E82AF92A0A2B1B2BCFE1D0E0DC2ED80191
:104C3000C7010C2E04C0B695A795979587950A9441
:104C4000D2F781709070892B39F08C2FB5010E94BA
:104C5000E6138130910531F421978FEFCF3FD807CC
:104C600029F7DD248D2DDF91CF911F910F91FF90BA
:104C7000EF90DF90BF90AF9008950F931F938C013A
:104C80000E94F625B8010E94E6131F910F91089526
:104C9000CB010E943D26089560937C0270937D02B3
:104CA00080937E0290937F020E94DC1D08959B01F9
:104CB000AC0160917C0270917D0280917E029091A6
:104CC0007F0262277327842795270E944C26089528
:104CD0009B01AC0160917C0270917D0280917E020B
:104CE00090917F0262237323842395230E944C2694
:104CF00008959B01AC0160917C0270917D028091CE
:104D00007E0290917F02622B732B842B952B0E9445
:104D10004C26089521E030E040E050E004C0220F2E
:104D2000331F441F551F8A95D2F780917C029091C2
:104D30007D02A0917E02B0917F02282739274A2761
:104D40005B27CA01B9010E944C26089521E030E09A
:104D500040E050E004C0220F331F441F551F8A95C6
:104D6000D2F7209530954095509580917C02909196
:104D70007D02A0917E02B0917F02282339234A232D
:104D80005B23CA01B9010E944C26089521E030E05E
:104D900040E050E004C0220F331F441F551F8A9586
:104DA000D2F780917C0290917D02A0917E02B09119
:104DB0007F02282B392B4A2B5B2BCA01B9010E9499
:104DC0004C26089521E030E040E050E004C0220F7E
:104DD000331F441F551F8A95D2F7CA01B9010E949B
:104DE0004C26089560E070E080E090E00E944C2640
:104DF0000895609378027093790280937A02909379
:104E00007B020E94DC1D08959B01AC016091780239
:104E10007091790280917A0290917B0262277327C8
:104E2000842795270E94F92608959B01AC01609183
:104E300078027091790280917A0290917B026223CC
:104E40007323842395230E94F92608959B01AC01C6
:104E5000609178027091790280917A0290917B0240
:104E6000622B732B842B952B0E94F92608950E94A8
:104E7000F9260895382F809132018823E1F080913E
:104E80003D018823C1F0832F8695869586958F30C6
:104E900070F5E0913E01F0913F01E80FF11D377090
:104EA00081E090E002C0880F991F3A95E2F72181D6
:104EB000282B21830895A0913E01B0913F01FD016F
:104EC00020E08FEF9281931791F08F3F19F499238F
:104ED00009F4822F2F5F31962E30A1F78F3F39F0E2
:104EE000992787FD9095A80FB91F12963C930895B6
:104EF000482F809132018823E9F080913D01882379
:104F0000C9F0842F8695869586958F3020F5E0919F
:104F10003E01F0913F01E80FF11D477081E090E004
:104F200002C0880F991F4A95E2F78095218182235C
:104F30008183089520E030E0E0913E01F0913F014F
:104F4000E20FF31F8281841709F412822F5F3F4F13
:104F50002E30310589F7089581E090E0E0913E011F
:104F6000F0913F01E80FF91F108201968031910501
:104F7000A9F7089580919002089590919002982B3E
:104F80009093900208958095909190029823909329
:104F900090020895809390020895109290020895CF
:104FA00090919302982B90939302089580959091FD
:104FB0009302982390939302089510929302089578
:104FC00090919202982B90939202089580959091DF
:104FD000920298239093920208951092920208955B
:104FE000809391020895109291020895E0913E01FC
:104FF000F0913F0120E091E0818181112F5F9F5F5F
:1050000031969031C9F7822F0895E0913E01F091D9
:105010003F01809190028083E0913E01F0913F0139
:10502000808190919302892B8083E0913E01F091E1
:105030003F01808190919202892B8083909191020F
:10504000992369F0E0913E01F0913F018081892B25
:1050500080830E94F627882311F00E94F327809115
:105060003E0190913F010E94A51C08959B01AC0157
:10507000AA27BB270097A105B10521F4DA01C901D0
:1050800060E001C060E1292F3A2F4B2F55272115F1
:1050900031054105510519F49C01AD0101C0685F5E
:1050A000DA01C90174E0B695A795979587957A9529
:1050B000D1F70097A105B10519F4DA01C90101C0C2
:1050C0006C5F9C01AD01F2E05695479537952795A9
:1050D000FA95D1F7211531054105510519F49C01C7
:1050E000AD0101C06E5F56954795379527952115FF
:1050F00031054105510509F06F5F862F0895089528
:1051000008950E94F11D0E94981C0E942815089580
:105110008091AD02843021F11092950220E488E163
:1051200090E00FB6F894A895809360000FBE20938E
:10513000600080E00E94281583B7817F846083BF70
:1051400083B7816083BF7894889583B78E7F83BF50
:1051500088E10FB6F89480936000109260000FBE53
:1051600008951F930E947F280E9413120E94802896
:1051700010E0812F0E94C711882311F081E004C044
:105180001F5F1E30B1F780E01F91089582E084BD5B
:1051900093E095BD9AEF97BD80936E0008958FB709
:1051A000F894209196023091970240919802509184
:1051B00099028FBFC9010895EF92FF920F931F9339
:1051C000BC018FB7F894E0909602F090970200919E
:1051D0009802109199028FBFA801970140705070FA
:1051E000CB01A0E0B0E0281739074A075B0720F0A1
:1051F0009701261B370B05C09B01209530952E0D7E
:105200003F1DC9011F910F91FF90EF9008951F92CC
:105210000F920FB60F9211248F939F93AF93BF936A
:105220008091960290919702A0919802B091990274
:105230000196A11DB11D8093960290939702A093B1
:105240009802B0939902BF91AF919F918F910F9067
:105250000FBE0F901F9018950E947E19F89480E25F
:105260009EE420E931E0F9013197F1F70197D9F790
:1052700087E090EBA7E0B0EB8093B6029093B70283
:10528000A093B802B093B9022CE088E190E00FB689
:10529000F894A895809360000FBE20936000FFCF24
:1052A000EF92FF920F931F93CF93DF93082F10E09D
:1052B000812F0E94C711C0E0D0E0E82EFF24C70173
:1052C0000C2E02C0959587950A94E2F780FF09C0DD
:1052D00080E06C2F712F0E94BE13081711F481E03B
:1052E00008C02196C630D10551F71F5F1E3001F767
:1052F00080E0DF91CF911F910F91FF90EF90089583
:105300001F93182F8CE20E945029882319F0812FB7
:105310000E9450291F9108951F93CF93DF930E94FD
:10532000FA2A882311F40E94052B14E6C0E4DCE974
:1053300005C00E941312CE010197F1F71150C8F772
:1053400089E20E948029882309F02FC18AE20E9405
:105350008029882311F00E94052B85E00E94802976
:10536000882311F00E942C290E94F52A8093940230
:1053700087E00E9480298823B9F18BE10E9480296F
:10538000882349F090919402892F869580958170A9
:10539000880F9D7F26C08EE00E948029882359F0C7
:1053A00090919402892F8695869580958170880FBB
:1053B000880F9B7F16C080E10E9480299091940203
:1053C000882359F0892F86958695869580958170DA
:1053D000880F880F880F977F04C0892F8095817070
:1053E0009E7F982B90939402809194020E94E52ACC
:1053F0000E94EB2A8093A70280EE0E9480298823D6
:1054000049F08091A702982F909591708E7F892BFB
:105410008093A70289E30E948029882359F0909104
:10542000A702892F869580958170880F9D7F982B84
:105430009093A70282EE0E948029882369F09091C0
:10544000A702892F8695869580958170880F880F91
:105450009B7F982B9093A70286EE0E948029882339
:1054600079F09091A702892F8695869586958095EB
:105470008170880F880F880F977F982B9093A702D1
:1054800083EE0E948029882369F09091A702892FDA
:1054900082958F70809581708295807F9F7E982BFA
:1054A0009093A70285E30E948029882379F0909148
:1054B000A702892F82958695877080958170829545
:1054C000880F807E9F7D982B9093A70281E30E9496
:1054D0008029882389F09091A702892F829586954B
:1054E00086958370809581708295880F880F807C67
:1054F0009F7B982B9093A70281E10E9480298823AB
:1055000079F08091A702982F991F9927991F21E080
:1055100092279795992797958F77892B8093A70244
:105520008091A7020E94D92A8091A702881F88270C
:10553000881F80933D0187E20E948029182F8EE109
:105540000E948029811112608FE10E9480298111BF
:10555000146080E20E9480298111186081E20E941B
:1055600080298111106182E20E94802981111062DC
:1055700083E20E9480298111106484E20E948029C4
:1055800081111068112341F0812F0E94DF2A612FC1
:1055900070E080E090E007C00E94F02A90E0A0E078
:1055A000B0E0BC01CD010E943727DF91CF911F9160
:1055B0000895682F84E090E00E9469310895682F73
:1055C00083E090E00E9469310895682F82E090E0C6
:1055D0000E946931089584E090E00E945B31089553
:1055E00083E090E00E945B31089582E090E00E94A9
:1055F0005B31089580E090E00E94633120E08D5E91
:105600009E4F09F421E0822F089580E090E06DEE36
:105610007EEF0E94773182E090E060E00E94693185
:1056200083E090E060E00E94693184E090E060E017
:105630000E94693185E090E060E00E946931089540
:105640008091A00280FF0BC09091420185E0989F5D
:10565000C0011124959587959595879530C081FF58
:1056600009C09091420185E0989FC0011124959551
:10567000879525C082FF03C0909142010DC08091A3
:105680009F02882319F485E090E00895609143011A
:1056900090914201861728F085E0989FC00111245F
:1056A0000EC0899F90011124C901880F991F880F8E
:1056B000991F820F931F70E00E944831CB01803800
:1056C000910510F08FE70895009709F481E008959F
:1056D0008091A00280FF05C0809144018695869547
:1056E00018C081FF04C080914401869512C082FFDA
:1056F00003C0809144010DC020919F02222319F420
:1057000081E090E008956091450180914401261761
:1057100010F090E007C0289FC001112470E00E94A3
:105720004831CB018038910510F08FE7089500973C
:1057300009F481E00895803F21F40E94202B819597
:1057400004C0813F29F40E94202B80939C0208957D
:10575000823F21F40E94202B819504C0833F29F4CD
:105760000E94202B80939B020895893F19F40E9488
:10577000682B05C08A3F31F40E94682B8195809385
:105780009D0208958B3F21F40E94682B819504C0EF
:105790008C3F29F40E94682B80939E020895843FD9
:1057A00021F480919A02816017C0853F21F4809195
:1057B0009A02826011C0863F21F480919A0284602F
:1057C0000BC0873F21F480919A02886005C0883F12
:1057D00031F480919A02806180939A0208958D3FFE
:1057E00021F48091A002816005C08E3F31F4809148
:1057F000A00282608093A00208958F3F29F48091D7
:10580000A00284608093A0020895803F29F48091D3
:105810009C0287FF6FC007C0813F41F480919C02CA
:1058200018160CF067C010929C0264C0823F29F4E5
:1058300080919B0287FF5EC007C0833F41F4809147
:105840009B0218160CF056C010929B0253C0893F61
:1058500029F480919D0218163CF04CC08A3F39F41F
:1058600080919D0287FF46C010929D0243C08B3FEE
:1058700029F480919E0287FF3DC006C08C3F39F419
:1058800080919E021816B4F510929E0233C0843F98
:1058900021F480919A028E7F05C0853F31F480917A
:1058A0009A028D7F80939A0225C0863F21F48091D1
:1058B0009A028B7FF7CF873F21F480919A02877FEE
:1058C000F1CF883F21F480919A028F7EEBCF8D3FFC
:1058D00021F48091A0028E7F0BC08E3F21F4809135
:1058E000A0028D7F05C08F3F29F48091A0028B7F9D
:1058F0008093A00280919B02882371F480919C0286
:10590000882351F480919D02882331F480919E0276
:10591000882311F410929F020895EAE9F2E085E0ED
:10592000DF011D928A95E9F710929F021092A00262
:1059300008958AE992E00E94B01C0E94CF289093BB
:10594000A2028093A10208951F938091A1029091D9
:10595000A2020E94DC28AC0120919F02222321F0A8
:105960008091410190E006C0909140018AE0989FAB
:10597000C00111244817590708F485C090919B0273
:10598000992369F480919C02882349F480919D02B7
:10599000882329F480919E02882309F474C02F3F44
:1059A00019F02F5F20939F02191624F40E94202BD8
:1059B00080939B0280919B0287FF05C00E94202B51
:1059C000819580939B0280919C02181624F40E947A
:1059D000202B80939C0280919C0287FF05C00E942F
:1059E000202B819580939C0260919B02662339F164
:1059F00010919C02112319F1772767FD7095872F6D
:105A0000972F0E94453023E333E343E35FE30E9493
:105A1000A9300E94123060939B02612F772767FDA7
:105A20007095872F972F0E94453023E333E343E39C
:105A30005FE30E94A9300E94123060939C02809123
:105A40009D02181624F40E94682B80939D02809179
:105A50009D0287FF05C00E94682B819580939D025F
:105A600080919E02181624F40E94682B80939E0257
:105A700080919E0287FF05C00E94682B81958093CC
:105A80009E020E94992C1F91089580E0089580E065
:105A90000895833099F1843030F4813069F0823098
:105AA00009F06FC01AC0853009F44AC08530B8F1DA
:105AB000863009F066C055C020914001822F90E0E9
:105AC000860F911D8F3F910520F4260F20934001F2
:105AD00008958FEF80934001089520914101822F16
