:100000000C946F0D0C94B30D0C94B30D0C94B30DB4
:100010000C94B30D0C94B30D0C94B30D0C94B30D60
:100020000C94B30D0C94B30D0C94361A0C94FA196D
:100030000C94B30D0C94B30D0C94B30D0C94B30D40
:100040000C94B30D0C94CF2F0C94B30D0C94B30DF2
:100050000C94B30D0C9403290C94B30D0C94B30DB4
:100060000C94B30D0C94B30D0C94B30D0C94B30D10
:100070000C94B30D0C94B30D0C94B30D0C94B30D00
:100080000C94B30D0C94B30D0C94B30D0C94B30DF0
:100090000C94B30D0C94B30D0C94B30D0C94B30DE0
:1000A0000C94B30D0C94B30D0C94B30D0000000030
:1000B000000400000000160000000004160000000C
:1000C0000600000000040600000016060000000400
:1000D00016060000170000000004170000001617A5
:1000E00000000004161700000700000000040700CD
:1000F00000000A00000000040A0000001A000000CE
:1001000000041A000000161A0000000000000000A1
:100110001300000000041300000016130000000488
:1001200016130000171A00000004171700001B0028
:10013000000000041B000000071A0000000407076D
:1001400000000A1A000000040A0A00000B00000068
:1001500000040B000000160B00000004160B00004A
:10016000060B00000004060B000016060B00000042
:1001700000000000170B00000004170B0000000037
:100180000000000416170B0009000000000409001D
:1001900000000A0B000000040A0B00001A0B00000C
:1001A00000041A0B00000000000000000000000026
:1001B000130B00000004130B000016130B000004C7
:1001C00016130B000E00000000040E000000160EB7
:1001D00000000004160E00000500000000040500E9
:1001E00000000000000000040505000011000000F0
:1001F000000411000000161100000004111100009D
:100200001D00000000041D00000016160000000480
:10021000161600001900000000041900000016194D
:100220000000000000000000070819000004071982
:1002300000000A11000000040A1100001000000074
:10024000000410000000161000000004161000004A
:100250001311000000041010000000000000000452
:10026000131300000D00000000040D00000000004A
:100270000000000000000000070810000004071044
:100280000000000000000004070D00001C0000003A
:1002900000041C000000161C00000004161C0000D6
:1002A000061C00000004060600000000000000001C
:1002B00000000000171C00000000000000001617DE
:1002C0001C00000000000000071C000000040909D9
:1002D00000000A1C0000000409170000101C0000A8
:1002E000000000000000000000000000000000000E
:1002F000131C000000000000000016131C00000486
:1003000016130B1C0E1100000004060E11001B1C1E
:100310000000000000000000051C00000004051C97
:1003200000000000000000000000000015000000B8
:100330000004150000001608150000041515000043
:10034000061500000004061500001606150000043E
:1003500016061500171500000004171500001617E3
:10036000150000000000000007150000000407153C
:1003700000000A15000000040A1500001A1500000C
:10038000000000000000000000000000000000006D
:1003900013150000000413150000161315000004C7
:1003A00013131500000000000004171715001B159B
:1003B0000000000000000000070815000004070707
:1003C00015000000000000040A0A1500150B0000CB
:1003D000000000000000160B1500000000000000E7
:1003E000060B1500000406061500000000000000C2
:1003F00000000000170B15000004170B0F00000091
:1004000000000000000000000915000000040915AC
:1004100000000000000000040909150000000000B1
:1004200000000000000000000000000000000000CC
:10043000130B15000004130B150000000000000052
:10044000000000000E150000000000000000000089
:100450000000000000000000051500000004051564
:100460000000000000000004050515000F0000005A
:1004700000040F000000160F00000004160F00001B
:10048000060F000000000000000000000000000057
:100490000000000014000000000414000000161406
:1004A000000000041614000007080F0000040614E2
:1004B00000000A0F000000040A0F000010150000E1
:1004C00000040F0F0000000000000000000000000A
:1004D000130F00000004130F000016130F00000498
:1004E00013130F000D08150000000000000016088F
:1004F00015190000000000000000000000040707BC
:100500000F000000000000040A0A0F000F1C00008A
:10051000000000000000160F1C000000000000009A
:1005200006151C00000406060F0000000000000075
:100530000000000017151C00000000000000161746
:10054000151C000000000000090F00000004090F46
:10055000000000000000000409090F000000000076
:10056000000000000000000000000000000000008B
:10057000130B0F000000000000000000000000004E
:10058000000000000E0F000000000000000000004E
:100590000000000000000000050F00000004050F2F
:1005A000000000000000000000000000000000004B
:1005B0000008000000001200000000081200000007
:1005C00004000000000804000000120400000008FD
:1005D00012040000180000000008180000001218A3
:1005E0000000000812180000041800000008041899
:1005F0000000120418000008120418000C0000008B
:1006000000080C000000120C00000008120C000092
:10061000040C00000008040C000012040C00000888
:1006200012040C00180C00000008180C000012182E
:100630000C00000812180C0004180C000008041824
:100640000C001204180C00081204180C0000000022
:10065000000808000000121200000012080000004C
:100660000404000000040800000004120000000858
:1006700004120000181800000018080000001812EA
:1006800000000008181200001804000000081804F8
:100690000000121804000008121804000C0C0000DE
:1006A000000C080000000C12000000080C120000F2
:1006B0000C04000000080C040000120C04000008E8
:1006C000120C04000C18000000080C1800000C129A
:1006D00018000008120C1800040C18000008040C84
:1006E000180012040C18000812040C180000000076
:1006F00000150000000011000000001511000000AE
:100700000F00000000150F00000016000000000F91
:100710000F0000000A00000000150A000000110A86
:100720000000000A110000000F0A00000000000095
:1007300000000700000000070F0000000600000096
:100740000015060000001106000000000000000077
:100750001300000000151300000016130000001322
:100760000F000000050000000015050000000A0A47
:100770000000000000000000050F00000000000065
:10078000000000000000000F050000000B0000004A
:10079000001A0000000019000000001A11000000FB
:1007A0001D000000001A0F000000160B0000000FD3
:1007B000190000000A0B000000150A0B00001000D1
:1007C00000000015100000001B00000000000000E9
:1007D000000016100000000F10000000060B0000C3
:1007E0000015060B000011060B0000151900000093
:1007F000130B000000000000000000000000000FCC
:10080000060B00000900000000150900000010059B
:1008100000000000000000000F09000000000000C0
:10082000000010130000000000000000170000008E
:100830000015170000001117000000151117000027
:100840000F17000000000000000016170000001540
:10085000161700000E00000000150E000000110E1B
:1008600000000000000000000E0F0000000000006B
:100870000000160E0000000F0E000000061700001A
:10088000000000000000170C121100000000000022
:100890001317000000000000000011161700000FE1
:1008A00013000000060E0000000000000000051705
:1008B0000000000000000000060E0F000000000015
:1008C000000000000000000000000000170B000006
:1008D0000015170B000011170B00001A170B000072
:1008E0000F170B00000000000000000000000000D7
:1008F000000000000A0B1700001A0E000000110A89
:10090000170B0000000000001B1700000000000093
:10091000000007170B0000000000000017060B0086
:1009200000000000000000000000000000000000C7
:1009300013170B0000000000000000000000000082
:100940000000000009170000000000000000000087
:100950000000000000000000000000000000000097
:100960000000101317000000000000001600000037
:1009700000151600000011160000001511160000E9
:100980000F16000000150F16000016160000000FCD
:100990000F1600000A16000000150A160000110AC2
:1009A0001600000A11160000000000000000000000
:1009B00000000716000000000000000006160000FE
:1009C00000150616000011060816000000000000C1
:1009D000131600000015131600001613160000135E
:1009E0000F081600051600000015051600000A0A7B
:1009F0001600000000000000050F081600000000AF
:100A0000000000000000000F051600000B1600009B
:100A1000001A1600000019081600001A111600002E
:100A20001D081600001A0F160000160B0816000FFE
:100A3000190816000A0B160000000000000010162E
:100A400000000015101600001B0816000000000032
:100A5000000016101600000F10160000070000001E
:100A600000150700000011070000001A0700000031
:100A7000130B160000150F07000000000000000F08
:100A800007000000070A0000000000000000100539
:100A90001600000000000000000000000000000040
:100AA00000001013160000000000000017160000E0
:100AB00000151716000011171600000000000000B6
:100AC0000F17160000000000000016171600001592
:100AD000161716000E16000000150E160000110E57
:100AE00016000000000000000000000000000000F0
:100AF0000000160E1600000F0E1600000617160056
:100B0000000000000000170C121116000000000089
:100B10000000000000000000000000000000000FC6
:100B200013160000060E1600000000000000051756
:100B30001600000000000000060E0F08160000005E
:100B4000000000000000000000000000170B16006D
:100B50000015170B160011170B16001A170B1600AD
:100B60000000000000000000000000000000000085
:100B7000000000000A0B1716001A0E160000110ADA
:100B8000170B16000000000000000000000000002D
:100B9000000007170B1600000000000007160000F9
:100BA00000150716000011071600001A07160000AE
:100BB00013170B1600150F07160000000000000F9A
:100BC0000716000000000000000000000000000008
:100BD0000000000000000000000000000000000015
:100BE00000001013171600000000000000000000B5
:100BF0000008000000001C00000000081C000000AD
:100C00000000000000002C00000000002B0000008D
:100C100000000000000000002800000000000000AC
:100C200000000000000000000000000000000000C4
:100C30000000000000001E00000000001F00000077
:100C40000000200000000000210000000000220041
:100C5000000000002300000000002400000000004D
:100C60002500000000002600000000001E002700F4
:100C700000001E001E0000001E001F0000001E00DD
:100C8000200000001E00210000001E0022000000C5
:100C90002700000000001E00270000001F002700A2
:100CA0000000200027000000210027000000220093
:100CB0002700000023002700000024002700000078
:100CC0002500270000002600270000001E00270046
:100CD00027001E001E0027001E001F0027001E0008
:100CE000200027001E00210027001E0022002700F0
:100CF0000000000000001E00000000001F000000B7
:100D00000000200000000000210000000000220080
:100D1000000000002300000000002400000000008C
:100D20002500000000002600000000001E00270033
:100D300000001E001E0000001E001F0000001E001C
:100D4000200000001E00210000001E002200000004
:100D50002700000000001E00270000001F002700E1
:100D600000002000270000002100270000002200D2
:100D700027000000230027000000240027000000B7
:100D80002500270000002600270000001E00270085
:100D900027001E001E0027001E001F0027001E0047
:100DA000200027001E00210027001E00220027002F
:100DB0000000000000001E020000000029000000EA
:100DC00000000000000000002502000000000000FC
:100DD0000000000000000000000000000000000013
:100DE0002D020000000000000000000000000000D4
:100DF00000000000000000000000000000000000F3
:100E000000000000000000000000000000000000E2
:100E10002F020000000000000000000000000000A1
:100E200000000000000000000000000000000000C2
:100E300000000000000000000000000000000000B2
:100E400000000000000000000000000000000000A2
:100E50000000000000000000000000000000000092
:100E60000000000000000000000000000000000082
:100E7000260200000000000000000000000000004A
:100E80000000000000000000000000000000000062
:100E90000000000000000000000000000000000052
:100EA0000000000000000000000000000000000042
:100EB0000000000000000000000000000000000032
:100EC0000000000000000000000000000000000022
:100ED0002F000000000000000000000000000000E3
:100EE0000000000000000000000000000000000002
:100EF00000000000000000000000000000000000F2
:100F000000000000000000000000000000000000E1
:100F100000000000000000000000000000000000D1
:100F200000000000000000000000000000000000C1
:100F30000000000000003300000000003400160034
:100F40000000340010000000370000000000000026
:100F50000000000011003400170000000000000035
:100F600036000000000000000000000034000F0008
:100F70000F00000000000000000000000000000062
:100F80000000000000000000000000000000000061
:100F900030020000000000000000000034001900D2
:100FA0000800000000000000000000000000000039
:100FB0000000000000000000000000000000000031
:100FC0000000000000000000000000000000000021
:100FD0000000000000000000000000000000000011
:100FE0000000000000000000000000000000000001
:100FF000270200000000000000000000340007008D
:1010000000000000000000000000000000000000E0
:1010100000000000000000000000000000000000D0
:1010200000000000000000000000000000000000C0
:1010300000000000000000000000000000000000B0
:1010400000000000000000000000000000000000A0
:101050003000000000000000000000000000000060
:101060000000000000000000000000000000000080
:101070000000000000000000000000000000000070
:101080000000000000000000000000000000000060
:101090000000000000000000000000000000000050
:1010A0000000000000000000000000000000000040
:1010B0000000000000002602000000002D020000D9
:1010C00000000000000000002702000000002602CF
:1010D00027020000000000000000000000000000E7
:1010E0002D000000000000000000000000000000D3
:1010F00000000000000000000000000000000000F0
:1011000000000000000000000000000000000000DF
:101110003700000000000000000000000000000098
:101120000000000000000000270237000000260237
:10113000270237000000000000000000000000004F
:10114000000000000000000000000000000000009F
:10115000000000000000000000000000000000008F
:10116000000000000000000000000000000000007F
:101170003600000000000000000000000000000039
:1011800000000000000000002702360000002602D8
:1011900027023600000000000000000000000000F0
:1011A000000000000000000000000000000000003F
:1011B000000000000000000000000000000000002F
:1011C000000000000000000000000000000000001F
:1011D00033000000000000000000000000000000DC
:1011E000000000000000000027023300000026027B
:1011F0002702330000000000000000000000000093
:1012000000000000000000000000000000000000DE
:1012100000000000000000000000000000000000CE
:1012200000000000000000000000000000000000BE
:101230000000000000003700000000003700000040
:101240000000330200000000260200000000000041
:101250000000000036020000000000000000000056
:10126000340000000000000000000000000000004A
:101270000000000000000000340200000000000038
:10128000000000000000000000000000000000005E
:101290002702000000000000000000000000000025
:1012A000000000000000000026022702500000009D
:1012B000000000000000000000000000000000002E
:1012C000000000000000000000000000000000001E
:1012D000000000000000000000000000000000000E
:1012E00000000000000000000000000000000000FE
:1012F00038020000000000000000000000000000B4
:1013000000000000000000003702000000000000A4
:10131000000000003602370250000000000000000C
:101320003400340050000000000000000000000005
:1013300000000000000000003402340250000000F1
:10134000000000000000000000000000000000009D
:101350001E0200000000000000000000000000006D
:10136000000000000000000000000000000000007D
:10137000000000000000000000000000000000006D
:10138000000000000000000000000000000000005D
:10139000000000000000000000000000000000004D
:1013A000000000000000000000000000000000003D
:1013B000000000000000000000000000200000808D
:1013C0002000008000000000840000800000000079
:1013D0003000008021000080210000805200008049
:1013E00080000080320000803100008040000080DA
:1013F00041000080500000808100008033000080A8
:1014000042000080430000800000000011000080C6
:10141000820000803400008044000080450000808D
:101420000000000051000080830000803500008033
:10143000460000804700008000000000100000808F
:1014400000000000B20000800000000010000080DA
:10145000000000001000008000000000B0000080CC
:1014600000000000B00000800000000010000080BC
:1014700093000080A5000080600000806100008073
:10148000000000001000008092000080A400008096
:1014900062000080630000800000000052000080B5
:1014A00091000080A300008064000080650000803F
:1014B000000000001100008090000080A200008069
:1014C000A10000806600008067000080540000805A
:1014D0009400008000000000A000008070000080E8
:1014E0007100008053000080000000000000000038
:1014F00000000000210000802100008000000000AA
:1015000000000000000000000000000000000000DB
:1015100000000000000000000000000000000000CB
:1015200000000000000000000000000000000000BB
:1015300000000000000000000000000000000000AB
:10154000000000000000000000000000000000009B
:10155000000000000000000000000000000000008B
:10156000000000000000000000000000000000007B
:10157000000000000000000000000000000000006B
:10158000000000000000000000000000000000005B
:10159000000000000000000000000000000000004B
:1015A000000000000000000000000000000000003B
:1015B000000000000000000000000000000000002B
:1015C000000000000000000000000000000000001B
:1015D000000000000000000000000000000000000B
:1015E00000000000000000000000000000000000FB
:1015F00000000000000000000000000000000000EB
:1016000000000000000000000000000000000000DA
:1016100000000000000000000000000000000000CA
:1016200000000000000000000000000000000000BA
:1016300000000000000000000000000000000000AA
:10164000000000000000000000000000000000009A
:10165000035221022B000030E00000002F00140094
:1016600004001D002402E3002F021A0015001B00D5
:10167000E2002A003002090016000600520028008D
:101680002602130017001900510046002E000A0020
:101690000700050000000352240249000000290051
:1016A0000000035420022A00000028000000035418
:1016B00025020D000B000E000000035227020F0050
:1016C00011001000500000002E0218000800360023
:1016D0004F002C0030001C000C00370031004C0083
:1016E0001E023300120034001F02000001543800B3
:1016F0002D000030E40000000100E200E0000230B4
:101700000230000002302B00023002300230023082
:101710000230023002300230023002300230023039
:10172000023002300100023002300230023002305A
:10173000010002300230023002300230000002307C
:101740002A00023000000230000002304C0002305B
:10175000000002300000023002300230023002305D
:10176000000002300230023002300230010002304C
:10177000023002300230023001000230023002300A
:1017800002300230023002300230023002300230C9
:10179000023002300100E600E400023002300000B6
:1017A00001003500010001000100000001300100CE
:1017B00001000100220001000130010001000100D0
:1017C00001000100013001000100010001000100E1
:1017D00001300100010001000100010001300100A1
:1017E00001000100000001002200010000000100D2
:1017F00000000100013001000000010000000100B4
:101800000130010001000100000001000130010071
:101810000100010001000100013001000100010090
:101820000100010001300100010001000100010080
:101830000130010001000100013001000100010040
:101840000100010001000000010001000100E100B1
:10185000010000003A000100010001000100010048
:101860003B00010001000100010001003C000100FB
:10187000010001004E0001003D00010001000100D7
:101880004B0001003E0001000100010000000100CA
:101890003F000100000001000000010040000100C5
:1018A00000000100000001004100010001000100F2
:1018B0000000010042000100010001004A00010097
:1018C00043000100010001004D000100440001003F
:1018D00001000100010001004500010001000100BC
:1018E00001000050000001000100E50001000000BF
:1018F00005010906A101050719E029E715002501E1
:101900009508750181029501750881010508190185
:10191000290595057501910295017503910105074A
:10192000190029FF150025FF950675088100C005DF
:10193000010902A1010901A10005091901290515E3
:101940000025019505750181029501750381010549
:1019500001093009311581257F9502750881060935
:10196000381581257F950175088106050C0A380216
:101970001581257F950175088106C0C00501098084
:10198000A101850216010026B7001A01002AB7003E
:10199000751095018100C0050C0901A10185031690
:1019A0000100269C021A01002A9C027510950181F3
:1019B00000C005010906A101050719E029E7150086
:1019C000250195087501810205081901290595056C
:1019D0007501910295017503910105071900297799
:1019E00015002501957875018102C01201100100D2
:1019F000000008EDFE071301000102000109026D5D
:101A000000040100A0FA090400000103010100091B
:101A10002111010001223F000705810308000A0986
:101A20000401000103010200092111010001224DFE
:101A3000000705820308000A0904020001030000F0
:101A40000009211101000122360007058303080067
:101A50000A0904030001030000000921110100012B
:101A6000223900070584031000010403090416034A
:101A70004500720067006F0044006F00780020008E
:101A800045005A00000016034500720067006F0011
:101A900044006F007800200045005A00000000005C
:101AA000000000000000000000010204060A0F17F9
:101AB000202C3A4A5D71879DB3C7DAE9F5FCFFFC3B
:101AC000F5E9DAC7B39D87715D4A3A2C20170F0AF2
:101AD00006040201000000000000000000001124C4
:101AE0001FBECFEFDAE0DEBFCDBF04B603FE24C0D9
:101AF0008091BA029091BB02A091BC02B091BD024C
:101B00008750904BA740B04BB9F41092BA02109294
:101B1000BB021092BC021092BD0214BE84B7877F34
:101B200084BF88E10FB6F894809360001092600043
:101B30000FBEE0E0FFE3099511E0A0E0B1E0E4E1D1
:101B4000F3E602C005900D92A638B107D9F712E06E
:101B5000A6E8B1E001C01D92AA3BB107E1F70E94DF
:101B600018160C9488310C94000080918601909195
:101B70008701A0918801B09189010097A105B10565
:101B800019F080E090E0089520E080918A01909122
:101B90008B01A0918C01B0918D010097A105B10539
:101BA00009F021E081E02827822F089590E08450F9
:101BB0008A3108F491E0892F089508951F93609168
:101BC00080027091810280918202909183020E9432
:101BD0003228182F569A5E9A25982D9826982E9876
:101BE00027982F980E94941C81FF02C0259A2D9A55
:101BF000113029F0133029F4269A2E9A02C0279A20
:101C00002F9A0E94B50D882311F4269A2E9A1F91BF
:101C10000895FF920F931F93182F062F0E94B62747
:101C2000F82E812F0E94C627802F0E94531E8F2DD1
:101C30000E94C6271F910F91FF9008952F923F9207
:101C40004F925F926F927F928F929F92AF92BF92CC
:101C5000CF92DF92EF92FF920F931F93DF93CF9378
:101C600000D000D000D0CDB7DEB70E94B6278A835F
:101C700082E10E94BF2720919301298380918F01E7
:101C800090E0332433943822DC01A270B070BC831E
:101C9000AB8380919001882319F4442455240DC00E
:101CA0004424823011F4442443945524833011F4A5
:101CB0005524539482E00E94B92758E1852E51E0C3
:101CC000952EAA242224EE24FF24F701E257FE4F8A
:101CD0008081882309F4B4C02224B1E0EB16F1041A
:101CE00011F022242394F701EE5AFE4FE081F5E033
:101CF000EF16F10439F43320F9F04CE4C42E46E039
:101D0000D42E21C024E0E216F10461F43320A1F0C6
:101D10003981332389F48695869530EBC32E30E1E3
:101D2000D32E57C096E0E916F10431F4332021F0A8
:101D3000A981AA2309F4D6C0D401CD90DC90C114A6
:101D4000D10409F47DC0E13009F043C0B5E08B9FB8
:101D500030011124BB2410E0F601E60DF71D0491BB
:101D60000023A9F0802F0E94531E802F0E94001E86
:101D7000A394442019F0E1E0AE1629F0552001F1BA
:101D8000F2E0AF16E9F482E00E94BF2719C02B8170
:101D90003C81232B09F454C031E0B31609F050C044
:101DA00086E0E816F10409F04BC0112309F448C09D
:101DB000812F0E94531E812F0E94001EA39440C0B9
:101DC0000894611C711C94E0B916D1F1B394102FE2
:101DD000C3CFA3E08A9F3001112400E010E0F80196
:101DE000E60DF71DEE0FFF1FEC0DFD1D2591349143
:101DF0003E832D83232B21F1BD808B2D0E94D60D98
:101E0000882321F08B2D0E94531E04C08E816D818A
:101E10000E94090E8B2D0E94001EA394442019F0ED
:101E200031E0A31629F0552031F082E0A81619F40C
:101E300082E00E94BF270F5F1F4F0330110579F624
:101E40000894E11CF11CA2E0B0E08A0E9B1EBCE0ED
:101E5000EB16F10409F039CFAA2099F08091FE0128
:101E6000843611F41092FE018091FE01E82FFF27C5
:101E7000E7FDF095E656FE4FA0828F5F8093FE014E
:101E800026C0332021F1222011F50091FE010150DE
:101E900007FD03E6C02EDD24C7FCD094F601E6560C
:101EA000FE4FF080FF2099F010E007C08AE20E9408
:101EB000531E8AE20E94001E1F5F1F15B8F3EAE955
:101EC000F1E0CE0EDF1ED6011C920093FE018A8146
:101ED0000E94C627EEE8F1E01192B1E0EA39FB0773
:101EE000D9F705C090E3C92E92E1D92E72CF26967C
:101EF0000FB6F894DEBF0FBECDBFCF91DF911F911B
:101F00000F91FF90EF90DF90CF90BF90AF909F9098
:101F10008F907F906F905F904F903F902F9008959B
:101F20008F929F92AF92BF92CF92DF92EF92FF92E9
:101F30000F931F93CF93DF936C01613009F4E1C0DD
:101F4000613008F4CCC0623009F0F7C0FC01818137
:101F500096E0899FD00111248081A80FB11DFD0159
:101F6000EE0FFF1FEE0FFF1FE055FC4E2591359140
:101F700045915491211531054105510509F4DDC004
:101F800057FF71C0C9018F70907061E0E62EF12C8F
:101F9000012D112D04C0EE0CFF1C001F111F8A958E
:101FA000D2F794E056954795379527959A95D1F7AE
:101FB0008FE0982E9222A92CBB24F501EA5BFE4FFC
:101FC0008080F501EE0FFF1FE050FF4FC081D181EF
:101FD000F6018281882311F1F2E09F1619F481EE57
:101FE0000E94531EA801970104C0220F331F441FF3
:101FF000551F8A94D2F788819981AA81BB81822B4F
:10200000932BA42BB52B88839983AA83BB83F501DB
:10201000E257FE4F80818E2980838FC0A8019701EF
:1020200004C0220F331F441F551F8A94D2F72095F6
:1020300030954095509588819981AA81BB818223F2
:102040009323A423B52388839983AA83BB830E9407
:10205000B50D882311F00E941E0E82E0981609F03B
:102060006CC081EE68C0622FFD01EE0FFF1FEE0F06
:10207000FF1FE050FB4EE590F59005911491E1149F
:10208000F1040105110511F4BB2412C0BE2CE0912E
:102090000401F091050180819181A281B38180705A
:1020A0009070A070B0730097A105B10509F054C0FD
:1020B000F6018281882361F008C08F2D6E2D37C014
:1020C000822F0E94001E8E2D36C0832F99272FC08D
:1020D000862F0E94001EBB2081F18B2D2CC0FC019D
:1020E0008281882339F081EE0E94531E82E00E9493
:1020F000C22623C081EE0E94001E82E00E94A2261A
:102100001CC0FC016081718180E00E94BA1364E10F
:1021100070E00E943031FC01EE0FFF1FE25AFE4FCB
:1021200060819181F6018281882321F0892F0E94AC
:10213000090E03C0862F0E94001E80E090E0DF9110
:10214000CF911F910F91FF90EF90DF90CF90BF90B4
:10215000AF909F908F900895F6018281882309F0B7
:10216000ACCFAECF0E94DE0D089556985E982598AC
:102170002D9826982E9827982F988FEF90E090937F
:1021800089008093880090938B0080938A009093BD
:102190008D0080938C00259A2D9A84EF91E020E9A0
:1021A00031E0F9013197F1F70197D9F7269A2E9A84
:1021B00084EF91E020E931E0F9013197F1F70197DF
:1021C000D9F7279A2F9A84EF91E020E931E0F901BD
:1021D0003197F1F70197D9F725982D9884EF91E081
:1021E00020E931E0F9013197F1F70197D9F7269805
:1021F0002E9884EF91E020E931E0F9013197F1F771
:102200000197D9F727982F9856985E9825982D987A
:1022100026982E9827982F98089589EA8093800011
:1022200089E08093810024982C983F988AB18F741C
:102230008AB96E98479A8BB1806B8BB9769A0E9457
:10224000B5100E94DD0D089580E2809330018091E9
:10225000FF01882371F40E94731181E08093FF01D4
:1022600080E197E220E931E0F9013197F1F7019738
:10227000D9F780E40E94791180933001882371F5A9
:102280000E94A71180933001882341F50E94A71175
:1022900080933001882311F58FE30E94A71180936A
:1022A00030018823D9F40E949F1180E40E947911A3
:1022B00080933001882391F48CE00E94A7118093D1
:1022C0003001882359F40E94A7118093300188239C
:1022D00029F48FE30E94A711809330010E949F117F
:1022E0008091300108951092B9008AE08093B8007F
:1022F0000895982F84EA8093BC008091BC0087FFEA
:10230000FCCF8091B900887F883021F0803111F0B6
:1023100081E008959093BB0084E88093BC00809195
:10232000BC0087FFFCCF9091B900987F983111F4E1
:1023300080E0089580E0903409F081E0089584E918
:102340008093BC008091BC0084FDFCCF08958093F5
:10235000BB0084E88093BC008091BC0087FFFCCF69
:102360008091B90090E0887F883209F091E0892F50
:10237000089584E88093BC008091BC0087FFFCCF67
:102380008091BB000895E0E0F2E0E80FF11D80814C
:1023900008950895809130018823A9F480E40E9473
:1023A000791180933001882361F482E10E94A711A2
:1023B00080933001882329F48FEF0E94A711809326
:1023C00030010E949F1184B1807F84B985B1807FE4
:1023D00085B98AB1837F8AB98BB1837F8BB93E98E7
:1023E000469808950E942411809330010E94CA11DA
:1023F00080B38C7080BB81B3836F81BB80E090E041
:10240000FC01E050FE4F1082FC01E25FFD4F1082A4
:1024100001968E309105A1F70E940D110895BF928B
:10242000CF92DF92EF92FF920F931F93CF93DF93A0
:1024300080913001882379F080911C028F5F809316
:102440001C02882341F40E942411809330018823C8
:1024500011F40E94B5102EE0E22E22E0F22EC0E030
:10246000D0E090EAB92E81E0C82ED12C02E0C7302E
:1024700010F580913001882309F045C080E40E9466
:10248000791180933001882399F482E10E94A71189
:1024900080933001882361F4C6010C2E02C0880F9E
:1024A000991F0A94E2F780950E94A711809330014A
:1024B0000E949F1128C0CA30D9F0CB3040F4C830F8
:1024C00089F0C93090F4C73009F09CC008C0CC3006
:1024D000A1F0CC3080F0CD3009F094C011C0209A2A
:1024E000289890C0219A29988DC0229A2A988AC04B
:1024F000239A2B9887C0529A01C0539A5B9882C046
:102500003E9A46987FC080913001882311F010E0F8
:102510003EC080E40E94791180933001882399F4B1
:1025200083E10E94A71180933001882361F481E444
:102530000E94791180933001882329F40E94B911F7
:10254000182F109501C010E00E949F1120C042E09A
:102550007C9902C034E001C030E07D9902C028E0DF
:1025600001C020E07E9902C090E101C090E08FB1EF
:102570008095881F8827881F8295880F807E152F59
:102580001C251170142B132B122B192B182BF70150
:102590008081811719F01083009331010E94CA11C4
:1025A00021960894E11CF11CCE30D10509F05FCFD3
:1025B000809131018823C9F08150809331018823B3
:1025C00029F080EA9FE00197F1F70FC020E030E0AA
:1025D000F901E050FE4FD901A25FBD4F8C9180837D
:1025E0002F5F3F4F2E30310599F70E94B21081E0E6
:1025F000DF91CF911F910F91FF90EF90DF90CF90DF
:10260000BF9008958B2D8A95F1F75FB1799B9FCF8D
:1026100040E09ECF08959C018B3B910578F4883A69
:10262000910548F5853A9105B8F48430910508F094
:102630009FC08130910509F099C095C0803E9105F9
:1026400008F494C0883E910508F492C0805F9040E1
:10265000409708F08BC085C0853A910519F481E850
:1026600090E47DC0863A910519F083E890E477C044
:1026700082E890E474C0883A910519F482EE94E4FB
:102680006EC0893A910519F489EE94E468C08A3ADB
:10269000910519F48AEE94E462C08B3A910519F41D
:1026A00085EB94E45CC08C3A910519F486EB94E4D4
:1026B00056C08D3A910519F487EB94E450C0803BE5
:1026C000910519F48CEC94E44AC08E3A910519F402
:1026D0008DEC94E444C08F3A910519F483E895E4B5
:1026E0003EC0813B910519F48AE895E438C0823BED
:1026F000910519F482E995E432C0833B910519F400
:1027000084E995E42CC0843B910519F481E296E4B8
:1027100026C0853B910519F483E296E420C0863BF0
:10272000910519F484E296E41AC0873B910519F4E7
:1027300085E296E414C0883B910519F486E296E49C
:102740000EC0893B910519F487E296E408C08A3BE4
:10275000910519F080E094E402C08AE296E49C01BD
:1027600007C0306505C021E030E002C020E030E065
:10277000C9010895E62FF0E0EE0FFF1F9CE0799F5E
:1027800090011124E20FF31F98EA899FC0011124E0
:10279000E80FF91FE05BF94E25913491C9010895C6
:1027A000FC01EE0FFF1FE059F84E25913491C9014D
:1027B0000895FC01EE0FFF1FE051F74E2591349173
:1027C000C90108950E94BA13AC0180509140805015
:1027D0009F4118F4CA019F710895CA018050904228
:1027E0008050904128F4CA019F700E94D913089527
:1027F000CA01805090438050904120F4CA019070EB
:10280000906C089580E54030580771F40E94ED1DEA
:1028100084EC99E020E931E0F9013197F1F7019773
:10282000D9F70E9428290EC120E54130520731F422
:102830008091980281608093980204C1CA018050FF
:1028400090458050904108F056C0652F77276F70F3
:10285000707061307105F9F49A01A4E0220F331F02
:10286000AA95E1F720703370CA01F3E0880F991F31
:10287000FA95E1F780769070282B392B3C684370ED
:10288000507002C0660F771F4A95E2F76F71707043
:10289000262B372B2EC06230710529F4942F882700
:1028A000816F906A08956330710551F49A0173E065
:1028B000220F331F7A95E1F7207E37703C680CC0F9
:1028C0006430710561F59A0163E0220F331F6A9548
:1028D000E1F7207E37703A684370507081E090E0F5
:1028E00002C0880F991F4A95E2F78F719070282BCC
:1028F000392BC9010895CA018050904780509041FA
:1029000020F4CA019F7090620895CA0180509048D7
:102910008050904120F4CA019F70906A0895403E13
:102920005105F0F4403C510588F54133510509F457
:1029300076C04233510548F44932510509F465C067
:102940004A32510509F07AC06FC04933510511F17F
:1029500042385105F9F04533510509F06FC050C0B8
:10296000433E510569F1443E510540F4403E510556
:10297000C1F0423E510509F061C01DC0463E5105FF
:1029800059F1473E510509F059C02BC0CA010E94B8
:10299000D01308958091AB0280FD0AC081FD08C06C
:1029A0004DC08091AB0280FF03C089E390E047C037
:1029B00080EE90E044C08091AB0282FD08C004C06C
:1029C0008091AB0282FF03C082EE90E038C084FDAC
:1029D00011C083EE90E033C08091AB0283FD08C04C
:1029E00004C08091AB0283FF03C086EE90E027C055
:1029F00084FF03C080E090E022C087EE90E01FC01B
:102A00008091AB0285FF05C007C08091AB0285FFB6
:102A100003C085E390E013C089E290E010C080918C
:102A2000AB0286FF05C007C08091AB0286FF03C0E2
:102A300081E390E004C08AE290E001C0CA010E94F4
:102A40000B130895089508950E9423150895109278
:102A5000B0020895089580911E020895DF93CF93E8
:102A600000D00F92CDB7DEB7AC018091B1028430B7
:102A700029F583E08093E9002FEF95ED05C0892FBC
:102A80008A95F1F7222329F08091E800215085FFF3
:102A9000F6CF8091E80085FF11C05B834A8383E015
:102AA0008983CE01019663E070E040E050E00E942F
:102AB0009C188091E8008E778093E8000F900F902B
:102AC0000F90CF91DF910895DF93CF9300D00F92B5
:102AD000CDB7DEB7AC018091B102843029F583E037
:102AE0008093E9002FEF95ED05C0892F8A95F1F7C6
:102AF000222329F08091E800215085FFF6CF8091B4
:102B0000E80085FF11C05B834A8382E08983CE01A0
:102B1000019663E070E040E050E00E949C188091D4
:102B2000E8008E778093E8000F900F900F90CF9180
:102B3000DF910895AC018091B102843001F582E00B
:102B40008093E9002FEF95ED05C0892F8A95F1F765
:102B5000222329F08091E800215085FFF6CF809153
:102B6000E80085FF0CC0CA0165E070E040E050E07D
:102B70000E949C188091E8008E778093E800089569
:102B80000F931F93182F092F9091B102943009F0E1
:102B90004CC0809132018823E1F080913D0188236F
:102BA000C1F09093E9009FEF25E105C0822F8A953F
:102BB000F1F7992329F08091E800915085FFF6CF35
:102BC0008091E80085FF31C0812F902F60E170E097
:102BD00018C081E08093E9009FEF25ED05C0822FAA
:102BE0008A95F1F7992329F08091E800915085FFAB
:102BF000F6CF8091E80085FF18C0812F902F68E004
:102C000070E040E050E00E949C188091E8008E77D0
:102C10008093E800AFE1B2E0212F302FC901FC0121
:102C200080E101900D928150E1F71F910F9108957D
:102C300084B7877F84BF88E10FB6F89480936000E3
:102C4000109260000FBE80E090E020E80FB6F8948C
:102C500020936100809361000FBE0E94E81C0E94D7
:102C60007A190E94DB198091E20084608093E2006F
:102C700078940E94791C0E94841D83E391E00E9455
:102C80008F1C0E94AA2F0CC00E9484288091AF0242
:102C9000882331F00E94AD28882311F00E94B117DB
:102CA0008091B102853081F30E94EE1CF9CF8091B2
:102CB000B002882349F40E947A190E94DB1980919E
:102CC000E20084608093E20008958091B302833033
:102CD00009F457C0843030F4813071F0823009F04B
:102CE000B1C098C08A3009F485C08B3009F46AC03D
:102CF000893009F0A7C020C08091B202813A09F062
:102D0000A1C08091E800877F8093E8008091B6029F
:102D10009091B702892B21F48FE192E060E103C02A
:102D200080E090E060E070E00E94C7178091E800CA
:102D30008B778093E80008958091B202813209F088
:102D400081C08091B6029091B702009719F0039765
:102D500009F078C08091E800877F8093E80005C083
:102D60008091B102882309F46DC08091E80082FF50
:102D7000F7CF8091F10080931E028091E8008B775D
:102D80001CC08091B202813A09F05CC08091B60209
:102D90009091B702892B09F055C08091E800877F98
:102DA0008093E8008091E80080FFFCCF80913201A1
:102DB0008093F1008091E8008E778093E8000E9474
:102DC000271908958091B2028132E1F58091B6020F
:102DD0009091B702892BB1F58091E800877F8093AD
:102DE000E8000E9427198091B402809332010E946A
:102DF000ED1D08958091B202813221F58091E800A5
:102E0000877F8093E8000E9427198091B502809304
:102E10001D0208958091B202813AA1F48091E800E8
:102E2000877F8093E8008091E80080FFFCCF80914D
:102E30001D028093F1008091E8008E778093E80076
:102E40000E942719089581E061EC42E00E94EF188A
:102E500082E061EC42E00E94EF1883E061EC42E026
:102E60000E94EF1884E061EC42E10E94EF1808959F
:102E70000E947D280E94C22F0E94941C0E9424154B
:102E800008950E94BC2F0895DA019330C1F0943068
:102E900030F4913051F0923009F05BC00BC09132A8
:102EA00021F1923209F055C037C0EBEEF9E122E191
:102EB00030E053C0EDEFF9E12DE630E04EC0813057
:102EC00051F0813020F0823009F043C008C0EAE6BA
:102ED000FAE1849107C0EEE6FAE1849103C0E6E8E6
:102EE000FAE18491282F30E038C0613051F0613030
:102EF00028F0623059F0633061F50BC0EFE0FAE181
:102F000002C0E8E2FAE129E030E027C0E1E4FAE1BA
:102F1000FACFEAE5FAE1F7CF613061F0613028F0ED
:102F2000623069F06330A9F40FC0E0EFF8E12FE3FD
:102F300030E013C0EFE2F9E12DE430E00EC0ECE741
:102F4000F9E126E330E009C0E2EBF9E129E330E002
:102F500004C0E0E0F0E020E030E0ED93FC93C90134
:102F6000089580E189BD82E189BD09B400FEFDCFED
:102F70008091D8008F7D8093D8008091E00082609E
:102F80008093E0008091E00081FDFCCF08959C01DA
:102F90004091B8025091B9024617570718F4F90149
:102FA00090E043C06115710511F0AB01F8CF80913D
:102FB000E8008E778093E80040E050E0F0CF809109
:102FC000B102882309F447C0853009F446C08091D6
:102FD000E80083FD44C08091E80082FD36C0809106
:102FE000E80080FF22C08091F3009091F200782FDA
:102FF00060E0292F30E0262B372B07C0819180938A
:10300000F100415050402F5F3F4F4115510519F0DD
:103010002830310598F390E02830310509F491E02B
:103020008091E8008E778093E8004115510539F6CC
:10303000992329F60AC08091B102882361F0853076
:1030400061F08091E80083FD0AC08091E80082FF72
:10305000F2CF80E0089582E0089583E0089581E052
:1030600008959C014091B8025091B9024617570744
:1030700018F4F90190E044C06115710511F0AB013D
:10308000F8CF8091E8008E778093E80040E050E030
:10309000F0CF8091B102882309F448C0853009F44B
:1030A00047C08091E80083FD45C08091E80082FD23
:1030B00037C08091E80080FF23C08091F300909199
:1030C000F200782F60E0292F30E0262B372B08C044
:1030D00084918093F1003196415050402F5F3F4FD3
:1030E0004115510519F02830310590F390E0283052
:1030F000310509F491E08091E8008E778093E80033
:103100004115510531F6992321F60AC08091B1028B
:10311000882361F0853061F08091E80083FD0AC06A
:103120008091E80082FFF2CF80E0089582E0089568
:1031300083E0089581E00895BF92CF92DF92EF92ED
:10314000FF920F931F93CF93DF93182F092F7B01CB
:103150006A010E944819B82E8823B1F5812F902F5B
:103160009C01E901C114D10439F0F60180819181FB
:10317000E81AF90AC80FD91F00E010E022C08091B8
:10318000E80085FD16C08091E8008E778093E80006
:10319000C114D10449F0F60180819181800F911F03
:1031A0009183808385E011C00E944819882349F0EB
:1031B0000CC089918093F1000894E108F1080F5F39
:1031C0001F4FE114F104D9F68B2DDF91CF911F91A0
:1031D0000F91FF90EF90DF90CF90BF900895382F20
:1031E000282F2EC0822F8F708093E900231721F49F
:1031F000762F942F50E006C07091EC009091ED0076
:103200005091F00091FF1BC08091EB008E7F809366
:10321000EB008091ED008D7F8093ED008091EB00BD
:1032200081608093EB007093EC009093ED005093DD
:10323000F0008091EE0087FD02C080E008952F5FCE
:10324000273080F23F703093E90081E0089580914B
:10325000B20288239CF404C08091B1028823B9F0A3
:103260008091E80082FFF8CF8091E8008B7780930F
:10327000E80008958091B102882349F08091E80028
:1032800080FFF8CF8091E8008E778093E800089562
:103290004091E4005091E50024E68091EC0080FF2D
:1032A00024C08091E80080FD1EC08091B102882377
:1032B00011F482E00895853011F483E0089580913F
:1032C000EB0085FF02C081E008958091E4009091B9
:1032D000E5008417950709F3222311F484E008958B
:1032E0002150AC01DACF80E008958091E80082FFA0
:1032F000DCCFF9CF0E94ED190E94F519E0EEF0E065
:10330000808181608083A8EDB0E08C918F778C9371
:1033100019BCE7EDF0E080818E7F80838C918F7EF9
:103320008C931092B0020895EF92FF920F931F9327
:103330000E94ED190E94F51908ED10E0F801808156
:103340008F77808380818068808380818F7D808378
:1033500019BC1092B1021092AD021092AF021092FD
:10336000AE0280EEE82EF12CF70180818B7F808306
:10337000F80180818160808380E060E042E00E940B
:10338000EF18E1EEF0E080818E7F8083E2EEF0E0E6
:10339000808181608083808188608083F701808163
:1033A0008E7F8083F8018081806180831F910F91DF
:1033B000FF90EF900895E8EDF0E080818F7E8083AC
:1033C000E7EDF0E080818160808384E082BF81E06E
:1033D0008093B0020E9494190895E8EDF0E0808196
:1033E0008E7F80831092E20008951092DA0010928E
:1033F000E10008951F920F920FB60F9211241F93B0
:103400002F933F934F935F936F937F938F939F93EC
:10341000AF93BF93EF93FF931091E9008091EC007D
:103420001092E9008091F000877F8093F0007894FB
:103430000E94081B1092E9008091F0008860809340
:10344000F0001F701093E900FF91EF91BF91AF91D1
:103450009F918F917F916F915F914F913F912F91AC
:103460001F910F900FBE0F901F9018951F920F92F3
:103470000FB60F9211242F933F934F935F936F9347
:103480007F938F939F93AF93BF93EF93FF9380911D
:10349000E10082FF0BC08091E20082FF07C08091B3
:1034A000E1008B7F8093E1000E94781C8091DA001C
:1034B00080FF1FC08091D80080FF1BC08091DA0080
:1034C0008E7F8093DA008091D90080FF0DC080E16B
:1034D00089BD82E189BD09B400FEFDCF81E0809302
:1034E000B1020E94571605C019BC1092B1020E9489
:1034F00027158091E10080FF19C08091E20080FFD4
:1035000015C08091E2008E7F8093E2008091E200FE
:1035100080618093E2008091D80080628093D8001F
:1035200019BC85E08093B1020E9441178091E100AF
:1035300084FF30C08091E20084FF2CC080E189BD0F
:1035400082E189BD09B400FEFDCF8091D8008F7D56
:103550008093D8008091E1008F7E8093E10080917C
:10356000E2008F7E8093E2008091E2008160809390
:10357000E2008091AD02882311F084E007C08091C1
:10358000E30087FD02C081E001C083E08093B102C7
:103590000E9438178091E10083FF29C08091E200EA
:1035A00083FF25C08091E100877F8093E10082E066
:1035B0008093B1021092AD028091E1008E7F8093E2
:1035C000E1008091E2008E7F8093E2008091E20032
:1035D00080618093E20080E060E042E00E94EF18AA
:1035E0008091F00088608093F0000E942A15FF917E
:1035F000EF91BF91AF919F918F917F916F915F916B
:103600004F913F912F910F900FBE0F901F901895E3
:103610001F93DF93CF93CDB7DEB7AC970FB6F89477
:10362000DEBF0FBECDBFE2EBF2E08091F1008193EF
:1036300022E0EA3BF207C9F70E9465168091E80094
:1036400083FF3EC18091B2023091B302353009F45C
:1036500087C0363040F43130C9F1313070F033304A
:1036600009F02EC133C0383009F4F9C0393009F4FB
:1036700009C1363009F024C197C0803821F0823862
:1036800009F01EC108C09091AE028091AF0288235C
:1036900099F0926011C08091B6028F708093E9001A
:1036A0008091EB0090E025E0969587952A95E1F7CB
:1036B000982F91701092E9008091E800877F8093A5
:1036C000E8009093F1001092F100D4C0882319F023
:1036D000823009F0F5C090E08F719070009721F072
:1036E000029709F0EDC00CC08091B402813009F05E
:1036F000E7C01092AF02333069F58093AF022AC061
:103700008091B402882331F52091B6022F7009F41C
:10371000D7C02093E9008091EB0080FF1BC03330BD
:1037200021F48091EB00806213C08091EB008061F6
:103730008093EB0081E090E002C0880F991F2A95EA
:10374000E2F78093EA001092EA008091EB00886033
:103750008093EB001092E9008091E800877F8DC094
:10376000882309F0ADC01091B4021F778091E30067
:103770008078812B8093E3008091E800877F80939D
:10378000E8000E9427198091E80080FFFCCF80911B
:10379000E30080688093E300112311F482E001C00C
:1037A00083E08093B1028CC08058823008F088C0DA
:1037B0008091B4029091B50223E08C3D920709F00C
:1037C00034C083E08C838AE28B837FB7F894DE0178
:1037D00015966EE040E050E011E2E62FF0E0109325
:1037E0005700849140FF03C082958F706F5F8F7088
:1037F000282F30E08A3018F0C901C79602C0C901ED
:10380000C0968D939D934F5F5F4F4431510529F7CB
:103810007FBF8091E800877F8093E800CE01039608
:103820006AE270E00E94C71714C06091B602AE0150
:103830004F5F5F4F0E944417BC01009709F440C0DE
:103840008091E800877F8093E80089819A810E94B7
:1038500031188091E8008B778093E80031C0803880
:1038600079F58091E800877F8093E8008091AD0230
:103870008093F1008091E8008E778093E8000E94A9
:1038800027191EC08823E1F49091B4029230C0F44D
:103890008091E800877F8093E8009093AD020E94BA
:1038A00027198091AD02882331F48091E30087FDD0
:1038B00002C081E001C084E08093B1020E9423171E
:1038C0008091E80083FF0AC08091E800877F8093A1
:1038D000E8008091EB0080628093EB00AC960FB61D
:1038E000F894DEBF0FBECDBFCF91DF911F91089539
:1038F00008951F938091B102882379F01091E90017
:103900008091EC001092E9008091E80083FF02C0F2
:103910000E94081B1F701093E9001F910895909357
:103920003402809333020895E0913302F09134021F
:10393000309711F480E008950190F081E02D099511
:103940000895E0913302F0913402309721F0028023
:10395000F381E02D09950895E0913302F09134024E
:10396000309721F00480F581E02D099508959C01A0
:1039700080913102909132022817390779F0309303
:10398000320220933102E0913302F09134023097F9
:1039900029F00680F781E02DC901099508959C0161
:1039A00080912F02909130022817390779F03093D7
:1039B000300220932F02E0913302F09134023097CD
:1039C00029F00084F185E02DC90109950895089535
:1039D0000E94E71C08950E9424150895BF92CF927B
:1039E000DF92EF92FF920F931F93DF93CF93CDB7A8
:1039F000DEB72A970FB6F894DEBF0FBECDBF0E9488
:103A00000F12EE24FF24BE2C8E2D0E94C311C82E4F
:103A1000F701EA5CFD4FD080D82609F43FC08091C1
:103A2000980281FF02C00E94C91100E010E0ED2D54
:103A3000F0E0CF01002E02C0959587950A94E2F739
:103A400080FF27C00E94CB280983BA826C2D70E0CA
:103A5000002E02C0759567950A94E2F76170707048
:103A60006B8381609D838C83402F5B2D782F8D81AC
:103A70000E947B21F701EA5CFD4F81E090E0002E7F
:103A800002C0880F991F0A94E2F72081282720831B
:103A90001DC00F5F1F4F0630110559F60894E11C39
:103AA000F11C8EE0E816F10409F0ADCF0E94CB289E
:103AB0002FEF2E832F8318868160782F9A8789872E
:103AC0004FEF5FEF60E08A850E947B210E94A02C6F
:103AD000109135020E94941C181731F00E94941C1A
:103AE000809335020E94EB1C2A960FB6F894DEBF35
:103AF0000FBECDBFCF91DF911F910F91FF90EF903F
:103B0000DF90CF90BF9008950E94C2280E94F211CA
:103B10000E94882908950895DF93CF9300D000D0A4
:103B20000F92CDB7DEB70F900F900F900F900F90C0
:103B3000CF91DF910895DF93CF9300D000D000D0D4
:103B4000CDB7DEB726960FB6F894DEBF0FBECDBF59
:103B5000CF91DF9108950E943926482F892F8295B1
:103B60008F70282F30E02C3031054CF42A3031058D
:103B70006CF42250304022303105C0F407C02C30A4
:103B8000310551F02F30310589F406C0403E10F068
:103B9000403F61F481E008959F70892F90E023E019
:103BA000969587952A95E1F78170089580E00895AC
:103BB0000E94D9270E94E9270E94A8270E94012875
:103BC0000E94892C0E94952C80E090E00E94B71CF6
:103BD00080E090E00E94CF1C08950E94C9270E94B7
:103BE000D81D0895882321F00E94BF270E94012834
:103BF0000895882321F00E94B9270E940128089582
:103C0000282F882309F44EC0823859F40E94941C4E
:103C100081FF48C089E30E9436270E94012889E37A
:103C20000CC0833869F40E94941C80FF3BC083E57C
:103C30000E9436270E94012883E50E9474271FC036
:103C4000843859F40E94941C82FF2CC087E40E949F
:103C500036270E94012887E4F0CF8450813A10F47F
:103C6000822FEBCF822F805E883060F4277081E056
:103C700090E001C0880F2A95EAF70E94BF270E94B2
:103C800001280895822F855A833028F480E090E03F
:103C90000E94B71C0895285A233120F480E090E058
:103CA0000E94CF1C08951F93182F882309F4D0C0B9
:103CB000823859F40E94941C81FDCAC089E30E9495
:103CC00036270E94012889E30CC0833879F40E94CA
:103CD000941C80FDBDC083E50E9436270E94012808
:103CE00083E50E9474270E940128B2C0843859F4E9
:103CF0000E94941C82FDACC087E40E9436270E947B
:103D0000012887E4EECF8450813A50F4812F0E943D
:103D1000DB2E882309F09CC0812F0E943627E3CF39
:103D2000812F805E883050F4177081E090E001C0F0
:103D3000880F1A95EAF70E94B927D5CF812F855AA7
:103D40008330A0F4153A19F481E890E00CC0163ADB
:103D500019F482E890E007C0173A19F080E090E08B
:103D600002C083E890E00E94B71C72C0812F885A7D
:103D7000833108F06DC0183A19F482EE90E066C005
:103D8000193A19F489EE90E061C01A3A19F48AEEF2
:103D900090E05CC01B3A19F485EB90E057C01C3AE8
:103DA00019F486EB90E052C01B3B19F483EB90E0D2
:103DB0004DC01C3B19F484EB90E048C01D3A19F447
:103DC00087EB90E043C0103B19F48CEC90E03EC0D0
:103DD0001E3A19F48DEC90E039C01F3A19F483E8CB
:103DE00091E034C0113B19F48AE891E02FC0123BF6
:103DF00019F482E991E02AC0133B19F484E991E0B7
:103E000025C0143B19F481E292E020C0153B19F45F
:103E100083E292E01BC0163B19F484E292E016C0E4
:103E2000173B19F485E292E011C0183B19F486E2C1
:103E300092E00CC0193B19F487E292E007C01A3BEC
:103E400019F080E090E002C08AE292E00E94CF1C6C
:103E50001F910895AF92BF92CF92DF92EF92FF929F
:103E60000F931F93DF93CF93CDB7DEB72A970FB68B
:103E7000F894DEBF0FBECDBF5C01DE011196FC01E0
:103E800085E001900D928150E1F70B81F501F580FD
:103E9000F2944FE0F422DE011696FE01319685E0A1
:103EA00001900D928150E1F73E812F8189859A859D
:103EB000892B09F40FC22F3F09F0FBC13F3F09F0E6
:103EC000F8C108C20E94D9278D2D82958F7090E08D
:103ED0008530910509F4AAC08630910554F48430E8
:103EE00091050CF084C02D2D207F02970CF045C069
:103EF00013C08C30910544F48A3091050CF067C1F1
:103F0000089709F0E7C19EC08C30910509F4BFC144
:103F10000F9709F0DFC1C5C18D2D8F70222311F4D9
:103F2000182F03C0182F1295107F002389F011233A
:103F300009F499C18C2D805E883020F4812F0E9475
:103F4000B92703C0812F0E94CC270E9401288BC172
:103F50008C2D0E94001E112309F4BCC1F0E2CF0E8B
:103F600027E02C1520F0812F0E94BF2703C0812F4E
:103F70000E94D2270E940128ADC18D2D8F70203262
:103F800011F4182F03C0182F1295107FCC2021F0A8
:103F900081E0C81611F516C0002359F0FF2009F47E
:103FA00031C1E1E0FE1609F02DC1812F0E94EC27FE
:103FB00091C1FF2021F0F1E0FF1609F48BC10E94AE
:103FC000EF2726C1002329F021E02F1508F482C134
:103FD00019C1FF2009F07EC11BC1002321F0FF2081
:103FE00009F410C140C1FF2009F412C147C18D2D51
:103FF00086958695837090E0009721F0019709F0EF
:1040000069C10AC0002319F0C601937002C080E0A4
:1040100090E00E94B71C5EC1002319F0C6019370A6
:1040200002C080E090E00E94CF1C54C1002321F028
:104030008C2D0E94972B03C08C2D0E94012C0E9476
:10404000952C48C18D2D837009F05EC0002309F0C6
:1040500041C12C2D229526952770220F220F8C2DE1
:104060008F70E82EFF2400E010E0022E04C0EE0C5A
:10407000FF1C001F111F0A94D2F7C4FC05C060E0AA
:1040800070E080E090E00FC06FE070E080E090E0D2
:1040900004C0660F771F881F991F2A95D2F7609575
:1040A000709580959095D694D694E3E0DE224D2DC0
:1040B00050E041305105A9F0423051051CF4452B28
:1040C00049F008C14230510589F04330510509F0EB
:1040D00001C113C06E297F29802B912B0E941127CB
:1040E000F9C06E297F29802B912B0BC06E297F2967
:1040F000802B912B0E940027EDC00E941127C80140
:10410000B7010E942227E6C090E0002311F49695A3
:104110008795817009F4DEC02C2D22952695277095
:10412000220F220F8C2D8F70E82EFF2400E010E06C
:10413000022E04C0EE0CFF1C001F111F0A94D2F7C0
:10414000C4FC05C060E070E080E090E00FC06FE06C
:1041500070E080E090E004C0660F771F881F991F11
:104160002A95D2F76095709580959095D694D694BF
:10417000F3E0DF224D2D50E041305105A9F04230EF
:1041800051051CF4452B49F0A5C04230510589F07A
:104190004330510509F09EC013C06E297F29802B42
:1041A000912B0E94642696C06E297F29802B912B2B
:1041B0000BC06E297F29802B912B0E9453268AC029
:1041C0000E946426C801B7010E94752683C020EFB3
:1041D000C21611F12C1528F080EEC81608F43FC065
:1041E00009C0E2EFCE1661F1CE1628F1F3EFCF163B
:1041F000B1F52BC01C2D1F708D2D8F71002331F058
:104200000E94C226812F0E94F91D64C00E94A2262E
:10421000812F0E94F21D5EC0002321F0FF2009F0D3
:1042200059C004C021E02F1508F454C08D2D8F71A2
:104230000E9486264FC08D2D8F71002329F119C051
:104240008D2D8F710023A9F01FC0002329F08D2D23
:104250008F710E94DE263EC00E94EE263BC00023E6
:1042600059F0FF2021F08C2D0E94531E33C08D2D5C
:104270008F710E94C2262EC0FF2021F08C2D0E943B
:10428000001E28C08D2D8F710E94A22623C08FE0B2
:10429000D822C5016C2D4D2D0E94900F0E947725CC
:1042A00019C0EFE0DE22C5016C2D4D2D0E940A13CE
:1042B00011C0C5010E948B1D69817A81802F0E94E7
:1042C00044266C010E94F1250E94F025002309F488
:1042D000FBCDF8CD2A960FB6F894DEBF0FBECDBF4A
:1042E000CF91DF911F910F91FF90EF90DF90CF90D2
:1042F000BF90AF900895DF93CF93CDB7DEB72B97E4
:104300000FB6F894DEBF0FBECDBF342F4F83252FDD
:10431000588769877A878B87472F582FFE013196F8
:1043200086E0DF011D928A95E9F76B8339832A8342
:104330004C835D83432F522F8D819E810E94B82430
:104340002B960FB6F894DEBF0FBECDBFCF91DF9195
:1043500008950F931F9300914B0215C010E0F801D0
:10436000EE0FFF1FE00FF11FEE0FFF1FE45BFD4F8D
:104370004081518162817381848195810E949B1D5E
:104380000F5F1F4F077080914A02081739F71F917E
:104390000F91089540914402509145026091460268
:1043A0007091470280914802909149020E949B1DA2
:1043B00008950F931F93CF93DF93809149028295C5
:1043C0008F7009F06DC080914602882309F468C09F
:1043D00060914B0200914A0240914702509148027D
:1043E0001091450270914402EA01C095D09555C0E4
:1043F0004115510509F44FC01F3F49F480E090E09A
:104400007F3F11F481E090E0882309F044C0262F1B
:1044100030E0F901EE0FFF1FE20FF31FDF01AA0FDB
:10442000BB1FA45BBD4F11968C911197181799F57E
:104430008C91781781F5EE0FFF1FE25BFD4F8081B5
:10444000882349F513968D919C91149784179507AD
:1044500018F0841B950B02C08C0F9D1F883C9105A2
:10446000D0F4809149028F70806180934902F901F4
:10447000EE0FFF1FE20FF31FEE0FFF1FEF5AFD4F6E
:1044800080818F708061808384E492E00E942A1F83
:104490000E94A92105C06F5F6770601709F0A8CF5F
:1044A000DF91CF911F910F910895DF92EF92FF92CC
:1044B0000F931F93DF93CF93CDB7DEB76B970FB6F4
:1044C000F894DEBF0FBECDBF8C01DC011296DC90EC
:1044D00012974C9111965C9111971396ED90FC9068
:1044E00014972091470230914802609145027091E3
:1044F00044022115310509F4DBC16F3F09F003C205
:104500007F3F09F000C2D4C1E216F30640F0C701B4
:10451000821B930B883C910508F0EEC008C02095E3
:1045200030952E0D3F1D283C310508F0E5C08091E7
:104530004902807F09F095C06F3F09F0EAC17F3FD3
:1045400009F0E7C115C0741799F4DD2089F4809152
:1045500049028F708061809349020E94CA2184E4DD
:1045600092E00E942A1F80914902F8018583BCC114
:10457000FD82EC825A834983DB82DE011696FE01BE
:10458000319685E001900D928150E1F76885DE015A
:104590001B96FE01369685E001900D928150E1F761
:1045A0002C853B858E859F85892B09F451C02F3F33
:1045B00009F0B3C13F3F09F0B0C14AC0FD82EC82AF
:1045C0005A834983DB82DE011B96FE01319685E02A
:1045D00001900D928150E1F7FC847B856D8580917F
:1045E0004B0290914A021FC0282F30E0F901EE0FD4
:1045F000FF1FE20FF31FDF01AA0FBB1FA45BBD4F1C
:1046000011968C911197F81651F48C91781739F412
:10461000EE0FFF1FE25BFD4F80816817C9F42F5F2B
:104620003F4F822F87708917F9F68DC19F7059F01F
:10463000442349F459C19F7031F0D80115968C91EB
:10464000807F09F451C1405E483008F44DC148C133
:10465000DD2009F449C180914902816080934902BB
:1046600043C16F3F09F05DC17F3F09F05AC114C0DB
:10467000741791F4DD2081F480914902F80185835B
:10468000C8010E942A1FA4E4B2E0F80186E001906C
:104690000D928150E1F720C15A83498389819A8123
:1046A0000E94AB1D882309F41BC1DD2009F418C149
:1046B00030914902832F82958F7090E002979CF091
:1046C0009091450220914402FE01709686E0DF0140
:1046D0001D928A95E9F7998B288BFC8AEB8A3D8B92
:1046E000CF010E942A1FA4E4B2E0F80186E0019005
:1046F0000D928150E1F7EEC080914902807FA9F4CC
:104700007E2DFD82EC825A834983DB826D2D8D8163
:104710000E948C1D04E412E0C8010E942A1F86E05A
:10472000F80111928A95E9F7C0C06F3F09F0FDC00A
:104730007F3F09F0FAC014C0741791F4DD2081F4B2
:1047400080914902D80115968C93C8010E942A1FB6
:10475000E4E4F2E086E0DF011D928A95E9F7BEC04D
:104760005A83498389819A810E94AB1D882309F469
:10477000B7C0DD2009F4B4C030914902832F82957F
:104780008F7090E002979CF0909145022091440236
:10479000FE01769686E0DF011D928A95E9F79F8BF0
:1047A0002E8BFA8EE98E3B8FCF010E942A1FA4E444
:1047B000B2E0F80186E001900D928150E1F78AC0E5
:1047C0006F3F09F0B6C07F3F09F0B3C071C0E21679
:1047D000F30640F0C701821B930B883C910508F05B
:1047E00053C008C0209530952E0D3F1D283C310543
:1047F00008F04AC0DD2009F473C06F3F09F09FC084
:104800007F3F09F09CC029C0741739F59091490287
:1048100090FD1AC0892F82958F70B1F0F8019583B1
:104820008F3031F08F5F8295807F9F70982B9583BA
:10483000C8010E942A1FA4E4B2E0F80186E00190BA
:104840000D928150E1F748C0A4E4B2E0F80186E09F
:1048500001900D928150E1F741C05A8349838981CB
:104860009A810E94AB1D882349F0A4E4B2E0F801CC
:1048700086E001900D928150E1F72CC080914902B1
:104880008160809349022CC07E2DFD82EC825A8388
:104890004983DB826D2D8D810E948C1DE4E4F2E062
:1048A00086E0DF011D928A95E9F70E94CA211CC0AB
:1048B000DD20B1F05A83498389819A810E94AB1D22
:1048C000882371F0A4E4B2E0F80186E001900D9233
:1048D0008150E1F70E94D9210E94CA2181E005C0E0
:1048E000C8010E942A1FFACF80E06B960FB6F89499
:1048F000DEBF0FBECDBFCF91DF911F910F91FF9013
:10490000EF90DF90089580914602882309F458CFF4
:10491000FBCD651709F02CCE16CE613009F498CE88
:104920004DCE651709F0B8CEA3CE651709F018CFA4
:1049300003CF80914602882309F0BACF48CF65178C
:1049400009F08BCF61CF5A83498389819A810E9474
:104950003926482F892F82958F70282F30E02230FA
:1049600031050CF463CE243031050CF0B9CF63CEA1
:104970000F931F93DF93CF93CDB7DEB72C970FB66E
:10498000F894DEBF0FBECDBF4F83588769877A8703
:104990008B879C878E01095F1F4FC8010E9455229B
:1049A0008823D9F028853F818A859B85892B09F446
:1049B0006BC02F3F49F480E090E03F3F11F481E06D
:1049C00090E0882309F060C04F81588569857A8519
:1049D0008B859C850E949B1D57C0DE011196F801B6
:1049E00086E001900D928150E1F7F981EA814C81D6
:1049F0005D814115510509F447C0EF3F09F04CC0F6
:104A0000FF3F09F049C040C0F983EA835D834C83CE
:104A1000F901EE0FFF1FE20FF31FEE0FFF1FE45B24
:104A2000FD4FDE01119686E00D9001928150E1F775
:104A300060934A020E94A92127C0919FC0011124BE
:104A4000845B9D4F0E945522882309F445C08091C4
:104A50004B0290E0FC01EE0FFF1FE80FF91FEE0F75
:104A6000FF1FE45BFD4F408151816281738184812E
:104A700095810E949B1D80914B0290E0019687706A
:104A8000907080934B0201C016E090914B02809190
:104A90004A02981791F620C080914A02282F30E0F0
:104AA0002F5F3F4FB9016770707021503040809187
:104AB0004B0290E06817790709F0A6CF0E94ED1D20
:104AC00010924A0210924B02E4E4F2E086E0DF0129
:104AD0001D928A95E9F7D8CF2C960FB6F894DEBFD1
:104AE0000FBECDBFCF91DF911F910F910895CF924F
:104AF000DF92EF92FF921F93CF93DF93EC01009729
:104B000009F466C010E090EAC92E9FE0D92E81E03A
:104B1000E82EF12CFE0121969491943748F49430BC
:104B200008F044C0913079F0923009F051C01BC0B8
:104B3000953709F437C0953750F1892F845880375D
:104B400008F046C037C0FE0121969491892F805EFF
:104B5000883060F597708E2D01C0880F9A95EAF71E
:104B60000E94DC270FC0FE0121969491892F805E60
:104B7000883058F497708E2D01C0880F9A95EAF707
:104B80000E94E2270E94012819C0892F15C0FE014A
:104B9000249104C0C6010197F1F721502223D1F7D7
:104BA00021960CC0FE012196149108C0892F0E9405
:104BB000531E04C0892F8F770E94001E212F04C02E
:104BC000C6010197F1F72150222309F4A3CFF8CFB2
:104BD000DF91CF911F91FF90EF90DF90CF900895DC
:104BE00008950895AF92BF92DF92EF92FF920F93D4
:104BF0001F93CF93DF935C01E0907C02F0907D02E5
:104C000000917E0210917F0280918002909181023A
:104C1000A0918202B0918302E82AF92A0A2B1B2B69
:104C2000CFE1D0E0DC2ED801C7010C2E04C0B69530
:104C3000A795979587950A94D2F781709070892BE4
:104C400039F08C2FB5010E94E2138130910531F4C7
:104C500021978FEFCF3FD80729F7DD248D2DDF91E6
:104C6000CF911F910F91FF90EF90DF90BF90AF9089
:104C700008950F931F938C010E94F225B8010E94A2
:104C8000E2131F910F910895CB010E9439260895D8
:104C900060938002709381028093820290938302DA
:104CA0000E94D81D08959B01AC0160918002709113
:104CB0008102809182029091830262277327842768
:104CC00095270E94482608959B01AC0160918002BF
:104CD00070918102809182029091830262237323FA
:104CE000842395230E94482608959B01AC0160917E
:104CF0008002709181028091820290918302622BE6
:104D0000732B842B952B0E944826089521E030E0D8
:104D100040E050E004C0220F331F441F551F8A9506
:104D2000D2F78091800290918102A0918202B0918D
:104D30008302282739274A275B27CA01B9010E9425
:104D40004826089521E030E040E050E004C0220F02
:104D5000331F441F551F8A95D2F7209530954095F3
:104D600050958091800290918102A0918202B09131
:104D70008302282339234A235B23CA01B9010E94F5
:104D80004826089521E030E040E050E004C0220FC2
:104D9000331F441F551F8A95D2F78091800290914E
:104DA0008102A0918202B0918302282B392B4A2BD9
:104DB0005B2BCA01B9010E944826089521E030E02A
:104DC00040E050E004C0220F331F441F551F8A9556
:104DD000D2F7CA01B9010E944826089560E070E048
:104DE00080E090E00E944826089560937C027093D2
:104DF0007D0280937E0290937F020E94D81D0895C9
:104E00009B01AC0160917C0270917D0280917E02D9
:104E100090917F0262277327842795270E94F526A9
:104E200008959B01AC0160917C0270917D0280919C
:104E30007E0290917F0262237323842395230E9434
:104E4000F52608959B01AC0160917C0270917D0272
:104E500080917E0290917F02622B732B842B952B85
:104E60000E94F52608950E94F5260895382F809116
:104E700032018823E1F080913D018823C1F0832F26
:104E80008695869586958F3070F5E0913E01F0917C
:104E90003F01E80FF11D377081E090E002C0880FFC
:104EA000991F3A95E2F72181282B21830895A0913B
:104EB0003E01B0913F01FD0120E08FEF92819317F9
:104EC00091F08F3F19F4992309F4822F2F5F3196C7
:104ED0002E30A1F78F3F39F0992787FD9095A80FC5
:104EE000B91F12963C930895482F80913201882370
:104EF000E9F080913D018823C9F0842F869586953D
:104F000086958F3020F5E0913E01F0913F01E80F4A
:104F1000F11D477081E090E002C0880F991F4A950B
:104F2000E2F78095218182238183089520E030E09B
:104F3000E0913E01F0913F01E20FF31F828184175F
:104F400009F412822F5F3F4F2E30310589F7089503
:104F500081E090E0E0913E01F0913F01E80FF91F00
:104F60001082019680319105A9F7089580919402ED
:104F7000089590919402982B9093940208958095AF
:104F800090919402982390939402089580939402B0
:104F9000089510929402089590919702982B9093FF
:104FA0009702089580959091970298239093970285
:104FB000089510929702089590919602982B9093DD
:104FC0009602089580959091960298239093960268
:104FD0000895109296020895809395020895109274
:104FE00095020895E0913E01F0913F0120E091E0AB
:104FF000818181112F5F9F5F31969031C9F7822F98
:105000000895E0913E01F0913F01809194028083E8
:10501000E0913E01F0913F01808190919702892BB0
:105020008083E0913E01F0913F0180819091960252
:10503000892B808390919502992369F0E0913E013C
:10504000F0913F018081892B80830E94F227882381
:1050500011F00E94EF2780913E0190913F010E9444
:10506000A11C08959B01AC01AA27BB270097A105AD
:10507000B10521F4DA01C90160E001C060E1292F26
:105080003A2F4B2F5527211531054105510519F4AC
:105090009C01AD0101C0685FDA01C90174E0B695F9
:1050A000A795979587957A95D1F70097A105B105B2
:1050B00019F4DA01C90101C06C5F9C01AD01F2E095
:1050C0005695479537952795FA95D1F721153105CE
:1050D0004105510519F49C01AD0101C06E5F569563
:1050E000479537952795211531054105510509F05B
:1050F0006F5F862F0895089508950E94ED1D0E9408
:10510000941C0E94241508958091B102843021F1ED
:105110001092990220E488E190E00FB6F894A895E7
:10512000809360000FBE2093600080E00E942415F1
:1051300083B7817F846083BF83B7816083BF7894A6
:10514000889583B78E7F83BF88E10FB6F8948093EC
:105150006000109260000FBE08951F930E947B288C
:105160000E940F120E947C2810E0812F0E94C31120
:10517000882311F081E004C01F5F1E30B1F780E08A
:105180001F91089582E084BD93E095BD9AEF97BD8D
:1051900080936E0008958FB7F89420919A02309111
:1051A0009B0240919C0250919D028FBFC9010895BE
:1051B000EF92FF920F931F93BC018FB7F894E0908A
:1051C0009A02F0909B0200919C0210919D028FBF69
:1051D000A801970140705070CB01A0E0B0E0281703
:1051E00039074A075B0720F09701261B370B05C0DC
:1051F0009B01209530952E0D3F1DC9011F910F91E8
:10520000FF90EF9008951F920F920FB60F92112406
:105210008F939F93AF93BF9380919A0290919B023B
:10522000A0919C02B0919D020196A11DB11D809399
:105230009A0290939B02A0939C02B0939D02BF910F
:10524000AF919F918F910F900FBE0F901F90189567
:105250000E947A19F89480E29EE420E931E0F90195
:105260003197F1F70197D9F787E090EBA7E0B0EB22
:105270008093BA029093BB02A093BC02B093BD028C
:105280002CE088E190E00FB6F894A8958093600038
:105290000FBE20936000FFCFEF92FF920F931F93FA
:1052A000CF93DF93082F10E0812F0E94C311C0E03D
:1052B000D0E0E82EFF24C7010C2E02C095958795FB
:1052C0000A94E2F780FF09C080E06C2F712F0E94E2
:1052D000BA13081711F481E008C02196C630D10531
:1052E00051F71F5F1E3001F780E0DF91CF911F91D2
:1052F0000F91FF90EF9008951F93182F8CE20E945A
:105300004C29882319F0812F0E944C291F91089560
:105310001F93CF93DF930E94F62A882311F40E94F3
:10532000012B14E6C0E4DCE905C00E940F12CE0197
:105330000197F1F71150C8F789E20E947C29882370
:1053400009F02FC18AE20E947C29882311F00E9473
:10535000012B85E00E947C29882311F00E942829D6
:105360000E94F12A8093980287E00E947C2988237A
:10537000B9F18BE10E947C29882349F09091980231
:10538000892F869580958170880F9D7F26C08EE03D
:105390000E947C29882359F090919802892F869544
:1053A000869580958170880F880F9B7F16C080E15D
:1053B0000E947C2990919802882359F0892F869524
:1053C0008695869580958170880F880F880F977FC6
:1053D00004C0892F809581709E7F982B90939802AE
:1053E000809198020E94E12A0E94E72A8093AB02F2
:1053F00080EE0E947C29882349F08091AB02982F8F
:10540000909591708E7F892B8093AB0289E30E94E7
:105410007C29882359F09091AB02892F869580953D
:105420008170880F9D7F982B9093AB0282EE0E9433
:105430007C29882369F09091AB02892F8695869507
:1054400080958170880F880F9B7F982B9093AB027B
:1054500086EE0E947C29882379F09091AB02892FF7
:1054600086958695869580958170880F880F880F20
:10547000977F982B9093AB0283EE0E947C29882320
:1054800069F09091AB02892F82958F708095817021
:105490008295807F9F7E982B9093AB0285E30E943C
:1054A0007C29882379F09091AB02892F829586958B
:1054B0008770809581708295880F807E9F7D982B64
:1054C0009093AB0281E30E947C29882389F090911C
:1054D000AB02892F82958695869583708095817021
:1054E0008295880F880F807C9F7B982B9093AB02CE
:1054F00081E10E947C29882379F08091AB02982F6A
:10550000991F9927991F21E0922797959927979599
:105510008F77892B8093AB028091AB020E94D52AB2
:105520008091AB02881F8827881F80933D0187E206
:105530000E947C29182F8EE10E947C298111126023
:105540008FE10E947C298111146080E20E947C29F5
:105550008111186081E20E947C298111106182E230
:105560000E947C298111106283E20E947C298111B2
:10557000106484E20E947C2981111068112341F09B
:10558000812F0E94DB2A612F70E080E090E007C04D
:105590000E94EC2A90E0A0E0B0E0BC01CD010E94A6
:1055A0003327DF91CF911F910895682F84E090E019
:1055B0000E9465310895682F83E090E00E94653174
:1055C0000895682F82E090E00E946531089584E09C
:1055D00090E00E945731089583E090E00E94573197
:1055E000089582E090E00E945731089580E090E0B5
:1055F0000E945F3120E08D5E9E4F09F421E0822FF2
:10560000089580E090E06DEE7EEF0E94733182E0BD
:1056100090E060E00E94653183E090E060E00E94ED
:10562000653184E090E060E00E94653185E090E0C3
:1056300060E00E94653108958091A40280FF0BC054
:105640009091420185E0989FC0011124959587951E
:105650009595879530C081FF09C09091420185E002
:10566000989FC00111249595879525C082FF03C09E
:10567000909142010DC08091A302882319F485E026
:1056800090E008956091430190914201861728F0BF
:1056900085E0989FC00111240EC0899F90011124BC
:1056A000C901880F991F880F991F820F931F70E0FF
:1056B0000E944431CB018038910510F08FE70895A6
:1056C000009709F481E008958091A40280FF05C04D
:1056D000809144018695869518C081FF04C0809111
:1056E0004401869512C082FF03C0809144010DC021
:1056F0002091A302222319F481E090E008956091A3
:10570000450180914401261710F090E007C0289FC2
:10571000C001112470E00E944431CB018038910512
:1057200010F08FE70895009709F481E00895803F15
:1057300021F40E941C2B819504C0813F29F40E9412
:105740001C2B8093A0020895823F21F40E941C2B01
:10575000819504C0833F29F40E941C2B80939F02F3
:105760000895893F19F40E94642B05C08A3F31F4E3
:105770000E94642B81958093A10208958B3F21F4B0
:105780000E94642B819504C08C3F29F40E94642BF5
:105790008093A2020895843F21F480919E0281604B
:1057A00017C0853F21F480919E02826011C0863F20
:1057B00021F480919E0284600BC0873F21F4809188
:1057C0009E02886005C0883F31F480919E0280610E
:1057D00080939E0208958D3F21F48091A402816000
:1057E00005C08E3F31F48091A40282608093A402B0
:1057F00008958F3F29F48091A40284608093A402CD
:105800000895803F29F48091A00287FF6FC007C0F0
:10581000813F41F48091A00218160CF067C01092ED
:10582000A00264C0823F29F480919F0287FF5EC07E
:1058300007C0833F41F480919F0218160CF056C0B8
:1058400010929F0253C0893F29F48091A10218163B
:105850003CF04CC08A3F39F48091A10287FF46C0DA
:105860001092A10243C08B3F29F48091A20287FFCE
:105870003DC006C08C3F39F48091A2021816B4F5E1
:105880001092A20233C0843F21F480919E028E7F49
:1058900005C0853F31F480919E028D7F80939E02EA
:1058A00025C0863F21F480919E028B7FF7CF873FF2
:1058B00021F480919E02877FF1CF883F21F480916F
:1058C0009E028F7EEBCF8D3F21F48091A4028E7FCC
:1058D0000BC08E3F21F48091A4028D7F05C08F3FC5
:1058E00029F48091A4028B7F8093A40280919F026F
:1058F000882371F48091A002882351F48091A10241
:10590000882331F48091A202882311F41092A3021B
:105910000895EEE9F2E085E0DF011D928A95E9F74E
:105920001092A3021092A40208958EE992E00E94C0
:10593000AC1C0E94CB289093A6028093A5020895E8
:105940001F938091A5029091A6020E94D828AC01D5
:105950002091A302222321F08091410190E006C012
:10596000909140018AE0989FC0011124481759077F
:1059700008F485C090919F02992369F48091A00258
:10598000882349F48091A102882329F48091A202FE
:10599000882309F474C02F3F19F02F5F2093A302CE
:1059A000191624F40E941C2B80939F0280919F0261
:1059B00087FF05C00E941C2B819580939F028091D8
:1059C000A002181624F40E941C2B8093A002809140
:1059D000A00287FF05C00E941C2B81958093A00226
:1059E00060919F02662339F11091A002112319F1F1
:1059F000772767FD7095872F972F0E94413023E30B
:105A000033E343E35FE30E94A5300E940E306093CE
:105A10009F02612F772767FD7095872F972F0E9430
:105A2000413023E333E343E35FE30E94A5300E9468
:105A30000E306093A0028091A102181624F40E94F7
:105A4000642B8093A1028091A10287FF05C00E9470
:105A5000642B81958093A1028091A202181624F4F0
:105A60000E94642B8093A2028091A20287FF05C04E
:105A70000E94642B81958093A2020E94952C1F9115
:105A8000089580E0089580E00895833099F184308E
:105A900030F4813069F0823009F06FC01AC085306F
:105AA00009F44AC08530B8F1863009F066C055C0A7
:105AB00020914001822F90E0860F911D8F3F91052C
:105AC00020F4260F2093400108958FEF809340012A
:105AD000089520914101822F90E0860F911D8F3F04
