:100000000C94930D0C94D70D0C94D70D0C94D70D24
:100010000C94D70D0C94D70D0C94D70D0C94D70DD0
:100020000C94D70D0C94D70D0C948A190C945C1A6F
:100030000C94D70D0C94D70D0C94D70D0C94D70DB0
:100040000C94D70D0C94392F0C94D70D0C94D70D1C
:100050000C94D70D0C94D8280C94D70D0C94D70D74
:100060000C94D70D0C94D70D0C94D70D0C94D70D80
:100070000C94D70D0C94D70D0C94D70D0C94D70D70
:100080000C94D70D0C94D70D0C94D70D0C94D70D60
:100090000C94D70D0C94D70D0C94D70D0C94D70D50
:1000A0000C94D70D0C94D70D0C94D70DC11AE31AEC
:1000B000CE1BE31ACE1B251B481BCE1B9D1BB01B62
:1000C000AA1EAA1EEB1EEB1E2D1F691F69216921A6
:1000D000811F6921782078204321692169215721D6
:1000E000240221022B000130E00000002F00140048
:1000F00004001D002402E3002F021A0015001B005B
:10010000E2002A0030020900160006005200280012
:100110002602130017001900510046002E000A00A5
:1001200007000500000003520000490000002900FC
:100130000000035401542A0000002800000003546A
:1001400025020D000B000E000000035227020F00D5
:1001500011001000500000002E02180008003600A8
:100160004F002C0030001C000C00370031004C0008
:100170001E023300120034001F020000200238006B
:100180002D000130E40000000352E200E0000030E6
:100190000030000000302B00003000300030003014
:1001A00000300030003000300030003000300030CF
:1001B00000300030010000300030003000300030EE
:1001C000010000300030003000300030000000300E
:1001D0002A00003000000030000000300100003034
:1001E00000000030000000300030003000300030EF
:1001F00000000030003000300030003001000030DE
:10020000003000300030003001000030003000309D
:10021000003000300030003000300030003000305E
:10022000003000304C00E600E400003000300000F8
:100230000100350001000100010000000230010052
:100240000100010022000100023001000100010054
:100250000100010002300100010001000100010065
:100260000230010001000100010001000230010024
:100270000100010000000100220001000000010057
:100280000000010001000100000001000000010069
:1002900002300100010001000000010002300100F5
:1002A0000100010001000100023001000100010015
:1002B0000100010002300100010001000100010005
:1002C0000230010001000100023001000230010093
:1002D0000100010001000000010001000100E10037
:1002E000010000003A0001000100010001000100CE
:1002F0003B00010001000100010001003C00010081
:10030000010001004E0001003D000100010001005C
:100310004B0001003E00010001000100000001004F
:100320003F0001000000010000000100400001004A
:100330000000010000000100410001000100010077
:100340000000010042000100010001004A0001001C
:1003500043000100010001004D00010044000100C4
:100360000100010001000100450001000100010041
:1003700001000050000001000100E5000100000044
:1003800000000000000000000000000020000080CD
:1003900020000080000000008400008000000000B9
:1003A0003000008021000080210000805200008089
:1003B000800000803200008031000080400000801A
:1003C00041000080500000808100008033000080E8
:1003D0004200008043000080000000001100008007
:1003E00082000080340000804400008045000080CE
:1003F0000000000051000080830000803500008074
:1004000046000080470000800000000010000080CF
:1004100000000000B200008000000000100000801A
:10042000000000001000008000000000B00000800C
:1004300000000000B00000800000000010000080FC
:1004400093000080A50000806000008061000080B3
:10045000000000001000008092000080A4000080D6
:1004600062000080630000800000000052000080F5
:1004700091000080A300008064000080650000807F
:10048000000000001100008090000080A2000080A9
:10049000A10000806600008067000080540000809A
:1004A0009400008000000000A00000807000008028
:1004B0007100008053000080000000000000000078
:1004C0000000000072000080720000800000000048
:1004D000000000000000000000000000000000001C
:1004E000000000000000000000000000000000000C
:1004F00000000000000000000000000000000000FC
:1005000000000000000000000000000000000000EB
:1005100000000000000000000000000000000000DB
:1005200000000000000000000000000000000000CB
:1005300000000000000000000000000000000000BB
:1005400000000000000000000000000000000000AB
:10055000000000000000000000000000000000009B
:10056000000000000000000000000000000000008B
:10057000000000000000000000000000000000007B
:10058000000000000000000000000000000000006B
:10059000000000000000000000000000000000005B
:1005A000000000000000000000000000000000004B
:1005B000000000000000000000000000000000003B
:1005C000000000000000000000000000000000002B
:1005D000000000000000000000000000000000001B
:1005E000000000000000000000000000000000000B
:1005F00000000000000000000000000000000000FB
:1006000000000000000000000000000000000000EA
:1006100000000000000000000000000000000000DA
:10062000000000000000370000000000370000005C
:10063000000033020000000026020000000000005D
:100640000000000036020000000000000000000072
:100650003400000000000000000000000000000066
:100660000000000000000000340200000000000054
:10067000000000000000000000000000000000007A
:100680002702000000000000000000000000000041
:1006900000000000000000002602270250000000B9
:1006A000000000000000000000000000000000004A
:1006B000000000000000000000000000000000003A
:1006C000000000000000000000000000000000002A
:1006D000000000000000000000000000000000001A
:1006E00038020000000000000000000000000000D0
:1006F00000000000000000003702000000000000C1
:100700000000000036023702500000000000000028
:100710003400340050000000000000000000000021
:10072000000000000000000034023402500000000D
:1007300000000000000000000000000000000000B9
:100740001E02000000000000000000000000000089
:100750000000000000000000000000000000000099
:100760000000000000000000000000000000000089
:100770000000000000000000000000000000000079
:100780000000000000000000000000000000000069
:100790000000000000000000000000000000000059
:1007A0000000000000002602000000002D020000F2
:1007B00000000000000000002702000000002602E8
:1007C0002702000000000000000000000000000000
:1007D0002D000000000000000000000000000000EC
:1007E0000000000000000000000000000000000009
:1007F00000000000000000000000000000000000F9
:1008000037000000000000000000000000000000B1
:100810000000000000000000270237000000260250
:100820002702370000000000000000000000000068
:1008300000000000000000000000000000000000B8
:1008400000000000000000000000000000000000A8
:100850000000000000000000000000000000000098
:100860003600000000000000000000000000000052
:1008700000000000000000002702360000002602F1
:100880002702360000000000000000000000000009
:100890000000000000000000000000000000000058
:1008A0000000000000000000000000000000000048
:1008B0000000000000000000000000000000000038
:1008C00033000000000000000000000000000000F5
:1008D0000000000000000000270233000000260294
:1008E00027023300000000000000000000000000AC
:1008F00000000000000000000000000000000000F8
:1009000000000000000000000000000000000000E7
:1009100000000000000000000000000000000000D7
:10092000000000000000330000000000340016004A
:10093000000034001000000037000000000000003C
:10094000000000001100340017000000000000004B
:1009500036000000000000000000000034000F001E
:100960000F00000000000000000000000000000078
:100970000000000000000000000000000000000077
:1009800030020000000000000000000034001900E8
:10099000080000000000000000000000000000004F
:1009A0000000000000000000000000000000000047
:1009B0000000000000000000000000000000000037
:1009C0000000000000000000000000000000000027
:1009D0000000000000000000000000000000000017
:1009E00027020000000000000000000034000700A3
:1009F00000000000000000000000000000000000F7
:100A000000000000000000000000000000000000E6
:100A100000000000000000000000000000000000D6
:100A200000000000000000000000000000000000C6
:100A300000000000000000000000000000000000B6
:100A40003000000000000000000000000000000076
:100A50000000000000000000000000000000000096
:100A60000000000000000000000000000000000086
:100A70000000000000000000000000000000000076
:100A80000000000000000000000000000000000066
:100A90000000000000000000000000000000000056
:100AA0000000000000001E020000000029000000FD
:100AB000000000000000000025020000000000000F
:100AC0000000000000000000000000000000000026
:100AD0002D020000000000000000000000000000E7
:100AE0000000000000000000000000000000000006
:100AF00000000000000000000000000000000000F6
:100B00002F020000000000000000000000000000B4
:100B100000000000000000000000000000000000D5
:100B200000000000000000000000000000000000C5
:100B300000000000000000000000000000000000B5
:100B400000000000000000000000000000000000A5
:100B50000000000000000000000000000000000095
:100B6000260200000000000000000000000000005D
:100B70000000000000000000000000000000000075
:100B80000000000000000000000000000000000065
:100B90000000000000000000000000000000000055
:100BA0000000000000000000000000000000000045
:100BB0000000000000000000000000000000000035
:100BC0002F000000000000000000000000000000F6
:100BD0000000000000000000000000000000000015
:100BE0000000000000000000000000000000000005
:100BF00000000000000000000000000000000000F5
:100C000000000000000000000000000000000000E4
:100C100000000000000000000000000000000000D4
:100C20000000000000001E00000000001F00000087
:100C30000000200000000000210000000000220051
:100C4000000000002300000000002400000000005D
:100C50002500000000002600000000001E00270004
:100C600000001E001E0000001E001F0000001E00ED
:100C7000200000001E00210000001E0022000000D5
:100C80002700000000001E00270000001F002700B2
:100C900000002000270000002100270000002200A3
:100CA0002700000023002700000024002700000088
:100CB0002500270000002600270000001E00270056
:100CC00027001E001E0027001E001F0027001E0018
:100CD000200027001E00210027001E002200270000
:100CE0000000000000001E00000000001F000000C7
:100CF0000000200000000000210000000000220091
:100D0000000000002300000000002400000000009C
:100D10002500000000002600000000001E00270043
:100D200000001E001E0000001E001F0000001E002C
:100D3000200000001E00210000001E002200000014
:100D40002700000000001E00270000001F002700F1
:100D500000002000270000002100270000002200E2
:100D600027000000230027000000240027000000C7
:100D70002500270000002600270000001E00270095
:100D800027001E001E0027001E001F0027001E0057
:100D9000200027001E00210027001E00220027003F
:100DA0000000000000002C00000000002B000000EC
:100DB000000000000000000028000000000000000B
:100DC0000000000000000000000000000000000023
:100DD000000000000008000000001C0000000008E7
:100DE0001C000000160000000008160000001C1681
:100DF000000000081C1600000000000000150000A4
:100E00000000110000000015110000000F0000009C
:100E100000150F00000016000000000F0F0000007A
:100E20000A00000000150A000000110A0000000A74
:100E3000110000000F0A0000000000000000070081
:100E4000000000070F00000006000000001506006B
:100E50000000110600000000000000001300000068
:100E60000015130000001613000000130F0000000F
:100E7000050000000015050000000A0A000000003F
:100E800000000000050F000000000000000000004E
:100E90000000000F050000000B000000001A000019
:100EA000000019000000001A110000001D000000E1
:100EB000001A0F000000160B0000000F19000000C0
:100EC0000A0B000000150A0B0000100000000015BE
:100ED000100000001B0000000000000000001610C1
:100EE0000000000F10000000060B00000015060BAC
:100EF000000011060B00001519000000130B000084
:100F000000000000000000000000000F060B0000C1
:100F10000900000000150900000010050000000095
:100F2000000000000F090000000000000000101386
:100F3000000000000000000017000000001517006E
:100F40000000111700000015111700000F17000016
:100F50000000000000001617000000151617000022
:100F60000E00000000150E000000110E0000000031
:100F7000000000000E0F0000000000000000160E30
:100F80000000000F0E000000061700000000000027
:100F90000000170C121100000000000013170000E1
:100FA00000000000000011161700000F13000000E1
:100FB000060E000000000000000005170000000001
:100FC00000000000060E0F000000000000000000FE
:100FD0000000000000000000170B00000015170BB8
:100FE000000011170B00001A170B00000F170B0061
:100FF00000000000000000000000000000000000F1
:101000000A0B1700001A0E000000110A170B00004F
:10101000000000001B170000000000000000071780
:101020000B0000000000000017060B00000000008D
:1010300000000000000000000000000013170B007B
:1010400000000000000000000000000000000000A0
:101050000917000000000000000000000000000070
:10106000000000000000000000000000000010135D
:101070001700000000000000160000000015160018
:101080000000111600000015111600000F160000D8
:1010900000150F16000016160000000F0F160000B6
:1010A0000A16000000150A160000110A1600000AB0
:1010B00011160000000000000000000000000716EC
:1010C00000000000000000000616000000150616D3
:1010D00000001106081600000000000013160000B2
:1010E0000015131600001613160000130F08160043
:1010F000051600000015051600000A0A160000007B
:1011000000000000050F08160000000000000000AD
:101110000000000F051600000B160000001A160054
:10112000000019081600001A111600001D0816000C
:10113000001A0F160000160B0816000F19081600EB
:101140000A0B160000000000000010160000001539
:10115000101600001B08160000000000000016100A
:101160001600000F10160000070000000015070011
:10117000000011070000001A07000000130B160002
:1011800000150F07000000000000000F070000001E
:10119000070A000000000000000010051600000013
:1011A000000000000000000000000000000010131C
:1011B00016000000000000001716000000151716AA
:1011C0000000111716000000000000000F171600A5
:1011D0000000000000001617160000151617160074
:1011E0000E16000000150E160000110E160000006D
:1011F0000000000000000000000000000000160ECB
:101200001600000F0E160000061716000000000062
:101210000000170C12111600000000000000000072
:1012200000000000000000000000000F1316000086
:10123000060E160000000000000005171600000052
:1012400000000000060E0F0816000000000000005D
:101250000000000000000000170B16000015170B1F
:10126000160011170B16001A170B160000000000CD
:10127000000000000000000000000000000000006E
:101280000A0B1716001A0E160000110A170B16008B
:101290000000000000000000000000000000071730
:1012A0000B160000000000000716000000150716CE
:1012B000000011071600001A0716000013170B167E
:1012C00000150F07160000000000000F07160000B1
:1012D000000000000000000000000000000000000E
:1012E00000000000000000000000000000001013DB
:1012F00017160000000000000000000000080800B1
:101300000000121200000012080000000404000097
:10131000000408000000041200000008041200008D
:10132000181800000018080000001812000000083B
:101330001812000018040000000818040000121819
:1013400004000008121804000C0C0000000C080037
:1013500000000C12000000080C1200000C04000039
:1013600000080C040000120C04000008120C040019
:101370000C18000000080C1800000C1218000008DF
:10138000120C1800040C18000008040C18001204B9
:101390000C18000812040C180000000000080000DF
:1013A000000012000000000812000000040000000D
:1013B00000080400000012040000000812040000ED
:1013C00018000000000818000000121800000008B3
:1013D000121800000418000000080418000012048D
:1013E00018000008120418000C00000000080C008F
:1013F0000000120C00000008120C0000040C000099
:101400000008040C000012040C00000812040C0078
:10141000180C00000008180C000012180C0000083E
:1014200012180C0004180C00000804180C00120418
:10143000180C00081204180C000000000004000042
:101440000000160000000004160000000600000066
:101450000004060000001606000000041606000046
:101460001700000000041700000016170000000419
:1014700016170000070000000004070000000A0023
:10148000000000040A0000001A00000000041A0016
:101490000000161A00000000000000001300000009
:1014A00000041300000016130000000416130000CF
:1014B000171A00000004171700001B0000000004AA
:1014C0001B000000071A00000004070700000A1AAA
:1014D000000000040A0A00000B00000000040B00DA
:1014E0000000160B00000004160B0000060B0000A5
:1014F0000004060B000016060B00000000000000B0
:10150000170B00000004170B00000000000000048F
:1015100016170B00090000000004090000000A0B68
:10152000000000040A0B00001A0B000000041A0B54
:10153000000000000000000000000000130B00008D
:101540000004130B000016130B00000416130B000D
:101550000E00000000040E000000160E0000000443
:10156000160E000005000000000405000000000049
:101570000000000405050000110000000004110037
:101580000000161100000004111100001D000000F1
:1015900000041D00000016160000000416160000CE
:1015A00019000000000419000000161900000000D6
:1015B00000000000070819000004071900000A11C4
:1015C000000000040A1100001000000000041000D8
:1015D0000000161000000004161000001311000097
:1015E00000041010000000000000000413130000AD
:1015F0000D00000000040D000000000000000000CD
:1016000000000000070810000004071000000000A0
:1016100000000004070D00001C00000000041C0076
:101620000000161C00000004161C0000061C000030
:10163000000406060000000000000000000000009A
:10164000171C000000000000000016171C0000001E
:1016500000000000071C00000004090900000A1C2B
:101660000000000409170000101C0000000000002A
:10167000000000000000000000000000131C00003B
:1016800000000000000016131C00000416130B1CC1
:101690000E1100000004060E11001B1C00000000CB
:1016A00000000000051C00000004051C00000000F4
:1016B00000000000000000001500000000041500FC
:1016C000000016081500000415150000061500009E
:1016D0000004061500001606150000041606150085
:1016E000171500000004171500001617150000005C
:1016F00000000000071500000004071500000A158F
:10170000000000040A1500001A1500000000000087
:1017100000000000000000000000000013150000A1
:101720000004131500001613150000041313150010
:10173000000000000004171715001B150000000032
:10174000000000000708150000040707150000004E
:10175000000000040A0A1500150B0000000000003C
:101760000000160B1500000000000000060B15001D
:101770000004060615000000000000000000000044
:10178000170B15000004170B0F00000000000000ED
:101790000000000009150000000409150000000009
:1017A000000000040909150000000000000000000E
:1017B000000000000000000000000000130B1500F6
:1017C0000004130B150000000000000000000000E2
:1017D0000E150000000000000000000000000000E6
:1017E00000000000051500000004051500000000C1
:1017F00000000004050515000F00000000040F00A4
:101800000000160F00000004160F0000060F000075
:101810000004060F000000000000000000000000AF
:10182000140000000004140000001614000000045E
:101830001614000007080F000004061400000A0F29
:10184000000000040A0F00001015000000040F0F34
:10185000000000000000000000000000130F000066
:101860000004130F000016130F00000413130F00E1
:101870000D081500000000000000160815190000F2
:101880000000000000000000000407070F00000037
:10189000000000040A0A0F000F1C000000000000F6
:1018A0000000160F1C0000000000000006151C00C0
:1018B000000406060F000000000000000000000009
:1018C00017151C000000000000001617151C000072
:1018D00000000000090F00000004090F00000000D4
:1018E0000000000409090F000000000000000000D3
:1018F000000000000000000000000000130B0F00BB
:1019000000000000000000000000000000000000D7
:101910000E0F0000000000000000000000000000AA
:1019200000000000050F00000004050F000000008B
:101930000000000000000000160345007200670070
:101940006F0044006F007800200045005A0000003E
:1019500016034500720067006F0044006F007800B6
:10196000200045005A0000000403090409026D002C
:10197000040100A0FA09040000010301010009218B
:1019800011010001223F000705810308000A090434
:1019900001000103010200092111010001224D0093
:1019A0000705820308000A09040200010300000081
:1019B0000921110100012236000705830308000AEE
:1019C00009040300010300000009211101000122A4
:1019D0003900070584031000011201100100000006
:1019E00008EDFE071301000102000105010906A12F
:1019F00001050719E029E715002501950875018102
:101A000002050819012905950575019102950175D1
:101A100003910105071900297715002501957875AF
:101A2000018102C005010980A1018502160100267D
:101A3000B7001A01002AB700751095018100C00592
:101A40000C0901A1018503160100269C021A010060
:101A50002A9C02751095018100C005010902A101AF
:101A60000901A100050919012905150025019505A0
:101A70007501810295017503810105010930093164
:101A80001581257F95027508810609381581257F06
:101A9000950175088106050C0A38021581257F9588
:101AA0000175088106C0C005010906A101050719D5
:101AB000E029E7150025019508750181029501755A
:101AC00008810105081901290595057501910295FF
:101AD00001750391010507190029FF150025FF95E0
:101AE0000675088100C00000000000000000000032
:101AF00000010204060A0F17202C3A4A5D71879DE7
:101B0000B3C7DAE9F5FCFFFCF5E9DAC7B39D8771E5
:101B10005D4A3A2C20170F0A06040201000000005B
:101B200000000000000011241FBECFEFDAE0DEBF8E
:101B3000CDBF04B603FE24C08091D8029091D90293
:101B4000A091DA02B091DB028730904BA740B04BF6
:101B5000B9F41092D8021092D9021092DA021092BF
:101B6000DB0214BE84B7877F84BF88E10FB6F89488
:101B700080936000109260000FBEE0E0FFE30995E3
:101B800011E0A0E0B1E0E6EFF1E602C005900D92B1
:101B9000A43AB107D9F712E0A4EAB1E001C01D925E
:101BA000A83DB107E1F70E94D0160C94F9300C94CF
:101BB00000008091190290911A02A0911B02B0912D
:101BC0001C02892B8A2B8B2B69F481E04091150232
:101BD000509116026091170270911802452B462B06
:101BE000472B09F080E0817008950F931F93CF93E6
:101BF000DF931F92CDB7DEB7182F69830E9483272A
:101C0000082F812F0E9493276981862F0E94321D01
:101C1000802F0F90DF91CF911F910F910C949327FC
:101C20002F923F924F925F926F927F928F929F92EC
:101C3000AF92BF92CF92DF92EF92FF920F931F93DA
:101C4000CF93DF9300D000D0CDB7DEB70E948327BB
:101C5000898382E10E948C2780910A0250900E02B3
:101C6000282F2170622E82708A8380910B02882334
:101C700071F088248394823009F0812C7724739446
:101C8000833009F0712C82E00E94862702C0712CFB
:101C9000812C80E0C82E81E0D82E99E0A92E92E018
:101CA000B92E1C821B82412C912CF50181915F0180
:101CB000882309F49BC0442443942B813C81213028
:101CC000310509F4412CEB81FC81E259FE4F9081F2
:101CD0002B813C812530310519F461101DC018C0DD
:101CE0002B813C812430310549F4662089F0511064
:101CF0000FC08695869500EA17E0CCC02B813C8109
:101D00002630310529F4662019F0552009F4C0C0A9
:101D1000F6010081118102C008EF12E101151105E1
:101D200009F464C0913009F0B9C0F5E08F9F000D4F
:101D3000111D1124E12CF12C212C8E2DF801EE0D1A
:101D4000FF1D34903320A9F0832D0E94321D832D76
:101D50000E94FA1D9394882019F021E0921629F030
:101D60007720E1F032E0931219C082E00E948C27C4
:101D700015C09A81992309F439C08130B9F52B81B6
:101D80003C812630310591F5222081F1822D0E947F
:101D9000321D822D0E94FA1D939428C03FEFE31A52
:101DA000F30A85E0E816F10409F1232CC6CF8CEF85
:101DB000800F8A3108F07BC0802F0E94321D802F57
:101DC0000E94FA1D9394811077C0711079C0F2E0DF
:101DD000EF0EF11C26E0E216F10441F0F101EE0DE8
:101DE000FF1D059114910115110509F72B813C8107
:101DF0002F5F3F4F3C832B8332E0C30ED11C2B81DE
:101E00003C812C30310509F050CF992099F0809118
:101E1000A401843611F41092A401E091A40181E0A0
:101E20008E0F8093A401FF27E7FDF095EB55FE4F41
:101E3000908223C0662009F141101FC01091A401B7
:101E4000115017FD13E6C12EDD24C7FCD094C60146
:101E50008B559E4F6C01FC01F080FF2071F000E07B
:101E60008AE20E94321D8AE20E94FA1D0F5F0F1162
:101E7000F7CFF60110821093A40189810E94932765
:101E8000E9E0F2E0119222E0E531F207D9F71FC054
:101E900000E216E00115110509F4A8CF180136E09B
:101EA000839F200C311C1124E12CF12C97CF602F43
:101EB000812F0E94F50D83CF91E0991286CF03C048
:101EC000E2E09E1284CF82E00E948C2780CF0F90A8
:101ED0000F900F900F90DF91CF911F910F91FF9076
:101EE000EF90DF90CF90BF90AF909F908F907F90BA
:101EF0006F905F904F903F902F9008957F928F92B8
:101F00009F92AF92BF92CF92DF92EF92FF920F9388
:101F10001F93CF93DF93EC01613009F4B5C020F03B
:101F2000623009F4C2C0EAC08981488150E0682F5C
:101F300070E0FA0136E0839FE00DF11D1124EE0FF1
:101F4000FF1FEE0FFF1FE058FC4F85919591A59163
:101F5000B4910097A105B10509F4D0C02A81B7FF5B
:101F600063C0AC014F705527C12CD12C7601C394AE
:101F700004C0CC0CDD1CEE1CFF1C4A95D2F764E0BB
:101F8000B695A795979587956A95D1F7382F3F70A5
:101F9000732E032F10E0D801A658BE4FF801EE0FA4
:101FA000FF1FE85EFE4FC081D181460157010C90B2
:101FB00004C0880C991CAA1CBB1C0A94D2F72223CB
:101FC000C9F082E0381303C081EE0E94321D88817F
:101FD0009981AA81BB8188299929AA29BB2988834B
:101FE0009983AA83BB83F801E75FFD4F80818C2929
:101FF000808384C080949094A094B0944881598147
:102000006A817B81482159216A217B214883598338
:102010006A837B830E94D90D81110E94100E92E089
:1020200079126CC081EE2DC036E0369FF001379FEB
:10203000F00D1124E40FF51FEE0FFF1FEE0FFF1F31
:10204000E053FB4FC590D590E590F490C114D104B6
:10205000E104F10409F446C0CC2DE0911C01F0919B
:102060001D01408151816281738144275527662774
:102070007076452B462B472B81F535C00E94FA1D03
:102080008C2D0E94FA1D3AC08A81882339F081EE96
:102090000E94321D82E00E94FD2530C081EE0E9428
:1020A000FA1D82E00E941E2629C06881798180E0A5
:1020B0000E94AF1364E170E00E949A30FC01EE0FC1
:1020C000FF1FEA5BFE4F608181819A81992319F09D
:1020D0000E94F50D13C0862FD4CF222379F26C2DE8
:1020E0008D2DF6CFC0E0222319F0682F892FF0CF75
:1020F0000E94FA1DCC2311F08C2FC3CF80E090E01A
:10210000DF91CF911F910F91FF90EF90DF90CF90D3
:10211000BF90AF909F908F907F90089508956091A9
:102120009A0270919B0280919C0290919D020E9464
:102130000128569A5E9A25982D9826982E982798C9
:102140002F98813029F0833029F4269A2E9A02C0E4
:10215000259A2D9A0E94D90D811102C0279A2F9A93
:1021600008950C948F1056985E9825982D9826986F
:102170002E9827982F988FEF90E090938900809366
:10218000880090938B0080938A0090938D008093B9
:102190008C00259A2D9A2FEF80E792E02150804005
:1021A0009040E1F700C00000269A2E9A2FEF80E7BA
:1021B00092E0215080409040E1F700C00000279A53
:1021C0002F9A2FEF80E792E0215080409040E1F776
:1021D00000C0000025982D982FEF80E792E0215055
:1021E00080409040E1F700C0000026982E982FEF25
:1021F00080E792E0215080409040E1F700C000006D
:1022000027982F9856985E9825982D9826982E985E
:1022100027982F98089589EA8093800089E0809319
:10222000810024982C983F988AB18F748AB96E984F
:10223000479A8BB1806B8BB9769A0E94B3100C943D
:102240008E1080E28093300180911D0281110EC0BA
:102250000E94701181E080931D022FEF83ED90E3C7
:10226000215080409040E1F700C0000080E40E94CF
:1022700076118093300181112EC00E94A0118093AD
:102280003001811128C00E94A0118093300181117A
:1022900022C08FE30E94A0118093300181111BC0E6
:1022A0000E94981180E40E94761180933001811180
:1022B00012C08CE00E94A0118093300181110BC0EC
:1022C0000E94A01180933001811105C08FE30E940C
:1022D000A011809330010E949811809130010895DF
:1022E0001092B9008AE08093B800089594EA909320
:1022F000BC009091BC0097FFFCCF9091B900987FF3
:10230000983021F0903111F081E008958093BB0066
:1023100084E88093BC008091BC0087FFFCCF809153
:10232000B900887F883111F0803471F780E008951A
:1023300084E98093BC008091BC0084FDFCCF0895AB
:102340008093BB0084E88093BC008091BC0087FF31
:10235000FCCF9091B900987F81E0983209F480E039
:10236000089584E88093BC008091BC0087FFFCCF77
:102370008091BB00089580913001811115C080E4E7
:102380000E9476118093300181110CC082E10E947D
:10239000A01180933001811105C08FEF0E94A01120
:1023A000809330010E94981184B1807F84B985B1F7
:1023B000807F85B98AB1837F8AB98BB1837F8BB9DE
:1023C0003E98469808950E942111809330010E9402
:1023D000BB1180B38C7080BB81B3836F81BBEDE296
:1023E000F2E0AFE1B2E011921D9282E0EB33F80728
:1023F000D1F70C940B11BF92CF92DF92EF92FF9224
:102400000F931F93CF93DF9380913001882379F04E
:1024100080911E028F5F80931E02811108C00E946E
:10242000211180933001811102C00E94B3100FE18D
:1024300012E0C0E0D0E0DD24D39482E0C82EEE2488
:10244000E394F12CC73000F580913001811162C016
:1024500080E40E94761180933001811112C082E1E4
:102460000E94A0118093300181110BC0C7010C2E76
:1024700001C0880F0A94EAF780950E94A01180930A
:1024800030010E94981146C0CA30A1F028F4C8302B
:1024900059F0C93061F005C0CC3089F070F0CD3012
:1024A00089F0209A289810C0219A29980DC0229A64
:1024B0002A980AC0239A2B9807C0529A01C0539AAF
:1024C0005B9802C03E9A4698E0EAEA95F1F78FB130
:1024D00079995AC092E081708D25892B7C9B02C02E
:1024E00090E001C094E0892B7D9B02C090E001C088
:1024F00098E0892B7E9B02C090E001C090E1892B7F
:102500009FB19095991F9927991F9295990F907E49
:10251000892B0FC08091300181114BC080E40E9453
:10252000761180933001882389F1B12C0E94981193
:102530008B2DF8019081981719F08083C09231019A
:102540000E94BB1121960F5F1F4FCE30D10509F0BD
:1025500079CF80913101882371F1815080933101CD
:10256000882339F08FE99FE00197F1F700C0000060
:1025700022C0ADE2B2E0EFE1F2E081918D9392E012
:10258000ED32F907D1F717C090E0A5CF83E10E94A3
:10259000A011809330018111C8CF81E40E9476118F
:1025A000809330018111C1CF0E94B111B82EB09437
:1025B000BDCF80E0BECF0E94B11081E0DF91CF910E
:1025C0001F910F91FF90EF90DF90CF90BF900895F3
:1025D000E82FF0E0E35DFD4F8081089508958B3B87
:1025E000910578F4883A910540F5853A9105D0F443
:1025F0008430910508F0B1C08130910509F4ADC077
:102600006BC0803E910508F467C0883E910508F4D0
:10261000A4C09C01205F31092031310508F05CC065
:1026200090650895853A910509F459C0863A910557
:1026300009F458C083E890E40895883A910509F4B4
:1026400054C0893A910509F453C08A3A910509F4B6
:1026500052C08B3A910509F451C08C3A910509F4A6
:1026600050C08D3A910509F44FC0803B910509F4A3
:102670004EC08E3A910509F44DC08F3A910509F488
:102680004CC0813B910509F44BC0823B910509F494
:102690004AC0833B910509F449C0843B910509F484
:1026A00048C0853B910509F447C0863B910509F474
:1026B00046C0873B910509F445C0883B910509F464
:1026C00044C0893B910509F443C08A3B910509F058
:1026D00042C08AE296E4089580E090E0089581E89F
:1026E00090E4089582E890E4089582EE94E40895D9
:1026F00089EE94E408958AEE94E4089585EB94E4D9
:10270000089586EB94E4089587EB94E408958CECA7
:1027100094E408958DEC94E4089583E895E4089595
:102720008AE895E4089582E995E4089584E995E4BA
:10273000089581E296E4089583E296E4089584E2A0
:1027400096E4089585E296E4089586E296E4089575
:1027500087E296E4089580E094E40895089596E071
:10276000799FF001112494E5899FE00DF11D11245A
:10277000E60FF11DEE0FFF1FE052FF4F8591949180
:102780000895880F991F805A9040FC01859194917B
:102790000895880F991F80529F4FFC018591949155
:1027A000089526E0729FF001112444E5849FE00D16
:1027B000F11D1124E60FF11DEE0FFF1FE052FF4F38
:1027C00025913491C9019A9581159F4110F4C90151
:1027D0000895C90190528115904128F4C9019F7054
:1027E0000E94C9130895C90190538115904120F4A6
:1027F000C9019927906C0895211580E5380771F477
:102800000E948C219FEF24E34CE0915020404040F7
:10281000E1F700C000000E94FD28FEC0213080E5E5
:10282000380731F48091B60281608093B602F4C01B
:10283000C90190558115904108F050C0832F992708
:102840008F70992781309105D9F4A90143705527DC
:1028500002C0880F991F4A95E2F79C68A90164E0BD
:10286000440F551F6A95E1F744275370842B952B2D
:1028700073E0220F331F7A95E1F7207633271DC0CE
:102880008230910529F4922F8827816F906A0895EC
:1028900083309105A9F4A9014370552781E090E0A8
:1028A00002C0880F991F4A95E2F79C6843E0220F07
:1028B000331F4A95E1F7207E3770822B932B0895C2
:1028C0000497F1F4A9014370552781E090E002C01C
:1028D000880F991F4A95E2F79A68E8CFC901905787
:1028E0008115904120F4C9019F7090620895C9013B
:1028F00090588115904120F4C9019F70906A089505
:10290000203E3105E0F4203C310558F521333105F6
:1029100009F470C048F42932310509F464C02A3240
:10292000310509F46EC074C029333105F1F0223845
:102930003105D9F02533310509F44EC069C0233E75
:10294000310589F138F4203E3105C1F0223E3105D0
:10295000E1F05EC0263E310569F1273E3105A9F15F
:1029600057C0C9010E94C11308958091C90280FD1A
:1029700002C081FF4DC080EE90E04BC08091C90243
:1029800080FFF9CF89E390E044C08091C90282FFC3
:102990000EC08091C90284FF03C080E090E039C07E
:1029A00083EE90E036C08091C90282FFF2CF82EEC2
:1029B00090E02FC08091C90283FF0BC08091C902B3
:1029C00084FDEBCF87EE90E024C08091C90283FFA5
:1029D000F5CF86EE90E01DC08091C90285FF07C04B
:1029E00089E290E016C08091C90285FFF9CF85E3A6
:1029F00090E00FC08091C90286FF07C08AE290E094
:102A000008C08091C90286FFF9CF81E390E001C040
:102A1000C9010E94EF120895089508950C940D15B0
:102A200080914B020895CF93DF9300D01F92CDB7D2
:102A3000DEB72091CF02243019F523E029839B8350
:102A40008A832093E9008FEF9091E800815095FDF3
:102A500006C095ED9A95F1F700008111F5CF8091B0
:102A6000E80085FF0DC040E050E063E070E0CE017B
:102A700001960E947D178091E8008E778093E80090
:102A80000F900F900F90DF91CF910895CF93DF9328
:102A900000D01F92CDB7DEB72091CF02243021F5B0
:102AA00022E029839B838A8383E08093E9008FEF70
:102AB0009091E800815095FD06C095ED9A95F1F74B
:102AC00000008111F5CF8091E80085FF0DC040E046
:102AD00050E063E070E0CE0101960E947D17809186
:102AE000E8008E778093E8000F900F900F90DF91B1
:102AF000CF9108952091CF022430F1F422E0209369
:102B0000E9002FEF3091E800215035FD06C035ED8A
:102B10003A95F1F700002111F5CF2091E80025FF4B
:102B20000BC040E050E065E070E00E947D178091AE
:102B3000E8008E778093E8000895CF93DF93EC014F
:102B40008091CF02843009F046C090913C019923D6
:102B5000D9F090913D019923B9F08093E9008FEF6E
:102B60009091E800815095FD06C095E19A95F1F7A6
:102B700000008111F5CF8091E80085FF2CC040E076
:102B800050E060E170E017C081E08093E9008FEFD2
:102B90009091E800815095FD06C095ED9A95F1F76A
:102BA00000008111F5CF8091E80085FF14C040E05E
:102BB00050E068E070E0CE010E947D178091E8004F
:102BC0008E778093E80080E1FE01ABE3B2E00190F4
:102BD0000D928A95E1F7DF91CF9108958091CE0211
:102BE000811109C00E940F190E946C198091E200A6
:102BF00084608093E20008951092CE0208950895B3
:102C00000C94262F0E9494280E942C2F0E94091CAD
:102C10000C940E1542E061EC81E00E94891842E0BC
:102C200061EC82E00E94891842E061EC83E00E943E
:102C3000891842E161EC84E00C9489188091D102FA
:102C4000833009F455C030F4813071F0823009F4DA
:102C50008EC008958A3009F47AC08B3009F460C0C0
:102C6000893009F09CC020C08091D002813A09F0DF
:102C700096C08091E800877F8093E8008091D4021D
:102C80009091D502892B21F060E080E090E003C0B4
:102C900060E18BE392E070E00E94C6178091E8004B
:102CA0008B778093E80008958091D002813209F0FB
:102CB00076C08091D4029091D502009719F00397C5
:102CC00009F06DC08091E800877F8093E8008091D3
:102CD000E80082FD05C08091CF028111F8CF5FC06E
:102CE0008091F10080934B028091E8008B7753C074
:102CF0008091D002813A09F052C08091D402909123
:102D0000D502892B09F04BC08091E800877F809322
:102D1000E8008091E80080FFFCCF80913C0136C044
:102D20008091D0028132D9F58091D4029091D50260
:102D3000892BA9F58091E800877F8093E8000E94A5
:102D4000BE188091D20280933C010C948C2180911A
:102D5000D002813221F58091E800877F8093E800DE
:102D60000E94BE188091D30280934C0208958091F6
:102D7000D002813AA1F48091E800877F8093E80037
:102D80008091E80080FFFCCF80914C028093F1009D
:102D90008091E8008E778093E8000C94BE18089527
:102DA00084B7877F84BF88E10FB6F8948093600072
:102DB000109260000FBE90E080E80FB6F894809308
:102DC0006100909361000FBE0E94581C0E940F1971
:102DD0000E946C198091E20084608093E2007894F4
:102DE0000E94E71B0E945A1C82E391E00E94041C8F
:102DF0000E94142F8091CF02853069F40E945428DC
:102E00008091CD028823B1F30E947F28882391F31B
:102E10000E946717EFCF0E94601CECCF292F332749
:102E200023303105A9F06CF42130310509F442C09A
:102E30002230310509F043C08DE690E02CE639E1FF
:102E400042C021323105C9F02232310519F137C0B3
:102E500099278130910541F08230910541F0892B0D
:102E600071F5E8E6F9E105C0E0E5F9E102C0E8E363
:102E7000F9E1849190E09F0126C0643000F5E62FCF
:102E8000F0E0EE0FFF1FEE56FE4F2081318189E00A
:102E900090E019C0643098F4E62FF0E0DF01AA0F4B
:102EA000BB1FA657BE4F2D913C91EA57FE4F808124
:102EB00090E009C082E190E029ED39E104C080E0B2
:102EC00090E020E030E0FA0131832083089580E132
:102ED00089BD82E189BD09B400FEFDCF8091D80093
:102EE0008F7D8093D8008091E00082608093E00025
:102EF0008091E00081FDFCCF0895CF92DF92EF92A8
:102F0000FF920F931F93CF93DF937C018B01EA0114
:102F10000E94DF18811131C0209731F0888199819A
:102F2000081B190BE80EF91EC12CD12C0115110537
:102F300019F18091E80085FD14C08091E8008E773A
:102F40008093E800209741F0888199818C0D9D1D28
:102F50009983888385E011C00E94DF18882331F3AC
:102F60000CC0F70181917F018093F100015011099C
:102F7000FFEFCF1ADF0ADACF80E0DF91CF911F9108
:102F80000F91FF90EF90DF90CF9008952091D6029F
:102F90003091D7022617370748F06115710539F4CB
:102FA0002091E8002E772093E80001C0B901FC01D0
:102FB00020E061157105B9F18091CF02882309F4F1
:102FC00040C0853009F43FC08091E80083FD3DC0DA
:102FD0008091E80082FF06C08091E80082FF26C051
:102FE00080E008958091E80080FFE3CF2091F30016
:102FF0008091F20090E0922B6115710551F08830BC
:10300000910538F421912093F100615071090196E6
:10301000F3CF21E0089709F020E08091E8008E7757
:103020008093E800C6CF2111C7CFD6CF8091CF02C1
:10303000882339F0853039F08091E80083FFCCCFC8
:1030400004C082E0089583E0089581E0089520910E
:10305000D6023091D7022617370748F0611571055F
:1030600039F42091E8002E772093E80001C0B901DF
:10307000FC0120E061157105C1F18091CF02882328
:1030800009F441C0853009F440C08091E80083FD17
:103090003EC08091E80082FF06C08091E80082FF78
:1030A00027C080E008958091E80080FFE3CF209161
:1030B000F3008091F20090E0922B6115710559F0B8
:1030C0008830910540F424912093F10031966150AD
:1030D00071090196F2CF21E0089709F020E0809174
:1030E000E8008E778093E800C5CF2111C6CFD5CFF9
:1030F0008091CF02882339F0853039F08091E80043
:1031000083FFCBCF04C082E0089583E0089581E07F
:103110000895982F973058F59093E900981739F053
:103120007091EC002091ED005091F00003C0242F2D
:10313000762F50E021FF19C03091EB003E7F309395
:10314000EB003091ED003D7F3093ED003091EB00CE
:1031500031603093EB007093EC002093ED005093BE
:10316000F0002091EE0027FF07C09F5FD3CF8F7044
:103170008093E90081E0089580E008958091D00275
:1031800087FD05C08091E80080FF0EC012C08091CD
:10319000E80082FD05C08091CF028111F8CF08952B
:1031A0008091E8008B7708C08091CF028111EACF2F
:1031B00008958091E8008E778093E80008958091CB
:1031C000E4009091E50045E62091EC0020FF21C04D
:1031D0002091E80020FD21C02091CF02222389F018
:1031E000253089F02091EB0025FD0FC02091E400EF
:1031F0003091E5002817390739F3415041F0C901F2
:10320000E3CF82E0089583E0089581E0089584E0AB
:1032100008952091E80022FFDFCF80E008950E940A
:103220007D190E948519E0EEF0E080818160808345
:10323000E8EDF0E080818F77808319BCA7EDB0E0E6
:103240008C918E7F8C9380818F7E80831092CE02B2
:1032500008950F931F93CF93DF930E947D190E94CF
:103260008519C8EDD0E088818F7788838881806850
:10327000888388818F7D888319BC1092CF02109239
:10328000CB021092CD021092CC0200EE10E0F801B9
:1032900080818B7F808388818160888342E060E0C9
:1032A00080E00E948918E1EEF0E080818E7F8083CB
:1032B000E2EEF0E08081816080838081886080839D
:1032C000F80180818E7F8083888180618883DF918F
:1032D000CF911F910F910895E8EDF0E080818F7EEE
:1032E0008083E7EDF0E080818160808384E082BFAD
:1032F00081E08093CE020C942919E8EDF0E0808102
:103300008E7F80831092E20008951092DA0010926E
:10331000E10008951F920F920FB60F9211242F9380
:103320003F934F935F936F937F938F939F93AF934D
:10333000BF93EF93FF938091E10082FF0BC08091D8
:10334000E20082FF07C08091E1008B7F8093E10063
:103350000E94E61B8091DA0080FF1FC08091D80098
:1033600080FF1BC08091DA008E7F8093DA0080910D
:10337000D90080FF0DC080E189BD82E189BD09B41B
:1033800000FEFDCF81E08093CF020E94EE1505C0C4
:1033900019BC1092CF020E94FC158091E10080FFC1
:1033A00019C08091E20080FF15C08091E2008E7FFD
:1033B0008093E2008091E20080618093E20080913E
:1033C000D80080628093D80019BC85E08093CF023A
:1033D0000E9400168091E10084FF30C08091E200DD
:1033E00084FF2CC080E189BD82E189BD09B400FE63
:1033F000FDCF8091D8008F7D8093D8008091E1002F
:103400008F7E8093E1008091E2008F7E8093E200C6
:103410008091E20081608093E2008091CB0288235A
:1034200011F084E007C08091E30087FF02C083E0D1
:1034300001C081E08093CF020E9402168091E100DA
:1034400083FF29C08091E20083FF25C08091E100C5
:10345000877F8093E10082E08093CF021092CB02BD
:103460008091E1008E7F8093E1008091E2008E7F69
:103470008093E2008091E20080618093E20042E06C
:1034800060E080E00E9489188091F000886080935D
:10349000F0000E94FF15FF91EF91BF91AF919F91B6
:1034A0008F917F916F915F914F913F912F910F90ED
:1034B0000FBE0F901F9018951F920F920FB60F928C
:1034C00011242F933F934F935F936F937F938F9329
:1034D0009F93AF93BF93CF93EF93FF93C091E90076
:1034E000CF708091EC001092E9008091F000877F0E
:1034F0008093F00078940E94981A1092E9008091CD
:10350000F00088608093F000C093E900FF91EF9194
:10351000CF91BF91AF919F918F917F916F915F916B
:103520004F913F912F910F900FBE0F901F901895C4
:103530001F93CF93DF93CDB7DEB7AA970FB6F8945A
:10354000DEBF0FBECDBFE0EDF2E08091F1008193D0
:1035500022E0E83DF207C9F70E941E168091E800BC
:1035600083FF1CC12091D0023091D102832F90E0C3
:103570008A30910508F012C1FC01EA5AFF4F0C9401
:10358000C230203881F0223809F008C18091D4027D
:103590008F708093E9008091EB0085FB882780F98C
:1035A0001092E90006C08091CC029091CD02911159
:1035B00082609091E800977F9093E8008093F100FB
:1035C0001092F100C5C0822F8D7F09F0E7C0222341
:1035D00019F0223061F0E2C08091D202813009F00E
:1035E000DDC0333009F080E08093CD0228C08091A7
:1035F000D202811124C02091D4022F7009F4CEC0D0
:103600002093E9008091EB0080FF19C08091EB00CE
:10361000333011F4806211C080618093EB0081E04F
:1036200090E0022E01C0880F0A94EAF78093EA0026
:103630001092EA008091EB0088608093EB0010927A
:10364000E9008091E800877F86C02111A7C0109112
:10365000D2021F778091E3008078812B8093E30072
:103660008091E800877F8093E8000E94BE188091D7
:10367000E80080FFFCCF8091E30080688093E30046
:10368000112311F083E001C082E08093CF0286C055
:103690002058223008F082C08091D2029091D3024B
:1036A0008C3D23E0920779F583E08A838AE289835F
:1036B0004FB7F894DE01139620E03EE051E2E32F8D
:1036C000F0E050935700E49120FF03C0E295EF70C3
:1036D0003F5FEF708E2F90E0EA3010F0C79601C088
:1036E000C0968D939D932F5F243149F74FBF8091F2
:1036F000E800877F8093E8006AE270E0CE010196DF
:103700000E94C61714C0AE014F5F5F4F6091D40294
:103710000E940E17009709F441C02091E800277F0E
:103720002093E800BC0189819A810E94271880912A
:10373000E8008B778093E80031C0203879F58091DC
:10374000E800877F8093E8008091CB028093F100AE
:103750008091E8008E778093E8000E94BE181EC01A
:1037600021111CC09091D2029230C0F48091E800E7
:10377000877F8093E8009093CB020E94BE188091CF
:10378000CB02811104C08091E30087FF02C084E076
:1037900001C081E08093CF020E940A168091E80068
:1037A00083FF0AC08091E800877F8093E8008091C2
:1037B000EB0080628093EB00AA960FB6F894DEBF10
:1037C0000FBECDBFDF91CF911F9108950895CF9384
:1037D0008091CF028823B1F08091E9008F709091A1
:1037E000EC0090FF02C090E801C090E0C92FC82B08
:1037F0001092E9008091E80083FD0E94981ACF7032
:10380000C093E900CF9108959093520280935102A2
:103810000895E0915102F0915202309721F0019009
:10382000F081E02D099480E00895E0915102F0913B
:103830005202309721F00280F381E02D099408951F
:10384000E0915102F0915202309721F00480F5810D
:10385000E02D0994089520914F0230915002821773
:10386000930771F09093500280934F02E0915102C0
:10387000F0915202309721F00680F781E02D0994F3
:10388000089520914D0230914E028217930771F0F6
:1038900090934E0280934D02E0915102F0915202BA
:1038A000309721F00084F185E02D09940895089562
:1038B0000C94571C0E949A280E94E3110C946029D2
:1038C000CF92DF92EF92FF920F931F93CF93DF93EC
:1038D000CDB7DEB72B970FB6F894DEBF0FBECDBFC6
:1038E0000E94FB1134E5E32E32E0F32E00E010E0FD
:1038F000C02E802F0E94E812F701D1907F01D826B8
:10390000B1F40F5F1F4F0E30110591F78FEF8983D0
:103910008A831B820E94A3288160782F9D838C83D9
:1039200049815A816B818D810E94031D41C0909114
:10393000B60291FF04C08B870E94EE128B8520E0B7
:1039400030E04D2D50E0922FBA01022E02C0759545
:1039500067950A94E2F760FF25C02E83CF82EE249C
:10396000E394F12C02C0EE0CFF1C9A95E2F790E074
:103970008E219F2121E0892B09F420E028870E94D5
:10398000A3288160782F9A8789874E815F81688517
:103990008A850E94031DF801EC5AFD4F80818E2517
:1039A000808306C02F5F3F4F2630310561F6A9CFD7
:1039B0000E94442C109153020E94091C1817A1F078
:1039C0000E94091C809353022B960FB6F894DEBF19
:1039D0000FBECDBFDF91CF911F910F91FF90EF9060
:1039E000DF90CF900C940E152B960FB6F894DEBF97
:1039F0000FBECDBFDF91CF911F910F91FF90EF9040
:103A0000DF90CF900895CF93DF93CDB7DEB72B979C
:103A10000FB6F894DEBF0FBECDBF4F8358876987BE
:103A20007A878B87DE01119686E0FD0111928A95D7
:103A3000E9F785E0FE01379601900D928A95E1F74E
:103A400049815A816B817C818D819E810E9458249D
:103A50002B960FB6F894DEBF0FBECDBFDF91CF918E
:103A600008950895CF93C82F882309F4C1C08238E0
:103A700059F40E94091C81FDBBC089E30E94022702
:103A80000E94D22789E30CC0833879F40E94091C74
:103A900080FDAEC083E50E9402270E94D22783E505
:103AA0000E944227CF910C94D227843859F40E9467
:103AB000091C82FD9DC087E40E9402270E94D22734
:103AC00087E4EECF8CEF8C0F813A48F48C2F0E9464
:103AD0007C2E81118DC08C2F0E940227E3CF80E2C3
:103AE0008C0F883048F4C77081E001C0880FCA95F8
:103AF000EAF70E948627D6CF8BE58C0F833078F4C7
:103B0000C53A29F0C63A31F482E890E005C081E870
:103B100090E002C083E890E0CF910C942B1C88E5E4
:103B20008C0F833108F064C0C83A39F1C93A41F1C9
:103B3000CA3A49F1CB3A51F1CC3A59F1CD3A61F157
:103B4000C03B69F1CE3A71F1CF3A79F1C13B81F1D5
:103B5000C23B89F1C33B91F1C43B99F1C53BA1F153
:103B6000C63BA9F1C73BB1F1C83BB9F1C93BC1F1B3
:103B7000CA3BC9F58AE292E038C082EE90E035C0D7
:103B800089EE90E032C08AEE90E02FC085EB90E0A5
:103B90002CC086EB90E029C087EB90E026C08CEC2F
:103BA00090E023C08DEC90E020C083E891E01DC040
:103BB0008AE891E01AC082E991E017C084E991E0B7
:103BC00014C081E292E011C083E292E00EC084E270
:103BD00092E00BC085E292E008C086E292E005C068
:103BE00087E292E002C080E090E0CF910C94411C0B
:103BF000CF910895882309F44BC0823859F40E946C
:103C0000091C81FF45C089E30E9402270E94D22738
:103C100089E30CC0833871F40E94091C80FF38C00E
:103C200083E50E9402270E94D22783E50E94422753
:103C30000C94D227843859F40E94091C82FF28C0B2
:103C400087E40E9402270E94D22787E4EFCF9CEFEF
:103C5000980F913A58F390E2980F983050F487708B
:103C600091E001C0990F8A95EAF7892F0E948C276D
:103C7000DFCF9BE5980F933020F480E090E00C9428
:103C80002B1C885A833120F480E090E00C94411C76
:103C90000895882321F00E9486270C94D227089546
:103CA000882321F00E948C270C94D2270895CF926C
:103CB000DF92EF92FF920F931F93CF93DF93CDB7D5
:103CC000DEB728970FB6F894DEBF0FBECDBF8C01CC
:103CD00085E0F801DE01119601900D928A95E1F7D9
:103CE000F801D080E180F280558152955F70238188
:103CF0003481232B39F0FFEFEF1206C081E0DF1291
:103D000003C003C081E001C080E080FDE2C2C801C1
:103D10005F830E94311DD982EA8269817A818F2D69
:103D20000E94FE269E8388870E94B2260E948525D7
:103D30004E815F816885FF2029F00E94A627688553
:103D40005F814E81E42FE295EF70F0E0E05AFF4F83
:103D50000C94C230842F807F142F1F70882311F0A1
:103D60001295107FFF20B1F0112309F467C280E2A1
:103D7000860F883028F4812F68870E94862704C028
:103D8000812F68870E949927688568870E94D227BB
:103D9000688554C2862F68870E94FA1D68851123A2
:103DA00009F497C2605E812F683018F40E948C2756
:103DB00002C00E949F2728960FB6F894DEBF0FBE60
:103DC000CDBFDF91CF911F910F91FF90EF90DF90CA
:103DD000CF900C94D227242F207F842F8F702032F5
:103DE00011F08295807F662319F0613019F12BC0A4
:103DF000FF20B1F0552309F493C1513009F090C16F
:103E000028960FB6F894DEBF0FBECDBFDF91CF91DD
:103E10001F910F91FF90EF90DF90CF900C94B927F6
:103E2000552319F0513009F454C28E830E94BC27E7
:103E30008E8189C1FF2021F0523008F04AC270C142
:103E4000511147C280C1FF2021F0552309F468C1F8
:103E5000F5C1552309F477C105C2242F269526956F
:103E6000237030E02115310521F021303105C9F0F2
:103E700030C2FF2021F0862F942F937002C080E083
:103E800090E028960FB6F894DEBF0FBECDBFDF914D
:103E9000CF911F910F91FF90EF90DF90CF900C94F6
:103EA0002B1CFF2021F0862F942F937002C080E0FE
:103EB00090E028960FB6F894DEBF0FBECDBFDF911D
:103EC000CF911F910F91FF90EF90DF90CF900C94C6
:103ED000411C862FFF2019F00E944C2B02C00E942B
:103EE000B42B28960FB6F894DEBF0FBECDBFDF917E
:103EF000CF911F910F91FF90EF90DF90CF900C9496
:103F0000392C842F837009F076C0F110E2C1262F7E
:103F1000229526952770220F220F862F8F70C82E8C
:103F2000D12CE12CF12C022E04C0CC0CDD1CEE1C9B
:103F3000FF1C0A94D2F764FF10C06FE070E080E0CD
:103F400090E004C0660F771F881F991F2A95D2F74B
:103F5000609570958095909503C060E070E0CB010E
:103F6000242F269526952370422F50E0423051058C
:103F7000D1F04330510559F16C297D298E299F29B3
:103F80004130510541F128960FB6F894DEBF0FBEBF
:103F9000CDBFDF91CF911F910F91FF90EF90DF90F8
:103FA000CF900C94AA256C297D298E299F292896CB
:103FB0000FB6F894DEBF0FBECDBFDF91CF911F913A
:103FC0000F91FF90EF90DF90CF900C94C4250E944A
:103FD000AA25C701B60128960FB6F894DEBF0FBE1A
:103FE000CDBFDF91CF911F910F91FF90EF90DF90A8
:103FF000CF900C949025FF2019F0842F817001C080
:104000008695882309F465C1262F22952695277069
:10401000220F220F862F8F70C82ED12CE12CF12C6D
:10402000022E04C0CC0CDD1CEE1CFF1C0A94D2F73F
:1040300064FF10C06FE070E080E090E004C0660FA5
:10404000771F881F991F2A95D2F7609570958095E4
:10405000909503C060E070E0CB01242F2695269553
:104060002370422F50E042305105D1F043305105CA
:1040700059F16C297D298E299F294130510541F143
:1040800028960FB6F894DEBF0FBECDBFDF91CF915B
:104090001F910F91FF90EF90DF90CF900C947E26B0
:1040A0006C297D298E299F2928960FB6F894DEBFAA
:1040B0000FBECDBFDF91CF911F910F91FF90EF9079
:1040C000DF90CF900C9498260E947E26C701B601FF
:1040D00028960FB6F894DEBF0FBECDBFDF91CF910B
:1040E0001F910F91FF90EF90DF90CF900C9464267A
:1040F000603FC9F118F4603E50F49BC0623F09F480
:1041000060C008F44AC0633F09F46FC092C0162F24
:104110001F70842F8F71FF2099F00E94FD25812F41
:1041200028960FB6F894DEBF0FBECDBFDF91CF91BA
:104130001F910F91FF90EF90DF90CF900C94491E4C
:104140000E941E26812F28960FB6F894DEBF0FBE60
:10415000CDBFDF91CF911F910F91FF90EF90DF9036
:10416000CF900C94501EFF20A1F05111B2C0842FAB
:104170008F7128960FB6F894DEBF0FBECDBFDF91CA
:10418000CF911F910F91FF90EF90DF90CF900C9403
:104190004326523008F09DC0EACFFF20A1F0842FC3
:1041A0008F7128960FB6F894DEBF0FBECDBFDF919A
:1041B000CF911F910F91FF90EF90DF90CF900C94D3
:1041C000FD25FF2061F3842F8F7128960FB6F89498
:1041D000DEBF0FBECDBFDF91CF911F910F91FF903A
:1041E000EF90DF90CF900C941E26FF2091F0842F4B
:1041F0008F7128960FB6F894DEBF0FBECDBFDF914A
:10420000CF911F910F91FF90EF90DF90CF900C9482
:10421000E82528960FB6F894DEBF0FBECDBFDF911C
:10422000CF911F910F91FF90EF90DF90CF900C9462
:10423000DE25FF20A1F0552309F4B1CF862F289663
:104240000FB6F894DEBF0FBECDBFDF91CF911F91A7
:104250000F91FF90EF90DF90CF900C94321D55237B
:1042600009F4B1CF862F28960FB6F894DEBF0FBEA3
:10427000CDBFDF91CF911F910F91FF90EF90DF9015
:10428000CF900C94FA1D4F70C8010E947E0F2896A3
:104290000FB6F894DEBF0FBECDBFDF91CF911F9157
:1042A0000F91FF90EF90DF90CF900C9405254F7009
:1042B000C80128960FB6F894DEBF0FBECDBFDF91C0
:1042C000CF911F910F91FF90EF90DF90CF900C94C2
:1042D000AE1328960FB6F894DEBF0FBECDBFDF91A8
:1042E000CF911F910F91FF90EF90DF90CF900895A5
:1042F0000E94A6270E94B6270E9475270E94D227F7
:104300000E94E52C0E94392C80E090E00E942B1C3A
:1043100080E090E00C94411C0E9496270C94782138
:104320000E94F326292F22952F7030E02C30310582
:104330004CF42A3031056CF4225031092230310519
:1043400090F407C02C30310551F02F30310539F091
:104350000AC0803E10F0803F31F481E0089593FB65
:10436000882780F9089580E00895CF93DF9300D0E7
:1043700000D01F92CDB7DEB70F900F900F900F9027
:104380000F90DF91CF910895CF93DF9300D000D0AD
:1043900000D0CDB7DEB726960FB6F894DEBF0FBEBD
:1043A000CDBFDF91CF9108951F93CF93DF93C0913D
:1043B000620216E080916302C81799F0D0E01C9F5A
:1043C000F0011D9FF00D1124EC59FD4F40815181EA
:1043D00062817381848195810E94C4212196C77076
:1043E000E9CFDF91CF911F910895409194025091B0
:1043F0009502609196027091970280919802909137
:1044000099020C94C421CF938091990282958F7068
:1044100009F05FC080919602882309F45AC0209168
:104420006202A09163026091940270919502809162
:1044300097029091980231E06F3F09F030E0B32F7E
:10444000C6E02A1709F445C0009721F07F3F21F408
:104450004B2F03C041E001C040E030E040FD35C0DB
:10446000C29FF001C39FF00D1124EC59FD4F418113
:1044700074132BC04081641328C04281411125C0B0
:10448000438154814817590710F441505109481B82
:10449000590B483C5105C8F4809199028F70806196
:1044A0008093990286E0829FF001839FF00D112492
:1044B000E759FD4F80818F708061808384E992E0AD
:1044C0000E94571ECF910C94D4212F5F3F4F27702D
:1044D000B8CFCF910895CF92DF92EF92FF920F93D2
:1044E0001F93CF93DF93CDB7DEB762970FB6F894E3
:1044F000DEBF0FBECDBF8C0185E0F801DE011D9649
:1045000001900D928A95E1F7D8014C9111965C913A
:10451000119712966C9112971396ED90FC90149748
:1045200070919402E0919502209197023091980247
:104530002115310531F0EF3F31F481E07F3F19F46F
:1045400003C081E001C080E0B82FB170CB2E80FDA8
:104550006CC1D0909602DD2009F4F5C0F09199026B
:10456000E216F30638F0C701821B930B883C9105D5
:1045700048F09BC0209530952E0D3F1D283C3105FD
:1045800008F093C08F2F807F09F052C0E51314C04C
:10459000741312C0D62E61110FC0FF70F061F0933A
:1045A00099020E94F52184E992E00E94571E8091B1
:1045B0009902F80185836CC1EF2831F05F3F31F437
:1045C00081E04F3F19F403C081E001C080E080FD2D
:1045D00003C081E0862701C080E0F82FF170FF2E34
:1045E00080FF1CC0809162022091630236E0821736
:1045F00009F428C190E0389FF001399FF00D112493
:10460000EC59FD4F7181571306C07081471303C0E9
:104610007281671303C001968770E9CFD62E662397
:1046200009F436C18091990281608093990253C048
:10463000E51308C0741306C0611104C0D8011596B3
:10464000FC93AEC04D875E878D859E856A8B0E94E8
:1046500090216A89882329F1D62E662311F12091B1
:104660009902822F82958F7090E002970CF460C0BF
:10467000809194029091950298878F831986FB868A
:10468000EA862C87CE01079651C0E51731F14D8798
:104690005E878D859E856A8B0E9490216A89811133
:1046A0002EC0C8010E94571EA4C08F2F807F69F7BB
:1046B0007E2DF98AE88A89890E94B52184E992E0F1
:1046C0000E94571EE4E9F2E086E0DF011D928A9520
:1046D000E9F70E94F521D12CDBC07413D8CF61110A
:1046E000D6CFD8011596FC93C8010E94571EE4E965
:1046F000F2E086E0DF011D928A95E9F7C9C0D62E67
:10470000662379F220919902822F82958F7090E032
:10471000029774F080919402909195029A83898314
:104720001B82FD82EC822E83CE0101960E94571ED1
:1047300086E0F801A4E9B2E001900D928A95E1F7D4
:104740000E9403226FC0E216F30628F0C701821B05
:10475000930B9C0104C0209530952E0D3F1D283CE5
:10476000310508F052C0D62E662309F49ACFE5131E
:104770002CC074132AC08091990280FD1DC0982F0F
:1047800092959F70C9F0D80115968C9315979F301C
:1047900039F09F5F9295907F8F70892B15968C933F
:1047A000C8010E94571E86E0F801A4E9B2E001901A
:1047B0000D928A95E1F736C086E0F801A4E9B2E0EF
:1047C00001900D928A95E1F763C04D875E878D85D4
:1047D0009E850E949021882379F086E0F801A4E963
:1047E000B2E001900D928A95E1F70E9403220E94A7
:1047F000F521DD24D3944CC080919902816080938F
:104800009902C8010E94571E43C07E2DF98AE88A8A
:1048100089890E94B521E4E9F2E086E0DF011D927A
:104820008A95E9F70E94F52133C0662309F439CF50
:104830004D875E878D859E850E949021882309F48F
:1048400030CFCBCF4D875E878D859E850E94F32626
:10485000292F22952F7030E0223031052CF49F70E3
:1048600041F0811106C00CC0243031052CF49F703A
:1048700049F4805E883020F0C8010E94571ECF2C7A
:10488000DC2C06C0D80115969C91907F91F7F8CF4B
:104890008D2D62960FB6F894DEBF0FBECDBFDF91AF
:1048A000CF911F910F91FF90EF90DF90CF900895DF
:1048B0001F93CF93DF93CDB7DEB72C970FB6F89445
:1048C000DEBF0FBECDBF4F83588769877A878B873E
:1048D0009C87CE0107960E946B228823C1F02F810E
:1048E00038858A859B85892B31F03F3F11F080E028
:1048F00003C02F3FE1F781E0811147C04F81588508
:1049000069857A858B859C850E94C4213EC086E09E
:10491000FE013796DE01119601900D928A95E1F71E
:10492000FF81E8854A855B854115510531F0EF3FF0
:1049300031F481E0FF3F19F403C081E001C080E061
:1049400080FD23C02091630230E0C9010196877089
:1049500099276091620270E086179707F1F1F98359
:10496000EA835D834C8396E0929FD001939FB00DC4
:104970001124AC59BD4FFE01319601900D929A95CC
:10498000E1F7809363020E94D42116E080916202D5
:1049900090916302891779F1189FC00111248C59F5
:1049A0009D4F0E946B22882331F1E09162021E9F8D
:1049B000F0011124EC59FD4F4081518162817381D6
:1049C000848195810E94C4218091620290E00196C9
:1049D0008770992780936202D9CF0E948C21109210
:1049E000630210926202E4E9F2E086E0DF011D92C8
:1049F0008A95E9F7CACF2C960FB6F894DEBF0FBEA2
:104A0000CDBFDF91CF911F910895EF92FF920F9349
:104A10001F93CF93DF93FC01009709F46FC0F12C33
:104A2000EE24E394EF0121968491843740F484309E
:104A300008F055C0813081F0823021F15FC08537A8
:104A400009F447C0C0F19CE7980F903708F056C0B2
:104A50008F770E94FA1D45C08F010E5F1F4FFE0128
:104A6000849190E2980F983050F48770FE2D01C029
:104A7000FF0F8A95EAF78F2F0E94A92715C00E9481
:104A8000321D14C08F010E5F1F4FFE01849190E212
:104A9000980F983068F48770FE2D01C0FF0F8A953B
:104AA000EAF78F2F0E94AF270E94D227E80119C092
:104AB0000E94FA1DFBCFCF010296FE01C491CC23C8
:104AC00061F0EFE9FFE03197F1F700C00000C1505D
:104AD000F6CFCF010296FE01F490EC0102C00E94D5
:104AE000321D8F2D882341F0EFE9FFE03197F1F778
:104AF00000C000008150F6CFFE0194CFDF91CF912E
:104B00001F910F91FF90EF900895089560939E027A
:104B100070939F028093A0029093A1020C9478213D
:104B20000F931F9300919E0210919F022091A0026B
:104B30003091A102062B172B282B392B00939E02B4
:104B400010939F022093A0023093A1021F910F9116
:104B50000C9478210F931F9300919E0210919F0255
:104B60002091A0023091A102062317232823392384
:104B700000939E0210939F022093A0023093A10203
:104B80001F910F910C9478210F931F9300919E0217
:104B900010919F022091A0023091A10206271727B1
:104BA0002827392700939E0210939F022093A0028A
:104BB0003093A1021F910F910C94782110929A02C8
:104BC00010929B0210929C0210929D020C947821EC
:104BD00041E050E060E070E004C0440F551F661FE4
:104BE000771F8A95D2F740939A0250939B02609365
:104BF0009C0270939D020C94782141E050E060E0AB
:104C000070E004C0440F551F661F771F8A95D2F7C6
:104C100080919A0290919B02A0919C02B0919D027A
:104C2000842B952BA62BB72B80939A0290939B02F3
:104C3000A0939C02B0939D020C94782141E050E037
:104C400060E070E004C0440F551F661F771F8A950F
:104C5000D2F7409550956095709580919A02909109
:104C60009B02A0919C02B0919D0284239523A623D0
:104C7000B72380939A0290939B02A0939C02B093D7
:104C80009D020C94782141E050E060E070E004C0A7
:104C9000440F551F661F771F8A95D2F780919A029D
:104CA00090919B02A0919C02B0919D028427952730
:104CB000A627B72780939A0290939B02A0939C0209
:104CC000B0939D020C9478210F931F9300919A0248
:104CD00010919B0220919C0230919D02062B172B74
:104CE000282B392B00939A0210939B0220939C024D
:104CF00030939D021F910F910C9478210F931F9375
:104D000000919A0210919B0220919C0230919D0289
:104D1000062317232823392300939A0210939B021A
:104D200020939C0230939D021F910F910C94782147
:104D30000F931F9300919A0210919B0220919C0265
:104D400030919D02062717272827392700939A02BA
:104D500010939B0220939C0230939D021F910F9110
:104D60000C9478210895CF92DF92EF92FF920F93E7
:104D70001F93CF93DF93EC01C0909E02D0909F02CF
:104D8000E090A002F090A10280919A0290919B0283
:104D9000A0919C02B0919D02C82AD92AEA2AFB2A36
:104DA0000FE110E0B701A601002E04C076956795CB
:104DB000579547950A94D2F740FD05C00150110957
:104DC00088F780E007C0BE01802F0E94D1130197B1
:104DD000A9F3802FDF91CF911F910F91FF90EF905A
:104DE000DF90CF900895CF93DF93EC010E94B3261C
:104DF000BE010E94D113DF91CF910895CB010E9493
:104E0000F326089590913C019923D9F090913D01AA
:104E10009923B9F0982F9695969596959F3088F599
:104E2000E0913E01F0913F01E90FF11D877021E013
:104E300030E001C0220F8A95EAF78181822B8183BD
:104E4000089540913E0150913F0120E030E09FEFF6
:104E5000FA01E20FF31F6281681799F09F3F19F47E
:104E6000611101C0922F2F5F3F4F2E30310581F726
:104E70009F3F39F0FA01E90FF11D97FDFA95828302
:104E80000895089590913C019923E1F090913D019E
:104E90009923C1F0982F9695969596959F3020F579
:104EA000E0913E01F0913F01E90FF11D877021E093
:104EB00030E001C0220F8A95EAF7209581812823EE
:104EC0002183089540913E0150913F0120E030E060
:104ED000FA01E20FF31F9281981301C012822F5F33
:104EE0003F4F2E303105A1F7089581E090E0E09129
:104EF0003E01F0913F01E80FF91F108201968031C9
:104F00009105A9F708958091B50208959091B50291
:104F1000982B9093B502089580959091B5029823AF
:104F20009093B50208958093B50208951092B5024A
:104F300008959091B402982B9093B40208958095AF
:104F40009091B40298239093B40208951092B40201
:104F500008959091B302982B9093B3020895809591
:104F60009091B30298239093B30208951092B302E4
:104F700008958093A20208951092A202089540918C
:104F80003E0150913F0120E030E080E0FA01E20F65
:104F9000F31F918191118F5F2F5F3F4F2F303105AC
:104FA000A9F70895E0913E01F0913F018091B5028B
:104FB0008083E0913E01F0913F0180819091B402A5
:104FC000892B8083E0913E01F0913F018081909197
:104FD000B302892B80839091A202992361F0E09122
:104FE0003E01F0913F018081892B80830E94BF2781
:104FF00081111092A20280913E0190913F010C9488
:10500000151CCF92DF92EF92FF920F931F936C01CA
:10501000EE24FF24C114D104E104F10421F46B0156
:105020007C0180E001C080E133272F2D1E2D0D2D46
:10503000011511052105310519F0885F6801790115
:1050400097018601A4E03695279517950795AA95AF
:10505000D1F7011511052105310519F08C5F6801A3
:10506000790197018601F2E0369527951795079506
:10507000FA95D1F7011511052105310519F08E5F5B
:1050800068017901B701A60176956795579547950F
:10509000452B462B472B09F08F5F1F910F91FF90F7
:1050A000EF90DF90CF9008958091CF02843021F16E
:1050B0001092B70220E488E190E00FB6F894A8952A
:1050C000809360000FBE2093600080E00E940E1568
:1050D00083B7817F846083BF83B7816083BF789407
:1050E000889583B78E7F83BF88E10FB6F89480934D
:1050F0006000109260000FBE089508950895CF9348
:105100000E947D280E94FB110E947E28C0E08C2F07
:105110000E94E812811105C0CF5FCE30C1F780E058
:1051200001C081E0CF9108950E948C210E94091C4A
:105130000C940E1582E084BD93E095BD9AEF97BD67
:1051400080936E0008952FB7F8948091B8029091E3
:10515000B902A091BA02B091BB022FBF0895CF92BD
:10516000DF92EF92FF920F931F932FB7F894409125
:10517000B8025091B9026091BA027091BB022FBF80
:105180006A017B01EE24FF248C0120E030E0C01690
:10519000D106E206F30610F441505109481B590BA1
:1051A000CA011F910F91FF90EF90DF90CF9008956B
:1051B0001F920F920FB60F9211248F939F93AF936C
:1051C000BF938091B8029091B902A091BA02B091B8
:1051D000BB020196A11DB11D8093B8029093B90244
:1051E000A093BA02B093BB02BF91AF919F918F91F0
:1051F0000F900FBE0F901F9018950E940F19F894F2
:105200002FEF87EA91E6215080409040E1F700C0FF
:10521000000087E090EBDC018093D8029093D902E4
:10522000A093DA02B093DB022CE088E190E00FB6A5
:10523000F894A895809360000FBE20936000FFCF84
:10524000EF92FF920F931F93CF93DF93E82EF12CF1
:105250008F2D0E94E812C0E0D0E0082F10E09801E6
:105260000C2E02C0359527950A94E2F720FD05C063
:105270002196C630D10599F709C06C2F7F2D80E0AB
:105280000E94AF13E812F4CF81E005C0F3948EE0E2
:10529000F812DECF80E0DF91CF911F910F91FF9048
:1052A000EF900895CF93C82F8CE20E942029882385
:1052B00021F08C2FCF910C94202980E0CF9108957C
:1052C000CF930E94A52A811102C00E948B2AC5E6B5
:1052D000C15049F00E94FB118FE39CE90197F1F75F
:1052E00000C00000F5CF89E20E945229811111C14E
:1052F0008AE20E94522981110E948B2A85E00E9435
:10530000522981110E94FD280E94B02A8093B60282
:1053100087E00E945229882399F18BE10E9452294B
:10532000882351F09091B60291FB882780F921E003
:10533000822780FB91F922C08EE00E9452298823A7
:1053400051F09091B60292FB882780F921E08227E4
:1053500080FB92F913C080E10E9452299091B6021D
:10536000882341F093FB882780F921E0822780FB86
:1053700093F904C0892F809580FB90F99093B60231
:105380008091B6020E94B42A0E94C22A8093C90268
:1053900080EE0E945229882341F08091C902982F03
:1053A000909590FB80F98093C90289E30E9452296D
:1053B000882359F09091C90291FB882780F921E058
:1053C000822780FB91F99093C90282EE0E945229B4
:1053D000882359F09091C90292FB882780F921E037
:1053E000822780FB92F99093C90286EE0E9452298F
:1053F000882359F09091C90293FB882780F921E016
:10540000822780FB93F99093C90283EE0E94522970
:10541000882359F09091C90294FB882780F921E0F4
:10542000822780FB94F99093C90285E30E94522958
:10543000882359F09091C90295FB882780F921E0D3
:10544000822780FB95F99093C90281E30E9452293B
:10545000882359F09091C90296FB882780F921E0B2
:10546000822780FB96F99093C90281E10E9452291C
:10547000882359F09091C90297FB882780F921E091
:10548000822780FB97F99093C9028091C9020E94FC
:10549000C62A8091C90287FB882780F980933D0145
:1054A00087E20E945229C82F8EE10E945229811161
:1054B000C2608FE10E9452298111C46080E20E9483
:1054C00052298111C86081E20E9452298111C06174
:1054D00082E20E9452298111C06283E20E94522915
:1054E0008111C06484E20E945229882311F0C068AF
:1054F00002C0CC2329F08C2F0E94BD2A6C2F03C040
:105500000E94B92A682F70E080E090E0CF910C945F
:105510008625CF9108956DEE7EEF80E090E00E94A9
:10552000E43060E082E090E00E94D63060E083E00A
:1055300090E00E94D63060E084E090E00E94D63097
:1055400060E085E090E00C94D63080E090E00E942E
:10555000D03021E08D3E9E4F09F020E0822F08954B
:1055600082E090E00C94C830682F82E090E00C94C8
:10557000D63083E090E00C94C830682F83E090E050
:105580000C94D63084E090E00C94C830682F84E00E
:1055900090E00C94D6308091BE0280FF0BC06091E9
:1055A000430185E0689FB001112475956795759555
:1055B00067952AC081FF09C06091430185E0689F1B
:1055C000B0011124759567951FC082FF07C06091D7
:1055D000430185E0689FB001112416C04091BF02CD
:1055E0004423C9F060914201461788F72091430196
:1055F00085E0289F90011124429FC001439F900D98
:10560000112470E00E94AE306038710540F46115DD
:10561000710539F002C065E070E0862F08958FE7CC
:10562000089581E008958091BE0280FF08C06091D6
:10563000410170E0759567957595679521C081FF6B
:1056400006C06091410170E07595679519C082FFB1
:1056500004C06091410170E010C08091BF028823B6
:10566000C1F0609140018617A0F790914101989F89
:10567000C001112470E00E94AE306038710528F43A
:105680006115710521F0862F08958FE7089581E057
:10569000089561E070E0F4CF803F21F40E94CB2AAE
:1056A000819504C0813F29F40E94CB2A8093C202D5
:1056B0000895823F21F40E94CB2A819504C0833F44
:1056C00029F40E94CB2A8093C1020895893F19F4DE
:1056D0000E94132B05C08A3F31F40E94132B819541
:1056E0008093C30208958B3F21F40E94132B819570
:1056F00004C08C3F29F40E94132B8093C4020895A8
:10570000843F21F48091C002816017C0853F21F45D
:105710008091C002826011C0863F21F48091C00256
:1057200084600BC0873F21F48091C002886005C06F
:10573000883F31F48091C00280618093C002089557
:105740008D3F21F48091BE0281600BC08E3F21F419
:105750008091BE02826005C08F3F29F48091BE0215
:1057600084608093BE020895803F39F48091C20224
:1057700087FF6CC01092C20269C0813F29F48091FA
:10578000C2021816BCF362C09091C102823F29F494
:1057900097FF5CC01092C10259C0833F19F41916DB
:1057A000CCF354C0893F41F48091C30218160CF029
:1057B0004DC01092C3024AC08A3F29F48091C302AF
:1057C00087FF44C0F6CF8B3F39F48091C40287FF36
:1057D0003DC01092C4023AC08C3F29F48091C402AB
:1057E0001816BCF333C0843F21F48091C0028E7F31
:1057F00017C0853F21F48091C0028D7F11C0863F84
:1058000021F48091C0028B7F0BC0873F21F48091EF
:10581000C002877F05C0883F31F48091C0028F7E2F
:105820008093C00213C08D3F21F48091BE028E7F11
:105830000BC08E3F21F48091BE028D7F05C08F3F4B
:1058400029F48091BE028B7F8093BE028091C102B9
:1058500081110EC08091C20281110AC08091C302E1
:10586000811106C08091C402811102C01092BF0252
:10587000089580EC92E00E94201C0E94A32890933F
:10588000BD028093BC0208951F93CF93DF93809154
:10589000BC029091BD020E94AF284091BF024423F8
:1058A00021F02091440130E006C0209145015AE0EA
:1058B000259F900111248217930708F482C08091DC
:1058C000C1021091C202D091C302C091C4028111E1
:1058D00007C0111105C0D11103C0CC2309F471C058
:1058E0004F3F19F04F5F4093BF02181624F40E94F7
:1058F000CB2A8093C1028091C10287FF05C00E941C
:10590000CB2A81958093C102111624F40E94CB2AE0
:105910008093C2028091C20287FF05C00E94CB2AF9
:1059200081958093C2026091C102662339F1109182
:10593000C202112319F1772767FD7095872F972FE2
:105940000E94AB2F23E333E343E35FE30E940F3076
:105950000E94782F6093C102612F772767FD7095B1
:10596000872F972F0E94AB2F23E333E343E35FE3BB
:105970000E940F300E94782F6093C2021D1624F4FB
:105980000E94132B8093C3028091C30287FF05C03E
:105990000E94132B81958093C3021C1624F40E944D
:1059A000132B8093C4028091C40287FF05C00E941C
:1059B000132B81958093C402DF91CF911F910C949A
:1059C000392CDF91CF911F910895E0ECF2E085E052
:1059D000DF011D928A95E9F71092BF021092BE0274
:1059E0000895833081F128F4813059F08230D1F06C
:1059F0000895853009F449C0B8F1863009F456C0DD
:105A0000089520914501862F90E0820F911D8F3FD0
:105A1000910520F4620F6093450108958FEF809304
:105A20004501089520914401862F90E0820F911D39
:105A30008F3F910520F4620F6093440108958FEF2A
:105A400080934401089520914301862F90E0820FB6
:105A5000911D8F3F910520F4620F609343010895DB
:105A60008FEF80934301089520914201862F90E0AB
:105A7000820F911D8F3F910520F4620F60934201C8
:105A800008958FEF80934201089520914101862F60
:105A900090E0820F911D8F3F910520F4620F60937B
:105AA000410108958FEF80934101089520914001B5
:105AB000862F90E0820F911D8F3F910520F4620F99
:105AC0006093400108958FEF8093400108958330E3
:105AD00011F128F4813049F0823091F00895853039
