:100000000C941D0D0C94610D0C94610D0C94610DFC
:100010000C94610D0C94610D0C94610D0C94610DA8
:100020000C94610D0C94610D0C94A9190C946D192C
:100030000C94610D0C94610D0C94610D0C94610D88
:100040000C94610D0C94422F0C94610D0C94610D75
:100050000C94610D0C9476280C94610D0C94610D38
:100060000C94610D0C94610D0C94610D0C94610D58
:100070000C94610D0C94610D0C94610D0C94610D48
:100080000C94610D0C94610D0C94610D0C94610D38
:100090000C94610D0C94610D0C94610D0C94610D28
:1000A0000C94610D0C94610D0C94610D0000000026
:1000B000000400000000160000000004160000000C
:1000C0000600000000040600000016060000000400
:1000D00016060000170000000004170000001617A5
:1000E00000000004161700000700000000040700CD
:1000F00000000A00000000040A0000001A000000CE
:1001000000041A000000161A0000000000000000A1
:100110001300000000041300000016130000000488
:1001200016130000171A00000004171700001B0028
:10013000000000041B000000071A0000000407076D
:1001400000000A1A000000040A0A00000B00000068
:1001500000040B000000160B00000004160B00004A
:10016000060B00000004060B000016060B00000042
:1001700000000000170B00000004170B0000000037
:100180000000000416170B0009000000000409001D
:1001900000000A0B000000040A0B00001A0B00000C
:1001A00000041A0B00000000000000000000000026
:1001B000130B00000004130B000016130B000004C7
:1001C00016130B000E00000000040E000000160EB7
:1001D00000000004160E00000500000000040500E9
:1001E00000000000000000040505000011000000F0
:1001F000000411000000161100000004111100009D
:100200001D00000000041D00000016160000000480
:10021000161600001900000000041900000016194D
:100220000000000000000000070819000004071982
:1002300000000A11000000040A1100001000000074
:10024000000410000000161000000004161000004A
:100250001311000000041010000000000000000452
:10026000131300000D00000000040D00000000004A
:100270000000000000000000070810000004071044
:100280000000000000000004070D00001C0000003A
:1002900000041C000000161C00000004161C0000D6
:1002A000061C00000004060600000000000000001C
:1002B00000000000171C00000000000000001617DE
:1002C0001C00000000000000071C000000040909D9
:1002D00000000A1C0000000409170000101C0000A8
:1002E000000000000000000000000000000000000E
:1002F000131C000000000000000016131C00000486
:1003000016130B1C0E1100000004060E11001B1C1E
:100310000000000000000000051C00000004051C97
:1003200000000000000000000000000015000000B8
:100330000004150000001608150000041515000043
:10034000061500000004061500001606150000043E
:1003500016061500171500000004171500001617E3
:10036000150000000000000007150000000407153C
:1003700000000A15000000040A1500001A1500000C
:10038000000000000000000000000000000000006D
:1003900013150000000413150000161315000004C7
:1003A00013131500000000000004171715001B159B
:1003B0000000000000000000070815000004070707
:1003C00015000000000000040A0A1500150B0000CB
:1003D000000000000000160B1500000000000000E7
:1003E000060B1500000406061500000000000000C2
:1003F00000000000170B15000004170B0F00000091
:1004000000000000000000000915000000040915AC
:1004100000000000000000040909150000000000B1
:1004200000000000000000000000000000000000CC
:10043000130B15000004130B150000000000000052
:10044000000000000E150000000000000000000089
:100450000000000000000000051500000004051564
:100460000000000000000004050515000F0000005A
:1004700000040F000000160F00000004160F00001B
:10048000060F000000000000000000000000000057
:100490000000000014000000000414000000161406
:1004A000000000041614000007080F0000040614E2
:1004B00000000A0F000000040A0F000010150000E1
:1004C00000040F0F0000000000000000000000000A
:1004D000130F00000004130F000016130F00000498
:1004E00013130F000D08150000000000000016088F
:1004F00015190000000000000000000000040707BC
:100500000F000000000000040A0A0F000F1C00008A
:10051000000000000000160F1C000000000000009A
:1005200006151C00000406060F0000000000000075
:100530000000000017151C00000000000000161746
:10054000151C000000000000090F00000004090F46
:10055000000000000000000409090F000000000076
:10056000000000000000000000000000000000008B
:10057000130B0F000000000000000000000000004E
:10058000000000000E0F000000000000000000004E
:100590000000000000000000050F00000004050F2F
:1005A000000000000000000000000000000000004B
:1005B0000008000000001200000000081200000007
:1005C00004000000000804000000120400000008FD
:1005D00012040000180000000008180000001218A3
:1005E0000000000812180000041800000008041899
:1005F0000000120418000008120418000C0000008B
:1006000000080C000000120C00000008120C000092
:10061000040C00000008040C000012040C00000888
:1006200012040C00180C00000008180C000012182E
:100630000C00000812180C0004180C000008041824
:100640000C001204180C00081204180C0000000022
:10065000000808000000121200000012080000004C
:100660000404000000040800000004120000000858
:1006700004120000181800000018080000001812EA
:1006800000000008181200001804000000081804F8
:100690000000121804000008121804000C0C0000DE
:1006A000000C080000000C12000000080C120000F2
:1006B0000C04000000080C040000120C04000008E8
:1006C000120C04000C18000000080C1800000C129A
:1006D00018000008120C1800040C18000008040C84
:1006E000180012040C18000812040C180000000076
:1006F00000150000000011000000001511000000AE
:100700000F00000000150F00000016000000000F91
:100710000F0000000A00000000150A000000110A86
:100720000000000A110000000F0A00000000000095
:1007300000000700000000070F0000000600000096
:100740000015060000001106000000000000000077
:100750001300000000151300000016130000001322
:100760000F000000050000000015050000000A0A47
:100770000000000000000000050F00000000000065
:10078000000000000000000F050000000B0000004A
:10079000001A0000000019000000001A11000000FB
:1007A0001D000000001A0F000000160B0000000FD3
:1007B000190000000A0B000000150A0B00001000D1
:1007C00000000015100000001B00000000000000E9
:1007D000000016100000000F10000000060B0000C3
:1007E0000015060B000011060B0000151900000093
:1007F000130B000000000000000000000000000FCC
:10080000060B00000900000000150900000010059B
:1008100000000000000000000F09000000000000C0
:10082000000010130000000000000000170000008E
:100830000015170000001117000000151117000027
:100840000F17000000000000000016170000001540
:10085000161700000E00000000150E000000110E1B
:1008600000000000000000000E0F0000000000006B
:100870000000160E0000000F0E000000061700001A
:10088000000000000000170C121100000000000022
:100890001317000000000000000011161700000FE1
:1008A00013000000060E0000000000000000051705
:1008B0000000000000000000060E0F000000000015
:1008C000000000000000000000000000170B000006
:1008D0000015170B000011170B00001A170B000072
:1008E0000F170B00000000000000000000000000D7
:1008F000000000000A0B1700001A0E000000110A89
:10090000170B0000000000001B1700000000000093
:10091000000007170B0000000000000017060B0086
:1009200000000000000000000000000000000000C7
:1009300013170B0000000000000000000000000082
:100940000000000009170000000000000000000087
:100950000000000000000000000000000000000097
:100960000000101317000000000000001600000037
:1009700000151600000011160000001511160000E9
:100980000F16000000150F16000016160000000FCD
:100990000F1600000A16000000150A160000110AC2
:1009A0001600000A11160000000000000000000000
:1009B00000000716000000000000000006160000FE
:1009C00000150616000011060816000000000000C1
:1009D000131600000015131600001613160000135E
:1009E0000F081600051600000015051600000A0A7B
:1009F0001600000000000000050F081600000000AF
:100A0000000000000000000F051600000B1600009B
:100A1000001A1600000019081600001A111600002E
:100A20001D081600001A0F160000160B0816000FFE
:100A3000190816000A0B160000000000000010162E
:100A400000000015101600001B0816000000000032
:100A5000000016101600000F10160000070000001E
:100A600000150700000011070000001A0700000031
:100A7000130B160000150F07000000000000000F08
:100A800007000000070A0000000000000000100539
:100A90001600000000000000000000000000000040
:100AA00000001013160000000000000017160000E0
:100AB00000151716000011171600000000000000B6
:100AC0000F17160000000000000016171600001592
:100AD000161716000E16000000150E160000110E57
:100AE00016000000000000000000000000000000F0
:100AF0000000160E1600000F0E1600000617160056
:100B0000000000000000170C121116000000000089
:100B10000000000000000000000000000000000FC6
:100B200013160000060E1600000000000000051756
:100B30001600000000000000060E0F08160000005E
:100B4000000000000000000000000000170B16006D
:100B50000015170B160011170B16001A170B1600AD
:100B60000000000000000000000000000000000085
:100B7000000000000A0B1716001A0E160000110ADA
:100B8000170B16000000000000000000000000002D
:100B9000000007170B1600000000000007160000F9
:100BA00000150716000011071600001A07160000AE
:100BB00013170B1600150F07160000000000000F9A
:100BC0000716000000000000000000000000000008
:100BD0000000000000000000000000000000000015
:100BE00000001013171600000000000000000000B5
:100BF0000008000000001C00000000081C000000AD
:100C00000000000000002C00000000002B0000008D
:100C100000000000000000002800000000000000AC
:100C200000000000000000000000000000000000C4
:100C30000000000000001E00000000001F00000077
:100C40000000200000000000210000000000220041
:100C5000000000002300000000002400000000004D
:100C60002500000000002600000000001E002700F4
:100C700000001E001E0000001E001F0000001E00DD
:100C8000200000001E00210000001E0022000000C5
:100C90002700000000001E00270000001F002700A2
:100CA0000000200027000000210027000000220093
:100CB0002700000023002700000024002700000078
:100CC0002500270000002600270000001E00270046
:100CD00027001E001E0027001E001F0027001E0008
:100CE000200027001E00210027001E0022002700F0
:100CF0000000000000001E00000000001F000000B7
:100D00000000200000000000210000000000220080
:100D1000000000002300000000002400000000008C
:100D20002500000000002600000000001E00270033
:100D300000001E001E0000001E001F0000001E001C
:100D4000200000001E00210000001E002200000004
:100D50002700000000001E00270000001F002700E1
:100D600000002000270000002100270000002200D2
:100D700027000000230027000000240027000000B7
:100D80002500270000002600270000001E00270085
:100D900027001E001E0027001E001F0027001E0047
:100DA000200027001E00210027001E00220027002F
:100DB0000000000000001E020000000029000000EA
:100DC00000000000000000002502000000000000FC
:100DD0000000000000000000000000000000000013
:100DE0002D020000000000000000000000000000D4
:100DF00000000000000000000000000000000000F3
:100E000000000000000000000000000000000000E2
:100E10002F020000000000000000000000000000A1
:100E200000000000000000000000000000000000C2
:100E300000000000000000000000000000000000B2
:100E400000000000000000000000000000000000A2
:100E50000000000000000000000000000000000092
:100E60000000000000000000000000000000000082
:100E7000260200000000000000000000000000004A
:100E80000000000000000000000000000000000062
:100E90000000000000000000000000000000000052
:100EA0000000000000000000000000000000000042
:100EB0000000000000000000000000000000000032
:100EC0000000000000000000000000000000000022
:100ED0002F000000000000000000000000000000E3
:100EE0000000000000000000000000000000000002
:100EF00000000000000000000000000000000000F2
:100F000000000000000000000000000000000000E1
:100F100000000000000000000000000000000000D1
:100F200000000000000000000000000000000000C1
:100F30000000000000003300000000003400160034
:100F40000000340010000000370000000000000026
:100F50000000000011003400170000000000000035
:100F600036000000000000000000000034000F0008
:100F70000F00000000000000000000000000000062
:100F80000000000000000000000000000000000061
:100F900030020000000000000000000034001900D2
:100FA0000800000000000000000000000000000039
:100FB0000000000000000000000000000000000031
:100FC0000000000000000000000000000000000021
:100FD0000000000000000000000000000000000011
:100FE0000000000000000000000000000000000001
:100FF000270200000000000000000000340007008D
:1010000000000000000000000000000000000000E0
:1010100000000000000000000000000000000000D0
:1010200000000000000000000000000000000000C0
:1010300000000000000000000000000000000000B0
:1010400000000000000000000000000000000000A0
:101050003000000000000000000000000000000060
:101060000000000000000000000000000000000080
:101070000000000000000000000000000000000070
:101080000000000000000000000000000000000060
:101090000000000000000000000000000000000050
:1010A0000000000000000000000000000000000040
:1010B0000000000000002602000000002D020000D9
:1010C00000000000000000002702000000002602CF
:1010D00027020000000000000000000000000000E7
:1010E0002D000000000000000000000000000000D3
:1010F00000000000000000000000000000000000F0
:1011000000000000000000000000000000000000DF
:101110003700000000000000000000000000000098
:101120000000000000000000270237000000260237
:10113000270237000000000000000000000000004F
:10114000000000000000000000000000000000009F
:10115000000000000000000000000000000000008F
:10116000000000000000000000000000000000007F
:101170003600000000000000000000000000000039
:1011800000000000000000002702360000002602D8
:1011900027023600000000000000000000000000F0
:1011A000000000000000000000000000000000003F
:1011B000000000000000000000000000000000002F
:1011C000000000000000000000000000000000001F
:1011D00033000000000000000000000000000000DC
:1011E000000000000000000027023300000026027B
:1011F0002702330000000000000000000000000093
:1012000000000000000000000000000000000000DE
:1012100000000000000000000000000000000000CE
:1012200000000000000000000000000000000000BE
:101230000000000000003700000000003700000040
:101240000000330200000000260200000000000041
:101250000000000036020000000000000000000056
:10126000340000000000000000000000000000004A
:101270000000000000000000340200000000000038
:10128000000000000000000000000000000000005E
:101290002702000000000000000000000000000025
:1012A000000000000000000026022702500000009D
:1012B000000000000000000000000000000000002E
:1012C000000000000000000000000000000000001E
:1012D000000000000000000000000000000000000E
:1012E00000000000000000000000000000000000FE
:1012F00038020000000000000000000000000000B4
:1013000000000000000000003702000000000000A4
:10131000000000003602370250000000000000000C
:101320003400340050000000000000000000000005
:1013300000000000000000003402340250000000F1
:10134000000000000000000000000000000000009D
:101350001E0200000000000000000000000000006D
:10136000000000000000000000000000000000007D
:10137000000000000000000000000000000000006D
:10138000000000000000000000000000000000005D
:10139000000000000000000000000000000000004D
:1013A000000000000000000000000000000000003D
:1013B000000000000000000000000000200000808D
:1013C0002000008000000000840000800000000079
:1013D0003000008021000080210000805200008049
:1013E00080000080320000803100008040000080DA
:1013F00041000080500000808100008033000080A8
:1014000042000080430000800000000011000080C6
:10141000820000803400008044000080450000808D
:101420000000000051000080830000803500008033
:10143000460000804700008000000000100000808F
:1014400000000000B20000800000000010000080DA
:10145000000000001000008000000000B0000080CC
:1014600000000000B00000800000000010000080BC
:1014700093000080A5000080600000806100008073
:10148000000000001000008092000080A400008096
:1014900062000080630000800000000052000080B5
:1014A00091000080A300008064000080650000803F
:1014B000000000001100008090000080A200008069
:1014C000A10000806600008067000080540000805A
:1014D0009400008000000000A000008070000080E8
:1014E0007100008053000080000000000000000038
:1014F00000000000210000802100008000000000AA
:1015000000000000000000000000000000000000DB
:1015100000000000000000000000000000000000CB
:1015200000000000000000000000000000000000BB
:1015300000000000000000000000000000000000AB
:10154000000000000000000000000000000000009B
:10155000000000000000000000000000000000008B
:10156000000000000000000000000000000000007B
:10157000000000000000000000000000000000006B
:10158000000000000000000000000000000000005B
:10159000000000000000000000000000000000004B
:1015A000000000000000000000000000000000003B
:1015B000000000000000000000000000000000002B
:1015C000000000000000000000000000000000001B
:1015D000000000000000000000000000000000000B
:1015E00000000000000000000000000000000000FB
:1015F00000000000000000000000000000000000EB
:1016000000000000000000000000000000000000DA
:1016100000000000000000000000000000000000CA
:1016200000000000000000000000000000000000BA
:1016300000000000000000000000000000000000AA
:10164000000000000000000000000000000000009A
:101650002E004C002A00E100358200001E0014001C
:1016600004001D7134004D001F001A0016001B00FD
:10167000E1042A00200008000700060050002C00AA
:1016800021001500090019004F004A002200170030
:101690000A00050000006574000002540000007F8D
:1016A0000000E30001540254000000770000E20053
:1016B00023001C000B0011000000297124001800F9
:1016C0000D00100052004B0025000C000E003600EB
:1016D00051002800260012000F0037002F002B00B9
:1016E000270013003300387130004E002D00310008
:1016F0003478E500C10000000252E200E000003052
:101700000030000000302B0000300030003000308E
:101710000030003000300030003000300030003049
:101720000030003001000030003000300030003068
:101730000100003000300030003000300000003088
:101740002A000030000000300000003001000030AE
:101750000000003000000030003000300030003069
:101760000000003000300030003000300100003058
:101770000030003000300030010000300030003018
:1017800000300030003000300030003000300030D9
:10179000003000304C00E600E40000300030000073
:1017A000010001000100E100010000003A00010019
:1017B00001000100010001003B00010001000100E7
:1017C000010001003C000100010001004E00010089
:1017D0003D000100010001004B0001003E0001003E
:1017E00001000100000001003F00010000000100B5
:1017F00000000100400001000000010000000100A5
:101800004100010001000100000001004200010050
:10181000010001004A000100430001000100010035
:101820004D00010044000100010001000100010021
:10183000450001000100010001000050000001000E
:101840000100E500010000000000F0A2050109060A
:10185000A101050719E029E7150025019508750183
:101860008102950175088101050819012905950571
:10187000750191029501750391010507190029FF72
:10188000150025FF950675088100C005010902A114
:10189000010901A100050919012905150025019576
:1018A0000575018102950175038101050109300962
:1018B000311581257F950275088106093815812526
:1018C0007F950175088106050C0A38021581257F70
:1018D000950175088106C0C005010980A101850236
:1018E00016010026B7001A01002AB70075109501ED
:1018F0008100C0050C0901A1018503160100269C89
:10190000021A01002A9C02751095018100C0050190
:101910000906A101050719E029E715002501950829
:1019200075018102050819012905950575019102C6
:101930009501750391010507190029771500250107
:10194000957875018102C01201100100000008EDB8
:10195000FE071301000102000109026D00040100ED
:10196000A0FA09040000010301010009211101008E
:1019700001223F000705810308000A090401000154
:1019800003010200092111010001224D0007058217
:101990000308000A090402000103000000092111E4
:1019A0000100012236000705830308000A09040329
:1019B0000001030000000921110100012239000784
:1019C0000584031000010403090416034500720096
:1019D00067006F0044006F007800200045005A0047
:1019E000000016034500720067006F0044006F009E
:1019F0007800200045005A000000000000000000B0
:101A00000000000000010204060A0F17202C3A4AC9
:101A10005D71879DB3C7DAE9F5FCFFFCF5E9DAC72C
:101A2000B39D87715D4A3A2C20170F0A0604020104
:101A30000000000000000000000011241FBECFEFD6
:101A4000DAE0DEBFCDBF04B603FE24C0809192026F
:101A500090919302A0919402B09195028750904B7F
:101A6000A740B04BB9F410929202109293021092D8
:101A700094021092950214BE84B7877F84BF88E1D8
:101A80000FB6F89480936000109260000FBEE0E003
:101A9000FFE3099511E0A0E0B1E0EAEFF1E602C052
:101AA00005900D92AE35B107D9F712E0AEE5B1E081
:101AB00001C01D92A239B107E1F70E948B150C9469
:101AC000FB300C94000080915E0190915F01A09129
:101AD0006001B09161010097A105B10519F080E0A6
:101AE00090E0089520E08091620190916301A091BF
:101AF0006401B09165010097A105B10509F021E0ED
:101B000081E02827822F089590E084508A3108F4DC
:101B100091E0892F089508956091580270915902BB
:101B200080915A0290915B020E94A527569A5E9A74
:101B300025982D9826982E9827982F98813019F05F
:101B4000823031F403C0259A2D9A02C0269A2E9A2B
:101B50000E94630D882311F4279A2F9A0895FF920B
:101B60000F931F93182F062F0E942927F82E812FDD
:101B70000E943927802F0E94C61D8F2D0E94392771
:101B80001F910F91FF9008952F923F924F925F9275
:101B90006F927F928F929F92AF92BF92CF92DF927D
:101BA000EF92FF920F931F93DF93CF9300D000D05B
:101BB00000D0CDB7DEB70E9429278A8382E10E9438
:101BC000322720916B0129838091670190E03324B3
:101BD00033943822DC01A270B070BC83AB83809157
:101BE0006801882319F4442455240DC0442482300C
:101BF00011F4442443945524833011F45524539410
:101C000082E00E942C2758E1852E51E0952EAA24CF
:101C10002224EE24FF24F701EA59FE4F8081882315
:101C200009F4B4C02224B1E0EB16F10411F022242F
:101C30002394F701EE5AFE4FE081F5E0EF16F10430
:101C400039F43320F9F04CE4C42E46E0D42E21C000
:101C500024E0E216F10461F43320A1F0398133234A
:101C600089F48695869530EBC32E30E1D32E57C08C
:101C700096E0E916F10431F4332021F0A981AA237A
:101C800009F4D6C0D401CD90DC90C114D10409F47C
:101C90007DC0E13009F043C0B5E08B9F30011124D5
:101CA000BB2410E0F601E60DF71D04910023A9F016
:101CB000802F0E94C61D802F0E94731DA394442074
:101CC00019F0E1E0AE1629F0552001F1F2E0AF166F
:101CD000E9F482E00E94322719C02B813C81232B3A
:101CE00009F454C031E0B31609F050C086E0E8169C
:101CF000F10409F04BC0112309F448C0812F0E9460
:101D0000C61D812F0E94731DA39440C00894611CBE
:101D1000711C94E0B916D1F1B394102FC3CFA3E096
:101D20008A9F3001112400E010E0F801E60DF71D54
:101D3000EE0FFF1FEC0DFD1D259134913E832D8389
:101D4000232B21F1BD808B2D0E94840D882321F04F
:101D50008B2D0E94C61D04C08E816D810E94AF0D27
:101D60008B2D0E94731DA394442019F031E0A3161B
:101D700029F0552031F082E0A81619F482E00E9483
:101D800032270F5F1F4F0330110579F60894E11CCD
:101D9000F11CA2E0B0E08A0E9B1EBCE0EB16F10441
:101DA00009F039CFAA2099F08091D601843611F438
:101DB0001092D6018091D601E82FFF27E7FDF0951C
:101DC000EE58FE4FA0828F5F8093D60126C033204D
:101DD00021F1222011F50091D601015007FD03E603
:101DE000C02EDD24C7FCD094F601EE58FE4FF080E3
:101DF000FF2099F010E007C08AE20E94C61D8AE227
:101E00000E94731D1F5F1F15B8F3E2E7F1E0CE0ECD
:101E1000DF1ED6011C920093D6018A810E943927C9
:101E2000E6E6F1E01192B1E0E237FB07D9F705C031
:101E300090E3C92E92E1D92E72CF26960FB6F89470
:101E4000DEBF0FBECDBFCF91DF911F910F91FF90ED
:101E5000EF90DF90CF90BF90AF909F908F907F904A
:101E60006F905F904F903F902F9008958F929F9228
:101E7000AF92BF92CF92DF92EF92FF920F931F9398
:101E8000CF93DF935C01662309F0CBC0FC01818115
:101E900096E0899FD00111248081A80FB11DFD011A
:101EA000EE0FFF1FEE0FFF1FE055FC4E2591359101
:101EB00045915491211531054105510509F4B1C0F1
:101EC00057FF71C0C9018F70907061E0E62EF12C50
:101ED000012D112D04C0EE0CFF1C001F111F8A954F
:101EE000D2F794E056954795379527959A95D1F76F
:101EF0008FE0982E9222C92CDD24F601EA5BFE4F7A
:101F00008080F601EE0FFF1FE050FF4FC081D181AE
:101F1000F5018281882311F1F2E09F1619F481EE18
:101F20000E94C61DA801970104C0220F331F441F41
:101F3000551F8A94D2F788819981AA81BB81822B0F
:101F4000932BA42BB52B88839983AA83BB83F6019B
:101F5000EA59FE4F80818E29808363C0A8019701D2
:101F600004C0220F331F441F551F8A94D2F72095B7
:101F700030954095509588819981AA81BB818223B3
:101F80009323A423B52388839983AA83BB830E94C8
:101F9000630D882311F00E94C40D82E0981609F0A9
:101FA00040C081EE3CC0622FFD01EE0FFF1FEE0F1F
:101FB000FF1FE050FB4EE590F59005911491E11460
:101FC000F1040105110511F4DD2411C0DE2CE091AE
:101FD0000401F091050180819181A281B38180701B
:101FE0009070A070B0730097A105B10549F5F50197
:101FF0008281882371F008C08F2D6E2D07C0822F3B
:102000000E94731D8E2D0BC0832F99270E94AF0D48
:1020100008C0862F0E94731DDD2019F08D2D0E94AF
:10202000731D80E090E0DF91CF911F910F91FF90A1
:10203000EF90DF90CF90BF90AF909F908F900895DA
:10204000F50182818823C1F6DACF0E948C0D0895B4
:1020500056985E9825982D9826982E9827982F9810
:102060008FEF90E0909389008093880090938B008D
:1020700080938A0090938D0080938C00259A2D9AEE
:1020800084EF91E020E931E0F9013197F1F7019710
:10209000D9F7269A2E9A84EF91E020E931E0F901F0
:1020A0003197F1F70197D9F7279A2F9A84EF91E0AA
:1020B00020E931E0F9013197F1F70197D9F7259837
:1020C0002D9884EF91E020E931E0F9013197F1F7A3
:1020D0000197D9F726982E9884EF91E020E931E016
:1020E000F9013197F1F70197D9F727982F9856986A
:1020F0005E9825982D9826982E9827982F980895C1
:1021000089EA8093800089E08093810024982C984C
:102110003F988AB18F748AB96E98479A8BB1806B59
:102120008BB9769A0E9428100E948B0D089580E248
:10213000809330018091D701882371F40E94E610CA
:1021400081E08093D70180E197E220E931E0F90155
:102150003197F1F70197D9F780E40E94EC10809352
:102160003001882371F50E941A1180933001882371
:1021700041F50E941A1180933001882311F58FE3F5
:102180000E941A11809330018823D9F40E94121101
:1021900080E40E94EC1080933001882391F48CE05D
:1021A0000E941A1180933001882359F40E941A1159
:1021B00080933001882329F48FE30E941A118093C1
:1021C00030010E9412118091300108951092B900DF
:1021D0008AE08093B8000895982F84EA8093BC0029
:1021E0008091BC0087FFFCCF8091B900887F883048
:1021F00021F0803111F081E008959093BB0084E8D4
:102200008093BC008091BC0087FFFCCF9091B90007
:10221000987F983111F480E0089580E0903409F0BF
:1022200081E0089584E98093BC008091BC0084FD26
:10223000FCCF08958093BB0084E88093BC0080911C
:10224000BC0087FFFCCF8091B90090E0887F883286
:1022500009F091E0892F089584E88093BC00809173
:10226000BC0087FFFCCF8091BB000895E8EDF1E052
:10227000E80FF11D80810895089580913001882331
:10228000A9F480E40E94EC1080933001882361F46B
:1022900082E10E941A1180933001882329F48FEF84
:1022A0000E941A11809330010E94121184B1807F24
:1022B00084B985B1807F85B98AB1837F8AB98BB1B2
:1022C000837F8BB93E98469808950E94971080931B
:1022D00030010E943D1180B38C7080BB81B3836F4D
:1022E00081BB80E090E0FC01E852FE4F1082FC01CF
:1022F000EA51FE4F108201968E309105A1F70E949F
:1023000080100895BF92CF92DF92EF92FF920F93C9
:102310001F93CF93DF9380913001882379F08091D0
:10232000F4018F5F8093F401882341F40E94971099
:1023300080933001882311F40E94281026EEE22EAB
:1023400021E0F22EC0E0D0E090EAB92E81E0C82E64
:10235000D12C02E0C73010F580913001882309F0BC
:1023600045C080E40E94EC1080933001882399F4EA
:1023700082E10E941A1180933001882361F4C60122
:102380000C2E02C0880F991F0A94E2F780950E94D4
:102390001A11809330010E94121128C0CA30D9F05E
:1023A000CB3040F4C83089F0C93090F4C73009F020
:1023B0009CC008C0CC30A1F0CC3080F0CD3009F00A
:1023C00094C011C0209A289890C0219A29988DC055
:1023D000229A2A988AC0239A2B9887C0529A01C0C1
:1023E000539A5B9882C03E9A46987FC08091300194
:1023F000882311F010E03EC080E40E94EC1080932E
:102400003001882399F483E10E941A1180933001EE
:10241000882361F481E40E94EC10809330018823CA
:1024200029F40E942C11182F109501C010E00E9471
:10243000121120C042E07C9902C034E001C030E0BB
:102440007D9902C028E001C020E07E9902C090E1A1
:1024500001C090E08FB18095881F8827881F8295E2
:10246000880F807E152F1C251170142B132B122B17
:10247000192B182BF7018081811719F01083009315
:1024800031010E943D1121960894E11CF11CCE30CF
:10249000D10509F05FCF809131018823C9F08150C7
:1024A00080933101882329F080EA9FE00197F1F7BA
:1024B0000FC020E030E0F901E852FE4FD901AA51E7
:1024C000BE4F8C9180832F5F3F4F2E30310599F79F
:1024D0000E94251081E0DF91CF911F910F91FF9015
:1024E000EF90DF90CF90BF9008958B2D8A95F1F7F4
:1024F0005FB1799B9FCF40E09ECF08959C018B3BBD
:10250000910578F4883A910548F5853A9105B8F433
:102510008430910508F09FC08130910509F099C081
:1025200095C0803E910508F494C0883E910508F45A
:1025300092C0805F9040409708F08BC085C0853A7C
:10254000910519F481E890E47DC0863A910519F06F
:1025500083E890E477C082E890E474C0883A9105FB
:1025600019F482EE94E46EC0893A910519F489EE6B
:1025700094E468C08A3A910519F48AEE94E462C042
:102580008B3A910519F485EB94E45CC08C3A910583
:1025900019F486EB94E456C08D3A910519F487EB53
:1025A00094E450C0803B910519F48CEC94E44AC04B
:1025B0008E3A910519F48DEC94E444C08F3A91055C
:1025C00019F483E895E43EC0813B910519F48AE84B
:1025D00095E438C0823B910519F482E995E432C054
:1025E000833B910519F484E995E42CC0843B910563
:1025F00019F481E296E426C0853B910519F483E243
:1026000096E420C0863B910519F484E296E41AC052
:10261000873B910519F485E296E414C0883B910547
:1026200019F486E296E40EC0893B910519F487E21D
:1026300096E408C08A3B910519F080E094E402C05A
:102640008AE296E49C0107C0306505C021E030E0D5
:1026500002C020E030E0C9010895E62FF0E0EE0F5F
:10266000FF1F9CE0799F90011124E20FF31F98EA6D
:10267000899FC0011124E80FF91FE05BF94E2591F5
:102680003491C9010895FC01EE0FFF1FE853F94E84
:1026900025913491C9010895FC01EE0FFF1FE85BFD
:1026A000F74E25913491C90108950E942D13AC0174
:1026B0008050914080509F4118F4CA019F71089545
:1026C000CA01805090428050904128F4CA019F7006
:1026D0000E944C130895CA0180509043805090414D
:1026E00020F4CA019070906C089580E5403058073E
:1026F00071F40E94601D84EC99E020E931E0F90159
:102700003197F1F70197D9F70E949B280EC120E578
:102710004130520731F480917002816080937002E1
:1027200004C1CA01805090458050904108F056C0C5
:10273000652F77276F70707061307105F9F49A0119
:10274000A4E0220F331FAA95E1F720703370CA016D
:10275000F3E0880F991FFA95E1F780769070282BA7
:10276000392B3C684370507002C0660F771F4A9542
:10277000E2F76F717070262B372B2EC06230710517
:1027800029F4942F8827816F906A0895633071052A
:1027900051F49A0173E0220F331F7A95E1F7207EFE
:1027A00037703C680CC06430710561F59A0163E0D4
:1027B000220F331F6A95E1F7207E37703A68437025
:1027C000507081E090E002C0880F991F4A95E2F7AF
:1027D0008F719070282B392BC9010895CA01805040
:1027E00090478050904120F4CA019F7090620895F4
:1027F000CA01805090488050904120F4CA019F70D7
:10280000906A0895403E5105F0F4403C510588F52A
:102810004133510509F476C04233510548F4493239
:10282000510509F465C04A32510509F07AC06FC0FC
:102830004933510511F142385105F9F0453351053D
:1028400009F06FC050C0433E510569F1443E510547
:1028500040F4403E5105C1F0423E510509F061C0CF
:102860001DC0463E510559F1473E510509F059C07A
:102870002BC0CA010E94431308958091830280FDFA
:102880000AC081FD08C04DC08091830280FF03C053
:1028900089E390E047C080EE90E044C080918302DD
:1028A00082FD08C004C08091830282FF03C082EED3
:1028B00090E038C084FD11C083EE90E033C0809179
:1028C000830283FD08C004C08091830283FF03C09C
:1028D00086EE90E027C084FF03C080E090E022C035
:1028E00087EE90E01FC08091830285FF05C007C07E
:1028F0008091830285FF03C085E390E013C089E2E5
:1029000090E010C08091830286FF05C007C08091CF
:10291000830286FF03C081E390E004C08AE290E076
:1029200001C0CA010E947E120895089508950E9470
:102930009614089510928802089508958091F601E2
:102940000895DF93CF9300D00F92CDB7DEB7AC01DF
:1029500080918902843029F583E08093E9002FEF8C
:1029600095ED05C0892F8A95F1F7222329F08091F2
:10297000E800215085FFF6CF8091E80085FF11C067
:102980005B834A8383E08983CE01019663E070E034
:1029900040E050E00E940F188091E8008E7780930D
:1029A000E8000F900F900F90CF91DF910895DF9383
:1029B000CF9300D00F92CDB7DEB7AC0180918902E2
:1029C000843029F583E08093E9002FEF95ED05C071
:1029D000892F8A95F1F7222329F08091E800215070
:1029E00085FFF6CF8091E80085FF11C05B834A83A5
:1029F00082E08983CE01019663E070E040E050E020
:102A00000E940F188091E8008E778093E8000F9065
:102A10000F900F90CF91DF910895AC0180918902C2
:102A2000843001F582E08093E9002FEF95ED05C039
:102A3000892F8A95F1F7222329F08091E80021500F
:102A400085FFF6CF8091E80085FF0CC0CA0165E0E4
:102A500070E040E050E00E940F188091E8008E770F
:102A60008093E80008950F931F93182F092F9091DA
:102A70008902943009F04CC0809132018823E1F042
:102A800080913D018823C1F09093E9009FEF25E1FB
:102A900005C0822F8A95F1F7992329F08091E800EB
:102AA000915085FFF6CF8091E80085FF31C0812FDE
:102AB000902F60E170E018C081E08093E9009FEF03
:102AC00025ED05C0822F8A95F1F7992329F0809191
:102AD000E800915085FFF6CF8091E80085FF18C08F
:102AE000812F902F68E070E040E050E00E940F18C6
:102AF0008091E8008E778093E800A7EFB1E0212F66
:102B0000302FC901FC0180E101900D928150E1F765
:102B10001F910F91089584B7877F84BF88E10FB616
:102B2000F89480936000109260000FBE80E090E007
:102B300020E80FB6F89420936100809361000FBEE7
:102B40000E945B1C0E94ED180E944E198091E200C9
:102B500084608093E20078940E94EC1B0E94F71C32
:102B600083E391E00E94021C0E941D2F0CC00E9472
:102B7000F72780918702882331F00E94202888233C
:102B800011F00E94241780918902853081F30E9400
:102B9000611CF9CF80918802882349F40E94ED18C6
:102BA0000E944E198091E20084608093E2000895B3
:102BB00080918B02833009F457C0843030F4813027
:102BC00071F0823009F0B1C098C08A3009F485C034
:102BD0008B3009F46AC0893009F0A7C020C0809109
:102BE0008A02813A09F0A1C08091E800877F809332
:102BF000E80080918E0290918F02892B21F487EF5B
:102C000091E060E103C080E090E060E070E00E944D
:102C10003A178091E8008B778093E80008958091BF
:102C20008A02813209F081C080918E0290918F02D8
:102C3000009719F0039709F078C08091E800877F2A
:102C40008093E80005C080918902882309F46DC053
:102C50008091E80082FFF7CF8091F1008093F60128
:102C60008091E8008B771CC080918A02813A09F03C
:102C70005CC080918E0290918F02892B09F055C023
:102C80008091E800877F8093E8008091E80080FFD2
:102C9000FCCF809132018093F1008091E8008E7723
:102CA0008093E8000E949A18089580918A028132E8
:102CB000E1F580918E0290918F02892BB1F5809180
:102CC000E800877F8093E8000E949A1880918C0228
:102CD000809332010E94601D089580918A028132A2
:102CE00021F58091E800877F8093E8000E949A1880
:102CF00080918D028093F501089580918A02813A36
:102D0000A1F48091E800877F8093E8008091E8003B
:102D100080FFFCCF8091F5018093F1008091E80065
:102D20008E778093E8000E949A18089581E061EC04
:102D300042E00E94621882E061EC42E00E94621868
:102D400083E061EC42E00E94621884E061EC42E1C1
:102D50000E94621808950E94F0270E94352F0E9459
:102D6000071C0E94971408950E942F2F0895DA01DE
:102D70009330C1F0943030F4913051F0923009F03A
:102D80005BC00BC0913221F1923209F055C037C0BF
:102D9000E7E4F9E122E130E053C0E9E5F9E12DE6AD
:102DA00030E04EC0813051F0813020F0823009F0A7
:102DB00043C008C0E6ECF9E1849107C0EAECF9E110
:102DC000849103C0E2EEF9E18491282F30E038C00D
:102DD000613051F0613028F0623059F0633061F5B4
:102DE0000BC0EBE6F9E102C0E4E8F9E129E030E0EC
:102DF00027C0EDE9F9E1FACFE6EBF9E1F7CF613071
:102E000061F0613028F0623069F06330A9F40FC0DE
:102E1000ECE4F8E12FE330E013C0EBE8F8E12DE457
:102E200030E00EC0E8EDF8E126E330E009C0EEE066
:102E3000F9E129E330E004C0E0E0F0E020E030E038
:102E4000ED93FC93C901089580E189BD82E189BDBC
:102E500009B400FEFDCF8091D8008F7D8093D8000B
:102E60008091E00082608093E0008091E00081FD2D
:102E7000FCCF08959C014091900250919102461719
:102E8000570718F4F90190E043C06115710511F07E
:102E9000AB01F8CF8091E8008E778093E80040E0A6
:102EA00050E0F0CF80918902882309F447C0853033
:102EB00009F446C08091E80083FD44C08091E80099
:102EC00082FD36C08091E80080FF22C08091F3002F
:102ED0009091F200782F60E0292F30E0262B372BDD
:102EE00007C081918093F100415050402F5F3F4FC8
:102EF0004115510519F02830310598F390E028303C
:102F0000310509F491E08091E8008E778093E80024
:102F10004115510539F6992329F60AC08091890295
:102F2000882361F0853061F08091E80083FD0AC05C
:102F30008091E80082FFF2CF80E0089582E008955A
:102F400083E0089581E008959C01409190025091A2
:102F500091024617570718F4F90190E044C0611533
:102F6000710511F0AB01F8CF8091E8008E77809366
:102F7000E80040E050E0F0CF80918902882309F416
:102F800048C0853009F447C08091E80083FD45C002
:102F90008091E80082FD37C08091E80080FF23C067
:102FA0008091F3009091F200782F60E0292F30E0BB
:102FB000262B372B08C084918093F1003196415025
:102FC00050402F5F3F4F4115510519F02830310512
:102FD00090F390E02830310509F491E08091E80009
:102FE0008E778093E8004115510531F6992321F63B
:102FF0000AC080918902882361F0853061F0809158
:10300000E80083FD0AC08091E80082FFF2CF80E0F3
:10301000089582E0089583E0089581E00895BF92C5
:10302000CF92DF92EF92FF920F931F93CF93DF9394
:10303000182F092F7B016A010E94BB18B82E882324
:10304000B1F5812F902F9C01E901C114D10439F011
:10305000F60180819181E81AF90AC80FD91F00E0B2
:1030600010E022C08091E80085FD16C08091E80044
:103070008E778093E800C114D10449F0F601808175
:103080009181800F911F9183808385E011C00E9400
:10309000BB18882349F00CC089918093F1000894F3
:1030A000E108F1080F5F1F4FE114F104D9F68B2DF1
:1030B000DF91CF911F910F91FF90EF90DF90CF9014
:1030C000BF900895382F282F2EC0822F8F708093A5
:1030D000E900231721F4762F942F50E006C0709159
:1030E000EC009091ED005091F00091FF1BC0809199
:1030F000EB008E7F8093EB008091ED008D7F8093BD
:10310000ED008091EB0081608093EB007093EC0008
:103110009093ED005093F0008091EE0087FD02C087
:1031200080E008952F5F273080F23F703093E900F0
:1031300081E0089580918A0288239CF404C08091E4
:1031400089028823B9F08091E80082FFF8CF80914E
:10315000E8008B778093E8000895809189028823A6
:1031600049F08091E80080FFF8CF8091E8008E77E9
:103170008093E80008954091E4005091E50024E632
:103180008091EC0080FF24C08091E80080FD1EC08B
:1031900080918902882311F482E00895853011F42A
:1031A00083E008958091EB0085FF02C081E00895DF
:1031B0008091E4009091E5008417950709F322239C
:1031C00011F484E008952150AC01DACF80E0089535
:1031D0008091E80082FFDCCFF9CF0E9460190E9445
:1031E0006819E0EEF0E0808181608083A8EDB0E0B6
:1031F0008C918F778C9319BCE7EDF0E080818E7F06
:1032000080838C918F7E8C93109288020895EF9228
:10321000FF920F931F930E9460190E94681908ED96
:1032200010E0F80180818F778083808180688083BF
:1032300080818F7D808319BC109289021092850253
:10324000109287021092860280EEE82EF12CF70190
:1032500080818B7F8083F80180818160808380E022
:1032600060E042E00E946218E1EEF0E080818E7F33
:103270008083E2EEF0E080818160808380818860DD
:103280008083F70180818E7F8083F8018081806157
:1032900080831F910F91FF90EF900895E8EDF0E08B
:1032A00080818F7E8083E7EDF0E080818160808384
:1032B00084E082BF81E0809388020E94071908950C
:1032C000E8EDF0E080818E7F80831092E200089527
:1032D0001092DA001092E10008951F920F920FB63B
:1032E0000F9211241F932F933F934F935F936F93EC
:1032F0007F938F939F93AF93BF93EF93FF9310911F
:10330000E9008091EC001092E9008091F000877F45
:103310008093F00078940E947B1A1092E9008091CB
:10332000F00088608093F0001F701093E900FF9117
:10333000EF91BF91AF919F918F917F916F915F912D
:103340004F913F912F911F910F900FBE0F901F90A3
:1033500018951F920F920FB60F9211242F933F933F
:103360004F935F936F937F938F939F93AF93BF938D
:10337000EF93FF938091E10082FF0BC08091E20008
:1033800082FF07C08091E1008B7F8093E1000E9463
:10339000EB1B8091DA0080FF1FC08091D80080FF76
:1033A0001BC08091DA008E7F8093DA008091D90073
:1033B00080FF0DC080E189BD82E189BD09B400FEB6
:1033C000FDCF81E0809389020E94CA1505C019BC17
:1033D000109289020E949A148091E10080FF19C026
:1033E0008091E20080FF15C08091E2008E7F809383
:1033F000E2008091E20080618093E2008091D80039
:1034000080628093D80019BC85E0809389020E9475
:10341000B4168091E10084FF30C08091E20084FF07
:103420002CC080E189BD82E189BD09B400FEFDCFD9
:103430008091D8008F7D8093D8008091E1008F7EAD
:103440008093E1008091E2008F7E8093E200809182
:10345000E20081608093E20080918502882311F070
:1034600084E007C08091E30087FD02C081E001C0D5
:1034700083E0809389020E94AB168091E10083FF74
:1034800029C08091E20083FF25C08091E100877F01
:103490008093E10082E080938902109285028091FE
:1034A000E1008E7F8093E1008091E2008E7F809327
:1034B000E2008091E20080618093E20080E060E0C1
:1034C00042E00E9462188091F00088608093F000D2
:1034D0000E949D14FF91EF91BF91AF919F918F91A9
:1034E0007F916F915F914F913F912F910F900FBE00
:1034F0000F901F9018951F93DF93CF93CDB7DEB732
:10350000AC970FB6F894DEBF0FBECDBFEAE8F2E08D
:103510008091F100819322E0E239F207C9F70E941D
:10352000D8158091E80083FF3EC180918A023091D6
:103530008B02353009F487C0363040F43130C9F1A0
:10354000313070F0333009F02EC133C0383009F417
:10355000F9C0393009F409C1363009F024C197C0E7
:10356000803821F0823809F01EC108C0909186028F
:1035700080918702882399F0926011C080918E0219
:103580008F708093E9008091EB0090E025E09695A4
:1035900087952A95E1F7982F91701092E900809114
:1035A000E800877F8093E8009093F1001092F1008B
:1035B000D4C0882319F0823009F0F5C090E08F71F3
:1035C0009070009721F0029709F0EDC00CC0809137
:1035D0008C02813009F0E7C010928702333069F520
:1035E000809387022AC080918C02882331F5209134
:1035F0008E022F7009F4D7C02093E9008091EB0070
:1036000080FF1BC0333021F48091EB00806213C037
:103610008091EB0080618093EB0081E090E002C03C
:10362000880F991F2A95E2F78093EA001092EA002A
:103630008091EB0088608093EB001092E90080910C
:10364000E800877F8DC0882309F0ADC010918C02FF
:103650001F778091E3008078812B8093E300809135
:10366000E800877F8093E8000E949A188091E80024
:1036700080FFFCCF8091E30080688093E3001123FA
:1036800011F482E001C083E0809389028CC08058ED
:10369000823008F088C080918C0290918D0223E0E6
:1036A0008C3D920709F034C083E08C838AE28B83DF
:1036B0007FB7F894DE0115966EE040E050E011E22D
:1036C000E62FF0E010935700849140FF03C08295ED
:1036D0008F706F5F8F70282F30E08A3018F0C9012B
:1036E000C79602C0C901C0968D939D934F5F5F4FEF
:1036F0004431510529F77FBF8091E800877F80938F
:10370000E800CE0103966AE270E00E943A1714C006
:1037100060918E02AE014F5F5F4F0E94B716BC01F1
:10372000009709F440C08091E800877F8093E8000B
:1037300089819A810E94A4178091E8008B778093F9
:10374000E80031C0803879F58091E800877F809368
:10375000E800809185028093F1008091E8008E77E7
:103760008093E8000E949A181EC08823E1F490918B
:103770008C029230C0F48091E800877F8093E8004B
:10378000909385020E949A1880918502882331F4D3
:103790008091E30087FD02C081E001C084E0809356
:1037A00089020E9496168091E80083FF0AC08091EA
:1037B000E800877F8093E8008091EB00806280932F
:1037C000EB00AC960FB6F894DEBF0FBECDBFCF9125
:1037D000DF911F91089508951F9380918902882396
:1037E00079F01091E9008091EC001092E90080914D
:1037F000E80083FF02C00E947B1A1F701093E9004B
:103800001F91089590930C0280930B020895E0910C
:103810000B02F0910C02309711F480E008950190B2
:10382000F081E02D09950895E0910B02F0910C02D2
:10383000309721F00280F381E02D09950895E09101
:103840000B02F0910C02309721F00480F581E02DFD
:10385000099508959C018091090290910A02281708
:10386000390779F030930A0220930902E0910B02A4
:10387000F0910C02309729F00680F781E02DC90104
:10388000099508959C0180910702909108022817DC
:10389000390779F03093080220930702E0910B0278
:1038A000F0910C02309729F00084F185E02DC901D8
:1038B0000995089508950E945A1C08950E9497142E
:1038C0000895BF92CF92DF92EF92FF920F931F93D2
:1038D000DF93CF93CDB7DEB72A970FB6F894DEBF4C
:1038E0000FBECDBF0E948211EE24FF24BE2C8E2D70
:1038F0000E943611C82EF701E25FFD4FD080D82616
:1039000009F43FC08091700281FF02C00E943C1107
:1039100000E010E0ED2DF0E0CF01002E02C0959503
:1039200087950A94E2F780FF27C00E943E2809830A
:10393000BA826C2D70E0002E02C0759567950A94CE
:10394000E2F7617070706B8381609D838C83402F80
:103950005B2D782F8D810E94EE20F701E25FFD4FF5
:1039600081E090E0002E02C0880F991F0A94E2F7D0
:103970002081282720831DC00F5F1F4F06301105AF
:1039800059F60894E11CF11C8EE0E816F10409F0E8
:10399000ADCF0E943E282FEF2E832F8318868160A3
:1039A000782F9A8789874FEF5FEF60E08A850E94C2
:1039B000EE200E94132C10910D020E94071C181774
:1039C00031F00E94071C80930D020E945E1C2A9613
:1039D0000FB6F894DEBF0FBECDBFCF91DF911F9120
:1039E0000F91FF90EF90DF90CF90BF9008950E94CD
:1039F00035280E9465110E94FB2808950895DF93E1
:103A0000CF9300D000D00F92CDB7DEB70F900F90BC
:103A10000F900F900F90CF91DF910895DF93CF9388
:103A200000D000D000D0CDB7DEB726960FB6F89400
:103A3000DEBF0FBECDBFCF91DF9108950E94AC25B0
:103A4000482F892F82958F70282F30E02C30310538
:103A50004CF42A3031056CF42250304022303105CC
:103A6000C0F407C02C30310551F02F30310589F4F6
:103A700006C0403E10F0403F61F481E008959F7021
:103A8000892F90E023E0969587952A95E1F781703C
:103A9000089580E008950E944C270E945C270E94B0
:103AA0001B270E9474270E94FC2B0E94082C80E098
:103AB00090E00E942A1C80E090E00E94421C089541
:103AC0000E943C270E944B1D0895882321F00E94EC
:103AD00032270E9474270895882321F00E942C2702
:103AE0000E9474270895282F882309F44EC0823835
:103AF00059F40E94071C81FF48C089E30E94A9264F
:103B00000E94742789E30CC0833869F40E94071C63
:103B100080FF3BC083E50E94A9260E94742783E5AD
:103B20000E94E7261FC0843859F40E94071C82FFB8
:103B30002CC087E40E94A9260E94742787E4F0CF56
:103B40008450813A10F4822FEBCF822F805E883030
:103B500060F4277081E090E001C0880F2A95EAF7B1
:103B60000E9432270E9474270895822F855A83303D
:103B700028F480E090E00E942A1C0895285A2331FE
:103B800020F480E090E00E94421C08951F93182FBB
:103B9000882309F4D0C0823859F40E94071C81FDA3
:103BA000CAC089E30E94A9260E94742789E30CC039
:103BB000833879F40E94071C80FDBDC083E50E9414
:103BC000A9260E94742783E50E94E7260E94742795
:103BD000B2C0843859F40E94071C82FDACC087E44F
:103BE0000E94A9260E94742787E4EECF8450813A70
:103BF00050F4812F0E944E2E882309F09CC0812F03
:103C00000E94A926E3CF812F805E883050F4177080
:103C100081E090E001C0880F1A95EAF70E942C27F6
:103C2000D5CF812F855A8330A0F4153A19F481E855
:103C300090E00CC0163A19F482E890E007C0173AF9
:103C400019F080E090E002C083E890E00E942A1C16
:103C500072C0812F885A833108F06DC0183A19F468
:103C600082EE90E066C0193A19F489EE90E061C0E6
:103C70001A3A19F48AEE90E05CC01B3A19F485EB0D
:103C800090E057C01C3A19F486EB90E052C01B3B01
:103C900019F483EB90E04DC01C3B19F484EB90E0E9
:103CA00048C01D3A19F487EB90E043C0103B19F46B
:103CB0008CEC90E03EC01E3A19F48DEC90E039C0D7
:103CC0001F3A19F483E891E034C0113B19F48AE8F3
:103CD00091E02FC0123B19F482E991E02AC0133B16
:103CE00019F484E991E025C0143B19F481E292E0D3
:103CF00020C0153B19F483E292E01BC0163B19F477
:103D000084E292E016C0173B19F485E292E011C0FC
:103D1000183B19F486E292E00CC0193B19F487E2D3
:103D200092E007C01A3B19F080E090E002C08AE2FE
:103D300092E00E94421C1F910895AF92BF92CF92D1
:103D4000DF92EF92FF920F931F93DF93CF93CDB744
:103D5000DEB72A970FB6F894DEBF0FBECDBF5C0169
:103D6000DE011196FC0185E001900D928150E1F792
:103D70000B81F501F580F2944FE0F422DE011696F6
:103D8000FE01319685E001900D928150E1F73E8170
:103D90002F8189859A85892B09F40FC22F3F09F05D
:103DA000FBC13F3F09F0F8C108C20E944C278D2D8E
:103DB00082958F7090E08530910509F4AAC0863015
:103DC000910554F4843091050CF084C02D2D207F92
:103DD00002970CF045C013C08C30910544F48A3032
:103DE00091050CF067C1089709F0E7C19EC08C30BF
:103DF000910509F4BFC10F9709F0DFC1C5C18D2D31
:103E00008F70222311F4182F03C0182F1295107FE2
:103E1000002389F0112309F499C18C2D805E88302C
:103E200020F4812F0E942C2703C0812F0E943F275E
:103E30000E9474278BC18C2D0E94731D112309F4DD
:103E4000BCC1F0E2CF0E27E02C1520F0812F0E949C
:103E5000322703C0812F0E9445270E947427ADC1DD
:103E60008D2D8F70203211F4182F03C0182F12954A
:103E7000107FCC2021F081E0C81611F516C0002378
:103E800059F0FF2009F431C1E1E0FE1609F02DC11F
:103E9000812F0E945F2791C1FF2021F0F1E0FF16E2
:103EA00009F48BC10E94622726C1002329F021E07A
:103EB0002F1508F482C119C1FF2009F07EC11BC172
:103EC000002321F0FF2009F410C140C1FF2009F4B4
:103ED00012C147C18D2D86958695837090E000971D
:103EE00021F0019709F069C10AC0002319F0C60149
:103EF000937002C080E090E00E942A1C5EC1002303
:103F000019F0C601937002C080E090E00E94421C4C
:103F100054C1002321F08C2D0E940A2B03C08C2D4C
:103F20000E94742B0E94082C48C18D2D837009F0CB
:103F30005EC0002309F041C12C2D229526952770E3
:103F4000220F220F8C2D8F70E82EFF2400E010E04E
:103F5000022E04C0EE0CFF1C001F111F0A94D2F7A2
:103F6000C4FC05C060E070E080E090E00FC06FE04E
:103F700070E080E090E004C0660F771F881F991FF3
:103F80002A95D2F76095709580959095D694D694A1
:103F9000E3E0DE224D2D50E041305105A9F04230E2
:103FA00051051CF4452B49F008C14230510589F0F8
:103FB0004330510509F001C113C06E297F29802BC0
:103FC000912B0E948426F9C06E297F29802B912B8A
:103FD0000BC06E297F29802B912B0E947326EDC088
:103FE0000E948426C801B7010E949526E6C090E091
:103FF000002311F496958795817009F4DEC02C2D6D
:10400000229526952770220F220F8C2D8F70E82E77
:10401000FF2400E010E0022E04C0EE0CFF1C001F85
:10402000111F0A94D2F7C4FC05C060E070E080E084
:1040300090E00FC06FE070E080E090E004C0660F99
:10404000771F881F991F2A95D2F7609570958095E4
:104050009095D694D694F3E0DF224D2D50E0413078
:104060005105A9F0423051051CF4452B49F0A5C07B
:104070004230510589F04330510509F09EC013C00C
:104080006E297F29802B912B0E94D72596C06E29FF
:104090007F29802B912B0BC06E297F29802B912BA0
:1040A0000E94C6258AC00E94D725C801B7010E9478
:1040B000E82583C020EFC21611F12C1528F080EE00
:1040C000C81608F43FC009C0E2EFCE1661F1CE1663
:1040D00028F1F3EFCF16B1F52BC01C2D1F708D2DDD
:1040E0008F71002331F00E943526812F0E946C1DB4
:1040F00064C00E941526812F0E94651D5EC00023AA
:1041000021F0FF2009F059C004C021E02F1508F468
:1041100054C08D2D8F710E94F9254FC08D2D8F7148
:10412000002329F119C08D2D8F710023A9F01FC024
:10413000002329F08D2D8F710E9451263EC00E94D0
:1041400061263BC0002359F0FF2021F08C2D0E94F6
:10415000C61D33C08D2D8F710E9435262EC0FF20C5
:1041600021F08C2D0E94731D28C08D2D8F710E940F
:10417000152623C08FE0D822C5016C2D4D2D0E943D
:10418000360F0E94EA2419C0EFE0DE22C5016C2D33
:104190004D2D0E947D1211C0C5010E94FE1C698137
:1041A0007A81802F0E94B7256C010E9464250E94AD
:1041B0006325002309F4FBCDF8CD2A960FB6F894B9
:1041C000DEBF0FBECDBFCF91DF911F910F91FF904A
:1041D000EF90DF90CF90BF90AF900895DF93CF9393
:1041E000CDB7DEB72B970FB6F894DEBF0FBECDBFAD
:1041F000342F4F83252F588769877A878B87472FDE
:10420000582FFE01319686E0DF011D928A95E9F76D
:104210006B8339832A834C835D83432F522F8D8197
:104220009E810E942B242B960FB6F894DEBF0FBE02
:10423000CDBFCF91DF9108950F931F93009123027B
:1042400015C010E0F801EE0FFF1FE00FF11FEE0F99
:10425000FF1FEC5DFD4F408151816281738184813C
:1042600095810E940E1D0F5F1F4F077080912202E3
:10427000081739F71F910F91089540911C02509132
:104280001D0260911E0270911F0280912002909188
:1042900021020E940E1D08950F931F93CF93DF9369
:1042A0008091210282958F7009F06DC080911E026D
:1042B000882309F468C06091230200912202409192
:1042C0001F025091200210911D0270911C02EA0100
:1042D000C095D09555C04115510509F44FC01F3FF9
:1042E00049F480E090E07F3F11F481E090E0882382
:1042F00009F044C0262F30E0F901EE0FFF1FE20F56
:10430000F31FDF01AA0FBB1FAC5DBD4F11968C914F
:104310001197181799F58C91781781F5EE0FFF1FFB
:10432000EA5DFD4F8081882349F513968D919C911C
:1043300014978417950718F0841B950B02C08C0FF7
:104340009D1F883C9105D0F4809121028F7080617F
:1043500080932102F901EE0FFF1FE20FF31FEE0F12
:10436000FF1FE75DFD4F80818F70806180838CE14E
:1043700092E00E949D1E0E941C2105C06F5F677025
:10438000601709F0A8CFDF91CF911F910F91089589
:10439000DF92EF92FF920F931F93DF93CF93CDB7EE
:1043A000DEB76B970FB6F894DEBF0FBECDBF8C01A2
:1043B000DC011296DC9012974C9111965C9111974A
:1043C0001396ED90FC90149720911F0230912002DB
:1043D00060911D0270911C022115310509F4DBC1A9
:1043E0006F3F09F003C27F3F09F000C2D4C1E2165B
:1043F000F30640F0C701821B930B883C910508F03F
:10440000EEC008C0209530952E0D3F1D283C31058B
:1044100008F0E5C080912102807F09F095C06F3FD0
:1044200009F0EAC17F3F09F0E7C115C0741799F49C
:10443000DD2089F4809121028F70806180932102B8
:104440000E943D218CE192E00E949D1E80912102FC
:10445000F8018583BCC1FD82EC825A834983DB82EB
:10446000DE011696FE01319685E001900D92815095
:10447000E1F76885DE011B96FE01369685E0019026
:104480000D928150E1F72C853B858E859F85892B88
:1044900009F451C02F3F09F0B3C13F3F09F0B0C14B
:1044A0004AC0FD82EC825A834983DB82DE011B967F
:1044B000FE01319685E001900D928150E1F7FC8478
:1044C0007B856D8580912302909122021FC0282F49
:1044D00030E0F901EE0FFF1FE20FF31FDF01AA0F1B
:1044E000BB1FAC5DBD4F11968C911197F81651F41E
:1044F0008C91781739F4EE0FFF1FEA5DFD4F808134
:104500006817C9F42F5F3F4F822F87708917F9F61C
:104510008DC19F7059F0442349F459C19F7031F007
:10452000D80115968C91807F09F451C1405E4830C6
:1045300008F44DC148C1DD2009F449C18091210230
:1045400081608093210243C16F3F09F05DC17F3FCD
:1045500009F05AC114C0741791F4DD2081F48091E0
:104560002102F8018583C8010E949D1EACE1B2E0E2
:10457000F80186E001900D928150E1F720C15A8345
:10458000498389819A810E941E1D882309F41BC1D9
:10459000DD2009F418C130912102832F82958F709C
:1045A00090E002979CF090911D0220911C02FE0168
:1045B000709686E0DF011D928A95E9F7998B288B2A
:1045C000FC8AEB8A3D8BCF010E949D1EACE1B2E0DC
:1045D000F80186E001900D928150E1F7EEC08091E4
:1045E0002102807FA9F47E2DFD82EC825A834983CB
:1045F000DB826D2D8D810E94FF1C0CE112E0C80151
:104600000E949D1E86E0F80111928A95E9F7C0C0CC
:104610006F3F09F0FDC07F3F09F0FAC014C0741766
:1046200091F4DD2081F480912102D80115968C93BC
:10463000C8010E949D1EECE1F2E086E0DF011D92C0
:104640008A95E9F7BEC05A83498389819A810E947D
:104650001E1D882309F4B7C0DD2009F4B4C03091D1
:104660002102832F82958F7090E002979CF09091A9
:104670001D0220911C02FE01769686E0DF011D924C
:104680008A95E9F79F8B2E8BFA8EE98E3B8FCF01AF
:104690000E949D1EACE1B2E0F80186E001900D920F
:1046A0008150E1F78AC06F3F09F0B6C07F3F09F043
:1046B000B3C071C0E216F30640F0C701821B930B32
:1046C000883C910508F053C008C0209530952E0D08
:1046D0003F1D283C310508F04AC0DD2009F473C0B5
:1046E0006F3F09F09FC07F3F09F09CC029C074173D
:1046F00039F59091210290FD1AC0892F82958F7013
:10470000B1F0F80195838F3031F08F5F8295807F13
:104710009F70982B9583C8010E949D1EACE1B2E06A
:10472000F80186E001900D928150E1F748C0ACE1BC
:10473000B2E0F80186E001900D928150E1F741C0AE
:104740005A83498389819A810E941E1D882349F0DA
:10475000ACE1B2E0F80186E001900D928150E1F702
:104760002CC0809121028160809321022CC07E2D7B
:10477000FD82EC825A834983DB826D2D8D810E94FC
:10478000FF1CECE1F2E086E0DF011D928A95E9F77B
:104790000E943D211CC0DD20B1F05A8349838981EC
:1047A0009A810E941E1D882371F0ACE1B2E0F801ED
:1047B00086E001900D928150E1F70E944C210E9409
:1047C0003D2181E005C0C8010E949D1EFACF80E016
:1047D0006B960FB6F894DEBF0FBECDBFCF91DF91C1
:1047E0001F910F91FF90EF90DF90089580911E022E
:1047F000882309F458CFFBCD651709F02CCE16CECF
:10480000613009F498CE4DCE651709F0B8CEA3CE2D
:10481000651709F018CF03CF80911E02882309F095
:10482000BACF48CF651709F08BCF61CF5A83498340
:1048300089819A810E94AC25482F892F82958F709B
:10484000282F30E0223031050CF463CE24303105BE
:104850000CF0B9CF63CE0F931F93DF93CF93CDB7F7
:10486000DEB72C970FB6F894DEBF0FBECDBF4F83D7
:10487000588769877A878B879C878E01095F1F4FCE
:10488000C8010E94C8218823D9F028853F818A85E4
:104890009B85892B09F46BC02F3F49F480E090E0A1
:1048A0003F3F11F481E090E0882309F060C04F8120
:1048B000588569857A858B859C850E940E1D57C019
:1048C000DE011196F80186E001900D928150E1F72A
:1048D000F981EA814C815D814115510509F447C098
:1048E000EF3F09F04CC0FF3F09F049C040C0F983D9
:1048F000EA835D834C83F901EE0FFF1FE20FF31F84
:10490000EE0FFF1FEC5DFD4FDE01119686E00D906E
:1049100001928150E1F7609322020E941C2127C07E
:10492000919FC00111248C5D9D4F0E94C821882356
:1049300009F445C08091230290E0FC01EE0FFF1FB7
:10494000E80FF91FEE0FFF1FEC5DFD4F4081518115
:1049500062817381848195810E940E1D8091230262
:1049600090E00196877090708093230201C016E05A
:104970009091230280912202981791F620C0809195
:104980002202282F30E02F5F3F4FB901677070700F
:10499000215030408091230290E06817790709F098
:1049A000A6CF0E94601D1092220210922302ECE119
:1049B000F2E086E0DF011D928A95E9F7D8CF2C96C8
:1049C0000FB6F894DEBF0FBECDBFCF91DF911F9120
:1049D0000F910895CF92DF92EF92FF921F93CF93A2
:1049E000DF93EC01009709F466C010E090EAC92E4D
:1049F0009FE0D92E81E0E82EF12CFE0121969491C2
:104A0000943748F4943008F044C0913079F09230F3
:104A100009F051C01BC0953709F437C0953750F1E4
:104A2000892F8458803708F046C037C0FE01219690
:104A30009491892F805E883060F597708E2D01C02B
:104A4000880F9A95EAF70E944F270FC0FE01219622
:104A50009491892F805E883058F497708E2D01C014
:104A6000880F9A95EAF70E9455270E94742719C06B
:104A7000892F15C0FE01249104C0C6010197F1F7EA
:104A800021502223D1F721960CC0FE0121961491CA
:104A900008C0892F0E94C61D04C0892F8F770E94ED
:104AA000731D212F04C0C6010197F1F72150222365
:104AB00009F4A3CFF8CFDF91CF911F91FF90EF9032
:104AC000DF90CF90089508950895AF92BF92DF923E
:104AD000EF92FF920F931F93CF93DF935C01E090CF
:104AE0005402F090550200915602109157028091A5
:104AF000580290915902A0915A02B0915B02E82AA3
:104B0000F92A0A2B1B2BCFE1D0E0DC2ED801C701FC
:104B10000C2E04C0B695A795979587950A94D2F761
:104B200081709070892B39F08C2FB5010E9455133C
:104B30008130910531F421978FEFCF3FD80729F7C6
:104B4000DD248D2DDF91CF911F910F91FF90EF907C
:104B5000DF90BF90AF9008950F931F938C010E9438
:104B60006525B8010E9455131F910F910895CB013F
:104B70000E94AC2508956093580270935902809367
:104B80005A0290935B020E944B1D08959B01AC0159
:104B9000609158027091590280915A0290915B0283
:104BA00062277327842795270E94BB2508959B01C0
:104BB000AC01609158027091590280915A02909113
:104BC0005B0262237323842395230E94BB250895EF
:104BD0009B01AC01609158027091590280915A0278
:104BE00090915B02622B732B842B952B0E94BB252B
:104BF000089521E030E040E050E004C0220F331F70
:104C0000441F551F8A95D2F78091580290915902FE
:104C1000A0915A02B0915B02282739274A275B27C7
:104C2000CA01B9010E94BB25089521E030E040E0AF
:104C300050E004C0220F331F441F551F8A95D2F73E
:104C40002095309540955095809158029091590249
:104C5000A0915A02B0915B02282339234A235B2397
:104C6000CA01B9010E94BB25089521E030E040E06F
:104C700050E004C0220F331F441F551F8A95D2F7FE
:104C80008091580290915902A0915A02B0915B0212
:104C9000282B392B4A2B5B2BCA01B9010E94BB255B
:104CA000089521E030E040E050E004C0220F331FBF
:104CB000441F551F8A95D2F7CA01B9010E94BB252E
:104CC000089560E070E080E090E00E94BB250895C8
:104CD000609354027093550280935602909357024A
:104CE0000E944B1D08959B01AC016091540270918C
:104CF00055028091560290915702622773278427AC
:104D000095270E94682608959B01AC01609154028A
:104D1000709155028091560290915702622373233D
:104D2000842395230E94682608959B01AC0160911D
:104D30005402709155028091560290915702622B55
:104D4000732B842B952B0E94682608950E94682659
:104D50000895382F809132018823E1F080913D0140
:104D60008823C1F0832F8695869586958F3070F5C0
:104D7000E0913E01F0913F01E80FF11D377081E0B5
:104D800090E002C0880F991F3A95E2F72181282B05
:104D900021830895A0913E01B0913F01FD0120E0E3
:104DA0008FEF9281931791F08F3F19F4992309F4B3
:104DB000822F2F5F31962E30A1F78F3F39F0992740
:104DC00087FD9095A80FB91F12963C930895482F20
:104DD000809132018823E9F080913D018823C9F058
:104DE000842F8695869586958F3020F5E0913E013B
:104DF000F0913F01E80FF11D477081E090E002C0A3
:104E0000880F991F4A95E2F780952181822381833B
:104E1000089520E030E0E0913E01F0913F01E20F83
:104E2000F31F8281841709F412822F5F3F4F2E30C7
:104E3000310589F7089581E090E0E0913E01F0911D
:104E40003F01E80FF91F1082019680319105A9F703
:104E5000089580916C02089590916C02982B909324
:104E60006C020895809590916C02982390936C0247
:104E7000089580936C02089510926C0208959091A9
:104E80006F02982B90936F020895809590916F0216
:104E9000982390936F02089510926F020895909155
:104EA0006E02982B90936E020895809590916E02F9
:104EB000982390936E02089510926E020895809345
:104EC0006D02089510926D020895E0913E01F091F7
:104ED0003F0120E091E0818181112F5F9F5F31963A
:104EE0009031C9F7822F0895E0913E01F0913F0182
:104EF00080916C028083E0913E01F0913F018081BE
:104F000090916F02892B8083E0913E01F0913F01E7
:104F1000808190916E02892B808390916D029923FC
:104F200069F0E0913E01F0913F018081892B8083FF
:104F30000E946527882311F00E94622780913E011C
:104F400090913F010E94141C08959B01AC01AA2777
:104F5000BB270097A105B10521F4DA01C90160E082
:104F600001C060E1292F3A2F4B2F5527211531051C
:104F70004105510519F49C01AD0101C0685FDA01DA
:104F8000C90174E0B695A795979587957A95D1F75D
:104F90000097A105B10519F4DA01C90101C06C5FE0
:104FA0009C01AD01F2E05695479537952795FA9506
:104FB000D1F7211531054105510519F49C01AD01C9
:104FC00001C06E5F56954795379527952115310598
:104FD0004105510509F06F5F862F089508950895E2
:104FE0000E94601D0E94071C0E94971408958091E2
:104FF0008902843021F11092710220E488E190E06E
:105000000FB6F894A895809360000FBE20936000BF
:1050100080E00E94971483B7817F846083BF83B749
:10502000816083BF7894889583B78E7F83BF88E142
:105030000FB6F89480936000109260000FBE089540
:105040001F930E94EE270E9482110E94EF2710E01A
:10505000812F0E943611882311F081E004C01F5F68
:105060001E30B1F780E01F91089582E084BD93E087
:1050700095BD9AEF97BD80936E0008958FB7F89411
:105080002091720230917302409174025091750226
:105090008FBFC9010895EF92FF920F931F93BC0138
:1050A0008FB7F894E0907202F0907302009174024E
:1050B000109175028FBFA801970140705070CB010D
:1050C000A0E0B0E0281739074A075B0720F09701F6
:1050D000261B370B05C09B01209530952E0D3F1DDB
:1050E000C9011F910F91FF90EF9008951F920F92A9
:1050F0000FB60F9211248F939F93AF93BF9380911C
:10510000720290917302A0917402B091750201969F
:10511000A11DB11D8093720290937302A09374023B
:10512000B0937502BF91AF919F918F910F900FBE79
:105130000F901F9018950E94ED18F89480E29EE45D
:1051400020E931E0F9013197F1F70197D9F787E0CC
:1051500090EBA7E0B0EB8093920290939302A09320
:105160009402B09395022CE088E190E00FB6F89499
:10517000A895809360000FBE20936000FFCFEF9250
:10518000FF920F931F93CF93DF93082F10E0812F8F
:105190000E943611C0E0D0E0E82EFF24C7010C2E9B
:1051A00002C0959587950A94E2F780FF09C080E0D8
:1051B0006C2F712F0E942D13081711F481E008C085
:1051C0002196C630D10551F71F5F1E3001F780E0F0
:1051D000DF91CF911F910F91FF90EF9008951F9352
:1051E000182F8CE20E94BF28882319F0812F0E947B
:1051F000BF281F9108951F93CF93DF930E94692AC0
:10520000882311F40E94742A14E6C0E4DCE905C086
:105210000E948211CE010197F1F71150C8F789E27F
:105220000E94EF28882309F02FC18AE20E94EF280C
:10523000882311F00E94742A85E00E94EF288823B9
:1052400011F00E949B280E94642A8093700287E0DC
:105250000E94EF288823B9F18BE10E94EF28882370
:1052600049F090917002892F869580958170880F02
:105270009D7F26C08EE00E94EF28882359F09091F0
:105280007002892F8695869580958170880F880F8A
:105290009B7F16C080E10E94EF28909170028823C6
:1052A00059F0892F86958695869580958170880F0F
:1052B000880F880F977F04C0892F809581709E7F0B
:1052C000982B90937002809170020E94542A0E9441
:1052D0005A2A8093830280EE0E94EF28882349F0A7
:1052E00080918302982F909591708E7F892B809367
:1052F000830289E30E94EF28882359F0909183026A
:10530000892F869580958170880F9D7F982B90932B
:10531000830282EE0E94EF28882369F09091830235
:10532000892F8695869580958170880F880F9B7F41
:10533000982B9093830286EE0E94EF28882379F0C1
:1053400090918302892F86958695869580958170A8
:10535000880F880F880F977F982B9093830283EE96
:105360000E94EF28882369F090918302892F82950B
:105370008F70809581708295807F9F7E982B90930F
:10538000830285E30E94EF28882379F090918302BD
:10539000892F829586958770809581708295880F78
:1053A000807E9F7D982B9093830281E30E94EF285B
:1053B000882389F090918302892F8295869586951E
:1053C0008370809581708295880F880F807C9F7B89
:1053D000982B9093830281E10E94EF28882379F033
:1053E00080918302982F991F9927991F21E0922776
:1053F0009795992797958F77892B80938302809132
:1054000083020E94482A80918302881F8827881F70
:1054100080933D0187E20E94EF28182F8EE10E94C1
:10542000EF28811112608FE10E94EF288111146032
:1054300080E20E94EF288111186081E20E94EF282B
:105440008111106182E20E94EF288111106283E2D3
:105450000E94EF288111106484E20E94EF288111DC
:105460001068112341F0812F0E944E2A612F70E0B5
:1054700080E090E007C00E945F2A90E0A0E0B0E0EA
:10548000BC01CD010E94A626DF91CF911F91089506
:10549000682F84E090E00E94D8300895682F83E060
:1054A00090E00E94D8300895682F82E090E00E943A
:1054B000D830089584E090E00E94CA30089583E0D7
:1054C00090E00E94CA30089582E090E00E94CA30C5
:1054D000089580E090E00E94D23020E08D5E9E4FE3
:1054E00009F421E0822F089580E090E06DEE7EEFD8
:1054F0000E94E63082E090E060E00E94D83083E0D5
:1055000090E060E00E94D83084E090E060E00E948B
:10551000D83085E090E060E00E94D8300895809116
:105520007C0280FF0BC09091420185E0989FC001F2
:105530001124959587959595879530C081FF09C071
:105540009091420185E0989FC0011124959587951F
:1055500025C082FF03C0909142010DC080917B0263
:10556000882319F485E090E00895609143019091BB
:105570004201861728F085E0989FC00111240EC0D3
:10558000899F90011124C901880F991F880F991FC5
:10559000820F931F70E00E94A330CB0180389105E9
:1055A00010F08FE70895009709F481E00895809145
:1055B0007C0280FF05C0809144018695869518C0C5
:1055C00081FF04C080914401869512C082FF03C010
:1055D000809144010DC020917B02222319F481E0C7
:1055E00090E008956091450180914401261710F0E4
:1055F00090E007C0289FC001112470E00E94A330F2
:10560000CB018038910510F08FE70895009709F4D9
:1056100081E00895803F21F40E948F2A819504C083
:10562000813F29F40E948F2A809378020895823F57
:1056300021F40E948F2A819504C0833F29F40E949F
:105640008F2A809377020895893F19F40E94D72A00
:1056500005C08A3F31F40E94D72A81958093790250
:1056600008958B3F21F40E94D72A819504C08C3F76
:1056700029F40E94D72A80937A020895843F21F466
:1056800080917602816017C0853F21F48091760277
:10569000826011C0863F21F48091760284600BC045
:1056A000873F21F480917602886005C0883F31F4FD
:1056B0008091760280618093760208958D3F21F477
:1056C00080917C02816005C08E3F31F480917C0224
:1056D000826080937C0208958F3F29F480917C0240
:1056E000846080937C020895803F29F48091780241
:1056F00087FF6FC007C0813F41F480917802181680
:105700000CF067C01092780264C0823F29F4809147
:10571000770287FF5EC007C0833F41F48091770224
:1057200018160CF056C01092770253C0893F29F426
:105730008091790218163CF04CC08A3F39F4809170
:10574000790287FF46C01092790243C08B3F29F44B
:1057500080917A0287FF3DC006C08C3F39F480916A
:105760007A021816B4F510927A0233C0843F21F4FD
:10577000809176028E7F05C0853F31F4809176025C
:105780008D7F8093760225C0863F21F4809176023A
:105790008B7FF7CF873F21F480917602877FF1CF0F
:1057A000883F21F4809176028F7EEBCF8D3F21F4EC
:1057B00080917C028E7F0BC08E3F21F480917C0211
:1057C0008D7F05C08F3F29F480917C028B7F809371
:1057D0007C0280917702882371F48091780288237B
:1057E00051F480917902882331F480917A028823E0
:1057F00011F410927B020895E6E7F2E085E0DF0104
:105800001D928A95E9F710927B0210927C0208950E
:1058100086E792E00E941F1C0E943E2890937E0221
:1058200080937D0208951F9380917D0290917E0266
:105830000E944B28AC0120917B02222321F0809111
:10584000410190E006C0909140018AE0989FC0011C
:1058500011244817590708F485C0909177029923BD
:1058600069F480917802882349F480917902882331
:1058700029F480917A02882309F474C02F3F19F02B
:105880002F5F20937B02191624F40E948F2A8093A5
:1058900077028091770287FF05C00E948F2A819549
:1058A0008093770280917802181624F40E948F2A40
:1058B000809378028091780287FF05C00E948F2A2A
:1058C00081958093780260917702662339F1109177
:1058D0007802112319F1772767FD7095872F972F8D
:1058E0000E94B42F23E333E343E35FE30E941830C5
:1058F0000E94812F60937702612F772767FD709553
:10590000872F972F0E94B42F23E333E343E35FE312
:105910000E9418300E94812F609378028091790252
:10592000181624F40E94D72A809379028091790274
:1059300087FF05C00E94D72A8195809379028091C4
:105940007A02181624F40E94D72A80937A02809152
:105950007A0287FF05C00E94D72A819580937A0238
:105960000E94082C1F91089580E0089580E008951A
:10597000833099F1843030F4813069F0823009F05D
:105980006FC01AC0853009F44AC08530B8F186303E
:1059900009F066C055C020914001822F90E0860F2B
:1059A000911D8F3F910520F4260F2093400108950B
:1059B0008FEF80934001089520914101822F90E064
:1059C000860F911D8F3F910520F4260F20934101F2
:1059D00008958FEF80934101089520914201822F15
:1059E00090E0860F911D8F3F910520F4260F2093A4
:1059F000420108958FEF8093420108952091430161
:105A0000822F90E0860F911D8F3F910520F4260F85
:105A10002093430108958FEF8093430108952091CF
:105A20004401822F90E0860F911D8F3F910520F455
:105A3000260F2093440108958FEF80934401089529
:105A400020914501822F90E0860F911D8F3F910597
:105A500020F4260F2093450108958FEF8093450190
:105A60000895833031F1843030F4813061F0823038
:105A700009F04AC013C0853091F1853028F1863095
:105A800009F042C037C080914001681720F4861B9E
:105A90008093400108951092400108958091410142
:105AA000681720F4861B80934101089510924101EC
:105AB000089580914201681720F4861B809342016B
:105AC000089510924201089580914301681720F4CF
:105AD000861B80934301089510924301089580919D
