:100000000C94410D0C94850D0C94850D0C94850D6C
:100010000C94850D0C94850D0C94850D0C94850D18
:100020000C94850D0C94850D0C940A190C94DC1914
:100030000C94850D0C94850D0C94850D0C94850DF8
:100040000C94850D0C94B92E0C94850D0C94850D93
:100050000C94850D0C9458280C94850D0C94850DEA
:100060000C94850D0C94850D0C94850D0C94850DC8
:100070000C94850D0C94850D0C94850D0C94850DB8
:100080000C94850D0C94850D0C94850D0C94850DA8
:100090000C94850D0C94850D0C94850D0C94850D98
:1000A0000C94850D0C94850D0C94850D411A631AE2
:1000B0004E1B631A4E1BA51AC81A4E1B1D1B301B64
:1000C0002A1E2A1E6B1E6B1EAD1EE91EE920E920AA
:1000D000011FE920F81FF81FC320E920E920D720DD
:1000E0000000F0A22E004C002A00E1003582000042
:1000F0001E00140004001D7134004D001F001A0082
:1001000016001B00E1042A0020000800070006007A
:1001100050002C0021001500090019004F004A0072
:10012000220017000A000500000065740000025458
:100130000000007F0000E30001540254000000773B
:100140000000E20023001C000B00110000002971D8
:10015000240018000D00100052004B0025000C0078
:100160000E00360051002800260012000F00370054
:100170002F002B00270013003300387130004E0091
:100180002D0031003478E500C10000000252E20089
:10019000E00000300030000000302B000030003064
:1001A00000300030003000300030003000300030CF
:1001B00000300030003000300100003000300030EE
:1001C00000300030010000300030003000300030DE
:1001D000000000302A000030000000300000003035
:1001E000010000300000003000000030003000301E
:1001F00000300030000000300030003000300030AF
:1002000001000030003000300030003001000030CC
:10021000003000300030003000300030003000305E
:1002200000300030003000304C00E600E4000030C8
:1002300000300000010001000100E10001000000A9
:100240003A00010001000100010001003B00010033
:1002500001000100010001003C000100010001005B
:100260004E0001003D000100010001004B000100B3
:100270003E00010001000100000001003F000100FC
:10028000000001000000010040000100000001002A
:100290000000010041000100010001000000010018
:1002A00042000100010001004A000100430001007A
:1002B000010001004D0001004400010001000100A7
:1002C0000100010045000100010001000100005093
:1002D000000001000100E500010000000000000036
:1002E00000000000000000002000008020000080CE
:1002F000000000008400008000000000300000804A
:1003000021000080210000805200008080000080D9
:1003100032000080310000804000008041000080F9
:100320005000008081000080330000804200008087
:100330004300008000000000110000808200008067
:100340003400008044000080450000800000000070
:10035000510000808300008035000080460000804E
:100360004700008000000000100000800000000036
:10037000B2000080000000001000008000000000BB
:100380001000008000000000B000008000000000AD
:10039000B00000800000000010000080930000808A
:1003A000A500008060000080610000800000000067
:1003B0001000008092000080A40000806200008095
:1003C0006300008000000000520000809100008067
:1003D000A300008064000080650000800000000031
:1003E0001100008090000080A2000080A100008029
:1003F0006600008067000080540000809400008048
:1004000000000000A00000807000008071000080EB
:100410005300008000000000000000000000000009
:1004200072000080720000800000000000000000E8
:1004300000000000000000000000000000000000BC
:1004400000000000000000000000000000000000AC
:10045000000000000000000000000000000000009C
:10046000000000000000000000000000000000008C
:10047000000000000000000000000000000000007C
:10048000000000000000000000000000000000006C
:10049000000000000000000000000000000000005C
:1004A000000000000000000000000000000000004C
:1004B000000000000000000000000000000000003C
:1004C000000000000000000000000000000000002C
:1004D000000000000000000000000000000000001C
:1004E000000000000000000000000000000000000C
:1004F00000000000000000000000000000000000FC
:1005000000000000000000000000000000000000EB
:1005100000000000000000000000000000000000DB
:1005200000000000000000000000000000000000CB
:1005300000000000000000000000000000000000BB
:1005400000000000000000000000000000000000AB
:10055000000000000000000000000000000000009B
:10056000000000000000000000000000000000008B
:10057000000000000000000000000000000000007B
:1005800000003700000000003700000000003302C8
:100590000000000026020000000000000000000033
:1005A00036020000000000000000000034000000DF
:1005B000000000000000000000000000000000003B
:1005C00000000000340200000000000000000000F5
:1005D00000000000000000000000000027020000F2
:1005E000000000000000000000000000000000000B
:1005F000000000002602270250000000000000005A
:1006000000000000000000000000000000000000EA
:1006100000000000000000000000000000000000DA
:1006200000000000000000000000000000000000CA
:100630000000000000000000000000003802000080
:1006400000000000000000000000000000000000AA
:100650000000000037020000000000000000000061
:100660003602370250000000000000003400340061
:10067000500000000000000000000000000000002A
:1006800000000000340234025000000000000000AE
:100690000000000000000000000000001E0200003A
:1006A000000000000000000000000000000000004A
:1006B000000000000000000000000000000000003A
:1006C000000000000000000000000000000000002A
:1006D000000000000000000000000000000000001A
:1006E000000000000000000000000000000000000A
:1006F00000000000000000000000000000000000FA
:1007000000002602000000002D0200000000000092
:10071000000000002702000000002602270200005F
:100720000000000000000000000000002D0000009C
:1007300000000000000000000000000000000000B9
:1007400000000000000000000000000000000000A9
:100750000000000000000000000000003700000062
:100760000000000000000000000000000000000089
:100770000000000027023700000026022702370091
:100780000000000000000000000000000000000069
:100790000000000000000000000000000000000059
:1007A0000000000000000000000000000000000049
:1007B0000000000000000000000000003600000003
:1007C0000000000000000000000000000000000029
:1007D0000000000027023600000026022702360033
:1007E0000000000000000000000000000000000009
:1007F00000000000000000000000000000000000F9
:1008000000000000000000000000000000000000E8
:1008100000000000000000000000000033000000A5
:1008200000000000000000000000000000000000C8
:1008300000000000270233000000260227023300D8
:1008400000000000000000000000000000000000A8
:100850000000000000000000000000000000000098
:100860000000000000000000000000000000000088
:100870000000000000000000000000000000000078
:1008800000003300000000003400160000003400B7
:100890001000000037000000000000000000000011
:1008A00011003400170000000000000036000000B6
:1008B000000000000000000034000F000F000000E6
:1008C0000000000000000000000000000000000028
:1008D00000000000000000000000000030020000E6
:1008E00000000000000000003400190008000000B3
:1008F00000000000000000000000000000000000F8
:1009000000000000000000000000000000000000E7
:1009100000000000000000000000000000000000D7
:1009200000000000000000000000000000000000C7
:10093000000000000000000000000000270200008E
:10094000000000000000000034000700000000006C
:100950000000000000000000000000000000000097
:100960000000000000000000000000000000000087
:100970000000000000000000000000000000000077
:100980000000000000000000000000000000000067
:100990000000000000000000000000003000000027
:1009A0000000000000000000000000000000000047
:1009B0000000000000000000000000000000000037
:1009C0000000000000000000000000000000000027
:1009D0000000000000000000000000000000000017
:1009E0000000000000000000000000000000000007
:1009F00000000000000000000000000000000000F7
:100A000000001E020000000029000000000000009D
:100A100000000000250200000000000000000000AF
:100A20000000000000000000000000002D02000097
:100A300000000000000000000000000000000000B6
:100A400000000000000000000000000000000000A6
:100A50000000000000000000000000002F02000065
:100A60000000000000000000000000000000000086
:100A70000000000000000000000000000000000076
:100A80000000000000000000000000000000000066
:100A90000000000000000000000000000000000056
:100AA0000000000000000000000000000000000046
:100AB000000000000000000000000000260200000E
:100AC0000000000000000000000000000000000026
:100AD0000000000000000000000000000000000016
:100AE0000000000000000000000000000000000006
:100AF00000000000000000000000000000000000F6
:100B000000000000000000000000000000000000E5
:100B10000000000000000000000000002F000000A6
:100B200000000000000000000000000000000000C5
:100B300000000000000000000000000000000000B5
:100B400000000000000000000000000000000000A5
:100B50000000000000000000000000000000000095
:100B60000000000000000000000000000000000085
:100B70000000000000000000000000000000000075
:100B800000001E00000000001F0000000000200008
:100B90000000000021000000000022000000000012
:100BA00023000000000024000000000025000000D9
:100BB00000002600000000001E00270000001E00AC
:100BC0001E0000001E001F0000001E00200000008C
:100BD0001E00210000001E0022000000270000006F
:100BE00000001E00270000001F002700000020005A
:100BF000270000002100270000002200270000003D
:100C00002300270000002400270000002500270003
:100C100000002600270000001E00270027001E00FD
:100C20001E0027001E001F0027001E0020002700B6
:100C30001E00210027001E002200270000000000E7
:100C400000001E00000000001F0000000000200047
:100C50000000000021000000000022000000000051
:100C60002300000000002400000000002500000018
:100C700000002600000000001E00270000001E00EB
:100C80001E0000001E001F0000001E0020000000CB
:100C90001E00210000001E002200000027000000AE
:100CA00000001E00270000001F0027000000200099
:100CB000270000002100270000002200270000007C
:100CC0002300270000002400270000002500270043
:100CD00000002600270000001E00270027001E003D
:100CE0001E0027001E001F0027001E0020002700F6
:100CF0001E00210027001E00220027000000000027
:100D000000002C00000000002B000000000000008C
:100D100000000000280000000000000000000000AB
:100D200000000000000000000000000000000000C3
:100D30000008000000001C00000000081C0000006B
:100D4000160000000008160000001C160000000835
:100D50001C1600000000000000150000000011003B
:100D600000000015110000000F00000000150F002A
:100D7000000016000000000F0F0000000A00000035
:100D800000150A000000110A0000000A110000000E
:100D90000F0A00000000000000000700000000072C
:100DA0000F000000060000000015060000001106FC
:100DB00000000000000000001300000000151300F8
:100DC00000001613000000130F00000005000000D3
:100DD0000015050000000A0A0000000000000000E5
:100DE000050F000000000000000000000000000FE0
:100DF000050000000B000000001A000000001900B0
:100E00000000001A110000001D000000001A0F0071
:100E10000000160B0000000F190000000A0B000074
:100E200000150A0B00001000000000151000000063
:100E30001B00000000000000000016100000000F62
:100E400010000000060B00000015060B0000110644
:100E50000B00001519000000130B0000000000003B
:100E6000000000000000000F060B00000900000059
:100E7000001509000000100500000000000000003F
:100E80000F09000000000000000010130000000027
:100E900000000000170000000015170000001117E7
:100EA00000000015111700000F17000000000000DF
:100EB0000000161700000015161700000E000000B5
:100EC00000150E000000110E0000000000000000E0
:100ED0000E0F0000000000000000160E0000000FC2
:100EE0000E00000006170000000000000000170CB4
:100EF00012110000000000001317000000000000A5
:100F0000000011161700000F13000000060E00006D
:100F100000000000000005170000000000000000B5
:100F2000060E0F000000000000000000000000009E
:100F300000000000170B00000015170B0000111730
:100F40000B00001A170B00000F170B000000000029
:100F50000000000000000000000000000A0B170065
:100F6000001A0E000000110A170B0000000000001C
:100F70001B17000000000000000007170B00000016
:100F80000000000017060B00000000000000000039
:100F9000000000000000000013170B00000000001C
:100FA0000000000000000000000000000917000021
:100FB0000000000000000000000000000000000031
:100FC00000000000000000000000101317000000E7
:100FD00000000000160000000015160000001116A9
:100FE00000000015111600000F16000000150F1666
:100FF000000016160000000F0F1600000A16000071
:1010000000150A160000110A1600000A1116000049
:1010100000000000000000000000071600000000B3
:10102000000000000616000000150616000011065C
:10103000081600000000000013160000001513162B
:1010400000001613160000130F0816000516000006
:101050000015051600000A0A160000000000000036
:10106000050F081600000000000000000000000F3F
:10107000051600000B160000001A160000001908E3
:101080001600001A111600001D081600001A0F168F
:101090000000160B0816000F190816000A0B1600A0
:1010A00000000000000010160000001510160000DF
:1010B0001B08160000000000000016101600000FAC
:1010C00010160000070000000015070000001107BF
:1010D0000000001A07000000130B160000150F0790
:1010E000000000000000000F07000000070A0000D9
:1010F00000000000000010051600000000000000C5
:1011000000000000000000000000101316000000A6
:101110000000000017160000001517160000111738
:1011200016000000000000000F171600000000006D
:101130000000161716000015161716000E160000F0
:1011400000150E160000110E160000000000000031
:1011500000000000000000000000160E1600000F46
:101160000E16000006171600000000000000170C05
:101170001211160000000000000000000000000036
:10118000000000000000000F13160000060E1600FD
:10119000000000000000051716000000000000001D
:1011A000060E0F08160000000000000000000000FE
:1011B00000000000170B16000015170B1600111782
:1011C0000B16001A170B16000000000000000000AC
:1011D0000000000000000000000000000A0B1716CD
:1011E000001A0E160000110A170B1600000000006E
:1011F0000000000000000000000007170B160000B0
:101200000000000007160000001507160000110777
:101210001600001A0716000013170B1600150F070B
:10122000160000000000000F07160000000000007C
:1012300000000000000000000000000000000000AE
:10124000000000000000000000001013171600004E
:10125000000000000000000000080800000012125A
:101260000000001208000000040400000004080050
:10127000000004120000000804120000181800000A
:1012800000180800000018120000000818120000E2
:1012900018040000000818040000121804000008D8
:1012A000121804000C0C0000000C080000000C12C6
:1012B000000000080C1200000C04000000080C04E0
:1012C0000000120C04000008120C04000C180000AE
:1012D00000080C1800000C1218000008120C18006E
:1012E000040C18000008040C180012040C18000864
:1012F00012040C180000000000080000000012009A
:1013000000000008120000000400000000080400B3
:101310000000120400000008120400001800000081
:101320000008180000001218000000081218000041
:101330000418000000080418000012041800000837
:10134000120418000C00000000080C000000120C31
:1013500000000008120C0000040C00000008040C3F
:10136000000012040C00000812040C00180C00000D
:101370000008180C000012180C00000812180C00CD
:1013800004180C00000804180C001204180C0008C3
:101390001204180C000000000004000000001600F9
:1013A0000000000416000000060000000004060013
:1013B00000001606000000041606000017000000DA
:1013C00000041700000016170000000416170000A4
:1013D000070000000004070000000A0000000004ED
:1013E0000A0000001A00000000041A000000161A8B
:1013F00000000000000000001300000000041300C3
:10140000000016130000000416130000171A000055
:101410000004171700001B00000000041B00000060
:10142000071A00000004070700000A1A0000000461
:101430000A0A00000B00000000040B000000160B5D
:1014400000000004160B0000060B00000004060B51
:10145000000016060B00000000000000170B000043
:101460000004170B000000000000000416170B001A
:10147000090000000004090000000A0B000000043D
:101480000A0B00001A0B000000041A0B00000000F9
:101490000000000000000000130B00000004130B0C
:1014A000000016130B00000416130B000E000000C2
:1014B00000040E000000160E00000004160E0000CE
:1014C000050000000004050000000000000000040A
:1014D00005050000110000000004110000001611B5
:1014E00000000004111100001D00000000041D0098
:1014F0000000161600000004161600001900000077
:10150000000419000000161900000000000000008F
:10151000070819000004071900000A110000000460
:101520000A11000010000000000410000000161056
:101530000000000416100000131100000004101039
:101540000000000000000004131300000D00000064
:1015500000040D000000000000000000000000007A
:10156000070810000004071000000000000000043D
:10157000070D00001C00000000041C000000161CE9
:1015800000000004161C0000061C000000040606F3
:10159000000000000000000000000000171C000018
:1015A00000000000000016171C00000000000000F2
:1015B000071C00000004090900000A1C00000004C8
:1015C00009170000101C00000000000000000000CF
:1015D0000000000000000000131C000000000000DC
:1015E000000016131C00000416130B1C0E11000043
:1015F0000004060E11001B1C00000000000000008B
:10160000051C00000004051C000000000000000094
:10161000000000001500000000041500000016087E
:10162000150000041515000006150000000406153D
:101630000000160615000004160615001715000018
:101640000004171500001617150000000000000028
:10165000071500000004071500000A15000000042B
:101660000A1500001A15000000000000000000002C
:101670000000000000000000131500000004131516
:1016800000001613150000041313150000000000DD
:101690000004171715001B150000000000000000D3
:1016A00007081500000407071500000000000004EB
:1016B0000A0A1500150B0000000000000000160BC0
:1016C0001500000000000000060B150000040606CF
:1016D000150000000000000000000000170B1500BE
:1016E0000004170B0F0000000000000000000000C5
:1016F00009150000000409150000000000000004A6
:1017000009091500000000000000000000000000B2
:101710000000000000000000130B15000004130B74
:101720001500000000000000000000000E15000081
:1017300000000000000000000000000000000000A9
:10174000051500000004051500000000000000045D
:10175000050515000F00000000040F000000160F23
:1017600000000004160F0000060F00000004060F22
:101770000000000000000000000000001400000055
:1017800000041400000016140000000416140000E9
:1017900007080F000004061400000A0F00000004F0
:1017A0000A0F00001015000000040F0F00000000D9
:1017B0000000000000000000130F00000004130FE1
:1017C000000016130F00000413130F000D0815007E
:1017D00000000000000016081519000000000000BD
:1017E00000000000000407070F00000000000004D4
:1017F0000A0A0F000F1C0000000000000000160F76
:101800001C0000000000000006151C000004060675
:101810000F000000000000000000000017151C0071
:101820000000000000001617151C0000000000005A
:10183000090F00000004090F000000000000000470
:1018400009090F0000000000000000000000000077
:101850000000000000000000130B0F00000000005B
:101860000000000000000000000000000E0F00005B
:101870000000000000000000000000000000000068
:10188000050F00000004050F00000000000000002C
:101890000000000016034500720067006F0044005E
:1018A0006F007800200045005A0000001603450034
:1018B000720067006F0044006F0078002000450050
:1018C0005A0000000403090409026D00040100A08D
:1018D000FA090400000103010100092111010001BE
:1018E000223F000705810308000A090401000103E3
:1018F000010200092111010001224D0007058203A8
:1019000008000A0904020001030000000921110176
:1019100000012236000705830308000A09040300BA
:10192000010300000009211101000122390007050F
:1019300084031000011201100100000008EDFE07F1
:101940001301000102000105010906A101050719A3
:10195000E029E715002501950875018102050819A0
:101960000129059505750191029501750391010500
:10197000071900297715002501957875018102C0A6
:1019800005010980A101850216010026B7001A0190
:10199000002AB700751095018100C0050C0901A14E
:1019A000018503160100269C021A01002A9C02757B
:1019B0001095018100C005010902A1010901A100E2
:1019C00005091901290515002501950575018102F3
:1019D0009501750381010501093009311581257FC4
:1019E00095027508810609381581257F95017508CE
:1019F0008106050C0A38021581257F95017508813D
:101A000006C0C005010906A101050719E029E7156F
:101A10000025019508750181029501750881010570
:101A20000819012905950575019102950175039124
:101A3000010507190029FF150025FF950675088186
:101A400000C00000000000000000000000010204CF
:101A5000060A0F17202C3A4A5D71879DB3C7DAE951
:101A6000F5FCFFFCF5E9DAC7B39D87715D4A3A2CB6
:101A700020170F0A06040201000000000000000009
:101A8000000011241FBECFEFDAE0DEBFCDBF04B6E9
:101A900003FE24C08091B0029091B102A091B202E5
:101AA000B091B3028730904BA740B04BB9F410927D
:101AB000B0021092B1021092B2021092B30214BEA0
:101AC00084B7877F84BF88E10FB6F8948093600065
:101AD000109260000FBEE0E0FFE3099511E0A0E086
:101AE000B1E0E6EFF0E602C005900D92AC37B10729
:101AF000D9F712E0ACE7B1E001C01D92A03BB107FD
:101B0000E1F70E9450160C9479300C9400008091FB
:101B1000F1019091F201A091F301B091F401892BB0
:101B20008A2B8B2B69F481E04091ED015091EE01FD
:101B30006091EF017091F001452B462B472B09F086
:101B400080E0817008950F931F93CF93DF931F92CE
:101B5000CDB7DEB7182F69830E940327082F812F86
:101B60000E9413276981862F0E94B21C802F0F903C
:101B7000DF91CF911F910F910C9413272F923F92D9
:101B80004F925F926F927F928F929F92AF92BF928D
:101B9000CF92DF92EF92FF920F931F93CF93DF9339
:101BA00000D000D0CDB7DEB70E940327898382E141
:101BB0000E940C278091E2015090E601282F2170AD
:101BC000622E82708A838091E301882371F08824D9
:101BD0008394823009F0812C77247394833009F048
:101BE000712C82E00E94062702C0712C812C80E0BB
:101BF000C82E81E0D82E91EEA92E91E0B92E1C823C
:101C00001B82412C912CF50181915F01882309F4FD
:101C10009BC0442443942B813C812130310509F43D
:101C2000412CEB81FC81EA5BFE4F90812B813C8152
:101C30002530310519F461101DC018C02B813C817D
:101C40002430310549F4662089F051100FC0869583
:101C500086950CEF16E0CCC02B813C8126303105F7
:101C600029F4662019F0552009F4C0C0F60100815E
:101C7000118102C004E512E10115110509F464C0E7
:101C8000913009F0B9C0F5E08F9F000D111D1124AE
:101C9000E12CF12C212C8E2DF801EE0DFF1D34903E
:101CA0003320A9F0832D0E94B21C832D0E947A1D3F
:101CB0009394882019F021E0921629F07720E1F022
:101CC00032E0931219C082E00E940C2715C09A815D
:101CD000992309F439C08130B9F52B813C81263034
:101CE000310591F5222081F1822D0E94B21C822DB6
:101CF0000E947A1D939428C03FEFE31AF30A85E00F
:101D0000E816F10409F1232CC6CF8CEF800F8A313D
:101D100008F07BC0802F0E94B21C802F0E947A1D89
:101D20009394811077C0711079C0F2E0EF0EF11C2E
:101D300026E0E216F10441F0F101EE0DFF1D0591E0
:101D400014910115110509F72B813C812F5F3F4F3D
:101D50003C832B8332E0C30ED11C2B813C812C3081
:101D6000310509F050CF992099F080917C0184369B
:101D700011F410927C01E0917C0181E08E0F809340
:101D80007C01FF27E7FDF095E358FE4F908223C0CA
:101D9000662009F141101FC010917C01115017FD00
:101DA00013E6C12EDD24C7FCD094C60183589E4F94
:101DB0006C01FC01F080FF2071F000E08AE20E94DB
:101DC000B21C8AE20E947A1D0F5F0F11F7CFF60155
:101DD000108210937C0189810E941327E1EEF1E0CB
:101DE000119221E0ED3EF207D9F71FC00CE715E094
:101DF0000115110509F4A8CF180136E0839F200CC6
:101E0000311C1124E12CF12C97CF602F812F0E94DF
:101E1000A30D83CF91E0991286CF03C0E2E09E121A
:101E200084CF82E00E940C2780CF0F900F900F90FC
:101E30000F90DF91CF911F910F91FF90EF90DF9066
:101E4000CF90BF90AF909F908F907F906F905F905A
:101E50004F903F902F9008957F928F929F92AF92D4
:101E6000BF92CF92DF92EF92FF920F931F93CF9387
:101E7000DF93EC016111C2C08981488150E0682F75
:101E800070E0FA0136E0839FE00DF11D1124EE0FA2
:101E9000FF1FEE0FFF1FE452FD4F85919591A59115
:101EA000B4910097A105B10509F4A8C02A81B7FF34
:101EB00063C0AC014F705527C12CD12C7601C3945F
:101EC00004C0CC0CDD1CEE1CFF1C4A95D2F764E06C
:101ED000B695A795979587956A95D1F7382F3F7056
:101EE000732E032F10E0D801AE5ABE4FF801EE0F4B
:101EF000FF1FE85EFE4FC081D181460157010C9063
:101F000004C0880C991CAA1CBB1C0A94D2F722237B
:101F1000C9F082E0381303C081EE0E94B21C8881B0
:101F20009981AA81BB8188299929AA29BB298883FB
:101F30009983AA83BB83F801EF51FE4F80818C29DE
:101F400080835CC080949094A094B094488159811F
:101F50006A817B81482159216A217B2148835983E9
:101F60006A837B830E94870D81110E94BE0D92E0DF
:101F7000791244C081EE2CC036E0369FF001379FC5
:101F8000F00D1124E40FF51FEE0FFF1FEE0FFF1FE2
:101F9000E45DFB4FC590D590E590F490C114D10459
:101FA000E104F104E9F0CC2DE0911C01F0911D0158
:101FB000408151816281738144275527662770765D
:101FC000452B462B472B39F40CC00E947A1D8C2DD3
:101FD0000E947A1D13C02223C1F36C2D8D2D05C0E4
:101FE000C0E0222329F0682F892F0E94A30D06C08C
:101FF0000E947A1DCC2311F08C2FEACF80E090E074
:10200000DF91CF911F910F91FF90EF90DF90CF90D4
:10201000BF90AF909F908F907F90089508956091AA
:1020200072027091730280917402909175020E9405
:102030008127569A5E9A25982D9826982E9827984B
:102040002F98813029F0823029F4269A2E9A02C0E6
:10205000259A2D9A0E94870D811102C0279A2F9AE6
:1020600008950C940F1056985E9825982D982698F0
:102070002E9827982F988FEF90E090938900809367
:10208000880090938B0080938A0090938D008093BA
:102090008C00259A2D9A2FEF80E792E02150804006
:1020A0009040E1F700C00000269A2E9A2FEF80E7BB
:1020B00092E0215080409040E1F700C00000279A54
:1020C0002F9A2FEF80E792E0215080409040E1F777
:1020D00000C0000025982D982FEF80E792E0215056
:1020E00080409040E1F700C0000026982E982FEF26
:1020F00080E792E0215080409040E1F700C000006E
:1021000027982F9856985E9825982D9826982E985F
:1021100027982F98089589EA8093800089E080931A
:10212000810024982C983F988AB18F748AB96E9850
:10213000479A8BB1806B8BB9769A0E9433100C94BE
:102140000E1080E2809330018091F50181110EC064
:102150000E94F01081E08093F5012FEF83ED90E372
:10216000215080409040E1F700C0000080E40E94D0
:10217000F6108093300181112EC00E9420118093AF
:102180003001811128C00E942011809330018111FB
:1021900022C08FE30E9420118093300181111BC067
:1021A0000E94181180E40E94F61080933001811182
:1021B00012C08CE00E9420118093300181110BC06D
:1021C0000E94201180933001811105C08FE30E948D
:1021D0002011809330010E941811809130010895E0
:1021E0001092B9008AE08093B800089594EA909321
:1021F000BC009091BC0097FFFCCF9091B900987FF4
:10220000983021F0903111F081E008958093BB0067
:1022100084E88093BC008091BC0087FFFCCF809154
:10222000B900887F883111F0803471F780E008951B
:1022300084E98093BC008091BC0084FDFCCF0895AC
:102240008093BB0084E88093BC008091BC0087FF32
:10225000FCCF9091B900987F81E0983209F480E03A
:10226000089584E88093BC008091BC0087FFFCCF78
:102270008091BB00089580913001811115C080E4E8
:102280000E94F6108093300181110CC082E10E94FF
:10229000201180933001811105C08FEF0E94201121
:1022A000809330010E94181184B1807F84B985B178
:1022B000807F85B98AB1837F8AB98BB1837F8BB9DF
:1022C0003E98469808950E94A110809330010E9484
:1022D0003B1180B38C7080BB81B3836F81BBE5E021
:1022E000F2E0A7EFB1E011921D9282E0E331F8072E
:1022F000D1F70C948B10BF92CF92DF92EF92FF92A6
:102300000F931F93CF93DF9380913001882379F04F
:102310008091F6018F5F8093F601811108C00E94C1
:10232000A11080933001811102C00E94331007EF89
:1023300011E0C0E0D0E0DD24D39482E0C82EEE248A
:10234000E394F12CC73000F580913001811162C017
:1023500080E40E94F61080933001811112C082E166
:102360000E9420118093300181110BC0C7010C2EF7
:1023700001C0880F0A94EAF780950E94201180938B
:1023800030010E94181146C0CA30A1F028F4C830AC
:1023900059F0C93061F005C0CC3089F070F0CD3013
:1023A00089F0209A289810C0219A29980DC0229A65
:1023B0002A980AC0239A2B9807C0529A01C0539AB0
:1023C0005B9802C03E9A4698E0EAEA95F1F78FB131
:1023D00079995AC092E081708D25892B7C9B02C02F
:1023E00090E001C094E0892B7D9B02C090E001C089
:1023F00098E0892B7E9B02C090E001C090E1892B80
:102400009FB19095991F9927991F9295990F907E4A
:10241000892B0FC08091300181114BC080E40E9454
:10242000F61080933001882389F1B12C0E94181195
:102430008B2DF8019081981719F08083C09231019B
:102440000E943B1121960F5F1F4FCE30D10509F03E
:1024500079CF80913101882371F1815080933101CE
:10246000882339F08FE99FE00197F1F700C0000061
:1024700022C0A5E0B2E0E7EFF1E081918D9392E018
:10248000E530F907D1F717C090E0A5CF83E10E94AE
:102490002011809330018111C8CF81E40E94F61091
:1024A000809330018111C1CF0E943111B82EB094B8
:1024B000BDCF80E0BECF0E94311081E0DF91CF918F
:1024C0001F910F91FF90EF90DF90CF90BF900895F4
:1024D000E82FF0E0EB5FFD4F8081089508958B3B7E
:1024E000910578F4883A910540F5853A9105D0F444
:1024F0008430910508F0B1C08130910509F4ADC078
:102500006BC0803E910508F467C0883E910508F4D1
:10251000A4C09C01205F31092031310508F05CC066
:1025200090650895853A910509F459C0863A910558
:1025300009F458C083E890E40895883A910509F4B5
:1025400054C0893A910509F453C08A3A910509F4B7
:1025500052C08B3A910509F451C08C3A910509F4A7
:1025600050C08D3A910509F44FC0803B910509F4A4
:102570004EC08E3A910509F44DC08F3A910509F489
:102580004CC0813B910509F44BC0823B910509F495
:102590004AC0833B910509F449C0843B910509F485
:1025A00048C0853B910509F447C0863B910509F475
:1025B00046C0873B910509F445C0883B910509F465
:1025C00044C0893B910509F443C08A3B910509F059
:1025D00042C08AE296E4089580E090E0089581E8A0
:1025E00090E4089582E890E4089582EE94E40895DA
:1025F00089EE94E408958AEE94E4089585EB94E4DA
:10260000089586EB94E4089587EB94E408958CECA8
:1026100094E408958DEC94E4089583E895E4089596
:102620008AE895E4089582E995E4089584E995E4BB
:10263000089581E296E4089583E296E4089584E2A1
:1026400096E4089585E296E4089586E296E4089576
:1026500087E296E4089580E094E40895089596E072
:10266000799FF001112494E5899FE00DF11D11245B
:10267000E60FF11DEE0FFF1FEC51FF4F8591949176
:102680000895880F991F805A9040FC01859194917C
:102690000895880F991F80529F4FFC018591949156
:1026A000089526E0729FF001112444E5849FE00D17
:1026B000F11D1124E60FF11DEE0FFF1FEC51FF4F2E
:1026C00025913491C9019A9581159F4110F4C90152
:1026D0000895C90190528115904128F4C9019F7055
:1026E0000E9449130895C90190538115904120F427
:1026F000C9019927906C0895211580E5380771F478
:102700000E940C219FEF24E34CE091502040404078
:10271000E1F700C000000E947D28FEC0213080E566
:10272000380731F480918E02816080938E02F4C06C
:10273000C90190558115904108F050C0832F992709
:102740008F70992781309105D9F4A90143705527DD
:1027500002C0880F991F4A95E2F79C68A90164E0BE
:10276000440F551F6A95E1F744275370842B952B2E
:1027700073E0220F331F7A95E1F7207633271DC0CF
:102780008230910529F4922F8827816F906A0895ED
:1027900083309105A9F4A9014370552781E090E0A9
:1027A00002C0880F991F4A95E2F79C6843E0220F08
:1027B000331F4A95E1F7207E3770822B932B0895C3
:1027C0000497F1F4A9014370552781E090E002C01D
:1027D000880F991F4A95E2F79A68E8CFC901905788
:1027E0008115904120F4C9019F7090620895C9013C
:1027F00090588115904120F4C9019F70906A089506
:10280000203E3105E0F4203C310558F521333105F7
:1028100009F470C048F42932310509F464C02A3241
:10282000310509F46EC074C029333105F1F0223846
:102830003105D9F02533310509F44EC069C0233E76
:10284000310589F138F4203E3105C1F0223E3105D1
:10285000E1F05EC0263E310569F1273E3105A9F160
:1028600057C0C9010E94411308958091A10280FDC3
:1028700002C081FF4DC080EE90E04BC08091A1026C
:1028800080FFF9CF89E390E044C08091A10282FFEC
:102890000EC08091A10284FF03C080E090E039C0A7
:1028A00083EE90E036C08091A10282FFF2CF82EEEB
:1028B00090E02FC08091A10283FF0BC08091A10204
:1028C00084FDEBCF87EE90E024C08091A10283FFCE
:1028D000F5CF86EE90E01DC08091A10285FF07C074
:1028E00089E290E016C08091A10285FFF9CF85E3CF
:1028F00090E00FC08091A10286FF07C08AE290E0BD
:1029000008C08091A10286FFF9CF81E390E001C069
:10291000C9010E946F120895089508950C948D14B2
:10292000809123020895CF93DF9300D01F92CDB7FB
:10293000DEB72091A702243019F523E029839B8379
:102940008A832093E9008FEF9091E800815095FDF4
:1029500006C095ED9A95F1F700008111F5CF8091B1
:10296000E80085FF0DC040E050E063E070E0CE017C
:1029700001960E94FD168091E8008E778093E80012
:102980000F900F900F90DF91CF910895CF93DF9329
:1029900000D01F92CDB7DEB72091A702243021F5D9
:1029A00022E029839B838A8383E08093E9008FEF71
:1029B0009091E800815095FD06C095ED9A95F1F74C
:1029C00000008111F5CF8091E80085FF0DC040E047
:1029D00050E063E070E0CE0101960E94FD16809108
:1029E000E8008E778093E8000F900F900F90DF91B2
:1029F000CF9108952091A7022430F1F422E0209392
:102A0000E9002FEF3091E800215035FD06C035ED8B
:102A10003A95F1F700002111F5CF2091E80025FF4C
:102A20000BC040E050E065E070E00E94FD16809130
:102A3000E8008E778093E8000895CF93DF93EC0150
:102A40008091A702843009F046C090913C019923FF
:102A5000D9F090913D019923B9F08093E9008FEF6F
:102A60009091E800815095FD06C095E19A95F1F7A7
:102A700000008111F5CF8091E80085FF2CC040E077
:102A800050E060E170E017C081E08093E9008FEFD3
:102A90009091E800815095FD06C095ED9A95F1F76B
:102AA00000008111F5CF8091E80085FF14C040E05F
:102AB00050E068E070E0CE010E94FD168091E800D1
:102AC0008E778093E80080E1FE01A3E1B2E00190FF
:102AD0000D928A95E1F7DF91CF9108958091A6023A
:102AE000811109C00E948F180E94EC188091E200A9
:102AF00084608093E20008951092A60208950895DC
:102B00000C94A62E0E9414280E94AC2E0E94891BB1
:102B10000C948E1442E061EC81E00E94091842E0BE
:102B200061EC82E00E94091842E061EC83E00E94BF
:102B3000091842E161EC84E00C9409188091A90223
:102B4000833009F455C030F4813071F0823009F4DB
:102B50008EC008958A3009F47AC08B3009F460C0C1
:102B6000893009F09CC020C08091A802813A09F008
:102B700096C08091E800877F8093E8008091AC0246
:102B80009091AD02892B21F060E080E090E003C0DD
:102B900060E183E192E070E00E9446178091E800D6
:102BA0008B778093E80008958091A802813209F024
:102BB00076C08091AC029091AD02009719F0039716
:102BC00009F06DC08091E800877F8093E8008091D4
:102BD000E80082FD05C08091A7028111F8CF5FC097
:102BE0008091F100809323028091E8008B7753C09D
:102BF0008091A802813A09F052C08091AC02909174
:102C0000AD02892B09F04BC08091E800877F80934B
:102C1000E8008091E80080FFFCCF80913C0136C045
:102C20008091A8028132D9F58091AC029091AD02D9
:102C3000892BA9F58091E800877F8093E8000E94A6
:102C40003E188091AA0280933C010C940C21809143
:102C5000A802813221F58091E800877F8093E80007
:102C60000E943E188091AB028093240208958091C7
:102C7000A802813AA1F48091E800877F8093E80060
:102C80008091E80080FFFCCF809124028093F100C6
:102C90008091E8008E778093E8000C943E180895A8
:102CA00084B7877F84BF88E10FB6F8948093600073
:102CB000109260000FBE90E080E80FB6F894809309
:102CC0006100909361000FBE0E94D81B0E948F1874
:102CD0000E94EC188091E20084608093E200789476
:102CE0000E94671B0E94DA1B82E391E00E94841B12
:102CF0000E94942E8091A702853069F40E94D42707
:102D00008091A5028823B1F30E94FF27882391F3C5
:102D10000E94E716EFCF0E94E01BECCF292F33274C
:102D200023303105A9F06CF42130310509F442C09B
:102D30002230310509F043C08DE690E028EC38E1FF
:102D400042C021323105C9F02232310519F137C0B4
:102D500099278130910541F08230910541F0892B0E
:102D600071F5E4ECF8E105C0ECEAF8E102C0E4E951
:102D7000F8E1849190E09F0126C0643000F5E62FD1
:102D8000F0E0EE0FFF1FE659FE4F2081318189E010
:102D900090E019C0643098F4E62FF0E0DF01AA0F4C
:102DA000BB1FAE59BE4F2D913C91E25AFE4F808120
:102DB00090E009C082E190E025E339E104C080E0C1
:102DC00090E020E030E0FA0131832083089580E133
:102DD00089BD82E189BD09B400FEFDCF8091D80094
:102DE0008F7D8093D8008091E00082608093E00026
:102DF0008091E00081FDFCCF0895CF92DF92EF92A9
:102E0000FF920F931F93CF93DF937C018B01EA0115
:102E10000E945F18811131C0209731F0888199811B
:102E2000081B190BE80EF91EC12CD12C0115110538
:102E300019F18091E80085FD14C08091E8008E773B
:102E40008093E800209741F0888199818C0D9D1D29
:102E50009983888385E011C00E945F18882331F32D
:102E60000CC0F70181917F018093F100015011099D
:102E7000FFEFCF1ADF0ADACF80E0DF91CF911F9109
:102E80000F91FF90EF90DF90CF9008952091AE02C8
:102E90003091AF022617370748F06115710539F4F4
:102EA0002091E8002E772093E80001C0B901FC01D1
:102EB00020E061157105B9F18091A702882309F41A
:102EC00040C0853009F43FC08091E80083FD3DC0DB
:102ED0008091E80082FF06C08091E80082FF26C052
:102EE00080E008958091E80080FFE3CF2091F30017
:102EF0008091F20090E0922B6115710551F08830BD
:102F0000910538F421912093F100615071090196E7
:102F1000F3CF21E0089709F020E08091E8008E7758
:102F20008093E800C6CF2111C7CFD6CF8091A702EA
:102F3000882339F0853039F08091E80083FFCCCFC9
:102F400004C082E0089583E0089581E0089520910F
:102F5000AE023091AF022617370748F061157105B0
:102F600039F42091E8002E772093E80001C0B901E0
:102F7000FC0120E061157105C1F18091A702882351
:102F800009F441C0853009F440C08091E80083FD18
:102F90003EC08091E80082FF06C08091E80082FF79
:102FA00027C080E008958091E80080FFE3CF209162
:102FB000F3008091F20090E0922B6115710559F0B9
:102FC0008830910540F424912093F10031966150AE
:102FD00071090196F2CF21E0089709F020E0809175
:102FE000E8008E778093E800C5CF2111C6CFD5CFFA
:102FF0008091A702882339F0853039F08091E8006C
:1030000083FFCBCF04C082E0089583E0089581E080
:103010000895982F973058F59093E900981739F054
:103020007091EC002091ED005091F00003C0242F2E
:10303000762F50E021FF19C03091EB003E7F309396
:10304000EB003091ED003D7F3093ED003091EB00CF
:1030500031603093EB007093EC002093ED005093BF
:10306000F0002091EE0027FF07C09F5FD3CF8F7045
:103070008093E90081E0089580E008958091A8029E
:1030800087FD05C08091E80080FF0EC012C08091CE
:10309000E80082FD05C08091A7028111F8CF089554
:1030A0008091E8008B7708C08091A7028111EACF58
:1030B00008958091E8008E778093E80008958091CC
:1030C000E4009091E50045E62091EC0020FF21C04E
:1030D0002091E80020FD21C02091A702222389F041
:1030E000253089F02091EB0025FD0FC02091E400F0
:1030F0003091E5002817390739F3415041F0C901F3
:10310000E3CF82E0089583E0089581E0089584E0AC
:1031100008952091E80022FFDFCF80E008950E940B
:10312000FD180E940519E0EEF0E080818160808347
:10313000E8EDF0E080818F77808319BCA7EDB0E0E7
:103140008C918E7F8C9380818F7E80831092A602DB
:1031500008950F931F93CF93DF930E94FD180E9451
:103160000519C8EDD0E088818F77888388818068D1
:10317000888388818F7D888319BC1092A702109262
:10318000A3021092A5021092A40200EE10E0F80132
:1031900080818B7F808388818160888342E060E0CA
:1031A00080E00E940918E1EEF0E080818E7F80834C
:1031B000E2EEF0E08081816080838081886080839E
:1031C000F80180818E7F8083888180618883DF9190
:1031D000CF911F910F910895E8EDF0E080818F7EEF
:1031E0008083E7EDF0E080818160808384E082BFAE
:1031F00081E08093A6020C94A918E8EDF0E08081AC
:103200008E7F80831092E20008951092DA0010926F
:10321000E10008951F920F920FB60F9211242F9381
:103220003F934F935F936F937F938F939F93AF934E
:10323000BF93EF93FF938091E10082FF0BC08091D9
:10324000E20082FF07C08091E1008B7F8093E10064
:103250000E94661B8091DA0080FF1FC08091D80019
:1032600080FF1BC08091DA008E7F8093DA0080910E
:10327000D90080FF0DC080E189BD82E189BD09B41C
:1032800000FEFDCF81E08093A7020E946E1505C06D
:1032900019BC1092A7020E947C158091E10080FF6A
:1032A00019C08091E20080FF15C08091E2008E7FFE
:1032B0008093E2008091E20080618093E20080913F
:1032C000D80080628093D80019BC85E08093A70263
:1032D0000E9480158091E10084FF30C08091E2005F
:1032E00084FF2CC080E189BD82E189BD09B400FE64
:1032F000FDCF8091D8008F7D8093D8008091E10030
:103300008F7E8093E1008091E2008F7E8093E200C7
:103310008091E20081608093E2008091A302882383
:1033200011F084E007C08091E30087FF02C083E0D2
:1033300001C081E08093A7020E9482158091E10084
:1033400083FF29C08091E20083FF25C08091E100C6
:10335000877F8093E10082E08093A7021092A3020E
:103360008091E1008E7F8093E1008091E2008E7F6A
:103370008093E2008091E20080618093E20042E06D
:1033800060E080E00E9409188091F00088608093DE
:10339000F0000E947F15FF91EF91BF91AF919F9137
:1033A0008F917F916F915F914F913F912F910F90EE
:1033B0000FBE0F901F9018951F920F920FB60F928D
:1033C00011242F933F934F935F936F937F938F932A
:1033D0009F93AF93BF93CF93EF93FF93C091E90077
:1033E000CF708091EC001092E9008091F000877F0F
:1033F0008093F00078940E94181A1092E90080914E
:10340000F00088608093F000C093E900FF91EF9195
:10341000CF91BF91AF919F918F917F916F915F916C
:103420004F913F912F910F900FBE0F901F901895C5
:103430001F93CF93DF93CDB7DEB7AA970FB6F8945B
:10344000DEBF0FBECDBFE8EAF2E08091F1008193CC
:1034500022E0E03BF207C9F70E949E158091E80048
:1034600083FF1CC12091A8023091A902832F90E014
:103470008A30910508F012C1FC01EA5AFF4F0C9402
:103480002E30203881F0223809F008C18091AC023A
:103490008F708093E9008091EB0085FB882780F98D
:1034A0001092E90006C08091A4029091A5029111AA
:1034B00082609091E800977F9093E8008093F100FC
:1034C0001092F100C5C0822F8D7F09F0E7C0222342
:1034D00019F0223061F0E2C08091AA02813009F037
:1034E000DDC0333009F080E08093A50228C08091D0
:1034F000AA02811124C02091AC022F7009F4CEC021
:103500002093E9008091EB0080FF19C08091EB00CF
:10351000333011F4806211C080618093EB0081E050
:1035200090E0022E01C0880F0A94EAF78093EA0027
:103530001092EA008091EB0088608093EB0010927B
:10354000E9008091E800877F86C02111A7C0109113
:10355000AA021F778091E3008078812B8093E3009B
:103560008091E800877F8093E8000E943E18809158
:10357000E80080FFFCCF8091E30080688093E30047
:10358000112311F083E001C082E08093A70286C07E
:103590002058223008F082C08091AA029091AB029C
:1035A0008C3D23E0920779F583E08A838AE2898360
:1035B0004FB7F894DE01139620E03EE051E2E32F8E
:1035C000F0E050935700E49120FF03C0E295EF70C4
:1035D0003F5FEF708E2F90E0EA3010F0C79601C089
:1035E000C0968D939D932F5F243149F74FBF8091F3
:1035F000E800877F8093E8006AE270E0CE010196E0
:103600000E94461714C0AE014F5F5F4F6091AC023D
:103610000E948E16009709F441C02091E800277F90
:103620002093E800BC0189819A810E94A7178091AC
:10363000E8008B778093E80031C0203879F58091DD
:10364000E800877F8093E8008091A3028093F100D7
:103650008091E8008E778093E8000E943E181EC09B
:1036600021111CC09091AA029230C0F48091E80010
:10367000877F8093E8009093A3020E943E18809178
:10368000A302811104C08091E30087FF02C084E09F
:1036900001C081E08093A7020E948A158091E80012
:1036A00083FF0AC08091E800877F8093E8008091C3
:1036B000EB0080628093EB00AA960FB6F894DEBF11
:1036C0000FBECDBFDF91CF911F9108950895CF9385
:1036D0008091A7028823B1F08091E9008F709091CA
:1036E000EC0090FF02C090E801C090E0C92FC82B09
:1036F0001092E9008091E80083FD0E94181ACF70B3
:10370000C093E900CF91089590932A0280932902F3
:103710000895E0912902F0912A02309721F001905A
:10372000F081E02D099480E00895E0912902F09164
:103730002A02309721F00280F381E02D0994089548
:10374000E0912902F0912A02309721F00480F5815E
:10375000E02D0994089520912702309128028217C4
:10376000930771F09093280280932702E091290239
:10377000F0912A02309721F00680F781E02D09941C
:10378000089520912502309126028217930771F047
:103790009093260280932502E0912902F0912A025B
:1037A000309721F00084F185E02D09940895089563
:1037B0000C94D71B0E941A280E9463110C94E028D5
:1037C000CF92DF92EF92FF920F931F93CF93DF93ED
:1037D000CDB7DEB72B970FB6F894DEBF0FBECDBFC7
:1037E0000E947B113CE2E32E32E0F32E00E010E079
:1037F000C02E802F0E946812F701D1907F01D82639
:10380000B1F40F5F1F4F0E30110591F78FEF8983D1
:103810008A831B820E9423288160782F9D838C835A
:1038200049815A816B818D810E94831C41C0909196
:103830008E0291FF04C08B870E946E128B8520E060
:1038400030E04D2D50E0922FBA01022E02C0759546
:1038500067950A94E2F760FF25C02E83CF82EE249D
:10386000E394F12C02C0EE0CFF1C9A95E2F790E075
:103870008E219F2121E0892B09F420E028870E94D6
:1038800023288160782F9A8789874E815F81688598
:103890008A850E94831CF801E45DFD4F80818E259E
:1038A000808306C02F5F3F4F2630310561F6A9CFD8
:1038B0000E94C42B10912B020E94891B1817A1F0A3
:1038C0000E94891B80932B022B960FB6F894DEBFC3
:1038D0000FBECDBFDF91CF911F910F91FF90EF9061
:1038E000DF90CF900C948E142B960FB6F894DEBF19
:1038F0000FBECDBFDF91CF911F910F91FF90EF9041
:10390000DF90CF900895CF93DF93CDB7DEB72B979D
:103910000FB6F894DEBF0FBECDBF4F8358876987BF
:103920007A878B87DE01119686E0FD0111928A95D8
:10393000E9F785E0FE01379601900D928A95E1F74F
:1039400049815A816B817C818D819E810E94D8231F
:103950002B960FB6F894DEBF0FBECDBFDF91CF918F
:1039600008950895CF93C82F882309F4C1C08238E1
:1039700059F40E94891B81FDBBC089E30E94822605
:103980000E94522789E30CC0833879F40E94891B76
:1039900080FDAEC083E50E9482260E94522783E507
:1039A0000E94C226CF910C945227843859F40E9469
:1039B000891B82FD9DC087E40E9482260E945227B7
:1039C00087E4EECF8CEF8C0F813A48F48C2F0E9465
:1039D000FC2D81118DC08C2F0E948226E3CF80E2C6
:1039E0008C0F883048F4C77081E001C0880FCA95F9
:1039F000EAF70E940627D6CF8BE58C0F833078F448
:103A0000C53A29F0C63A31F482E890E005C081E871
:103A100090E002C083E890E0CF910C94AB1B88E566
:103A20008C0F833108F064C0C83A39F1C93A41F1CA
:103A3000CA3A49F1CB3A51F1CC3A59F1CD3A61F158
:103A4000C03B69F1CE3A71F1CF3A79F1C13B81F1D6
:103A5000C23B89F1C33B91F1C43B99F1C53BA1F154
:103A6000C63BA9F1C73BB1F1C83BB9F1C93BC1F1B4
:103A7000CA3BC9F58AE292E038C082EE90E035C0D8
:103A800089EE90E032C08AEE90E02FC085EB90E0A6
:103A90002CC086EB90E029C087EB90E026C08CEC30
:103AA00090E023C08DEC90E020C083E891E01DC041
:103AB0008AE891E01AC082E991E017C084E991E0B8
:103AC00014C081E292E011C083E292E00EC084E271
:103AD00092E00BC085E292E008C086E292E005C069
:103AE00087E292E002C080E090E0CF910C94C11B8D
:103AF000CF910895882309F44BC0823859F40E946D
:103B0000891B81FF45C089E30E9482260E945227BB
:103B100089E30CC0833871F40E94891B80FF38C090
:103B200083E50E9482260E94522783E50E94C226D6
:103B30000C945227843859F40E94891B82FF28C0B4
:103B400087E40E9482260E94522787E4EFCF9CEFF1
:103B5000980F913A58F390E2980F983050F487708C
:103B600091E001C0990F8A95EAF7892F0E940C27EE
:103B7000DFCF9BE5980F933020F480E090E00C9429
:103B8000AB1B885A833120F480E090E00C94C11B79
:103B90000895882321F00E9406270C945227089547
:103BA000882321F00E940C270C9452270895CF926D
:103BB000DF92EF92FF920F931F93CF93DF93CDB7D6
:103BC000DEB728970FB6F894DEBF0FBECDBF8C01CD
:103BD00085E0F801DE01119601900D928A95E1F7DA
:103BE000F801D080E180F280558152955F70238189
:103BF0003481232B39F0FFEFEF1206C081E0DF1292
:103C000003C003C081E001C080E080FDE2C2C801C2
:103C10005F830E94B11CD982EA8269817A818F2DEB
:103C20000E947E269E8388870E9432260E94052558
:103C30004E815F816885FF2029F00E9426276885D4
:103C40005F814E81E42FE295EF70F0E0E05AFF4F84
:103C50000C942E30842F807F142F1F70882311F036
:103C60001295107FFF20B1F0112309F467C280E2A2
:103C7000860F883028F4812F68870E94062704C0A9
:103C8000812F68870E941927688568870E945227BC
:103C9000688554C2862F68870E947A1D6885112323
:103CA00009F497C2605E812F683018F40E940C27D7
:103CB00002C00E941F2728960FB6F894DEBF0FBEE1
:103CC000CDBFDF91CF911F910F91FF90EF90DF90CB
:103CD000CF900C945227242F207F842F8F70203276
:103CE00011F08295807F662319F0613019F12BC0A5
:103CF000FF20B1F0552309F493C1513009F090C170
:103D000028960FB6F894DEBF0FBECDBFDF91CF91DE
:103D10001F910F91FF90EF90DF90CF900C94392777
:103D2000552319F0513009F454C28E830E943C2768
:103D30008E8189C1FF2021F0523008F04AC270C143
:103D4000511147C280C1FF2021F0552309F468C1F9
:103D5000F5C1552309F477C105C2242F2695269570
:103D6000237030E02115310521F021303105C9F0F3
:103D700030C2FF2021F0862F942F937002C080E084
:103D800090E028960FB6F894DEBF0FBECDBFDF914E
:103D9000CF911F910F91FF90EF90DF90CF900C94F7
:103DA000AB1BFF2021F0862F942F937002C080E080
:103DB00090E028960FB6F894DEBF0FBECDBFDF911E
:103DC000CF911F910F91FF90EF90DF90CF900C94C7
:103DD000C11B862FFF2019F00E94CC2A02C00E942E
:103DE000342B28960FB6F894DEBF0FBECDBFDF91FF
:103DF000CF911F910F91FF90EF90DF90CF900C9497
:103E0000B92B842F837009F076C0F110E2C1262F00
:103E1000229526952770220F220F862F8F70C82E8D
:103E2000D12CE12CF12C022E04C0CC0CDD1CEE1C9C
:103E3000FF1C0A94D2F764FF10C06FE070E080E0CE
:103E400090E004C0660F771F881F991F2A95D2F74C
:103E5000609570958095909503C060E070E0CB010F
:103E6000242F269526952370422F50E0423051058D
:103E7000D1F04330510559F16C297D298E299F29B4
:103E80004130510541F128960FB6F894DEBF0FBEC0
:103E9000CDBFDF91CF911F910F91FF90EF90DF90F9
:103EA000CF900C942A256C297D298E299F2928964C
:103EB0000FB6F894DEBF0FBECDBFDF91CF911F913B
:103EC0000F91FF90EF90DF90CF900C9444250E94CB
:103ED0002A25C701B60128960FB6F894DEBF0FBE9B
:103EE000CDBFDF91CF911F910F91FF90EF90DF90A9
:103EF000CF900C941025FF2019F0842F817001C001
:103F00008695882309F465C1262F2295269527706A
:103F1000220F220F862F8F70C82ED12CE12CF12C6E
:103F2000022E04C0CC0CDD1CEE1CFF1C0A94D2F740
:103F300064FF10C06FE070E080E090E004C0660FA6
:103F4000771F881F991F2A95D2F7609570958095E5
:103F5000909503C060E070E0CB01242F2695269554
:103F60002370422F50E042305105D1F043305105CB
:103F700059F16C297D298E299F294130510541F144
:103F800028960FB6F894DEBF0FBECDBFDF91CF915C
:103F90001F910F91FF90EF90DF90CF900C94FE2532
:103FA0006C297D298E299F2928960FB6F894DEBFAB
:103FB0000FBECDBFDF91CF911F910F91FF90EF907A
:103FC000DF90CF900C9418260E94FE25C701B60101
:103FD00028960FB6F894DEBF0FBECDBFDF91CF910C
:103FE0001F910F91FF90EF90DF90CF900C94E425FC
:103FF000603FC9F118F4603E50F49BC0623F09F481
:1040000060C008F44AC0633F09F46FC092C0162F25
:104010001F70842F8F71FF2099F00E947D25812FC2
:1040200028960FB6F894DEBF0FBECDBFDF91CF91BB
:104030001F910F91FF90EF90DF90CF900C94C91DCE
:104040000E949E25812F28960FB6F894DEBF0FBEE2
:10405000CDBFDF91CF911F910F91FF90EF90DF9037
:10406000CF900C94D01DFF20A1F05111B2C0842F2D
:104070008F7128960FB6F894DEBF0FBECDBFDF91CB
:10408000CF911F910F91FF90EF90DF90CF900C9404
:10409000C325523008F09DC0EACFFF20A1F0842F45
:1040A0008F7128960FB6F894DEBF0FBECDBFDF919B
:1040B000CF911F910F91FF90EF90DF90CF900C94D4
:1040C0007D25FF2061F3842F8F7128960FB6F89419
:1040D000DEBF0FBECDBFDF91CF911F910F91FF903B
:1040E000EF90DF90CF900C949E25FF2091F0842FCD
:1040F0008F7128960FB6F894DEBF0FBECDBFDF914B
:10410000CF911F910F91FF90EF90DF90CF900C9483
:10411000682528960FB6F894DEBF0FBECDBFDF919D
:10412000CF911F910F91FF90EF90DF90CF900C9463
:104130005E25FF20A1F0552309F4B1CF862F2896E4
:104140000FB6F894DEBF0FBECDBFDF91CF911F91A8
:104150000F91FF90EF90DF90CF900C94B21C5523FD
:1041600009F4B1CF862F28960FB6F894DEBF0FBEA4
:10417000CDBFDF91CF911F910F91FF90EF90DF9016
:10418000CF900C947A1D4F70C8010E942C0F289676
:104190000FB6F894DEBF0FBECDBFDF91CF911F9158
:1041A0000F91FF90EF90DF90CF900C9485244F708B
:1041B000C80128960FB6F894DEBF0FBECDBFDF91C1
:1041C000CF911F910F91FF90EF90DF90CF900C94C3
:1041D0002E1328960FB6F894DEBF0FBECDBFDF9129
:1041E000CF911F910F91FF90EF90DF90CF900895A6
:1041F0000E9426270E9436270E94F5260E945227F9
:104200000E94652C0E94B92B80E090E00E94AB1BBD
:1042100080E090E00C94C11B0E9416270C94F820BB
:104220000E947326292F22952F7030E02C30310503
:104230004CF42A3031056CF422503109223031051A
:1042400090F407C02C30310551F02F30310539F092
:104250000AC0803E10F0803F31F481E0089593FB66
:10426000882780F9089580E00895CF93DF9300D0E8
:1042700000D01F92CDB7DEB70F900F900F900F9028
:104280000F90DF91CF910895CF93DF9300D000D0AE
:1042900000D0CDB7DEB726960FB6F894DEBF0FBEBE
:1042A000CDBFDF91CF9108951F93CF93DF93C0913E
:1042B0003A0216E080913B02C81799F0D0E01C9FAB
:1042C000F0011D9FF00D1124E45CFD4F40815181F0
:1042D00062817381848195810E9444212196C770F7
:1042E000E9CFDF91CF911F91089540916C025091D9
:1042F0006D0260916E0270916F02809170029091D8
:1043000071020C944421CF938091710282958F7039
:1043100009F05FC080916E02882309F45AC0209191
:104320003A02A0913B0260916C0270916D02809103
:104330006F029091700231E06F3F09F030E0B32FCF
:10434000C6E02A1709F445C0009721F07F3F21F409
:104350004B2F03C041E001C040E030E040FD35C0DC
:10436000C29FF001C39FF00D1124E45CFD4F418119
:1043700074132BC04081641328C04281411125C0B1
:10438000438154814817590710F441505109481B83
:10439000590B483C5105C8F4809171028F708061BF
:1043A0008093710286E0829FF001839FF00D1124BB
:1043B000EF5BFD4F80818F70806180838CE692E09F
:1043C0000E94D71DCF910C9454212F5F3F4F27702F
:1043D000B8CFCF910895CF92DF92EF92FF920F93D3
:1043E0001F93CF93DF93CDB7DEB762970FB6F894E4
:1043F000DEBF0FBECDBF8C0185E0F801DE011D964A
:1044000001900D928A95E1F7D8014C9111965C913B
:10441000119712966C9112971396ED90FC90149749
:1044200070916C02E0916D0220916F0230917002E8
:104430002115310531F0EF3F31F481E07F3F19F470
:1044400003C081E001C080E0B82FB170CB2E80FDA9
:104450006CC1D0906E02DD2009F4F5C0F0917102BC
:10446000E216F30638F0C701821B930B883C9105D6
:1044700048F09BC0209530952E0D3F1D283C3105FE
:1044800008F093C08F2F807F09F052C0E51314C04D
:10449000741312C0D62E61110FC0FF70F061F0933B
:1044A00071020E9475218CE692E00E94D71D8091D6
:1044B0007102F80185836CC1EF2831F05F3F31F460
:1044C00081E04F3F19F403C081E001C080E080FD2E
:1044D00003C081E0862701C080E0F82FF170FF2E35
:1044E00080FF1CC080913A0220913B0236E0821787
:1044F00009F428C190E0389FF001399FF00D112494
:10450000E45CFD4F7181571306C07081471303C0EF
:104510007281671303C001968770E9CFD62E662398
:1045200009F436C18091710281608093710253C099
:10453000E51308C0741306C0611104C0D8011596B4
:10454000FC93AEC04D875E878D859E856A8B0E94E9
:1045500010216A89882329F1D62E662311F1209132
:104560007102822F82958F7090E002970CF460C0E8
:1045700080916C0290916D0298878F831986FB86DB
:10458000EA862C87CE01079651C0E51731F14D8799
:104590005E878D859E856A8B0E9410216A898111B4
:1045A0002EC0C8010E94D71DA4C08F2F807F69F73D
:1045B0007E2DF98AE88A89890E9435218CE692E06D
:1045C0000E94D71DECE6F2E086E0DF011D928A959D
:1045D000E9F70E947521D12CDBC07413D8CF61118B
:1045E000D6CFD8011596FC93C8010E94D71DECE6E2
:1045F000F2E086E0DF011D928A95E9F7C9C0D62E68
:10460000662379F220917102822F82958F7090E05B
:10461000029774F080916C0290916D029A83898365
:104620001B82FD82EC822E83CE0101960E94D71D53
:1046300086E0F801ACE6B2E001900D928A95E1F7D0
:104640000E9483216FC0E216F30628F0C701821B87
:10465000930B9C0104C0209530952E0D3F1D283CE6
:10466000310508F052C0D62E662309F49ACFE5131F
:104670002CC074132AC08091710280FD1DC0982F38
:1046800092959F70C9F0D80115968C9315979F301D
:1046900039F09F5F9295907F8F70892B15968C9340
:1046A000C8010E94D71D86E0F801ACE6B2E0019097
:1046B0000D928A95E1F736C086E0F801ACE6B2E0EB
:1046C00001900D928A95E1F763C04D875E878D85D5
:1046D0009E850E941021882379F086E0F801ACE6DF
:1046E000B2E001900D928A95E1F70E9483210E9429
:1046F0007521DD24D3944CC0809171028160809338
:104700007102C8010E94D71D43C07E2DF98AE88A34
:1047100089890E943521ECE6F2E086E0DF011D92F6
:104720008A95E9F70E94752133C0662309F439CFD1
:104730004D875E878D859E850E941021882309F410
:1047400030CFCBCF4D875E878D859E850E947326A7
:10475000292F22952F7030E0223031052CF49F70E4
:1047600041F0811106C00CC0243031052CF49F703B
:1047700049F4805E883020F0C8010E94D71DCF2CFC
:10478000DC2C06C0D80115969C91907F91F7F8CF4C
:104790008D2D62960FB6F894DEBF0FBECDBFDF91B0
:1047A000CF911F910F91FF90EF90DF90CF900895E0
:1047B0001F93CF93DF93CDB7DEB72C970FB6F89446
:1047C000DEBF0FBECDBF4F83588769877A878B873F
:1047D0009C87CE0107960E94EB218823C1F02F8190
:1047E00038858A859B85892B31F03F3F11F080E029
:1047F00003C02F3FE1F781E0811147C04F81588509
:1048000069857A858B859C850E9444213EC086E01F
:10481000FE013796DE01119601900D928A95E1F71F
:10482000FF81E8854A855B854115510531F0EF3FF1
:1048300031F481E0FF3F19F403C081E001C080E062
:1048400080FD23C020913B0230E0C90101968770B2
:10485000992760913A0270E086179707F1F1F98382
:10486000EA835D834C8396E0929FD001939FB00DC5
:104870001124A45CBD4FFE01319601900D929A95D2
:10488000E1F780933B020E94542116E080913A02A6
:1048900090913B02891779F1189FC0011124845C23
:1048A0009D4F0E94EB21882331F1E0913A021E9F37
:1048B000F0011124E45CFD4F4081518162817381DC
:1048C000848195810E94442180913A0290E0019672
:1048D0008770992780933A02D9CF0E940C211092B9
:1048E0003B0210923A02ECE6F2E086E0DF011D9214
:1048F0008A95E9F7CACF2C960FB6F894DEBF0FBEA3
:10490000CDBFDF91CF911F910895EF92FF920F934A
:104910001F93CF93DF93FC01009709F46FC0F12C34
:10492000EE24E394EF0121968491843740F484309F
:1049300008F055C0813081F0823021F15FC08537A9
:1049400009F447C0C0F19CE7980F903708F056C0B3
:104950008F770E947A1D45C08F010E5F1F4FFE01A9
:10496000849190E2980F983050F48770FE2D01C02A
:10497000FF0F8A95EAF78F2F0E94292715C00E9402
:10498000B21C14C08F010E5F1F4FFE01849190E294
:10499000980F983068F48770FE2D01C0FF0F8A953C
:1049A000EAF78F2F0E942F270E945227E80119C093
:1049B0000E947A1DFBCFCF010296FE01C491CC2349
:1049C00061F0EFE9FFE03197F1F700C00000C1505E
:1049D000F6CFCF010296FE01F490EC0102C00E94D6
:1049E000B21C8F2D882341F0EFE9FFE03197F1F7FA
:1049F00000C000008150F6CFFE0194CFDF91CF912F
:104A00001F910F91FF90EF900895089560937602A3
:104A10007093770280937802909379020C94F82037
:104A20000F931F93009176021091770220917802E4
:104A300030917902062B172B282B392B0093760205
:104A40001093770220937802309379021F910F918F
:104A50000C94F8200F931F93009176021091770227
:104A600020917802309179020623172328233923D5
:104A700000937602109377022093780230937902A4
:104A80001F910F910C94F8200F931F9300917602C1
:104A9000109177022091780230917902062717272A
:104AA0002827392700937602109377022093780203
:104AB000309379021F910F910C94F820109272029A
:104AC0001092730210927402109275020C94F820E6
:104AD00041E050E060E070E004C0440F551F661FE5
:104AE000771F8A95D2F740937202509373026093B6
:104AF0007402709375020C94F82041E050E060E07D
:104B000070E004C0440F551F661F771F8A95D2F7C7
:104B10008091720290917302A0917402B09175021B
:104B2000842B952BA62BB72B809372029093730244
:104B3000A0937402B09375020C94F82041E050E009
:104B400060E070E004C0440F551F661F771F8A9510
:104B5000D2F7409550956095709580917202909132
:104B60007302A0917402B091750284239523A62349
:104B7000B7238093720290937302A0937402B09350
:104B800075020C94F82041E050E060E070E004C051
:104B9000440F551F661F771F8A95D2F780917202C6
:104BA00090917302A0917402B091750284279527A9
:104BB000A627B7278093720290937302A093740282
:104BC000B09375020C94F8200F931F93009172021A
:104BD000109173022091740230917502062B172BED
:104BE000282B392B009372021093730220937402C6
:104BF000309375021F910F910C94F8200F931F931F
:104C0000009172021091730220917402309175022A
:104C1000062317232823392300937202109373026B
:104C200020937402309375021F910F910C94F82019
:104C30000F931F93009172021091730220917402DE
:104C4000309175020627172728273927009372020B
:104C50001093730220937402309375021F910F9189
:104C60000C94F8200895CF92DF92EF92FF920F9369
:104C70001F93CF93DF93EC01C0907602D090770220
:104C8000E0907802F0907902809172029091730224
:104C9000A0917402B0917502C82AD92AEA2AFB2A87
:104CA0000FE110E0B701A601002E04C076956795CC
:104CB000579547950A94D2F740FD05C00150110958
:104CC00088F780E007C0BE01802F0E945113019732
:104CD000A9F3802FDF91CF911F910F91FF90EF905B
:104CE000DF90CF900895CF93DF93EC010E9433269D
:104CF000BE010E945113DF91CF910895CB010E9414
:104D00007326089590913C019923D9F090913D012B
:104D10009923B9F0982F9695969596959F3088F59A
:104D2000E0913E01F0913F01E90FF11D877021E014
:104D300030E001C0220F8A95EAF78181822B8183BE
:104D4000089540913E0150913F0120E030E09FEFF7
:104D5000FA01E20FF31F6281681799F09F3F19F47F
:104D6000611101C0922F2F5F3F4F2E30310581F727
:104D70009F3F39F0FA01E90FF11D97FDFA95828303
:104D80000895089590913C019923E1F090913D019F
:104D90009923C1F0982F9695969596959F3020F57A
:104DA000E0913E01F0913F01E90FF11D877021E094
:104DB00030E001C0220F8A95EAF7209581812823EF
:104DC0002183089540913E0150913F0120E030E061
:104DD000FA01E20FF31F9281981301C012822F5F34
:104DE0003F4F2E303105A1F7089581E090E0E0912A
:104DF0003E01F0913F01E80FF91F108201968031CA
:104E00009105A9F7089580918D02089590918D02E2
:104E1000982B90938D020895809590918D02982300
:104E200090938D02089580938D02089510928D02C3
:104E3000089590918C02982B90938C020895809500
:104E400090918C02982390938C02089510928C027A
:104E5000089590918B02982B90938B0208958095E2
:104E600090918B02982390938B02089510928B025D
:104E7000089580937A02089510927A0208954091DD
:104E80003E0150913F0120E030E080E0FA01E20F66
:104E9000F31F918191118F5F2F5F3F4F2F303105AD
:104EA000A9F70895E0913E01F0913F0180918D02B4
:104EB0008083E0913E01F0913F01808190918C02CE
:104EC000892B8083E0913E01F0913F018081909198
:104ED0008B02892B808390917A02992361F0E09173
:104EE0003E01F0913F018081892B80830E943F2702
:104EF000811110927A0280913E0190913F010C94B1
:104F0000951BCF92DF92EF92FF920F931F936C014C
:104F1000EE24FF24C114D104E104F10421F46B0157
:104F20007C0180E001C080E133272F2D1E2D0D2D47
:104F3000011511052105310519F0885F6801790116
:104F400097018601A4E03695279517950795AA95B0
:104F5000D1F7011511052105310519F08C5F6801A4
:104F6000790197018601F2E0369527951795079507
:104F7000FA95D1F7011511052105310519F08E5F5C
:104F800068017901B701A601769567955795479510
:104F9000452B462B472B09F08F5F1F910F91FF90F8
:104FA000EF90DF90CF9008958091A702843021F197
:104FB00010928F0220E488E190E00FB6F894A89553
:104FC000809360000FBE2093600080E00E948E14EA
:104FD00083B7817F846083BF83B7816083BF789408
:104FE000889583B78E7F83BF88E10FB6F89480934E
:104FF0006000109260000FBE089508950895CF9349
:105000000E94FD270E947B110E94FE27C0E08C2F8A
:105010000E946812811105C0CF5FCE30C1F780E0D9
:1050200001C081E0CF9108950E940C210E94891B4C
:105030000C948E1482E084BD93E095BD9AEF97BDE9
:1050400080936E0008952FB7F8948091900290910C
:105050009102A0919202B09193022FBF0895CF9236
:10506000DF92EF92FF920F931F932FB7F894409126
:1050700090025091910260919202709193022FBF21
:105080006A017B01EE24FF248C0120E030E0C01691
:10509000D106E206F30610F441505109481B590BA2
:1050A000CA011F910F91FF90EF90DF90CF9008956C
:1050B0001F920F920FB60F9211248F939F93AF936D
:1050C000BF938091900290919102A0919202B09131
:1050D00093020196A11DB11D8093900290939102BD
:1050E000A0939202B0939302BF91AF919F918F9141
:1050F0000F900FBE0F901F9018950E948F18F89474
:105100002FEF87EA91E6215080409040E1F700C000
:10511000000087E090EBDC018093B0029093B10235
:10512000A093B202B093B3022CE088E190E00FB6F6
:10513000F894A895809360000FBE20936000FFCF85
:10514000EF92FF920F931F93CF93DF93E82EF12CF2
:105150008F2D0E946812C0E0D0E0082F10E0980167
:105160000C2E02C0359527950A94E2F720FD05C064
:105170002196C630D10599F709C06C2F7F2D80E0AC
:105180000E942F13E812F4CF81E005C0F3948EE063
:10519000F812DECF80E0DF91CF911F910F91FF9049
:1051A000EF900895CF93C82F8CE20E94A028882307
:1051B00021F08C2FCF910C94A02880E0CF910895FE
:1051C000CF930E94252A811102C00E940B2AC5E6B6
:1051D000C15049F00E947B118FE39CE90197F1F7E0
:1051E00000C00000F5CF89E20E94D228811111C1D0
:1051F0008AE20E94D22881110E940B2A85E00E9437
:10520000D22881110E947D280E94302A80938E022C
:1052100087E00E94D228882399F18BE10E94D2284E
:10522000882351F090918E0291FB882780F921E02C
:10523000822780FB91F922C08EE00E94D228882329
:1052400051F090918E0292FB882780F921E082270D
:1052500080FB92F913C080E10E94D22890918E02C7
:10526000882341F093FB882780F921E0822780FB87
:1052700093F904C0892F809580FB90F990938E025A
:1052800080918E020E94342A0E94422A8093A102B9
:1052900080EE0E94D228882341F08091A102982FAD
:1052A000909590FB80F98093A10289E30E94D22817
:1052B000882359F09091A10291FB882780F921E081
:1052C000822780FB91F99093A10282EE0E94D2285E
:1052D000882359F09091A10292FB882780F921E060
:1052E000822780FB92F99093A10286EE0E94D22839
:1052F000882359F09091A10293FB882780F921E03F
:10530000822780FB93F99093A10283EE0E94D2281A
:10531000882359F09091A10294FB882780F921E01D
:10532000822780FB94F99093A10285E30E94D22802
:10533000882359F09091A10295FB882780F921E0FC
:10534000822780FB95F99093A10281E30E94D228E5
:10535000882359F09091A10296FB882780F921E0DB
:10536000822780FB96F99093A10281E10E94D228C6
:10537000882359F09091A10297FB882780F921E0BA
:10538000822780FB97F99093A1028091A1020E944D
:10539000462A8091A10287FB882780F980933D01EE
:1053A00087E20E94D228C82F8EE10E94D228811164
:1053B000C2608FE10E94D2288111C46080E20E9405
:1053C000D2288111C86081E20E94D2288111C06177
:1053D00082E20E94D2288111C06283E20E94D22818
:1053E0008111C06484E20E94D228882311F0C06831
:1053F00002C0CC2329F08C2F0E943D2A6C2F03C0C1
:105400000E94392A682F70E080E090E0CF910C94E0
:105410000625CF9108956DEE7EEF80E090E00E942A
:10542000643060E082E090E00E94563060E083E00B
:1054300090E00E94563060E084E090E00E94563098
:1054400060E085E090E00C94563080E090E00E94AF
:10545000503021E08D3E9E4F09F020E0822F0895CC
:1054600082E090E00C944830682F82E090E00C9449
:10547000563083E090E00C944830682F83E090E051
:105480000C94563084E090E00C944830682F84E00F
:1054900090E00C9456308091960280FF0BC0609192
:1054A000430185E0689FB001112475956795759556
:1054B00067952AC081FF09C06091430185E0689F1C
:1054C000B0011124759567951FC082FF07C06091D8
:1054D000430185E0689FB001112416C040919702F6
:1054E0004423C9F060914201461788F72091430197
:1054F00085E0289F90011124429FC001439F900D99
:10550000112470E00E941A306038710540F4611572
:10551000710539F002C065E070E0862F08958FE7CD
:10552000089581E008958091960280FF08C06091FF
:10553000410170E0759567957595679521C081FF6C
:1055400006C06091410170E07595679519C082FFB2
:1055500004C06091410170E010C0809197028823DF
:10556000C1F0609140018617A0F790914101989F8A
:10557000C001112470E00E941A306038710528F4CF
:105580006115710521F0862F08958FE7089581E058
:10559000089561E070E0F4CF803F21F40E944B2A2F
:1055A000819504C0813F29F40E944B2A80939A027E
:1055B0000895823F21F40E944B2A819504C0833FC5
:1055C00029F40E944B2A809399020895893F19F487
:1055D0000E94932A05C08A3F31F40E94932A819544
:1055E00080939B0208958B3F21F40E94932A81951A
:1055F00004C08C3F29F40E94932A80939C02089552
:10560000843F21F480919802816017C0853F21F486
:1056100080919802826011C0863F21F480919802A7
:1056200084600BC0873F21F480919802886005C098
:10563000883F31F4809198028061809398020895A8
:105640008D3F21F48091960281600BC08E3F21F442
:1056500080919602826005C08F3F29F48091960266
:105660008460809396020895803F39F480919A0275
:1056700087FF6CC010929A0269C0813F29F4809123
:105680009A021816BCF362C090919902823F29F4E5
:1056900097FF5CC01092990259C0833F19F4191604
:1056A000CCF354C0893F41F480919B0218160CF052
:1056B0004DC010929B024AC08A3F29F480919B0200
:1056C00087FF44C0F6CF8B3F39F480919C0287FF5F
:1056D0003DC010929C023AC08C3F29F480919C02FC
:1056E0001816BCF333C0843F21F4809198028E7F5A
:1056F00017C0853F21F4809198028D7F11C0863FAD
:1057000021F4809198028B7F0BC0873F21F4809118
:105710009802877F05C0883F31F4809198028F7E80
:105720008093980213C08D3F21F4809196028E7F62
:105730000BC08E3F21F4809196028D7F05C08F3F74
:1057400029F4809196028B7F809396028091990232
:1057500081110EC080919A0281110AC080919B0232
:10576000811106C080919C02811102C010929702A3
:10577000089588E992E00E94A01B0E94232890933C
:1057800095028093940208951F93CF93DF938091A5
:105790009402909195020E942F28409197024423F1
:1057A00021F02091440130E006C0209145015AE0EB
:1057B000259F900111248217930708F482C08091DD
:1057C000990210919A02D0919B02C0919C02811182
:1057D00007C0111105C0D11103C0CC2309F471C059
:1057E0004F3F19F04F5F40939702181624F40E9420
:1057F0004B2A809399028091990287FF05C00E94ED
:105800004B2A819580939902111624F40E944B2A09
:1058100080939A0280919A0287FF05C00E944B2ACA
:10582000819580939A0260919902662339F11091D3
:105830009A02112319F1772767FD7095872F972F0B
:105840000E942B2F23E333E343E35FE30E948F2F78
:105850000E94F82E60939902612F772767FD70955B
:10586000872F972F0E942B2F23E333E343E35FE33C
:105870000E948F2F0E94F82E60939A021D1624F426
:105880000E94932A80939B0280919B0287FF05C010
:105890000E94932A819580939B021C1624F40E94F7
:1058A000932A80939C0280919C0287FF05C00E94EE
:1058B000932A819580939C02DF91CF911F910C9444
:1058C000B92BDF91CF911F910895E8E9F2E085E0CF
:1058D000DF011D928A95E9F71092970210929602C5
:1058E0000895833081F128F4813059F08230D1F06D
:1058F0000895853009F449C0B8F1863009F456C0DE
:10590000089520914501862F90E0820F911D8F3FD1
:10591000910520F4620F6093450108958FEF809305
:105920004501089520914401862F90E0820F911D3A
:105930008F3F910520F4620F6093440108958FEF2B
:1059400080934401089520914301862F90E0820FB7
:10595000911D8F3F910520F4620F609343010895DC
:105960008FEF80934301089520914201862F90E0AC
:10597000820F911D8F3F910520F4620F60934201C9
:1059800008958FEF80934201089520914101862F61
:1059900090E0820F911D8F3F910520F4620F60937C
:1059A000410108958FEF80934101089520914001B6
:1059B000862F90E0820F911D8F3F910520F4620F9A
:1059C0006093400108958FEF8093400108958330E4
:1059D00011F128F4813049F0823091F0089585303A
:1059E00081F120F18630C1F1089580914501681759
:1059F00020F4861B80934501089510924501089577
:105A000080914401681720F4861B80934401089517
:105A100010924401089580914301681720F4861B79
:105A200080934301089510924301089580914201AB
:105A3000681720F4861B809342010895109242015A
:105A4000089580914101681720F4861B80934101DD
:105A5000089510924101089580914001681720F443
:105A6000861B8093400108951092400108958D3166
:105A700009F442C020F58E3009F47CC070F4873000
:105A800009F45EC020F4863009F442C033C0883087
:105A9000D1F18B3009F4AAC02DC0863109F4A6C01B
:105AA00038F4803109F470C0813109F47EC022C01D
:105AB000893109F49BC08B3109F452C01BC0853376
:105AC00009F48CC048F4873209F488C008F478C01F
:105AD000893209F483C00EC0833438F48A3308F065
