:100000000C9465020C94A9020C94A9020C94A90208
:100010000C94A9020C94A9020C94A9020C94A902B4
:100020000C94A9020C94A9020C94C90B0C949B0C7F
:100030000C94A9020C94A9020C94A9020C94A90294
:100040000C94A9020C9424210C94A9020C94A902EA
:100050000C94A9020C94C61A0C94A9020C94A9023F
:100060000C94A9020C94A9020C94A9020C94A90264
:100070000C94A9020C94A9020C94A9020C94A90254
:100080000C94A9020C94A9020C94A9020C94A90244
:100090000C94A9020C94A9020C94A9020C94A90234
:1000A0000C94A9020C94A9020C94A902000D220D33
:1000B0000D0E220D0D0E640D870D0D0EDC0DEF0DD6
:1000C000DC10DC100A110A114C11881188138813F6
:1000D000A01188139712971262138813881376134E
:1000E0000000F0A11E0035002B00E100E000000040
:1000F0001F00140004001D001E00E30020001A0071
:1001000016001B00E2002A0021000800070006007C
:100110005100280022001500090019005200460075
:10012000230017000A000500000001524C002A00BD
:10013000000029000000015439002A0000002800B6
:100140000000015424001C000B00110000000152AB
:10015000250018000D0010005000025226000C006F
:100160000E0036004F002C00270012000F00370051
:1001700031004C002D0013003300380030000254D1
:100180002E002F003400E500E40000000100010013
:1001900001000100010000003A000100010001001F
:1001A000010001003B00010001000100010001000D
:1001B0003C000100010001004E002A003D00490200
:1001C000010001004B0001003E00490101004C020A
:1001D000000001003F0001000000010000000100DC
:1001E000400001000000010000000100410001008A
:1001F00001000100000001004200010001000100B7
:100200004A00010043000100010001004D002A00E6
:100210004400010001000100010049004500010007
:1002200001000100010001000100010001000100C6
:1002300001000000010001000100010001000000B8
:1002400001000100010001000100010001000100A6
:10025000F2000100010001000100F000F1000100C6
:100260000100F40001000100F3000100F5000100AD
:1002700001000100F900FA00000001000100010086
:100280000000010000000100010001000000010069
:100290000000010001000100010001000000010058
:1002A00001005F005C005900620001000100600075
:1002B0005D005A0063000100010061005E005B0008
:1002C0000100010001000100010001000100010026
:1002D00001000100010001000100000016034500BB
:1002E000720067006F0044006F0078002000450036
:1002F0005A00000016034500720067006F004400BA
:100300006F007800200045005A0000000403090433
:1003100009026D00040100A0FA09040000010301B4
:100320000100092111010001223F00070581030896
:10033000000A090401000103010200092111010062
:1003400001224D000705820308000A09040200018A
:100350000300000009211101000122360007058376
:100360000308000A09040300010300000009211129
:100370000100012239000705840310000112011059
:100380000100000008EDFE07130100010200010555
:10039000010906A101050719E029E71500250195C6
:1003A0000875018102050819012905950575019156
:1003B000029501750391010507190029771500259C
:1003C00001957875018102C005010980A1018502AE
:1003D00016010026B7001A01002AB7007510950112
:1003E0008100C0050C0901A1018503160100269CAE
:1003F000021A01002A9C02751095018100C00501B6
:100400000902A1010901A100050919012905150029
:10041000250195057501810295017503810105018D
:10042000093009311581257F950275088106093843
:100430001581257F950175088106050C0A3802157E
:1004400081257F950175088106C0C005010906A1B7
:1004500001050719E029E7150025019508750181B7
:100460000295017508810105081901290595057591
:100470000191029501750391010507190029FF15E6
:100480000025FF950675088100C0000000000000EF
:100490000000000000010204060A0F17202C3A4A4F
:1004A0005D71879DB3C7DAE9F5FCFFFCF5E9DAC7B2
:1004B000B39D87715D4A3A2C20170F0A060402018A
:1004C0000000000000000000000011241FBECFEF5C
:1004D000DAE0DEBFCDBF04B603FE24C08091EE019A
:1004E0009091EF01A091F001B091F1018730904B14
:1004F000A740B04BB9F41092EE011092EF011092A8
:10050000F0011092F10114BE84B7877F84BF88E1A7
:100510000FB6F89480936000109260000FBEE0E088
:10052000FFE3099511E0A0E0B1E0ECECF5E402C0D6
:1005300005900D92A433B107D9F711E0A4E3B1E01F
:1005400001C01D92AE3EB107E1F70E940F090C9465
:10055000E4220C94000061110BC0FC01828188230D
:1005600021F085EE0E94700F03C085EE0E943810C6
:1005700080E090E0089508956091B1017091B2011A
:100580008091B3019091B4010E94F21956985E983F
:1005900025982D9826982E9827982F98813021F00D
:1005A000823021F4259A2D9A269A2E9A0E94480E7E
:1005B00081FF02C0259A2D9A08958CEB92E0892B39
:1005C00011F00E94BC0280E090E0089556985E9879
:1005D00025982D9826982E9827982F988FEF90E0A1
:1005E000909389008093880090938B0080938A0079
:1005F00090938D0080938C00259A2D9A2FEF80E7A1
:1006000092E0215080409040E1F700C00000269A1F
:100610002E9A2FEF80E792E0215080409040E1F742
:1006200000C00000279A2F9A2FEF80E792E0215018
:1006300080409040E1F700C0000025982D982FEFF2
:1006400080E792E0215080409040E1F700C0000038
:1006500026982E982FEF80E792E02150804090401E
:10066000E1F700C0000027982F9856985E982598CB
:100670002D9826982E9827982F98089589EA809388
:10068000800089E08093810024982C983F988AB15B
:100690008F748AB96E98479A8BB1806B8BB9769AB2
:1006A0000E94E6028BEB92E0892B11F00E94BB02C4
:1006B00080E090E0089580E2809300018091340111
:1006C00081110EC00E94AA0381E0809334012FEFB4
:1006D00083ED90E3215080409040E1F700C000009E
:1006E00080E40E94B0038093000181112EC00E941B
:1006F000DA0380930001811128C00E94DA038093FD
:100700000001811122C08FE30E94DA03809300016F
:1007100081111BC00E94D20380E40E94B003809329
:100720000001811112C08CE00E94DA038093000165
:1007300081110BC00E94DA0380930001811105C072
:100740008FE30E94DA03809300010E94D20380911C
:10075000000108951092B9008AE08093B8000895CE
:1007600094EA9093BC009091BC0097FFFCCF9091CD
:10077000B900987F983021F0903111F081E0089510
:100780008093BB0084E88093BC008091BC0087FF0D
:10079000FCCF8091B900887F883111F0803471F7E7
:1007A00080E0089584E98093BC008091BC0084FDC2
:1007B000FCCF08958093BB0084E88093BC008091B7
:1007C000BC0087FFFCCF9091B900987F81E0983200
:1007D00009F480E0089584E88093BC008091BC0017
:1007E00087FFFCCF8091BB000895809100018111AB
:1007F00015C080E40E94B0038093000181110CC0F9
:1008000082E10E94DA0380930001811105C08FEF1D
:100810000E94DA03809300010E94D20384B1807F9A
:1008200084B985B1807F85B98AB1837F8AB98BB15C
:10083000837F8BB93E98469808950E945B0380930E
:1008400000010E94F50380B38C7080BB81B3836F7D
:1008500081BBE4E4F1E0A6E3B1E011921D9281E0F6
:10086000E235F807D1F78EE393E0892B11F00C9471
:100870003E030895BF92CF92DF92EF92FF920F93C3
:100880001F93CF93DF9380910001882379F08091AB
:1008900035018F5F80933501811108C00E945B0391
:1008A00080930001811102C00E94E60206E311E07C
:1008B000C0E0D0E0DD24D39482E0C82EEE24E3949F
:1008C000F12CC73000F580910001811162C080E4F5
:1008D0000E94B00380930001811112C082E10E9446
:1008E000DA038093000181110BC0C7010C2E01C0F7
:1008F000880F0A94EAF780950E94DA03809300013A
:100900000E94D20346C0CA30A1F028F4C83059F082
:10091000C93061F005C0CC3089F070F0CD3089F07D
:10092000209A289810C0219A29980DC0229A2A98B6
:100930000AC0239A2B9807C0529A01C0539A5B9819
:1009400002C03E9A4698E0EAEA95F1F78FB17999AC
:1009500060C092E081708D25892B7C9B02C090E065
:1009600001C094E0892B7D9B02C090E001C098E01B
:10097000892B7E9B02C090E001C090E1892B9FB142
:100980009095991F9927991F9295990F907E892B81
:100990000FC080910001811151C080E40E94B0031A
:1009A000809300018823B9F1B12C0E94D2038B2DD2
:1009B000F8019081981719F08083C09201010E947C
:1009C000F50321960F5F1F4FCE30D10509F079CF87
:1009D000809101018823B1F0815080930101882327
:1009E00039F08FE99FE00197F1F700C000000AC0DD
:1009F000A4E4B1E0E6E3F1E081918D9391E0E43489
:100A0000F907D1F78DED92E0892BD1F00E94DD023C
:100A100017C090E09FCF83E10E94DA03809300012A
:100A20008111C2CF81E40E94B00380930001811143
:100A3000BBCF0E94EB03B82EB094B7CF80E0B8CF05
:100A400081E0DF91CF911F910F91FF90EF90DF90A8
:100A5000CF90BF900895E82FF0E0EC5BFE4F8081CF
:100A6000089508958B3B910578F4883A910540F5F7
:100A7000853A9105D0F48430910508F0B1C08130F9
:100A8000910509F4ADC06BC0803E910508F467C0C4
:100A9000883E910508F4A4C09C01205F31092031F3
:100AA000310508F05CC090650895853A910509F418
:100AB00059C0863A910509F458C083E890E4089536
:100AC000883A910509F454C0893A910509F453C054
:100AD0008A3A910509F452C08B3A910509F451C044
:100AE0008C3A910509F450C08D3A910509F44FC034
:100AF000803B910509F44EC08E3A910509F44DC032
:100B00008F3A910509F44CC0813B910509F44BC023
:100B1000823B910509F44AC0833B910509F449C021
:100B2000843B910509F448C0853B910509F447C011
:100B3000863B910509F446C0873B910509F445C001
:100B4000883B910509F444C0893B910509F443C0F1
:100B50008A3B910509F042C08AE296E4089580E05C
:100B600090E0089581E890E4089582E890E4089583
:100B700082EE94E4089589EE94E408958AEE94E474
:100B8000089585EB94E4089586EB94E4089587EB4B
:100B900094E408958CEC94E408958DEC94E4089525
:100BA00083E895E408958AE895E4089582E995E458
:100BB000089584E995E4089581E296E4089583E236
:100BC00096E4089584E296E4089585E296E4089513
:100BD00086E296E4089587E296E4089580E094E43E
:100BE0000895089596E0799FF001112494E5899F76
:100BF000E00DF11D1124E60FF11DEE0FFF1FEC516A
:100C0000FF4F859194910895880F991F805A9040C5
:100C1000FC01859194910895880F991F80529F4FF0
:100C2000FC0185919491089526E0729FF0011124B2
:100C300044E5849FE00DF11D1124E60FF11DEE0F38
:100C4000FF1FEC51FF4F25913491C9019A958115F1
:100C50009F4110F4C9010895C90190528115904136
:100C600028F4C9019F700E940C060895C901905391
:100C70008115904120F4C9019927906C08952115A0
:100C800080E5380769F40E94A9139FEF24E34CE044
:100C9000915020404040E1F700C000000C94EB1A56
:100CA000213080E5380731F48091CC018160809358
:100CB000CC010895C90190558115904108F050C0AC
:100CC000832F99278F70992781309105D9F4A90135
:100CD0004370552702C0880F991F4A95E2F79C6818
:100CE000A90164E0440F551F6A95E1F7442753704A
:100CF000842B952B73E0220F331F7A95E1F7207632
:100D000033271DC08230910529F4922F8827816FE7
:100D1000906A089583309105A9F4A901437055277D
:100D200081E090E002C0880F991F4A95E2F79C6825
:100D300043E0220F331F4A95E1F7207E3770822B64
:100D4000932B08950497F1F4A9014370552781E08E
:100D500090E002C0880F991F4A95E2F79A68E8CFA1
:100D6000C90190578115904120F4C9019F7090628C
:100D70000895C90190588115904120F4C9019F70D0
:100D8000906A0895203E3105E0F4203C310558F585
:100D90002133310509F470C048F42932310509F4D2
:100DA00064C02A32310509F46EC074C0293331059C
:100DB000F1F022383105D9F02533310509F44EC060
:100DC00069C0233E310589F138F4203E3105C1F078
:100DD000223E3105E1F05EC0263E310569F1273E35
:100DE0003105A9F157C0C9010E94040608958091F8
:100DF000DF0180FD02C081FF4DC080EE90E04BC05E
:100E00008091DF0180FFF9CF89E390E044C08091B9
:100E1000DF0182FF0EC08091DF0184FF03C080E00C
:100E200090E039C083EE90E036C08091DF0182FF10
:100E3000F2CF82EE90E02FC08091DF0183FF0BC0E4
:100E40008091DF0184FDEBCF87EE90E024C080919C
:100E5000DF0183FFF5CF86EE90E01DC08091DF01BA
:100E600085FF07C089E290E016C08091DF0185FF11
:100E7000F9CF85E390E00FC08091DF0186FF07C0C6
:100E80008AE290E008C08091DF0186FFF9CF81E31C
:100E900090E001C0C9010E94320508950895809133
:100EA00062010895CF93DF9300D01F92CDB7DEB7D4
:100EB0002091E501243019F523E029839B838A835F
:100EC0002093E9008FEF9091E800815095FD06C0D6
:100ED00095ED9A95F1F700008111F5CF8091E8002A
:100EE00085FF0DC040E050E063E070E0CE01019668
:100EF0000E94BC098091E8008E778093E8000F90F3
:100F00000F900F90DF91CF910895CF93DF9300D092
:100F10001F92CDB7DEB72091E501243021F522E004
:100F200029839B838A8383E08093E9008FEF9091EC
:100F3000E800815095FD06C095ED9A95F1F7000007
:100F40008111F5CF8091E80085FF0DC040E050E0B1
:100F500063E070E0CE0101960E94BC098091E80038
:100F60008E778093E8000F900F900F90DF91CF91D4
:100F700008952091E5012430F1F422E02093E90066
:100F80002FEF3091E800215035FD06C035ED3A9540
:100F9000F1F700002111F5CF2091E80025FF0BC0EB
:100FA00040E050E065E070E00E94BC098091E800FC
:100FB0008E778093E8000895CF93DF93EC018091C2
:100FC000E501843009F046C090910C019923D9F0D5
:100FD00090910D019923B9F08093E9008FEF9091E2
:100FE000E800815095FD06C095E19A95F1F7000063
:100FF0008111F5CF8091E80085FF2CC040E050E0E2
:1010000060E170E017C081E08093E9008FEF90917C
:10101000E800815095FD06C095ED9A95F1F7000026
:101020008111F5CF8091E80085FF14C040E050E0C9
:1010300068E070E0CE010E94BC098091E8008E77E4
:101040008093E80080E1FE01A2E5B1E001900D92FD
:101050008A95E1F7DF91CF9108958091E4018111A4
:1010600009C00E944E0B0E94AB0B8091E20084608D
:101070008093E20008951092E401089508950C947D
:1010800011210E94821A0E9417210E94480E0C947E
:101090004E0742E061EC81E00E94C80A42E061EC48
:1010A00082E00E94C80A42E061EC83E00E94C80A24
:1010B00042E161EC84E00C94C80A8091E70183303E
:1010C00009F455C030F4813071F0823009F48EC0DB
:1010D00008958A3009F47AC08B3009F460C08930F1
:1010E00009F09CC020C08091E601813A09F096C0C9
:1010F0008091E800877F8093E8008091EA019091D9
:10110000EB01892B21F060E080E090E003C060E11A
:1011100082E591E070E00E94050A8091E8008B77FB
:101120008093E80008958091E601813209F076C04D
:101130008091EA019091EB01009719F0039709F073
:101140006DC08091E800877F8093E8008091E8007F
:1011500082FD05C08091E5018111F8CF5FC08091CB
:10116000F100809362018091E8008B7753C08091F9
:10117000E601813A09F052C08091EA019091EB01B9
:10118000892B09F04BC08091E800877F8093E800AD
:101190008091E80080FFFCCF80910C0136C08091E7
:1011A000E6018132D9F58091EA019091EB01892B1A
:1011B000A9F58091E800877F8093E8000E94FD0AEE
:1011C0008091E80180930C010C94A9138091E601B1
:1011D000813221F58091E800877F8093E8000E94AA
:1011E000FD0A8091E9018093630108958091E601F1
:1011F000813AA1F48091E800877F8093E800809194
:10120000E80080FFFCCF809163018093F100809122
:10121000E8008E778093E8000C94FD0A089584B767
:10122000877F84BF88E10FB6F894809360001092A6
:1012300060000FBE90E080E80FB6F89480936100E4
:10124000909361000FBE0E94970E0E944E0B0E9469
:10125000AB0B8091E20084608093E20078940E945E
:10126000260E0E94990E82E091E00E94430E0E9499
:10127000FF208091E501853069F40E94451A809134
:10128000E3018823B1F30E946D1A882391F30E9431
:10129000A609EFCF0E949F0EECCF292F33272330D2
:1012A0003105A9F06CF42130310509F442C0223037
:1012B000310509F043C08DE690E020E133E042C003
:1012C00021323105C9F02232310519F137C0992791
:1012D0008130910541F08230910541F0892B71F503
:1012E000ECE0F3E005C0E4EFF2E002C0ECEDF2E088
:1012F000849190E09F0126C0643000F5E62FF0E075
:10130000EE0FFF1FEE5DFE4F2081318189E090E0FE
:1013100019C0643098F4E62FF0E0DF01AA0FBB1F7C
:10132000A65EBE4F2D913C91EA5EFE4F808190E01B
:1013300009C082E190E02DE733E004C080E090E056
:1013400020E030E0FA0131832083089580E189BDF7
:1013500082E189BD09B400FEFDCF8091D8008F7D68
:101360008093D8008091E00082608093E0008091BB
:10137000E00081FDFCCF0895CF92DF92EF92FF92C3
:101380000F931F93CF93DF937C018B01EA010E949F
:101390001E0B811131C0209731F088819981081B83
:1013A000190BE80EF91EC12CD12C0115110519F1EC
:1013B0008091E80085FD14C08091E8008E778093CD
:1013C000E800209741F0888199818C0D9D1D9983BB
:1013D000888385E011C00E941E0B882331F30CC066
:1013E000F70181917F018093F10001501109FFEF16
:1013F000CF1ADF0ADACF80E0DF91CF911F910F91F2
:10140000FF90EF90DF90CF9008952091EC01309104
:10141000ED012617370748F06115710539F4209161
:10142000E8002E772093E80001C0B901FC0120E01C
:1014300061157105B9F18091E501882309F440C077
:10144000853009F43FC08091E80083FD3DC0809164
:10145000E80082FF06C08091E80082FF26C080E09D
:1014600008958091E80080FFE3CF2091F300809100
:10147000F20090E0922B6115710551F088309105D2
:1014800038F421912093F100615071090196F3CF56
:1014900021E0089709F020E08091E8008E778093A2
:1014A000E800C6CF2111C7CFD6CF8091E5018823B0
:1014B00039F0853039F08091E80083FFCCCF04C04B
:1014C00082E0089583E0089581E008952091EC0181
:1014D0003091ED012617370748F06115710539F491
:1014E0002091E8002E772093E80001C0B901FC01AB
:1014F00020E061157105C1F18091E501882309F4AF
:1015000041C0853009F440C08091E80083FD3EC0B1
:101510008091E80082FF06C08091E80082FF27C02A
:1015200080E008958091E80080FFE3CF2091F300F0
:101530008091F20090E0922B6115710559F088308E
:10154000910540F424912093F10031966150710986
:101550000196F2CF21E0089709F020E08091E800A1
:101560008E778093E800C5CF2111C6CFD5CF80916B
:10157000E501882339F0853039F08091E80083FF58
:10158000CBCF04C082E0089583E0089581E0089500
:10159000982F973058F59093E900981739F070918B
:1015A000EC002091ED005091F00003C0242F762F25
:1015B00050E021FF19C03091EB003E7F3093EB00EB
:1015C0003091ED003D7F3093ED003091EB003160C4
:1015D0003093EB007093EC002093ED005093F000FB
:1015E0002091EE0027FF07C09F5FD3CF8F708093BD
:1015F000E90081E0089580E008958091E60187FD8B
:1016000005C08091E80080FF0EC012C08091E80004
:1016100082FD05C08091E5018111F8CF0895809188
:10162000E8008B7708C08091E5018111EACF089529
:101630008091E8008E778093E80008958091E4001F
:101640009091E50045E62091EC0020FF21C020911B
:10165000E80020FD21C02091E501222389F02530FA
:1016600089F02091EB0025FD0FC02091E40030911E
:10167000E5002817390739F3415041F0C901E3CF9C
:1016800082E0089583E0089581E0089584E008955C
:101690002091E80022FFDFCF80E008950E94BC0B7C
:1016A0000E94C40BE0EEF0E0808181608083E8ED71
:1016B000F0E080818F77808319BCA7EDB0E08C913A
:1016C0008E7F8C9380818F7E80831092E4010895B9
:1016D0000F931F93CF93DF930E94BC0B0E94C40B08
:1016E000C8EDD0E088818F7788838881806888837F
:1016F00088818F7D888319BC1092E5011092E101E9
:101700001092E3011092E20100EE10E0F8018081F6
:101710008B7F808388818160888342E060E080E005
:101720000E94C80AE1EEF0E080818E7F8083E2EEC5
:10173000F0E0808181608083808188608083F8010F
:1017400080818E7F8083888180618883DF91CF91C3
:101750001F910F910895E8EDF0E080818F7E8083E6
:10176000E7EDF0E080818160808384E082BF81E0EA
:101770008093E4010C94680BE8EDF0E080818E7FAB
:1017800080831092E20008951092DA001092E10036
:1017900008951F920F920FB60F9211242F933F932B
:1017A0004F935F936F937F938F939F93AF93BF9369
:1017B000EF93FF938091E10082FF0BC08091E200E4
:1017C00082FF07C08091E1008B7F8093E1000E943F
:1017D000250E8091DA0080FF1FC08091D80080FF25
:1017E0001BC08091DA008E7F8093DA008091D9004F
:1017F00080FF0DC080E189BD82E189BD09B400FE92
:10180000FDCF81E08093E5010E942D0805C019BC41
:101810001092E5010E943B088091E10080FF19C011
:101820008091E20080FF15C08091E2008E7F80935E
:10183000E2008091E20080618093E2008091D80014
:1018400080628093D80019BC85E08093E5010E94F6
:101850003F088091E10084FF30C08091E20084FF66
:101860002CC080E189BD82E189BD09B400FEFDCFB5
:101870008091D8008F7D8093D8008091E1008F7E89
:101880008093E1008091E2008F7E8093E20080915E
:10189000E20081608093E2008091E101882311F0F1
:1018A00084E007C08091E30087FF02C083E001C0AD
:1018B00081E08093E5010E9441088091E10083FF6F
:1018C00029C08091E20083FF25C08091E100877FDD
:1018D0008093E10082E08093E5011092E101809124
:1018E000E1008E7F8093E1008091E2008E7F809303
:1018F000E2008091E20080618093E20042E060E0DB
:1019000080E00E94C80A8091F00088608093F00017
:101910000E943E08FF91EF91BF91AF919F918F91EF
:101920007F916F915F914F913F912F910F900FBEDB
:101930000F901F9018951F920F920FB60F921124BF
:101940002F933F934F935F936F937F938F939F93C7
:10195000AF93BF93CF93EF93FF93C091E900CF7004
:101960008091EC001092E9008091F000877F8093D5
:10197000F00078940E94D70C1092E9008091F0005A
:1019800088608093F000C093E900FF91EF91CF91C0
:10199000BF91AF919F918F917F916F915F914F9187
:1019A0003F912F910F900FBE0F901F9018951F938E
:1019B000CF93DF93CDB7DEB7AA970FB6F894DEBF0B
:1019C0000FBECDBFE6EEF1E08091F100819321E002
:1019D000EE3EF207C9F70E945D088091E80083FFA0
:1019E0001CC12091E6013091E701832F90E08A30FD
:1019F000910508F012C1FC01EA5AFF4F0C9499229C
:101A0000203881F0223809F008C18091EA018F70F6
:101A10008093E9008091EB0085FB882780F9109284
:101A2000E90006C08091E2019091E301911182608A
:101A30009091E800977F9093E8008093F1001092D6
:101A4000F100C5C0822F8D7F09F0E7C0222319F075
:101A5000223061F0E2C08091E801813009F0DDC000
:101A6000333009F080E08093E30128C08091E801E1
:101A7000811124C02091EA012F7009F4CEC0209377
:101A8000E9008091EB0080FF19C08091EB003330BA
:101A900011F4806211C080618093EB0081E090E0DE
:101AA000022E01C0880F0A94EAF78093EA00109290
:101AB000EA008091EB0088608093EB001092E900CF
:101AC0008091E800877F86C02111A7C01091E801AE
:101AD0001F778091E3008078812B8093E3008091D1
:101AE000E800877F8093E8000E94FD0A8091E8006B
:101AF00080FFFCCF8091E30080688093E300112396
:101B000011F083E001C082E08093E50186C0205897
:101B1000223008F082C08091E8019091E9018C3D6B
:101B200023E0920779F583E08A838AE289834FB7BD
:101B3000F894DE01139620E03EE051E2E32FF0E05E
:101B400050935700E49120FF03C0E295EF703F5F90
:101B5000EF708E2F90E0EA3010F0C79601C0C0966B
:101B60008D939D932F5F243149F74FBF8091E800FB
:101B7000877F8093E8006AE270E0CE0101960E94C0
:101B8000050A14C0AE014F5F5F4F6091EA010E94E9
:101B90004D09009709F441C02091E800277F209368
:101BA000E800BC0189819A810E94660A8091E80060
:101BB0008B778093E80031C0203879F58091E80078
:101BC000877F8093E8008091E1018093F10080910C
:101BD000E8008E778093E8000E94FD0A1EC0211164
:101BE0001CC09091E8019230C0F48091E800877F9A
:101BF0008093E8009093E1010E94FD0A8091E10149
:101C0000811104C08091E30087FF02C084E001C01D
:101C100081E08093E5010E9449088091E80083FFFC
:101C20000AC08091E800877F8093E8008091EB00F4
:101C300080628093EB00AA960FB6F894DEBF0FBEC9
:101C4000CDBFDF91CF911F9108950895CF938091DB
:101C5000E5018823B1F08091E9008F709091EC004C
:101C600090FF02C090E801C090E0C92FC82B1092ED
:101C7000E9008091E80083FD0E94D70CCF70C093EB
:101C8000E900CF91089590936901809368010895C8
:101C9000E0916801F0916901309721F00190F081A5
:101CA000E02D099480E00895E0916801F0916901C8
:101CB000309721F00280F381E02D09940895E0919E
:101CC0006801F0916901309721F00480F581E02DE1
:101CD0000994089520916601309167018217930756
:101CE00071F09093670180936601E0916801F09133
:101CF0006901309721F00680F781E02D099408955D
:101D000020916401309165018217930771F09093DF
:101D1000650180936401E0916801F0916901309759
:101D200021F00084F185E02D0994089508950C9424
:101D3000960E0E94881A0E941D040C944E1BCF928E
:101D4000DF92EF92FF920F931F93CF93DF93CDB764
:101D5000DEB72B970FB6F894DEBF0FBECDBF0E9443
:101D60003A043BE6E32E31E0F32E00E010E0C02E13
:101D7000802F0E942B05F701D1907F01D826B1F466
:101D80000F5F1F4F0E30110591F78FEF89838A8304
:101D90001B820E94911A8160782F9D838C834981D8
:101DA0005A816B818D810E94420F41C09091CC017C
:101DB00091FF04C08B870E9431058B8520E030E0C5
:101DC0004D2D50E0922FBA01022E02C075956795F5
:101DD0000A94E2F760FF25C02E83CF82EE24E394BD
:101DE000F12C02C0EE0CFF1C9A95E2F790E08E21D8
:101DF0009F2121E0892B09F420E028870E94911A75
:101E00008160782F9A8789874E815F8168858A856E
:101E10000E94420FF801E559FE4F80818E25808394
:101E200006C02F5F3F4F2630310561F6A9CF0E94D3
:101E3000321E10916A010E94480E1817A1F00E94EC
:101E4000480E80936A012B960FB6F894DEBF0FBE42
:101E5000CDBFDF91CF911F910F91FF90EF90DF9059
:101E6000CF900C944E072B960FB6F894DEBF0FBEA2
:101E7000CDBFDF91CF911F910F91FF90EF90DF9039
:101E8000CF900895CF93DF93CDB7DEB72B970FB6E2
:101E9000F894DEBF0FBECDBF4F83588769877A871E
:101EA0008B87DE01119686E0FD0111928A95E9F794
:101EB00085E0FE01379601900D928A95E1F7498100
:101EC0005A816B817C818D819E810E9475162B9633
:101ED0000FB6F894DEBF0FBECDBFDF91CF9108954E
:101EE000CF93C82F882309F4C1C0823859F40E94C7
:101EF000480E81FDBBC089E30E9412190E94CC19D3
:101F000089E30CC0833879F40E94480E80FDAEC08E
:101F100083E50E9412190E94CC1983E50E94521990
:101F2000CF910C94CC19843859F40E94480E82FD4C
:101F30009DC087E40E9412190E94CC1987E4EECF5D
:101F40008CEF8C0F813A48F48C2F0E94672081110E
:101F50008DC08C2F0E941219E3CF80E28C0F883045
:101F600048F4C77081E001C0880FCA95EAF70E9463
:101F70009319D6CF8BE58C0F833078F4C53A29F0CE
:101F8000C63A31F482E890E005C081E890E002C0F2
:101F900083E890E0CF910C946A0E88E58C0F833132
:101FA00008F064C0C83A39F1C93A41F1CA3A49F176
:101FB000CB3A51F1CC3A59F1CD3A61F1C03B69F1DC
:101FC000CE3A71F1CF3A79F1C13B81F1C23B89F14F
:101FD000C33B91F1C43B99F1C53BA1F1C63BA9F1CB
:101FE000C73BB1F1C83BB9F1C93BC1F1CA3BC9F527
:101FF0008AE292E038C082EE90E035C089EE90E04F
:1020000032C08AEE90E02FC085EB90E02CC086EBCA
:1020100090E029C087EB90E026C08CEC90E023C0D4
:102020008DEC90E020C083E891E01DC08AE891E04B
:102030001AC082E991E017C084E991E014C081E2FE
:1020400092E011C083E292E00EC084E292E00BC005
:1020500085E292E008C086E292E005C087E292E065
:1020600002C080E090E0CF910C94800ECF91089553
:10207000882309F44BC0823859F40E94480E81FF2E
:1020800045C089E30E9412190E94CC1989E30CC053
:10209000833871F40E94480E80FF38C083E50E94A7
:1020A00012190E94CC1983E50E9452190C94CC1984
:1020B000843859F40E94480E82FF28C087E40E94A9
:1020C00012190E94CC1987E4EFCF9CEF980F913A38
:1020D00058F390E2980F983050F4877091E001C067
:1020E000990F8A95EAF7892F0E949919DFCF9BE50E
:1020F000980F933020F480E090E00C946A0E885A98
:10210000833120F480E090E00C94800E08958823C1
:1021100021F00E9493190C94CC190895882321F082
:102120000E9499190C94CC190895CF92DF92EF92E6
:10213000FF920F931F93CF93DF93CDB7DEB728970E
:102140000FB6F894DEBF0FBECDBF8C0185E0F8015D
:10215000DE01119601900D928A95E1F7F801408118
:102160003181F280258122952F7083819481892B82
:1021700031F03F3F31F481E04F3F19F403C081E07B
:1021800001C080E080FDC4C249833A8389819A817D
:102190002F830E94D0189E8388870E94CF180E94A8
:1021A000A2174E81E42FE295EF70F0E0E05AFF4F66
:1021B0002F8168850C949922842F807F142F1F70A3
:1021C000882311F01295107FFF2059F0112309F494
:1021D00054C2812F68870E94A3190E94CC19688578
:1021E0004CC2862F0E943810112309F491C2812F0E
:1021F0000E94A91928960FB6F894DEBF0FBECDBF76
:10220000DF91CF911F910F91FF90EF90DF90CF90D2
:102210000C94CC19342F307F842F8F70303211F012
:102220008295807F662319F0613019F12BC0FF2061
:10223000B1F0222309F493C1213009F090C128960E
:102240000FB6F894DEBF0FBECDBFDF91CF911F91C7
:102250000F91FF90EF90DF90CF900C94B319222351
:1022600019F0213009F454C28E830E94B6198E8170
:1022700089C1FF2021F0223008F04AC270C121112B
:1022800047C280C1FF2021F0222309F468C1F5C1B3
:10229000222309F477C105C2242F269526952370A1
:1022A00030E02115310521F021303105C9F030C26F
:1022B000FF2021F0862F942F937002C080E090E0E1
:1022C00028960FB6F894DEBF0FBECDBFDF91CF9139
:1022D0001F910F91FF90EF90DF90CF900C946A0EBA
:1022E000FF2021F0862F942F937002C080E090E0B1
:1022F00028960FB6F894DEBF0FBECDBFDF91CF9109
:102300001F910F91FF90EF90DF90CF900C94800E73
:10231000862FFF2019F00E943A1D02C00E94A21DC4
:1023200028960FB6F894DEBF0FBECDBFDF91CF91D8
:102330001F910F91FF90EF90DF90CF900C94271E8C
:10234000842F837009F076C0F110E2C1262F229508
:1023500026952770220F220F862F8F70C82ED12C22
:10236000E12CF12C022E04C0CC0CDD1CEE1CFF1C59
:102370000A94D2F764FF10C06FE070E080E090E054
:1023800004C0660F771F881F991F2A95D2F76095A2
:1023900070958095909503C060E070E0CB01242F8C
:1023A000269526952370422F50E042305105D1F0FA
:1023B0004330510559F16C297D298E299F294130DF
:1023C000510541F128960FB6F894DEBF0FBECDBF80
:1023D000DF91CF911F910F91FF90EF90DF90CF9001
:1023E0000C94C7176C297D298E299F2928960FB632
:1023F000F894DEBF0FBECDBFDF91CF911F910F913B
:10240000FF90EF90DF90CF900C94E1170E94C717D8
:10241000C701B60128960FB6F894DEBF0FBECDBF38
:10242000DF91CF911F910F91FF90EF90DF90CF90B0
:102430000C94AD17FF2019F0842F817001C0869590
:10244000882309F465C1262F229526952770220F2F
:10245000220F862F8F70C82ED12CE12CF12C022E4A
:1024600004C0CC0CDD1CEE1CFF1C0A94D2F764FFE8
:1024700010C06FE070E080E090E004C0660F771F4E
:10248000881F991F2A95D2F7609570958095909531
:1024900003C060E070E0CB01242F269526952370C1
:1024A000422F50E042305105D1F04330510559F1EF
:1024B0006C297D298E299F294130510541F12896AB
:1024C0000FB6F894DEBF0FBECDBFDF91CF911F9145
:1024D0000F91FF90EF90DF90CF900C949B186C2998
:1024E0007D298E299F2928960FB6F894DEBF0FBE4E
:1024F000CDBFDF91CF911F910F91FF90EF90DF90B3
:10250000CF900C94B5180E949B18C701B60128966D
:102510000FB6F894DEBF0FBECDBFDF91CF911F91F4
:102520000F91FF90EF90DF90CF900C948118603F57
:10253000C9F118F4603E50F49BC0623F09F460C0DA
:1025400008F44AC0633F09F46FC092C0162F1F7091
:10255000842F8F71FF2099F00E941A18812F2896DE
:102560000FB6F894DEBF0FBECDBFDF91CF911F91A4
:102570000F91FF90EF90DF90CF900C9487100E9406
:102580003B18812F28960FB6F894DEBF0FBECDBF43
:10259000DF91CF911F910F91FF90EF90DF90CF903F
:1025A0000C948E10FF20A1F02111B2C0842F8F71E6
:1025B00028960FB6F894DEBF0FBECDBFDF91CF9146
:1025C0001F910F91FF90EF90DF90CF900C946018C7
:1025D000223008F09DC0EACFFF20A1F0842F8F7138
:1025E00028960FB6F894DEBF0FBECDBFDF91CF9116
:1025F0001F910F91FF90EF90DF90CF900C941A18DD
:10260000FF2061F3842F8F7128960FB6F894DEBFF8
:102610000FBECDBFDF91CF911F910F91FF90EF9033
:10262000DF90CF900C943B18FF2091F0842F8F7196
:1026300028960FB6F894DEBF0FBECDBFDF91CF91C5
:102640001F910F91FF90EF90DF90CF900C940518A1
:1026500028960FB6F894DEBF0FBECDBFDF91CF91A5
:102660001F910F91FF90EF90DF90CF900C94FB178C
:10267000FF20A1F0222309F4B1CF862F28960FB6B0
:10268000F894DEBF0FBECDBFDF91CF911F910F91A8
:10269000FF90EF90DF90CF900C94700F222309F4FD
:1026A000B1CF862F28960FB6F894DEBF0FBECDBFF0
:1026B000DF91CF911F910F91FF90EF90DF90CF901E
:1026C0000C9438104F70C8010E94AB0228960FB6C8
:1026D000F894DEBF0FBECDBFDF91CF911F910F9158
:1026E000FF90EF90DF90CF900C9422174F70C801AD
:1026F00028960FB6F894DEBF0FBECDBFDF91CF9105
:102700001F910F91FF90EF90DF90CF900C94F10507
:1027100028960FB6F894DEBF0FBECDBFDF91CF91E4
:102720001F910F91FF90EF90DF90CF9008950E943E
:10273000B0190E9485190E94CC190E94D31E0E94D4
:10274000271E80E090E00E946A0E80E090E00C94EA
:10275000800E0E94A0190C9497130E94D018292F64
:1027600022952F7030E02C3031054CF42A303105A1
:102770006CF4225031092230310590F407C02C301E
:10278000310551F02F30310539F00AC0803E10F08C
:10279000803F31F481E0089593FB882780F9089504
:1027A00080E00895CF93DF9300D000D01F92CDB783
:1027B000DEB70F900F900F900F900F90DF91CF9199
:1027C0000895CF93DF9300D000D000D0CDB7DEB70F
:1027D00026960FB6F894DEBF0FBECDBFDF91CF9126
:1027E00008951F93CF93DF93C091790116E08091F4
:1027F0007A01C81799F0D0E01C9FF0011D9FF00DE1
:102800001124E558FE4F408151816281738184819A
:1028100095810E94E1132196C770E9CFDF91CF9196
:102820001F9108954091AB015091AC016091AD01B1
:102830007091AE018091AF019091B0010C94E113C1
:10284000CF938091B00182958F7009F05FC0809125
:10285000AD01882309F45AC020917901A0917A0131
:102860006091AB017091AC018091AE019091AF018C
:1028700031E06F3F09F030E0B32FC6E02A1709F4CA
:1028800045C0009721F07F3F21F44B2F03C041E06A
:1028900001C040E030E040FD35C0C29FF001C39F61
:1028A000F00D1124E558FE4F418174132BC0408177
:1028B000641328C04281411125C0438154814817C7
:1028C000590710F441505109481B590B483C510518
:1028D000C8F48091B0018F7080618093B00186E070
:1028E000829FF001839FF00D1124E058FE4F8081FC
:1028F0008F70806180838BEA91E00E949510CF9168
:102900000C94F1132F5F3F4F2770B8CFCF910895EC
:10291000CF92DF92EF92FF920F931F93CF93DF93AB
:10292000CDB7DEB762970FB6F894DEBF0FBECDBF4E
:102930008C0185E0F801DE011D9601900D928A95CB
:10294000E1F7D8014C9111965C91119712966C9118
:1029500012971396ED90FC9014977091AB01E09153
:10296000AC012091AE013091AF012115310531F05C
:10297000EF3F31F481E07F3F19F403C081E001C0F3
:1029800080E0B82FB170CB2E80FD6CC1D090AD012E
:10299000DD2009F4F5C0F091B001E216F30638F03D
:1029A000C701821B930B883C910548F09BC0209582
:1029B00030952E0D3F1D283C310508F093C08F2F18
:1029C000807F09F052C0E51314C0741312C0D62ED4
:1029D00061110FC0FF70F061F093B0010E941214FA
:1029E0008BEA91E00E9495108091B001F8018583F7
:1029F0006CC1EF2831F05F3F31F481E04F3F19F4B3
:102A000003C081E001C080E080FD03C081E0862733
:102A100001C080E0F82FF170FF2E80FF1CC0809174
:102A2000790120917A0136E0821709F428C190E0FB
:102A3000389FF001399FF00D1124E558FE4F718148
:102A4000571306C07081471303C07281671303C018
:102A500001968770E9CFD62E662309F436C180919E
:102A6000B00181608093B00153C0E51308C07413B6
:102A700006C0611104C0D8011596FC93AEC04D8705
:102A80005E878D859E856A8B0E94AD136A89882337
:102A900029F1D62E662311F12091B001822F829563
:102AA0008F7090E002970CF460C08091AB01909120
:102AB000AC0198878F831986FB86EA862C87CE0126
:102AC000079651C0E51731F14D875E878D859E854C
:102AD0006A8B0E94AD136A8981112EC0C8010E94C1
:102AE0009510A4C08F2F807F69F77E2DF98AE88A20
:102AF00089890E94D2138BEA91E00E949510EBEA3B
:102B0000F1E086E0DF011D928A95E9F70E94121438
:102B1000D12CDBC07413D8CF6111D6CFD801159654
:102B2000FC93C8010E949510EBEAF1E086E0DF011A
:102B30001D928A95E9F7C9C0D62E662379F22091B5
:102B4000B001822F82958F7090E0029774F080918F
:102B5000AB019091AC019A8389831B82FD82EC8248
:102B60002E83CE0101960E94951086E0F801ABEA13
:102B7000B1E001900D928A95E1F70E9420146FC098
:102B8000E216F30628F0C701821B930B9C0104C0D8
:102B9000209530952E0D3F1D283C310508F052C080
:102BA000D62E662309F49ACFE5132CC074132AC0DD
:102BB0008091B00180FD1DC0982F92959F70C9F043
:102BC000D80115968C9315979F3039F09F5F929599
:102BD000907F8F70892B15968C93C8010E94951059
:102BE00086E0F801ABEAB1E001900D928A95E1F739
:102BF00036C086E0F801ABEAB1E001900D928A950B
:102C0000E1F763C04D875E878D859E850E94AD1379
:102C1000882379F086E0F801ABEAB1E001900D92EB
:102C20008A95E1F70E9420140E941214DD24D394A7
:102C30004CC08091B00181608093B001C8010E94B6
:102C4000951043C07E2DF98AE88A89890E94D213A3
:102C5000EBEAF1E086E0DF011D928A95E9F70E9438
:102C6000121433C0662309F439CF4D875E878D85F2
:102C70009E850E94AD13882309F430CFCBCF4D87BA
:102C80005E878D859E850E94D018292F22952F70F2
:102C900030E0223031052CF49F7041F0811106C0E4
:102CA0000CC0243031052CF49F7049F4805E8830CC
:102CB00020F0C8010E949510CF2CDC2C06C0D80152
:102CC00015969C91907F91F7F8CF8D2D62960FB657
:102CD000F894DEBF0FBECDBFDF91CF911F910F9152
:102CE000FF90EF90DF90CF9008951F93CF93DF93E5
:102CF000CDB7DEB72C970FB6F894DEBF0FBECDBFB1
:102D00004F83588769877A878B879C87CE01079680
:102D10000E9488148823C1F02F8138858A859B857D
:102D2000892B31F03F3F11F080E003C02F3FE1F7E6
:102D300081E0811147C04F81588569857A858B85EF
:102D40009C850E94E1133EC086E0FE013796DE01BD
:102D5000119601900D928A95E1F7FF81E8854A85E9
:102D60005B854115510531F0EF3F31F481E0FF3FC4
:102D700019F403C081E001C080E080FD23C02091F0
:102D80007A0130E0C9010196877099276091790135
:102D900070E086179707F1F1F983EA835D834C832E
:102DA00096E0929FD001939FB00D1124A558BE4F7D
:102DB000FE01319601900D929A95E1F780937A0188
:102DC0000E94F11316E08091790190917A018917A0
:102DD00079F1189FC001112485589E4F0E948814D4
:102DE000882331F1E09179011E9FF0011124E5580B
:102DF000FE4F4081518162817381848195810E945F
:102E0000E1138091790190E0019687709927809372
:102E10007901D9CF0E94A91310927A0110927901F9
:102E2000EBEAF1E086E0DF011D928A95E9F7CACF6F
:102E30002C960FB6F894DEBF0FBECDBFDF91CF91B9
:102E40001F910895EF92FF920F931F93CF93DF93FB
:102E5000FC01009709F46FC0F12CEE24E394EF011C
:102E600021968491843740F4843008F055C0813035
:102E700081F0823021F15FC0853709F447C0C0F18D
:102E80009CE7980F903708F056C08F770E94381053
:102E900045C08F010E5F1F4FFE01849190E2980F95
:102EA000983050F48770FE2D01C0FF0F8A95EAF725
:102EB0008F2F0E94A31915C00E94700F14C08F019C
:102EC0000E5F1F4FFE01849190E2980F983068F4D6
:102ED0008770FE2D01C0FF0F8A95EAF78F2F0E94A1
:102EE000A9190E94CC19E80119C00E943810FBCF23
:102EF000CF010296FE01C491CC2361F0EFE9FFE01F
:102F00003197F1F700C00000C150F6CFCF01029613
:102F1000FE01F490EC0102C00E94700F8F2D8823F7
:102F200041F0EFE9FFE03197F1F700C00000815078
:102F3000F6CFFE0194CFDF91CF911F910F91FF90BB
:102F4000EF90089508956093B5017093B601809352
:102F5000B7019093B8010C9497130F931F930091AE
:102F6000B5011091B6012091B7013091B801062B3F
:102F7000172B282B392B0093B5011093B601209302
:102F8000B7013093B8011F910F910C9497130F93D1
:102F90001F930091B5011091B6012091B7013091B6
:102FA000B80106231723282339230093B501109372
:102FB000B6012093B7013093B8011F910F910C9483
:102FC00097130F931F930091B5011091B6012091B3
:102FD000B7013091B8010627172728273927009312
:102FE000B5011093B6012093B7013093B8011F913A
:102FF0000F910C9497131092B1011092B20110929C
:10300000B3011092B4010C94971341E050E060E0DA
:1030100070E004C0440F551F661F771F8A95D2F7D2
:103020004093B1015093B2016093B3017093B40126
:103030000C94971341E050E060E070E004C0440F4E
:10304000551F661F771F8A95D2F78091B101909125
:10305000B201A091B301B091B401842B952BA62BA2
:10306000B72B8093B1019093B201A093B301B093B9
:10307000B4010C94971341E050E060E070E004C0AC
:10308000440F551F661F771F8A95D2F740955095BC
:10309000609570958091B1019091B201A091B301BA
:1030A000B091B40184239523A623B7238093B10163
:1030B0009093B201A093B301B093B4010C94971311
:1030C00041E050E060E070E004C0440F551F661F0F
:1030D000771F8A95D2F78091B1019091B201A091AA
:1030E000B301B091B40184279527A627B727809311
:1030F000B1019093B201A093B301B093B4010C94C9
:1031000097130F931F930091B1011091B201209179
:10311000B3013091B401062B172B282B392B0093C8
:10312000B1011093B2012093B3013093B4011F9108
:103130000F910C9497130F931F930091B10110916D
:10314000B2012091B3013091B40106231723282343
:1031500039230093B1011093B2012093B30130934E
:10316000B4011F910F910C9497130F931F9300912B
:10317000B1011091B2012091B3013091B401062741
:103180001727282739270093B1011093B201209304
:10319000B3013093B4011F910F910C9497130895CC
:1031A000CF92DF92EF92FF920F931F93CF93DF9313
:1031B000EC01C090B501D090B601E090B701F0905D
:1031C000B8018091B1019091B201A091B301B09189
:1031D000B401C82AD92AEA2AFB2A0FE110E0B70174
:1031E000A601002E04C076956795579547950A94D9
:1031F000D2F740FF07C0BE01802F0E941406813025
:10320000910539F40150110950F7BE0180E00E9488
:103210001406DF91CF911F910F91FF90EF90DF90F7
:10322000CF90089590910C019923D9F090910D01C0
:103230009923B9F0982F9695969596959F3088F595
:10324000E0910E01F0910F01E90FF11D877021E06F
:1032500030E001C0220F8A95EAF78181822B8183B9
:10326000089540910E0150910F0120E030E09FEF52
:10327000FA01E20FF31F6281681799F09F3F19F47A
:10328000611101C0922F2F5F3F4F2E30310581F722
:103290009F3F39F0FA01E90FF11D97FDFA958283FE
:1032A0000895089590910C019923E1F090910D01FA
:1032B0009923C1F0982F9695969596959F3020F575
:1032C000E0910E01F0910F01E90FF11D877021E0EF
:1032D00030E001C0220F8A95EAF7209581812823EA
:1032E0002183089540910E0150910F0120E030E0BC
:1032F000FA01E20FF31F9281981301C012822F5F2F
:103300003F4F2E303105A1F7089581E090E0E09124
:103310000E01F0910F01E80FF91F10820196803124
:103320009105A9F708959091CB01982B9093CB012B
:10333000089580959091CB0198239093CB010895A7
:103340001092CB0108959091CA01982B9093CA01D5
:10335000089580959091CA0198239093CA01089589
:103360001092CA0108958093B90108951092B9018D
:10337000089540910E0150910F0120E030E080E06F
:10338000FA01E20FF31F918191118F5F2F5F3F4F81
:103390002F303105A9F70895E0910E01F0910F014A
:1033A0008091CB018083E0910E01F0910F0180812B
:1033B0009091CA01892B80839091B901992361F082
:1033C000E0910E01F0910F018081892B80830E9492
:1033D000B91981111092B90180910E0190910F01DC
:1033E0000C94540ECF92DF92EF92FF920F931F93A3
:1033F0006C01EE24FF24C114D104E104F10421F492
:103400006B017C0180E001C080E133272F2D1E2D50
:103410000D2D011511052105310519F0885F680191
:10342000790197018601A4E03695279517950795B0
:10343000AA95D1F7011511052105310519F08C5F09
:103440006801790197018601F2E036952795179575
:103450000795FA95D1F7011511052105310519F0E8
:103460008E5F68017901B701A6017695679557953A
:103470004795452B462B472B09F08F5F1F910F91E6
:10348000FF90EF90DF90CF9008958091E501843018
:1034900009F11092CD0120E488E190E00FB6F89494
:1034A000A895809360000FBE2093600083B7817F52
:1034B000846083BF83B7816083BF7894889583B726
:1034C0008E7F83BF88E10FB6F894809360001092DE
:1034D00060000FBE089508950895CF930E946B1A5F
:1034E0000E943A040E946C1AC0E08C2F0E942B05A7
:1034F000811105C0CF5FCE30C1F780E001C081E00F
:10350000CF9108950E94A9130E94480E0C944E0773
:1035100082E084BD93E095BD9AEF97BD80936E00E5
:1035200008952FB7F8948091CE019091CF01A0918A
:10353000D001B091D1012FBF0895CF92DF92EF92C9
:10354000FF920F931F932FB7F8944091CE015091A3
:10355000CF016091D0017091D1012FBF6A017B0131
:10356000EE24FF248C0120E030E0C016D106E206F4
:10357000F30610F441505109481B590BCA011F9121
:103580000F91FF90EF90DF90CF9008951F920F92D0
:103590000FB60F9211248F939F93AF93BF93809197
:1035A000CE019091CF01A091D001B091D1010196AF
:1035B000A11DB11D8093CE019093CF01A093D001A6
:1035C000B093D101BF91AF919F918F910F900FBE9A
:1035D0000F901F9018950E944E0BF8942FEF87EADA
:1035E00091E6215080409040E1F700C0000087E064
:1035F00090EBDC018093EE019093EF01A093F0013A
:10360000B093F1012CE088E190E00FB6F894A89512
:10361000809360000FBE20936000FFCFEF92FF9277
:103620000F931F93CF93DF93E82EF12C8F2D0E94E1
:103630002B05C0E0D0E0082F10E098010C2E02C04E
:10364000359527950A94E2F720FD05C02196C630EE
:10365000D10599F709C06C2F7F2D80E00E94F205FB
:10366000E812F4CF81E005C0F3948EE0F812DECFCB
:1036700080E0DF91CF911F910F91FF90EF9008951F
:10368000CF93C82F8CE20E940E1B882321F08C2F31
:10369000CF910C940E1B80E0CF910895CF930E94A0
:1036A000931C811102C00E94791CC5E6C15049F0EB
:1036B0000E943A048FE39CE90197F1F700C00000F3
:1036C000F5CF89E20E94401B811111C18AE20E945C
:1036D000401B81110E94791C85E00E94401B8111D2
:1036E0000E94EB1A0E949E1C8093CC0187E00E94EE
:1036F000401B882399F18BE10E94401B882351F0E5
:103700009091CC0191FB882780F921E0822780FBF2
:1037100091F922C08EE00E94401B882351F09091C5
:10372000CC0192FB882780F921E0822780FB92F967
:1037300013C080E10E94401B9091CC01882341F08E
:1037400093FB882780F921E0822780FB93F904C04E
:10375000892F809580FB90F99093CC018091CC01CA
:103760000E94A21C0E94B01C8093DF0180EE0E9488
:10377000401B882341F08091DF01982F909590FBAA
:1037800080F98093DF0189E30E94401B882359F070
:103790009091DF0191FB882780F921E0822780FB4F
:1037A00091F99093DF0182EE0E94401B882359F02B
:1037B0009091DF0192FB882780F921E0822780FB2E
:1037C00092F99093DF0186EE0E94401B882359F006
:1037D0009091DF0193FB882780F921E0822780FB0D
:1037E00093F99093DF0183EE0E94401B882359F0E8
:1037F0009091DF0194FB882780F921E0822780FBEC
:1038000094F99093DF0185E30E94401B882359F0CF
:103810009091DF0195FB882780F921E0822780FBCA
:1038200095F99093DF0181E30E94401B882359F0B2
:103830009091DF0196FB882780F921E0822780FBA9
:1038400096F99093DF0181E10E94401B882359F093
:103850009091DF0197FB882780F921E0822780FB88
:1038600097F99093DF018091DF010E94B41C809151
:10387000DF0187FB882780F980930D0187E20E9492
:10388000401BC82F8EE10E94401B8111C2608FE156
:103890000E94401B8111C46080E20E94401B811184
:1038A000C86081E20E94401B8111C06182E20E94D7
:1038B000401B8111C06283E20E94401B8111C064E1
:1038C00084E20E94401B882311F0C06802C0CC2310
:1038D00029F08C2F0E94AB1C6C2F03C00E94A71CE8
:1038E000682F70E080E090E0CF910C94A317CF9107
:1038F00008956DEE7EEF80E090E00E94CF2260E0C0
:1039000082E090E00E94C12260E083E090E00E94AB
:10391000C12260E084E090E00E94C12260E085E086
:1039200090E00C94C12280E090E00E94BB2221E054
:103930008D3E9E4F09F020E0822F089582E090E0B6
:103940000C94B322682F82E090E00C94C12283E0B3
:1039500090E00C94B322682F83E090E00C94C12295
:1039600084E090E00C94B322682F84E090E00C9403
:10397000C1228091D40180FF0BC06091130185E0CA
:10398000689FB001112475956795759567952AC054
:1039900081FF09C06091130185E0689FB001112487
:1039A000759567951FC082FF07C06091130185E080
:1039B000689FB001112416C04091D5014423C9F07D
:1039C00060911201461788F72091130185E0289F26
:1039D00090011124429FC001439F900D112470E07B
:1039E0000E9485226038710540F46115710539F037
:1039F00002C065E070E0862F08958FE7089581E0AA
:103A000008958091D40180FF08C06091110170E099
:103A1000759567957595679521C081FF06C0609182
:103A2000110170E07595679519C082FF04C060911F
:103A3000110170E010C08091D5018823C1F0609120
:103A400010018617A0F790911101989FC0011124D1
:103A500070E00E9485226038710528F461157105B7
:103A600021F0862F08958FE7089581E0089561E0A1
:103A700070E0F4CF803F21F40E94B91C819504C00E
:103A8000813F29F40E94B91C8093D8010895823F98
:103A900021F40E94B91C819504C0833F29F40E943F
:103AA000B91C8093D7010895893F19F40E94011D24
:103AB00005C08A3F31F40E94011D81958093D90190
:103AC00008958B3F21F40E94011D819504C08C3F15
:103AD00029F40E94011D8093DA010895843F21F4A6
:103AE0008091D601816017C0853F21F48091D60175
:103AF000826011C0863F21F48091D60184600BC0A2
:103B0000873F21F48091D601886005C0883F31F459
:103B10008091D60180618093D60108958D3F21F474
:103B20008091D40181600BC08E3F21F48091D4013B
:103B3000826005C08F3F29F48091D4018460809316
:103B4000D4010895803F39F48091D80187FF6CC07B
:103B50001092D80169C0813F29F48091D8011816CC
:103B6000BCF362C09091D701823F29F497FF5CC0FB
:103B70001092D70159C0833F19F41916CCF354C0E1
:103B8000893F41F48091D90118160CF04DC0109274
:103B9000D9014AC08A3F29F48091D90187FF44C0E6
:103BA000F6CF8B3F39F48091DA0187FF3DC0109248
:103BB000DA013AC08C3F29F48091DA011816BCF37F
:103BC00033C0843F21F48091D6018E7F17C0853F9A
:103BD00021F48091D6018D7F11C0863F21F4809120
:103BE000D6018B7F0BC0873F21F48091D601877F60
:103BF00005C0883F31F48091D6018F7E8093D60135
:103C000013C08D3F21F48091D4018E7F0BC08E3F75
:103C100021F48091D4018D7F05C08F3F29F48091DC
:103C2000D4018B7F8093D4018091D70181110EC084
:103C30008091D80181110AC08091D901811106C0FB
:103C40008091DA01811102C01092D501089586EDAC
:103C500091E00E945F0E0E94911A9093D30180938D
:103C6000D20108951F93CF93DF938091D201909159
:103C7000D3010E949D1A4091D501442321F0209147
:103C8000140130E006C0209115015AE0259F9001F3
:103C900011248217930708F482C08091D7011091F4
:103CA000D801D091D901C091DA01811107C0111159
:103CB00005C0D11103C0CC2309F471C04F3F19F0E6
:103CC0004F5F4093D501181624F40E94B91C8093CD
:103CD000D7018091D70187FF05C00E94B91C81954B
:103CE0008093D701111624F40E94B91C8093D80147
:103CF0008091D80187FF05C00E94B91C81958093EF
:103D0000D8016091D701662339F11091D8011123B0
:103D100019F1772767FD7095872F972F0E949621BD
:103D200023E333E343E35FE30E94FA210E9463212C
:103D30006093D701612F772767FD7095872F972FA5
:103D40000E94962123E333E343E35FE30E94FA21D9
:103D50000E9463216093D8011D1624F40E94011D66
:103D60008093D9018091D90187FF05C00E94011D70
:103D700081958093D9011C1624F40E94011D809323
:103D8000DA018091DA0187FF05C00E94011D81954B
:103D90008093DA01DF91CF911F910C94271EDF9160
:103DA000CF911F910895E6EDF1E085E0DF011D92CE
:103DB0008A95E9F71092D5011092D40108958330C5
:103DC00081F128F4813059F08230D1F008958530A6
:103DD00009F449C0B8F1863009F456C0089520911D
:103DE0001501862F90E0820F911D8F3F910520F4E1
:103DF000620F6093150108958FEF80931501089568
:103E000020911401862F90E0820F911D8F3F910524
:103E100020F4620F6093140108958FEF80931401D2
:103E2000089520911301862F90E0820F911D8F3FFE
:103E3000910520F4620F6093130108958FEF809332
:103E40001301089520911201862F90E0820F911D99
:103E50008F3F910520F4620F6093120108958FEF58
:103E600080931201089520911101862F90E0820F16
:103E7000911D8F3F910520F4620F60931101089509
:103E80008FEF80931101089520911001862F90E00B
:103E9000820F911D8F3F910520F4620F60931001F6
:103EA00008958FEF809310010895833011F128F465
:103EB000813049F0823091F00895853081F120F110
:103EC0008630C1F1089580911501681720F4861B92
:103ED00080931501089510921501089580911401A1
:103EE000681720F4861B8093140108951092140122
:103EF000089580911301681720F4861B80931301A5
:103F0000089510921301089580911201681720F40A
:103F1000861B8093120108951092120108958091DA
:103F20001101681720F4861B8093110108951092E7
:103F30001101089580911001681720F4861B809369
:103F4000100108951092100108958D3109F442C0B6
:103F500020F58E3009F479C070F4873009F45EC022
:103F600020F4863009F442C033C08830D1F18B3060
:103F700009F4A7C02DC0863109F4A3C038F48031FC
:103F800009F46DC0813109F47BC022C0893109F484
:103F900098C08B3109F44FC01BC0853309F479C038
:103FA00048F4873209F475C008F478C0893209F4FE
:103FB00070C00EC0833438F48A3308F071C088337F
:103FC00009F47FC005C0833409F463C08834C1F0AC
:103FD00080E008950E941D210E94480E0E944E0715
:103FE00070C00E949E1C0E94B01C6BC08091CC01CE
:103FF000817F8E7F8093CC0181E08093DC010895E6
:104000000E94A9132FEF83ED90E321508040904050
:10401000E1F700C000000E94EB1A53C09091CC0160
:10402000892F817090FF03C0917F9E7F26C0916091
:104030009093CC0146C09091CC0191FB882780F9E8
:1040400021E0822780FB91F913C09091CC0192FB73
:10405000882780F921E0822780FB92F909C090919E
:10406000CC0193FB882780F921E0822780FB93F91C
:104070009093CC01882329F191609093CC0108950D
:104080000E94A91380910D0191E0892780930D0171
:1040900018C061E070E080E090E00FC023EE01C046
:1040A00027EC280F61E070E080E090E004C0660F2C
:1040B000771F881F991F2A95D2F70E94A3170E9485
:1040C000A91381E0089580E0089580E00895CF93DA
:1040D000C82F8091DC01813079F018F08230D1F165
:1040E00084C0A0910E01B0910F018C91813169F0D3
:1040F000823209F07CC009C0A0910E01B0910F017D
:104100008C91813111F0823249F48C2F0E9463200E
:1041100081111DC08C2F0E94A51F1AC08C2F0E94D8
:104120006520811114C0C43179F048F4CB3079F0A6
:10413000C03109F060C082E08093DC0108C0C93260
:1041400019F0C83321F057C01092DC0154C081E04F
:10415000817053C0C93289F118F5C43171F1A8F4E6
:10416000C73009F046C08AE08093150194E190932E
:10417000140193E0909313018093120188E08093DF
:10418000110188E28093100134C0CE51C63088F509
:10419000EC2FF0E0E65DFE4F80818093DB0129C0CB
:1041A000CE34E9F020F4CB3421F56AE013C0C135F8
:1041B00079F0C235F1F461E00DC08091DB01882314
:1041C00019F01092DB0115C081E08093DC0115C06D
:1041D00061E006C08091DB010E94DF1E0AC06AE038
:1041E0008091DB010E94551F04C01092DC0180E029
:1041F00004C081E002C080E0ABCFCF910895E1E838
:10420000F0E08081886080838081816080838FB7C7
:10421000F89493E09093890090ED909388008FBF7D
:104220000895EFE6F0E08081826080830895EFE6F4
:10423000F0E080818D7F80830895EFE6F0E080815B
:1042400092E08927808308951F920F920FB60F92F4
:1042500011242F933F934F935F936F937F938F938B
:104260009F93AF93BF93EF93FF938091DD01909164
:10427000DE0101969093DE018093DD01811103C080
:1042800082E00E944E07E091DE01E695E695F0E0BF
:10429000E657FB4FE4918091DD018E1303C080E06F
:1042A0000E944E07FF91EF91BF91AF919F918F9127
:1042B0007F916F915F914F913F912F910F900FBE22
:1042C0000F901F90189504D06894B1118DC0089577
:1042D00070D088F09F5790F0B92F9927B751A0F070
:1042E000D1F0660F771F881F991F1AF0BA95C9F78A
:1042F00012C0B13081F077D0B1E0089574C0672F5B
:10430000782F8827B85F39F0B93FCCF38695779539
:104310006795B395D9F73EF4909580957095619522
:104320007F4F8F4F9F4F0895E89409C097FB3EF44D
:1043300090958095709561957F4F8F4F9F4F9923F2
:10434000A9F0F92F96E9BB279395F6958795779570
:104350006795B795F111F8CFFAF4BB0F11F460FF30
:104360001BC06F5F7F4F8F4F9F4F16C0882311F088
:1043700096E911C0772321F09EE8872F762F05C09C
:10438000662371F096E8862F70E060E02AF09A9537
:10439000660F771F881FDAF7880F9695879597F92C
:1043A000089557FD9058440F551F59F05F3F71F025
:1043B0004795880F97FB991F61F09F3F79F087958C
:1043C0000895121613061406551FF2CF4695F1DF15
:1043D00008C0161617061806991FF1CF86957105A5
:1043E000610508940895E894BB2766277727CB01D9
:1043F00097F908950BD078C069D028F06ED018F0E6
:10440000952309F05AC05FC01124EECFCADFA0F394
:10441000959FD1F3950F50E0551F629FF001729F59
:10442000BB27F00DB11D639FAA27F00DB11DAA1F78
:10443000649F6627B00DA11D661F829F2227B00DC5
:10444000A11D621F739FB00DA11D621F839FA00D50
:10445000611D221F749F3327A00D611D231F849FA0
:10446000600D211D822F762F6A2F11249F575040F7
:104470008AF0E1F088234AF0EE0FFF1FBB1F661F92
:10448000771F881F91505040A9F79E3F510570F04B
:1044900014C0AACF5F3FECF3983EDCF38695779586
:1044A0006795B795F795E7959F5FC1F7FE2B880F46
:1044B000911D9695879597F9089597F99F6780E8DC
:1044C00070E060E008959FEF80EC089500240A9466
:1044D0001616170618060906089500240A941216DF
:1044E0001306140605060895092E0394000C11F412
:1044F000882352F0BB0F40F4BF2B11F460FF04C0BF
:104500006F5F7F4F8F4F9F4F089597FB072E16F4D5
:10451000009407D077FD09D00E949F2207FC05D0A8
:104520003EF4909581959F4F0895709561957F4FCA
:104530000895EE0FFF1F0590F491E02D0994AA1B3A
:10454000BB1B51E107C0AA1FBB1FA617B70710F07E
:10455000A61BB70B881F991F5A95A9F780959095B0
:10456000BC01CD010895F999FECF92BD81BDF89AA5
:10457000992780B50895A8E1B0E042E050E00C949E
:10458000D622262FF999FECF1FBA92BD81BD20BD3C
:104590000FB6F894FA9AF99A0FBE019608950E9400
:1045A000C122272F0C94C222DC01CB01FC01F99916
:1045B000FECF06C0F2BDE1BDF89A319600B40D926F
:0C45C00041505040B8F70895F894FFCF28
:1045CC0020024F07DC07B907850752070101BA0122
:1045DC0028080A03140A3F4D36394B04FE03C8035E
:1045EC008F0322033B0354036D03010203040506EE
:0445FC0007080900A3
:00000001FF
