:100000000C949F020C94E3020C94E3020C94E30220
:100010000C94E3020C94E3020C94E3020C94E302CC
:100020000C94E3020C94E3020C946E0D0C94320DCC
:100030000C94E3020C94E3020C94E3020C94E302AC
:100040000C94E3020C94AD220C94E3020C94E302B2
:100050000C94E3020C94EA1B0C94E3020C94E3026C
:100060000C94E3020C94E3020C94E3020C94E3027C
:100070000C94E3020C94E3020C94E3020C94E3026C
:100080000C94E3020C94E3020C94E3020C94E3025C
:100090000C94E3020C94E3020C94E3020C94E3024C
:1000A0000C94E3020C94E3020C94E3022402210278
:1000B0002B000030E00000002F003300040034006B
:1000C0002402E3002F02360012001400E2002A008E
:1000D0003002370008000D005100280026021300EE
:1000E00018000E00520046002E001C000C001B00E1
:1000F0000000C1004C002A000000290000009C0004
:1001000039002A000000280000009C002502090098
:10011000070005000000C10027020A000B001000C4
:10012000500001522E02060017001A004F002C004A
:10013000300015001100190031004C001E020F00A4
:1001400016001D001F020154200238002D0000304F
:10015000E4000000010001000100010001000000B6
:100160000100010001000100010001000100010087
:10017000F2000100010001000100F000F1000100A7
:100180000100F40001000100F3000100F50001008E
:1001900001000100F900FA00000001000100010067
:1001A000000001000000010001000100000001004A
:1001B0000000010001000100010001000000010039
:1001C00001001E00210024002700010001001F0083
:1001D0002200250037000100010020002300260036
:1001E0000100010001000100010001000100010007
:1001F00001000100010001000100000022003500A3
:1002000001000100010000000130010001000100B7
:100210002200010001300100010001000100010085
:100220000130010001000100010001000130010066
:100230000100010001000100013001000100010086
:1002400000000100010001000000010000000100A9
:100250000100010000000100000001000130010068
:100260000100010000000100013001000100010057
:100270000100010001300100010001000100010046
:100280000130010001000100010001000130010006
:100290000100010023000100013001000100010004
:1002A00001000000010001000100E1000100000068
:1002B0003A00010001000100010049023B00010079
:1002C00001000100010001003C00010001000100EB
:1002D0004E0001003D000100010001004B004C02F6
:1002E0003E00010001000100000001003F0001008C
:1002F0000000010000004901400001000000010071
:1003000000000100410001000100010000000100A7
:1003100042000100010001004A0001004300010009
:10032000010001004D000100440001000100010036
:100330000100010045000100010001000100010071
:10034000010001000100E500010000000000F0A331
:1003500005010906A101050719E029E71500250196
:10036000950875018102950175088101050819013B
:100370002905950575019102950175039101050700
:10038000190029FF150025FF950675088100C00595
:10039000010902A1010901A1000509190129051599
:1003A00000250195057501810295017503810105FF
:1003B00001093009311581257F95027508810609EB
:1003C000381581257F950175088106050C0A3802CC
:1003D0001581257F950175088106C0C0050109803A
:1003E000A101850216010026B7001A01002AB700F4
:1003F000751095018100C0050C0901A10185031646
:100400000100269C021A01002A9C027510950181A8
:1004100000C005010906A101050719E029E715003B
:100420002501950875018102050819012905950521
:10043000750191029501750391010507190029774E
:1004400015002501957875018102C0120110010087
:10045000000008EDFE071301000102000109026D12
:1004600000040100A0FA09040000010301010009D1
:100470002111010001223F000705810308000A093C
:100480000401000103010200092111010001224DB4
:10049000000705820308000A0904020001030000A6
:1004A000000921110100012236000705830308001D
:1004B0000A090403000103000000092111010001E1
:1004C0002239000705840310000104030904160300
:1004D0004500720067006F0044006F007800200044
:1004E00045005A00000016034500720067006F00C7
:1004F00044006F007800200045005A000000000012
:10050000000000000000000000010204060A0F17AE
:10051000202C3A4A5D71879DB3C7DAE9F5FCFFFCF0
:10052000F5E9DAC7B39D87715D4A3A2C20170F0AA7
:100530000604020100000000000000000000112479
:100540001FBECFEFDAE0DEBFCDBF04B603FE24C08E
:100550008091D0019091D101A091D201B091D301AD
:100560008750904BA740B04BB9F41092D001109235
:10057000D1011092D2011092D30114BE84B7877FAB
:1005800084BF88E10FB6F8948093600010926000F9
:100590000FBEE0E0FFE3099511E0A0E0B1E0E0ED7F
:1005A000F8E402C005900D92A631B107D9F711E029
:1005B000A6E1B1E001C01D92A03DB107E1F70E94A4
:1005C00050090C9466240C940000089560919701E2
:1005D000709198018091990190919A010E941C1B41
:1005E00056985E9825982D9826982E9827982F989B
:1005F000813019F0833029F402C0259A2D9A269A69
:100600002E9A0E94CC0F81FF02C0259A2D9A089540
:100610000F931F93CF93DF938C01662321F06130FA
:1006200009F0C0C012C0FC018281882339F081EE3C
:100630000E94881182E00E94CB19B4C081EE0E9412
:10064000351182E00E94AB19ADC0FC01608171815F
:1006500080E00E94F506EC01F8018281882309F40C
:1006600053C081EE0E943511F2E0C532DF0709F474
:100670003FC082E0C632D807B8F4C033D10509F4D0
:100680003DC0C133D10538F4CE32D10579F1AF97F1
:1006900009F088C023C0E2E0CE31DE0789F1C05204
:1006A000D24009F07FC02EC082E0CE32D80721F1BF
:1006B000E2E0CF32DE0748F4F2E0C632DF07A1F015
:1006C000C752D24009F06EC015C0E2E0CF32DE075B
:1006D00039F0C053D24009F065C004C084E260C064
:1006E00082E25EC080E25CC08EE15AC086E258C001
:1006F00087E256C08FE154C081E252C083E250C00D
:1007000085E24EC085E34CC082E0C532D807D1F106
:10071000E2E0C632DE07A0F4C033D105C9F1C1332F
:10072000D10530F4CE32D10559F1AF97C1F520C0D3
:10073000F2E0CE31DF0771F1C052D24081F52CC01A
:10074000E2E0CE32DE0711F1F2E0CF32DF0740F413
:1007500082E0C632D80791F0C752D24001F514C0EA
:10076000F2E0CF32DF0731F0C053D240C1F404C011
:1007700084E213C082E211C080E20FC08EE10DC09E
:1007800086E20BC087E209C08FE107C081E205C0A5
:1007900083E203C085E201C085E30E94351181EE4A
:1007A0000E94881180E090E0DF91CF911F910F911E
:1007B000089586EE92E0009711F0FC01099580E023
:1007C00090E0089556985E9825982D9826982E9832
:1007D00027982F988FEF90E090938900809388005E
:1007E00090938B0080938A0090938D0080938C006F
:1007F000259A2D9A84EF91E020E931E0F9013197B3
:10080000F1F70197D9F7269A2E9A84EF91E020E923
:1008100031E0F9013197F1F70197D9F7279A2F9A2B
:1008200084EF91E020E931E0F9013197F1F7019788
:10083000D9F725982D9884EF91E020E931E0F9016E
:100840003197F1F70197D9F726982E9884EF91E028
:1008500020E931E0F9013197F1F70197D9F72798AD
:100860002F9856985E9825982D9826982E98279818
:100870002F98089589EA8093800089E08093810011
:1008800024982C983F988AB18F748AB96E98479AA9
:100890008BB1806B8BB9769A0E94E20385EE92E071
:1008A000009711F0FC01099580E090E0089580E246
:1008B0008093000180911601882371F40E94A604A0
:1008C00081E08093160180E197E220E931E0F901AF
:1008D0003197F1F70197D9F780E40E94AC04809337
:1008E0000001882371F50E94DA04809300018823B7
:1008F00041F50E94DA0480930001882311F58FE30B
:100900000E94DA04809300018823D9F40E94D20463
:1009100080E40E94AC0480930001882391F48CE071
:100920000E94DA0480930001882359F40E94DA04BB
:1009300080930001882329F48FE30E94DA048093D6
:1009400000010E94D2048091000108951092B90024
:100950008AE08093B8000895982F84EA8093BC00C1
:100960008091BC0087FFFCCF8091B900887F8830E0
:1009700021F0803111F081E008959093BB0084E86C
:100980008093BC008091BC0087FFFCCF9091B900A0
:10099000987F983111F480E0089580E0903409F058
:1009A00081E0089584E98093BC008091BC0084FDBF
:1009B000FCCF08958093BB0084E88093BC008091B5
:1009C000BC0087FFFCCF8091B90090E0887F88321F
:1009D00009F091E0892F089584E88093BC0080910C
:1009E000BC0087FFFCCF8091BB000895E7E1F1E0F8
:1009F000E80FF11D808108950895809100018823FA
:100A0000A9F480E40E94AC0480930001882361F47F
:100A100082E10E94DA0480930001882329F48FEF99
:100A20000E94DA04809300010E94D20484B1807F86
:100A300084B985B1807F85B98AB1837F8AB98BB14A
:100A4000837F8BB93E98469808950E9457048093FF
:100A500000010E94FD0480B38C7080BB81B3836F62
:100A600081BB80E090E0FC01E95EFE4F1082FC015A
:100A7000EB5DFE4F108201968E309105A1F78AE35F
:100A800094E0009711F0FC0109950895BF92CF9270
:100A9000DF92EF92FF920F931F93CF93DF9380919A
:100AA0000001882379F0809133018F5F80933301B7
:100AB000882341F40E94570480930001882311F495
:100AC0000E94E20325E2E22E21E0F22EC0E0D0E017
:100AD00090EAB92E81E0C82ED12C02E0C73010F583
:100AE00080910001882309F045C080E40E94AC0495
:100AF00080930001882399F482E10E94DA048093B4
:100B00000001882361F4C6010C2E02C0880F991FD2
:100B10000A94E2F780950E94DA04809300010E9413
:100B2000D20428C0CA30D9F0CB3040F4C83089F0A4
:100B3000C93090F4C73009F0A0C008C0CC30A1F093
:100B4000CC3080F0CD3009F098C011C0209A2898A0
:100B500094C0219A299891C0229A2A988EC0239AEB
:100B60002B988BC0529A01C0539A5B9886C03E9ACC
:100B7000469883C080910001882311F010E03EC0A8
:100B800080E40E94AC0480930001882399F483E1FF
:100B90000E94DA0480930001882361F481E40E94BA
:100BA000AC0480930001882329F40E94EC04182FE0
:100BB000109501C010E00E94D20420C042E07C9950
:100BC00002C034E001C030E07D9902C028E001C0DD
:100BD00020E07E9902C090E101C090E08FB1809545
:100BE000881F8827881F8295880F807E152F1C25D7
:100BF0001170142B132B122B192B182BF70180813A
:100C0000811719F01083009301010E94FD042196C1
:100C10000894E11CF11CCE30D10509F05FCF809122
:100C200001018823C9F0815080930101882329F0B4
:100C300080EA9FE00197F1F70FC020E030E0F90172
:100C4000E95EFE4FD901AB5DBE4F8C9180832F5F73
:100C50003F4F2E30310599F789ED93E0009711F061
:100C6000FC01099581E0DF91CF911F910F91FF90D9
:100C7000EF90DF90CF90BF9008958B2D8A95F1F77C
:100C80005FB1799B9BCF40E09ACF08959C018B3B4D
:100C9000910578F4883A910548F5853A9105B8F4BC
:100CA0008430910508F09FC08130910509F099C00A
:100CB00095C0803E910508F494C0883E910508F4E3
:100CC00092C0805F9040409708F08BC085C0853A05
:100CD000910519F481E890E47DC0863A910519F0F8
:100CE00083E890E477C082E890E474C0883A910584
:100CF00019F482EE94E46EC0893A910519F489EEF4
:100D000094E468C08A3A910519F48AEE94E462C0CA
:100D10008B3A910519F485EB94E45CC08C3A91050B
:100D200019F486EB94E456C08D3A910519F487EBDB
:100D300094E450C0803B910519F48CEC94E44AC0D3
:100D40008E3A910519F48DEC94E444C08F3A9105E4
:100D500019F483E895E43EC0813B910519F48AE8D3
:100D600095E438C0823B910519F482E995E432C0DC
:100D7000833B910519F484E995E42CC0843B9105EB
:100D800019F481E296E426C0853B910519F483E2CB
:100D900096E420C0863B910519F484E296E41AC0DB
:100DA000873B910519F485E296E414C0883B9105D0
:100DB00019F486E296E40EC0893B910519F487E2A6
:100DC00096E408C08A3B910519F080E094E402C0E3
:100DD0008AE296E49C0107C0306505C021E030E05E
:100DE00002C020E030E0C9010895E62FF0E0EE0FE8
:100DF000FF1F9CE0799F90011124E20FF31F98EAF6
:100E0000899FC0011124E80FF91FE455FF4F259178
:100E10003491C9010895FC01EE0FFF1FE453FE4F0A
:100E200025913491C9010895FC01EE0FFF1FE45B89
:100E3000FC4F25913491C90108950E94F506AC013B
:100E40008050914080509F4118F4CA019F710895CD
:100E5000CA01805090428050904128F4CA019F708E
:100E60000E9414070895CA01805090438050904119
:100E700020F4CA019070906C089580E540305807C6
:100E800071F40E94221184EC99E020E931E0F9012B
:100E90003197F1F70197D9F70E940F1C0EC120E599
:100EA0004130520731F48091AE0181608093AE01F0
:100EB00004C1CA01805090458050904108F056C04E
:100EC000652F77276F70707061307105F9F49A01A2
:100ED000A4E0220F331FAA95E1F720703370CA01F6
:100EE000F3E0880F991FFA95E1F780769070282B30
:100EF000392B3C684370507002C0660F771F4A95CB
:100F0000E2F76F717070262B372B2EC0623071059F
:100F100029F4942F8827816F906A089563307105B2
:100F200051F49A0173E0220F331F7A95E1F7207E86
:100F300037703C680CC06430710561F59A0163E05C
:100F4000220F331F6A95E1F7207E37703A684370AD
:100F5000507081E090E002C0880F991F4A95E2F737
:100F60008F719070282B392BC9010895CA018050C8
:100F700090478050904120F4CA019F70906208957C
:100F8000CA01805090488050904120F4CA019F705F
:100F9000906A0895403E5105F0F4403C510588F5B3
:100FA0004133510509F476C04233510548F44932C2
:100FB000510509F465C04A32510509F07AC06FC085
:100FC0004933510511F142385105F9F045335105C6
:100FD00009F06FC050C0433E510569F1443E5105D0
:100FE00040F4403E5105C1F0423E510509F061C058
:100FF0001DC0463E510559F1473E510509F059C003
:101000002BC0CA010E940B0708958091C10180FD89
:101010000AC081FD08C04DC08091C10180FF03C09E
:1010200089E390E047C080EE90E044C08091C10128
:1010300082FD08C004C08091C10182FF03C082EE1E
:1010400090E038C084FD11C083EE90E033C0809101
:10105000C10183FD08C004C08091C10183FF03C0AA
:1010600086EE90E027C084FF03C080E090E022C0BD
:1010700087EE90E01FC08091C10185FF05C007C0C9
:101080008091C10185FF03C085E390E013C089E230
:1010900090E010C08091C10186FF05C007C080911B
:1010A000C10186FF03C081E390E004C08AE290E0C2
:1010B00001C0CA010E94460608950895089510923D
:1010C000C60108950895809135010895DF93CF9367
:1010D00000D00F92CDB7DEB7AC018091C70184304C
:1010E00029F583E08093E9002FEF95ED05C0892F66
:1010F0008A95F1F7222329F08091E800215085FF9D
:10110000F6CF8091E80085FF11C05B834A8383E0BE
:101110008983CE01019663E070E040E050E00E94D8
:10112000D40B8091E8008E778093E8000F900F90A9
:101130000F90CF91DF910895DF93CF9300D00F925E
:10114000CDB7DEB7AC018091C701843029F583E0CB
:101150008093E9002FEF95ED05C0892F8A95F1F76F
:10116000222329F08091E800215085FFF6CF80915D
:10117000E80085FF11C05B834A8382E08983CE014A
:10118000019663E070E040E050E00E94D40B809153
:10119000E8008E778093E8000F900F900F90CF912A
:1011A000DF910895AC018091C701843001F582E0A0
:1011B0008093E9002FEF95ED05C0892F8A95F1F70F
:1011C000222329F08091E800215085FFF6CF8091FD
:1011D000E80085FF0CC0CA0165E070E040E050E027
:1011E0000E94D40B8091E8008E778093E8000895E8
:1011F0000F931F93182F092F9091C701943009F076
:101200004CC0809102018823E1F080910D01882378
:10121000C1F09093E9009FEF25E105C0822F8A95E8
:10122000F1F7992329F08091E800915085FFF6CFDE
:101230008091E80085FF31C0812F902F60E170E040
:1012400018C081E08093E9009FEF25ED05C0822F53
:101250008A95F1F7992329F08091E800915085FF54
:10126000F6CF8091E80085FF18C0812F902F68E0AD
:1012700070E040E050E00E94D40B8091E8008E774F
:101280008093E800A6E3B1E0212F302FC901FC01D3
:1012900080E101900D928150E1F71F910F91089527
:1012A00084B7877F84BF88E10FB6F894809360008D
:1012B000109260000FBE80E090E020E80FB6F89436
:1012C00020936100809361000FBE0E9420100E9455
:1012D000B20C0E94130D8091E20084608093E200C2
:1012E00078940E94B10F0E94BC1083E091E00E94AC
:1012F000C70F0E9488220CC00E94651B8091C50107
:10130000882331F00E94941B882311F00E94E90A7F
:101310008091C701853081F30E942610F9CF80911A
:10132000C601882349F40E94B20C0E94130D8091DB
:10133000E20084608093E20008958091C9018330C7
:1013400009F457C0843030F4813071F0823009F0F4
:10135000B1C098C08A3009F485C08B3009F46AC0E6
:10136000893009F0A7C020C08091C801813A09F0F6
:10137000A1C08091E800877F8093E8008091CC0134
:101380009091CD01892B21F486E391E060E103C0C7
:1013900080E090E060E070E00E94FF0A8091E80049
:1013A0008B778093E80008958091C801813209F01D
:1013B00081C08091CC019091CD01009719F00397E5
:1013C00009F078C08091E800877F8093E80005C02D
:1013D0008091C701882309F46DC08091E80082FFE5
:1013E000F7CF8091F100809335018091E8008B77F1
:1013F0001CC08091C801813A09F05CC08091CC0189
:101400009091CD01892B09F055C08091E800877F2C
:101410008093E8008091E80080FFFCCF809102017A
:101420008093F1008091E8008E778093E8000E941D
:101430005F0C08958091C8018132E1F58091CC0163
:101440009091CD01892BB1F58091E800877F809341
:10145000E8000E945F0C8091CA01809302010E9403
:10146000221108958091C801813221F58091E80010
:10147000877F8093E8000E945F0C8091CB0180936E
:10148000340108958091C801813AA1F48091E80067
:10149000877F8093E8008091E80080FFFCCF8091F7
:1014A00034018093F1008091E8008E778093E8000A
:1014B0000E945F0C089581E061EC42E00E94270CDD
:1014C00082E061EC42E00E94270C83E061EC42E0A4
:1014D0000E94270C84E061EC42E10E94270C0895F1
:1014E0000E948D1B0E94A0220E94CC0F0E945E08C9
:1014F00008950E949A220895DA019330C1F0943041
:1015000030F4913051F0923009F05BC00BC0913251
:1015100021F1923209F055C037C0EBE4F4E022E14A
:1015200030E053C0EDE5F4E02DE630E04EC0813010
:1015300051F0813020F0823009F043C008C0EAEC5D
:10154000F4E0849107C0EEECF4E0849103C0E6EE91
:10155000F4E08491282F30E038C0613051F06130E0
:1015600028F0623059F0633061F50BC0EFE6F4E02B
:1015700002C0E8E8F4E029E030E027C0E1EAF4E066
:10158000FACFEAEBF4E0F7CF613061F0613028F098
:10159000623069F06330A9F40FC0E0E5F3E02FE3B7
:1015A00030E013C0EFE8F3E02DE430E00EC0ECEDE6
:1015B000F3E026E330E009C0E2E1F4E029E330E0C3
:1015C00004C0E0E0F0E020E030E0ED93FC93C901DE
:1015D000089580E189BD82E189BD09B400FEFDCF97
:1015E0008091D8008F7D8093D8008091E000826048
:1015F0008093E0008091E00081FDFCCF08959C0184
:101600004091CE015091CF014617570718F4F901C8
:1016100090E043C06115710511F0AB01F8CF8091E6
:10162000E8008E778093E80040E050E0F0CF8091B2
:10163000C701882309F447C0853009F446C080916A
:10164000E80083FD44C08091E80082FD36C08091AF
:10165000E80080FF22C08091F3009091F200782F83
:1016600060E0292F30E0262B372B07C08191809333
:10167000F100415050402F5F3F4F4115510519F087
:101680002830310598F390E02830310509F491E0D5
:101690008091E8008E778093E8004115510539F676
:1016A000992329F60AC08091C701882361F085300B
:1016B00061F08091E80083FD0AC08091E80082FF1C
:1016C000F2CF80E0089582E0089583E0089581E0FC
:1016D00008959C014091CE015091CF0146175707C4
:1016E00018F4F90190E044C06115710511F0AB01E7
:1016F000F8CF8091E8008E778093E80040E050E0DA
:10170000F0CF8091C701882309F448C0853009F4DF
:1017100047C08091E80083FD45C08091E80082FDCC
:1017200037C08091E80080FF23C08091F300909142
:10173000F200782F60E0292F30E0262B372B08C0ED
:1017400084918093F1003196415050402F5F3F4F7C
:101750004115510519F02830310590F390E02830FB
:10176000310509F491E08091E8008E778093E800DC
:101770004115510531F6992321F60AC08091C70120
:10178000882361F0853061F08091E80083FD0AC014
:101790008091E80082FFF2CF80E0089582E0089512
:1017A00083E0089581E00895BF92CF92DF92EF9297
:1017B000FF920F931F93CF93DF93182F092F7B0175
:1017C0006A010E94800CB82E8823B1F5812F902FDA
:1017D0009C01E901C114D10439F0F60180819181A5
:1017E000E81AF90AC80FD91F00E010E022C0809162
:1017F000E80085FD16C08091E8008E778093E800B0
:10180000C114D10449F0F60180819181800F911FAC
:101810009183808385E011C00E94800C882349F069
:101820000CC089918093F1000894E108F1080F5FE2
:101830001F4FE114F104D9F68B2DDF91CF911F9149
:101840000F91FF90EF90DF90CF90BF900895382FC9
:10185000282F2EC0822F8F708093E900231721F448
:10186000762F942F50E006C07091EC009091ED001F
:101870005091F00091FF1BC08091EB008E7F809310
:10188000EB008091ED008D7F8093ED008091EB0067
:1018900081608093EB007093EC009093ED00509387
:1018A000F0008091EE0087FD02C080E008952F5F78
:1018B000273080F23F703093E90081E008958091F5
:1018C000C80188239CF404C08091C7018823B9F023
:1018D0008091E80082FFF8CF8091E8008B778093B9
:1018E000E80008958091C701882349F08091E800BD
:1018F00080FFF8CF8091E8008E778093E80008950C
:101900004091E4005091E50024E68091EC0080FFD6
:1019100024C08091E80080FD1EC08091C70188230B
:1019200011F482E00895853011F483E008958091E8
:10193000EB0085FF02C081E008958091E400909162
:10194000E5008417950709F3222311F484E0089534
:101950002150AC01DACF80E008958091E80082FF49
:10196000DCCFF9CF0E94250D0E942D0DE0EEF0E0B6
:10197000808181608083A8EDB0E08C918F778C931B
:1019800019BCE7EDF0E080818E7F80838C918F7EA3
:101990008C931092C6010895EF92FF920F931F93BC
:1019A0000E94250D0E942D0D08ED10E0F8018081A8
:1019B0008F77808380818068808380818F7D808322
:1019C00019BC1092C7011092C3011092C501109268
:1019D000C40180EEE82EF12CF70180818B7F80839B
:1019E000F80180818160808380E060E042E00E94B5
:1019F000270CE1EEF0E080818E7F8083E2EEF0E064
:101A0000808181608083808188608083F70180810C
:101A10008E7F8083F8018081806180831F910F9188
:101A2000FF90EF900895E8EDF0E080818F7E808355
:101A3000E7EDF0E080818160808384E082BF81E017
:101A40008093C6010E94CC0C0895E8EDF0E08081FF
:101A50008E7F80831092E20008951092DA00109237
:101A6000E10008951F920F920FB60F9211241F9359
:101A70002F933F934F935F936F937F938F939F9396
:101A8000AF93BF93EF93FF931091E9008091EC0027
:101A90001092E9008091F000877F8093F0007894A5
:101AA0000E94400E1092E9008091F00088608093BF
:101AB000F0001F701093E900FF91EF91BF91AF917B
:101AC0009F918F917F916F915F914F913F912F9156
:101AD0001F910F900FBE0F901F9018951F920F929D
:101AE0000FB60F9211242F933F934F935F936F93F1
:101AF0007F938F939F93AF93BF93EF93FF938091C7
:101B0000E10082FF0BC08091E20082FF07C080915C
:101B1000E1008B7F8093E1000E94B00F8091DA009A
:101B200080FF1FC08091D80080FF1BC08091DA0029
:101B30008E7F8093DA008091D90080FF0DC080E114
:101B400089BD82E189BD09B400FEFDCF81E08093AB
:101B5000C7010E948F0905C019BC1092C7010E94DD
:101B60005F088091E10080FF19C08091E20080FF52
:101B700015C08091E2008E7F8093E2008091E200A8
:101B800080618093E2008091D80080628093D800C9
:101B900019BC85E08093C7010E94790A8091E10019
:101BA00084FF30C08091E20084FF2CC080E189BDB9
:101BB00082E189BD09B400FEFDCF8091D8008F7D00
:101BC0008093D8008091E1008F7E8093E100809126
:101BD000E2008F7E8093E2008091E200816080933A
:101BE000E2008091C301882311F084E007C0809156
:101BF000E30087FD02C081E001C083E08093C7015C
:101C00000E94700A8091E10083FF29C08091E20068
:101C100083FF25C08091E100877F8093E10082E00F
:101C20008093C7011092C3018091E1008E7F809361
:101C3000E1008091E2008E7F8093E2008091E200DB
:101C400080618093E20080E060E042E00E94270C27
:101C50008091F00088608093F0000E946208FF91FC
:101C6000EF91BF91AF919F918F917F916F915F9114
:101C70004F913F912F910F900FBE0F901F9018958D
:101C80001F93DF93CF93CDB7DEB7AC970FB6F89421
:101C9000DEBF0FBECDBFE8ECF1E08091F100819393
:101CA00021E0E03DF207C9F70E949D098091E8001C
:101CB00083FF3EC18091C8013091C901353009F4DC
:101CC00087C0363040F43130C9F1313070F03330F4
:101CD00009F02EC133C0383009F4F9C0393009F4A5
:101CE00009C1363009F024C197C0803821F082380C
:101CF00009F01EC108C09091C4018091C5018823DC
:101D000099F0926011C08091CC018F708093E900AE
:101D10008091EB0090E025E0969587952A95E1F774
:101D2000982F91701092E9008091E800877F80934E
:101D3000E8009093F1001092F100D4C0882319F0CC
:101D4000823009F0F5C090E08F719070009721F01B
:101D5000029709F0EDC00CC08091CA01813009F0F2
:101D6000E7C01092C501333069F58093C5012AC0E0
:101D70008091CA01882331F52091CC012F7009F49C
:101D8000D7C02093E9008091EB0080FF1BC0333067
:101D900021F48091EB00806213C08091EB008061A0
:101DA0008093EB0081E090E002C0880F991F2A9594
:101DB000E2F78093EA001092EA008091EB008860DD
:101DC0008093EB001092E9008091E800877F8DC03E
:101DD000882309F0ADC01091CA011F778091E300FC
:101DE0008078812B8093E3008091E800877F809347
:101DF000E8000E945F0C8091E80080FFFCCF80919A
:101E0000E30080688093E300112311F482E001C0B5
:101E100083E08093C7018CC08058823008F088C06E
:101E20008091CA019091CB0123E08C3D920709F08B
:101E300034C083E08C838AE28B837FB7F894DE0121
:101E400015966EE040E050E011E2E62FF0E01093CE
:101E50005700849140FF03C082958F706F5F8F7031
:101E6000282F30E08A3018F0C901C79602C0C90196
:101E7000C0968D939D934F5F5F4F4431510529F775
:101E80007FBF8091E800877F8093E800CE010396B2
:101E90006AE270E00E94FF0A14C06091CC01AE01BA
:101EA0004F5F5F4F0E947C0ABC01009709F440C05D
:101EB0008091E800877F8093E80089819A810E9461
:101EC000690B8091E8008B778093E80031C08038FF
:101ED00079F58091E800877F8093E8008091C301C5
:101EE0008093F1008091E8008E778093E8000E9453
:101EF0005F0C1EC08823E1F49091CA019230C0F4B7
:101F00008091E800877F8093E8009093C3010E944E
:101F10005F0C8091C301882331F48091E30087FD39
:101F200002C081E001C084E08093C7010E945B0A87
:101F30008091E80083FF0AC08091E800877F80934A
:101F4000E8008091EB0080628093EB00AC960FB6C6
:101F5000F894DEBF0FBECDBFCF91DF911F910895E2
:101F600008951F938091C701882379F01091E900AB
:101F70008091EC001092E9008091E80083FF02C09C
:101F80000E94400E1F701093E9001F9108959093D6
:101F90004B0180934A010895E0914A01F0914B0171
:101FA000309711F480E008950190F081E02D0995BB
:101FB0000895E0914A01F0914B01309721F00280A1
:101FC000F381E02D09950895E0914A01F0914B01CC
:101FD000309721F00480F581E02D099508959C014A
:101FE00080914801909149012817390779F0309381
:101FF000490120934801E0914A01F0914B0130974B
:1020000029F00680F781E02DC901099508959C010A
:1020100080914601909147012817390779F0309354
:10202000470120934601E0914A01F0914B0130971E
:1020300029F00084F185E02DC901099508950895DE
:102040000E941F1008950E945E080895BF92CF92CB
:10205000DF92EF92FF920F931F93DF93CF93CDB751
:10206000DEB72A970FB6F894DEBF0FBECDBF0E9431
:102070004605EE24FF24BE2C8E2D0E94F604C82EA9
:10208000F701E35BFE4FD080D82609F43FC0809172
:10209000AE0181FF02C00E94FC0400E010E0ED2DC3
:1020A000F0E0CF01002E02C0959587950A94E2F7E3
:1020B00080FF27C00E94B21B0983BA826C2D70E09A
:1020C000002E02C0759567950A94E2F761707070F2
:1020D0006B8381609D838C83402F5B2D782F8D8156
:1020E0000E949114F701E35BFE4F81E090E0002E27
:1020F00002C0880F991F0A94E2F7208128272083C5
:102100001DC00F5F1F4F0630110559F60894E11CE2
:10211000F11C8EE0E816F10409F0ADCF0E94B21B6D
:102120002FEF2E832F8318868160782F9A878987D7
:102130004FEF5FEF60E08A850E9491140E94871F35
:1021400010914C010E94CC0F181731F00E94CC0F57
:1021500080934C010E9423102A960FB6F894DEBF9C
:102160000FBECDBFCF91DF911F910F91FF90EF90E8
:10217000DF90CF90BF9008950E94A91B0E94250573
:102180000E946F1C0895DF93CF9300D000D00F9270
:10219000CDB7DEB70F900F900F900F900F90CF91AB
:1021A000DF910895DF93CF9300D000D000D0CDB75A
:1021B000DEB726960FB6F894DEBF0FBECDBFCF9127
:1021C000DF9108950E940819482F892F82958F70FA
:1021D000282F30E02C3031054CF42A3031056CF4D6
:1021E0002250304022303105C0F407C02C30310578
:1021F00051F02F30310589F406C0403E10F0403FC9
:1022000061F481E008959F70892F90E023E0969516
:1022100087952A95E1F78170089580E008950E94DE
:10222000DC1A0E94B11A0E94F41A0E94701F0E94C8
:102230007C1F80E090E00E94EF0F80E090E00E9421
:10224000071008950E94CC1A0E940F110895882348
:1022500021F00E94C51A0E94F41A0895882321F0E3
:102260000E94BF1A0E94F41A0895282F882309F4A7
:102270004EC0823859F40E94CC0F81FF48C089E3D8
:102280000E943F1A0E94F41A89E30CC0833869F453
:102290000E94CC0F80FF3BC083E50E943F1A0E9442
:1022A000F41A83E50E947D1A1FC0843859F40E94F5
:1022B000CC0F82FF2CC087E40E943F1A0E94F41AC0
:1022C00087E4F0CF8450813A10F4822FEBCF822F35
:1022D000805E883060F4277081E090E001C0880F54
:1022E0002A95EAF70E94C51A0E94F41A0895822FCF
:1022F000855A833028F480E090E00E94EF0F089523
:10230000285A233120F480E090E00E9407100895BD
:102310001F93182F882309F4D0C0823859F40E94E3
:10232000CC0F81FDCAC089E30E943F1A0E94F41AB3
:1023300089E30CC0833879F40E94CC0F80FDBDC0C6
:1023400083E50E943F1A0E94F41A83E50E947D1AD9
:102350000E94F41AB2C0843859F40E94CC0F82FD56
:10236000ACC087E40E943F1A0E94F41A87E4EECFC3
:102370008450813A50F4812F0E94B921882309F0BA
:102380009CC0812F0E943F1AE3CF812F805E88304E
:1023900050F4177081E090E001C0880F1A95EAF7B9
:1023A0000E94BF1AD5CF812F855A8330A0F4153AE9
:1023B00019F481E890E00CC0163A19F482E890E034
:1023C00007C0173A19F080E090E002C083E890E07F
:1023D0000E94EF0F72C0812F885A833108F06DC0C0
:1023E000183A19F482EE90E066C0193A19F489EEB1
:1023F00090E061C01A3A19F48AEE90E05CC01B3A92
:1024000019F485EB90E057C01C3A19F486EB90E084
:1024100052C01B3B19F483EB90E04DC01C3B19F4F8
:1024200084EB90E048C01D3A19F487EB90E043C07C
:10243000103B19F48CEC90E03EC01E3A19F48DEC80
:1024400090E039C01F3A19F483E891E034C0113BA1
:1024500019F48AE891E02FC0123B19F482E991E067
:102460002AC0133B19F484E991E025C0143B19F408
:1024700081E292E020C0153B19F483E292E01BC098
:10248000163B19F484E292E016C0173B19F485E27A
:1024900092E011C0183B19F486E292E00CC0193B9F
:1024A00019F487E292E007C01A3B19F080E090E04F
:1024B00002C08AE292E00E9407101F910895AF9235
:1024C000BF92CF92DF92EF92FF920F931F93DF9311
:1024D000CF93CDB7DEB72A970FB6F894DEBF0FBE05
:1024E000CDBF5C01DE011196FC0185E001900D92EB
:1024F0008150E1F70B81F501F580F2944FE0F42271
:10250000DE011696FE01319685E001900D92815014
:10251000E1F73E812F8189859A85892B09F4F0C1E5
:102520002F3F09F0C0C13F3F09F0BDC1E9C18D2D6A
:102530008F70222311F4182F03C0182F1295107FCB
:10254000002349F0112309F488C1812F0E94CF1A7A
:102550000E94F41A82C18C2D0E943511112309F4B6
:10256000CFC1812F0E94D51A0E94F41AC9C18D2DA6
:102570008F70203211F4182F03C0182F1295107F7E
:10258000CC2021F0F1E0CF1611F516C0002359F050
:10259000FF2009F431C121E0F21609F02DC1812F8D
:1025A0000E94DF1AADC1FF2021F081E0F81609F486
:1025B000A7C10E94E21A26C1002329F0E1E0EF152D
:1025C00008F49EC119C1FF2009F09AC11BC1002364
:1025D00021F0FF2009F410C140C1FF2009F412C10D
:1025E00047C18D2D86958695837090E0009721F0E8
:1025F000019709F085C10AC0002319F0C601937044
:1026000002C080E090E00E94EF0F7AC1002319F031
:10261000C601937002C080E090E00E94071070C174
:10262000002321F08C2D0E947E1E03C08C2D0E9461
:10263000E81E0E947C1F64C18D2D837009F05EC06E
:10264000002309F05DC12C2D229526952770220FBD
:10265000220F8C2D8F70E82EFF2400E010E0022E58
:1026600004C0EE0CFF1C001F111F0A94D2F7C4FC1B
:1026700005C060E070E080E090E00FC06FE070E0C7
:1026800080E090E004C0660F771F881F991F2A958D
:10269000D2F76095709580959095D694D694F3E096
:1026A000DF224D2D50E041305105A9F04230510557
:1026B0001CF4452B49F024C14230510589F04330C8
:1026C000510509F01DC113C06E297F29802B912B64
:1026D0000E941A1A15C16E297F29802B912B0BC0DD
:1026E0006E297F29802B912B0E94091A09C10E9413
:1026F0001A1AC801B7010E942B1A02C190E00023E8
:1027000011F496958795817009F4FAC02C2D2295C5
:1027100026952770220F220F8C2D8F70E82EFF2414
:1027200000E010E0022E04C0EE0CFF1C001F111F81
:102730000A94D2F7C4FC05C060E070E080E090E04D
:102740000FC06FE070E080E090E004C0660F771F7C
:10275000881F991F2A95D2F760957095809590955E
:10276000D694D69423E0D2224D2D50E0413051052D
:10277000A9F0423051051CF4452B49F0C1C042304C
:10278000510589F04330510509F0BAC013C06E29D4
:102790007F29802B912B0E946D19B2C06E297F2951
:1027A000802B912B0BC06E297F29802B912B0E94AF
:1027B0005C19A6C00E946D19C801B7010E947E195C
:1027C0009FC080EFC81611F18C1528F0E0EECE16F0
:1027D00008F43FC009C0F2EFCF1661F1CF1628F11F
:1027E00023EFC216B1F52BC01C2D1F708D2D8F71DC
:1027F000002331F00E94CB19812F0E942E1180C03E
:102800000E94AB19812F0E9427117AC0002321F06A
:10281000FF2009F075C004C081E08F1508F470C076
:102820008D2D8F710E948F196BC08D2D8F7100239C
:1028300029F119C08D2D8F710023A9F01FC000232D
:1028400029F08D2D8F710E94E7195AC00E94F71947
:1028500057C0002359F0FF2021F08C2D0E948811D1
:102860004FC08D2D8F710E94CB194AC0FF2021F0DF
:102870008C2D0E94351144C08D2D8F710E94AB1993
:102880003FC0EFE0DE22C5016C2D4D2D0E940803F4
:102890000E948D1835C0FFE0DF22C5016C2D4D2D43
:1028A0000E9445062DC089819A810E9408196C01F9
:1028B0000E9407190E9406198D2D82958F7090E055
:1028C0008530910509F4ACCE8630910554F48430FE
:1028D00091050CF086CE2D2D207F02970CF047CE6F
:1028E00026CE8C3091053CF48A3091050CF069CFEE
:1028F000089731F4A1CE8C30910519F20F9759F257
:102900002A960FB6F894DEBF0FBECDBFCF91DF91F0
:102910001F910F91FF90EF90DF90CF90BF90AF90FD
:102920000895DF93CF93CDB7DEB72B970FB6F8940A
:10293000DEBF0FBECDBF342F4F83252F5887698749
:102940007A878B87472F582FFE01319686E0DF016B
:102950001D928A95E9F76B8339832A834C835D83C3
:10296000432F522F8D819E810E94CE172B960FB63A
:10297000F894DEBF0FBECDBFCF91DF9108950F93C6
:102980001F930091620115C010E0F801EE0FFF1FC8
:10299000E00FF11FEE0FFF1FED59FE4F40815181F7
:1029A00062817381848195810E94D2100F5F1F4FD5
:1029B000077080916101081739F71F910F910895F1
:1029C00040915B0150915C0160915D0170915E01ED
:1029D00080915F01909160010E94D21008950F9341
:1029E0001F93CF93DF938091600182958F7009F0E0
:1029F0006DC080915D01882309F468C06091620117
:102A00000091610140915E0150915F0110915C0164
:102A100070915B01EA01C095D09555C041155105F3
:102A200009F44FC01F3F49F480E090E07F3F11F46C
:102A300081E090E0882309F044C0262F30E0F901BE
:102A4000EE0FFF1FE20FF31FDF01AA0FBB1FAD59EF
:102A5000BE4F11968C911197181799F58C91781794
:102A600081F5EE0FFF1FEB59FE4F8081882349F55A
:102A700013968D919C9114978417950718F0841BD9
:102A8000950B02C08C0F9D1F883C9105D0F480915E
:102A900060018F70806180936001F901EE0FFF1F6C
:102AA000E20FF31FEE0FFF1FE859FE4F80818F707A
:102AB000806180838BE591E00E945F120E94BF14C9
:102AC00005C06F5F6770601709F0A8CFDF91CF91E5
:102AD0001F910F910895DF92EF92FF920F931F9332
:102AE000DF93CF93CDB7DEB76B970FB6F894DEBF09
:102AF0000FBECDBF8C01DC011296DC9012974C9179
:102B000011965C9111971396ED90FC90149720917B
:102B10005E0130915F0160915C0170915B01211554
:102B2000310509F4DBC16F3F09F003C27F3F09F0B3
:102B300000C2D4C1E216F30640F0C701821B930B1A
:102B4000883C910508F0EEC008C0209530952E0D08
:102B50003F1D283C310508F0E5C080916001807F71
:102B600009F095C06F3F09F0EAC17F3F09F0E7C166
:102B700015C0741799F4DD2089F4809160018F707D
:102B80008061809360010E94E0148BE591E00E94D7
:102B90005F1280916001F8018583BCC1FD82EC82E7
:102BA0005A834983DB82DE011696FE01319685E069
:102BB00001900D928150E1F76885DE011B96FE01C0
:102BC000369685E001900D928150E1F72C853B858A
:102BD0008E859F85892B09F451C02F3F09F0B3C121
:102BE0003F3F09F0B0C14AC0FD82EC825A8349835D
:102BF000DB82DE011B96FE01319685E001900D928D
:102C00008150E1F7FC847B856D8580916201909114
:102C100061011FC0282F30E0F901EE0FFF1FE20F06
:102C2000F31FDF01AA0FBB1FAD59BE4F11968C9148
:102C30001197F81651F48C91781739F4EE0FFF1FA5
:102C4000EB59FE4F80816817C9F42F5F3F4F822FE9
:102C500087708917F9F68DC19F7059F0442349F4A4
:102C600059C19F7031F0D80115968C91807F09F47D
:102C700051C1405E483008F44DC148C1DD2009F41F
:102C800049C18091600181608093600143C16F3FC1
:102C900009F05DC17F3F09F05AC114C0741791F467
:102CA000DD2081F480916001F8018583C8010E94D4
:102CB0005F12ABE5B1E0F80186E001900D92815022
:102CC000E1F720C15A83498389819A810E94E210E9
:102CD000882309F41BC1DD2009F418C1309160017B
:102CE000832F82958F7090E002979CF090915C0109
:102CF00020915B01FE01709686E0DF011D928A95AE
:102D0000E9F7998B288BFC8AEB8A3D8BCF010E94D7
:102D10005F12ABE5B1E0F80186E001900D928150C1
:102D2000E1F7EEC080916001807FA9F47E2DFD82E5
:102D3000EC825A834983DB826D2D8D810E94C31002
:102D40000BE511E0C8010E945F1286E0F8011192C4
:102D50008A95E9F7C0C06F3F09F0FDC07F3F09F0D9
:102D6000FAC014C0741791F4DD2081F480916001E1
:102D7000D80115968C93C8010E945F12EBE5F1E033
:102D800086E0DF011D928A95E9F7BEC05A83498328
:102D900089819A810E94E210882309F4B7C0DD205E
:102DA00009F4B4C030916001832F82958F7090E058
:102DB00002979CF090915C0120915B01FE01769658
:102DC00086E0DF011D928A95E9F79F8B2E8BFA8EA4
:102DD000E98E3B8FCF010E945F12ABE5B1E0F801B5
:102DE00086E001900D928150E1F78AC06F3F09F0B3
:102DF000B6C07F3F09F0B3C071C0E216F30640F0E1
:102E0000C701821B930B883C910508F053C008C092
:102E1000209530952E0D3F1D283C310508F04AC005
:102E2000DD2009F473C06F3F09F09FC07F3F09F0B8
:102E30009CC029C0741739F59091600190FD1AC0AB
:102E4000892F82958F70B1F0F80195838F3031F022
:102E50008F5F8295807F9F70982B9583C8010E9419
:102E60005F12ABE5B1E0F80186E001900D92815070
:102E7000E1F748C0ABE5B1E0F80186E001900D92C2
:102E80008150E1F741C05A83498389819A810E9428
:102E9000E210882349F0ABE5B1E0F80186E001904B
:102EA0000D928150E1F72CC0809160018160809388
:102EB00060012CC07E2DFD82EC825A834983DB8227
:102EC0006D2D8D810E94C310EBE5F1E086E0DF01FE
:102ED0001D928A95E9F70E94E0141CC0DD20B1F034
:102EE0005A83498389819A810E94E210882371F074
:102EF000ABE5B1E0F80186E001900D928150E1F779
:102F00000E94EF140E94E01481E005C0C8010E94F5
:102F10005F12FACF80E06B960FB6F894DEBF0FBE5B
:102F2000CDBFCF91DF911F910F91FF90EF90DF9078
:102F3000089580915D01882309F458CFFBCD651772
:102F400009F02CCE16CE613009F498CE4DCE65171F
:102F500009F0B8CEA3CE651709F018CF03CF809142
:102F60005D01882309F0BACF48CF651709F08BCFF0
:102F700061CF5A83498389819A810E940819482F19
:102F8000892F82958F70282F30E0223031050CF484
:102F900063CE243031050CF0B9CF63CE0F931F936D
:102FA000DF93CF93CDB7DEB72C970FB6F894DEBF83
:102FB0000FBECDBF4F83588769877A878B879C87E1
:102FC0008E01095F1F4FC8010E946B158823D9F03D
:102FD00028853F818A859B85892B09F46BC02F3F0B
:102FE00049F480E090E03F3F11F481E090E08823D5
:102FF00009F060C04F81588569857A858B859C85ED
:103000000E94D21057C0DE011196F80186E00190AF
:103010000D928150E1F7F981EA814C815D81411582
:10302000510509F447C0EF3F09F04CC0FF3F09F0DC
:1030300049C040C0F983EA835D834C83F901EE0FF8
:10304000FF1FE20FF31FEE0FFF1FED59FE4FDE01D2
:10305000119686E00D9001928150E1F76093610135
:103060000E94BF1427C0919FC00111248D599E4F0B
:103070000E946B15882309F445C08091620190E09D
:10308000FC01EE0FFF1FE80FF91FEE0FFF1FED59B8
:10309000FE4F4081518162817381848195810E94BC
:1030A000D2108091620190E00196877090708093B9
:1030B000620101C016E09091620180916101981750
:1030C00091F620C080916101282F30E02F5F3F4FA3
:1030D000B90167707070215030408091620190E0BA
:1030E0006817790709F0A6CF0E942211109261019A
:1030F00010926201EBE5F1E086E0DF011D928A9516
:10310000E9F7D8CF2C960FB6F894DEBF0FBECDBF2F
:10311000CF91DF911F910F910895CF92DF92EF929F
:10312000FF921F93CF93DF93EC01009709F466C0E1
:1031300010E090EAC92E9FE0D92E81E0E82EF12C14
:10314000FE0121969491943748F4943008F044C0DD
:10315000913079F0923009F051C01BC0953709F4D5
:1031600037C0953750F1892F8458803708F046C012
:1031700037C0FE0121969491892F805E883060F5DA
:1031800097708E2D01C0880F9A95EAF70E94CF1A8A
:103190000FC0FE0121969491892F805E883058F4EB
:1031A00097708E2D01C0880F9A95EAF70E94D51A64
:1031B0000E94F41A19C0892F15C0FE01249104C081
:1031C000C6010197F1F721502223D1F721960CC0B7
:1031D000FE012196149108C0892F0E94881104C015
:1031E000892F8F770E943511212F04C0C6010197C6
:1031F000F1F72150222309F4A3CFF8CFDF91CF912B
:103200001F91FF90EF90DF90CF900895089508955B
:10321000CF92DF92EF92FF920F931F93CF93DF93A2
:103220006C01E0909301F090940100919501109150
:1032300096018091970190919801A0919901B09188
:103240009A01E82AF92A0A2B1B2BCFE1D0E0D801FA
:10325000C7010C2E04C0B695A795979587950A943B
:10326000D2F781709070892B41F08C2FB6010E94AB
:103270001D079C018130910551F421978FEFCF3FBD
:10328000D80729F780E0B6010E941D079C01822F14
:10329000DF91CF911F910F91FF90EF90DF90CF9032
:1032A000089560939701709398018093990190938A
:1032B0009A010E940F1108959B01AC016091970142
:1032C000709198018091990190919A0162277327DA
:1032D000842795270E94511908959B01AC016091A4
:1032E0009701709198018091990190919A016223C0
:1032F0007323842395230E94511908959B01AC01E7
:1033000060919701709198018091990190919A0133
:10331000622B732B842B952B0E945119089521E069
:1033200030E040E050E004C0220F331F441F551F1F
:103330008A95D2F78091970190919801A091990177
:10334000B0919A01282739274A275B27CA01B9017A
:103350000E945119089521E030E040E050E004C09F
:10336000220F331F441F551F8A95D2F720953095A1
:10337000409550958091970190919801A091990165
:10338000B0919A01282339234A235B23CA01B9014A
:103390000E945119089521E030E040E050E004C05F
:1033A000220F331F441F551F8A95D2F78091970132
:1033B00090919801A0919901B0919A01282B392BF5
:1033C0004A2B5B2BCA01B9010E945119089521E0D3
:1033D00030E040E050E004C0220F331F441F551F6F
:1033E0008A95D2F7CA01B9010E945119089560E087
:1033F00070E080E090E00E9451190895609393017D
:103400007093940180939501909396010E940F11FF
:1034100008959B01AC01609193017091940180919A
:1034200095019091960162277327842795270E9422
:10343000FE1908959B01AC01609193017091940174
:1034400080919501909196016223732384239523A3
:103450000E94FE1908959B01AC0160919301709147
:1034600094018091950190919601622B732B842B8E
:10347000952B0E94FE1908950E94FE190895382F79
:10348000809102018823E1F080910D018823C1F031
:10349000832F8695869586958F3070F5E0910E0185
:1034A000F0910F01E80FF11D377081E090E002C04C
:1034B000880F991F3A95E2F72181282B21830895DF
:1034C000A0910E01B0910F01FD0120E08FEF9281DC
:1034D000931791F08F3F19F4992309F4822F2F5FEE
:1034E00031962E30A1F78F3F39F0992787FD9095BF
:1034F000A80FB91F12963C930895482F809102019E
:103500008823E9F080910D018823C9F0842F8695E6
:10351000869586958F3020F5E0910E01F0910F0190
:10352000E80FF11D477081E090E002C0880F991FFD
:103530004A95E2F78095218182238183089520E0D6
:1035400030E0E0910E01F0910F01E20FF31F828154
:10355000841709F412822F5F3F4F2E30310589F70F
:10356000089581E090E0E0910E01F0910F01E80FE5
:10357000F91F1082019680319105A9F70895909165
:10358000AB01982B9093AB01089580959091AB017E
:1035900098239093AB0108951092AB0108959091F8
:1035A000AD01982B9093AD01089580959091AD0158
:1035B00098239093AD0108951092AD0108958093E2
:1035C000AC0108951092AC010895E0910E01F091C4
:1035D0000F0120E091E0818181112F5F9F5F319683
:1035E0009031C9F7822F0895E0910E01F0910F01FB
:1035F0008091AB018083E0910E01F0910F018081F9
:103600009091AD01892B80839091AC01992369F051
:10361000E0910E01F0910F018081892B80830E943F
:10362000E51A882311F00E94E21A80910E01909110
:103630000F010E94D90F08959B01AC01AA27BB2757
:103640000097A105B10521F4DA01C90160E001C0CC
:1036500060E1292F3A2F4B2F5527211531054105C0
:10366000510519F49C01AD0101C0685FDA01C9017F
:1036700074E0B695A795979587957A95D1F70097B9
:10368000A105B10519F4DA01C90101C06C5F9C0103
:10369000AD01F2E05695479537952795FA95D1F704
:1036A000211531054105510519F49C01AD0101C0F9
:1036B0006E5F56954795379527952115310541053C
:1036C000510509F06F5F862F08958091C7018430FE
:1036D00009F11092AF0120E488E190E00FB6F89470
:1036E000A895809360000FBE2093600083B7817F10
:1036F000846083BF83B7816083BF7894889583B7E4
:103700008E7F83BF88E10FB6F8948093600010929B
:1037100060000FBE0895089508950E9422110E942E
:10372000CC0F0E945E0808951F930E948B1B0E947D
:1037300046050E948C1B10E0812F0E94F60488230E
:1037400011F081E004C01F5F1E30B1F780E01F91CF
:10375000089582E084BD93E095BD9AEF97BD809374
:103760006E0008958FB7F8942091B0013091B101A7
:103770004091B2015091B3018FBFC9010895EF92FA
:10378000FF920F931F93BC018FB7F894E090B001A4
:10379000F090B1010091B2011091B3018FBFA80167
:1037A000970140705070CB01A0E0B0E028173907B6
:1037B0004A075B0720F09701261B370B05C09B01CA
:1037C000209530952E0D3F1DC9011F910F91FF903F
:1037D000EF9008951F920F920FB60F9211248F93BE
:1037E0009F93AF93BF938091B0019091B101A0914D
:1037F000B201B091B3010196A11DB11D8093B0013A
:103800009093B101A093B201B093B301BF91AF9176
:103810009F918F910F900FBE0F901F9018950E944F
:10382000B20CF89480E29EE420E931E0F90131978E
:10383000F1F70197D9F787E090EBA7E0B0EB809321
:10384000D0019093D101A093D201B093D3012CE089
:1038500088E190E00FB6F894A895809360000FBEC1
:1038600020936000FFCFEF92FF920F931F93CF93AF
:10387000DF93082F10E0812F0E94F604C0E0D0E013
:10388000E82EFF24C7010C2E02C0959587950A9457
:10389000E2F780FF09C080E06C2F712F0E94F506CF
:1038A000081711F481E008C02196C630D10551F700
:1038B0001F5F1E3001F780E0DF91CF911F910F91C4
:1038C000FF90EF9008951F93182F8CE20E94331CF5
:1038D000882319F0812F0E94331C1F9108951F9394
:1038E000CF93DF930E94DD1D882311F40E94E81D11
:1038F00014E6C0E4DCE905C00E944605CE0101974C
:10390000F1F71150C8F789E20E94631C882309F07F
:103910002FC18AE20E94631C882311F00E94E81DD7
:1039200085E00E94631C882311F00E940F1C0E94F6
:10393000D81D8093AE0187E00E94631C8823B9F1F3
:103940008BE10E94631C882349F09091AE01892F7E
:10395000869580958170880F9D7F26C08EE00E949D
:10396000631C882359F09091AE01892F8695869526
:1039700080958170880F880F9B7F16C080E10E9420
:10398000631C9091AE01882359F0892F8695869506
:10399000869580958170880F880F880F977F04C067
:1039A000892F809581709E7F982B9093AE01809196
:1039B000AE010E94C81D0E94CE1D8093C10180EE01
:1039C0000E94631C882349F08091C101982F909533
:1039D00091708E7F892B8093C10189E30E94631CC3
:1039E000882359F09091C101892F86958095817027
:1039F000880F9D7F982B9093C10182EE0E94631CDB
:103A0000882369F09091C101892F869586958095CC
:103A10008170880F880F9B7F982B9093C10186EE51
:103A20000E94631C882379F09091C101892F8695AB
:103A30008695869580958170880F880F880F977F6F
:103A4000982B9093C10183EE0E94631C882369F038
:103A50009091C101892F82958F7080958170829598
:103A6000807F9F7E982B9093C10185E30E94631C09
:103A7000882379F09091C101892F8295869587706E
:103A8000809581708295880F807E9F7D982B909382
:103A9000C10181E30E94631C882389F09091C101D8
:103AA000892F829586958695837080958170829501
:103AB000880F880F807C9F7B982B9093C10181E1B8
:103AC0000E94631C882379F08091C101982F991F6F
:103AD0009927991F21E092279795992797958F7796
:103AE000892B8093C1018091C1010E94BC1D8091EE
:103AF000C101881F8827881F80930D0187E20E94DB
:103B0000631C182F8EE10E94631C811112608FE1EB
:103B10000E94631C8111146080E20E94631C811169
:103B2000186081E20E94631C8111106182E20E9490
:103B3000631C8111106283E20E94631C8111106476
:103B400084E20E94631C81111068112341F0812FCF
:103B50000E94C21D612F70E080E090E007C00E94CB
:103B6000D31D90E0A0E0B0E0BC01CD010E943C1A62
:103B7000DF91CF911F910895682F84E090E00E941B
:103B800043240895682F83E090E00E944324089521
:103B9000682F82E090E00E944324089584E090E042
:103BA0000E943524089583E090E00E943524089512
:103BB00082E090E00E943524089580E090E00E9429
:103BC0003D2420E08D5E9E4F09F421E0822F089570
:103BD00080E090E06DEE7EEF0E94512482E090E064
:103BE00060E00E94432483E090E060E00E94432470
:103BF00084E090E060E00E94432485E090E060E093
:103C00000E94432408958091BA0180FF0BC09091D7
:103C1000120185E0989FC00111249595879595958F
:103C2000879530C081FF09C09091120185E0989F6F
:103C3000C00111249595879525C082FF03C09091FE
:103C400012010DC08091B901882319F485E090E03C
:103C500008956091130190911201861728F085E074
:103C6000989FC00111240EC0899F90011124C901A1
:103C7000880F991F880F991F820F931F70E00E9471
:103C80000E24CB018038910510F08FE7089500973E
:103C900009F481E008958091BA0180FF05C0809108
:103CA00014018695869518C081FF04C08091140187
:103CB000869512C082FF03C0809114010DC020912F
:103CC000B901222319F481E090E008956091150173
:103CD00080911401261710F090E007C0289FC001C2
:103CE000112470E00E940E24CB018038910510F061
:103CF0008FE70895009709F481E00895803F21F44B
:103D00000E94031E819504C0813F29F40E94031E76
:103D10008093B6010895823F21F40E94031E81958D
:103D200004C0833F29F40E94031E8093B5010895C7
:103D3000893F19F40E944B1E05C08A3F31F40E944E
:103D40004B1E81958093B70108958B3F21F40E940B
:103D50004B1E819504C08C3F29F40E944B1E80931A
:103D6000B8010895843F21F48091B401816017C0A7
:103D7000853F21F48091B401826011C0863F21F417
:103D80008091B40184600BC0873F21F48091B4011D
:103D9000886005C0883F31F48091B40180618093D0
:103DA000B40108958D3F21F48091BA01816005C06E
:103DB0008E3F31F48091BA0182608093BA010895F8
:103DC0008F3F29F48091BA0184608093BA010895ED
:103DD000803F29F48091B60187FF6FC007C0813F03
:103DE00041F48091B60118160CF067C01092B6012C
:103DF00064C0823F29F48091B50187FF5EC007C08F
:103E0000833F41F48091B50118160CF056C0109212
:103E1000B50153C0893F29F48091B70118163CF0D1
:103E20004CC08A3F39F48091B70187FF46C0109299
:103E3000B70143C08B3F29F48091B80187FF3DC093
:103E400006C08C3F39F48091B8011816B4F5109271
:103E5000B80133C0843F21F48091B4018E7F05C046
:103E6000853F31F48091B4018D7F8093B40125C0EA
:103E7000863F21F48091B4018B7FF7CF873F21F4F7
:103E80008091B401877FF1CF883F21F48091B40104
:103E90008F7EEBCF8D3F21F48091BA018E7F0BC0D6
:103EA0008E3F21F48091BA018D7F05C08F3F29F4A8
:103EB0008091BA018B7F8093BA018091B5018823EC
:103EC00071F48091B601882351F48091B701882361
:103ED00031F48091B801882311F41092B90108954A
:103EE000E4EBF1E085E0DF011D928A95E9F710929D
:103EF000B9011092BA01089584EB91E00E94E40F99
:103F00000E94B21B9093BC018093BB0108951F9344
:103F10008091BB019091BC010E94BF1BAC0120911C
:103F2000B901222321F08091110190E006C0909107
:103F300010018AE0989FC00111244817590708F41E
:103F400085C09091B501992369F48091B6018823C9
:103F500049F48091B701882329F48091B80188231E
:103F600009F474C02F3F19F02F5F2093B90119167F
:103F700024F40E94031E8093B5018091B50187FF50
:103F800005C00E94031E81958093B5018091B60102
:103F9000181624F40E94031E8093B6018091B60186
:103FA00087FF05C00E94031E81958093B601609132
:103FB000B501662339F11091B601112319F1772764
:103FC00067FD7095872F972F0E941F2323E333E30C
:103FD00043E35FE30E9483230E94EC226093B501D8
:103FE000612F772767FD7095872F972F0E941F23DA
:103FF00023E333E343E35FE30E9483230E94EC2245
:104000006093B6018091B701181624F40E944B1EEC
:104010008093B7018091B70187FF05C00E944B1EB6
:1040200081958093B7018091B801181624F40E94FD
:104030004B1E8093B8018091B80187FF05C00E9494
:104040004B1E81958093B8010E947C1F1F9108959B
:1040500080E0089580E00895833099F1843030F451
:10406000813069F0823009F06FC01AC0853009F4E0
:104070004AC08530B8F1863009F066C055C020913D
:104080001001822F90E0860F911D8F3F910520F443
:10409000260F2093100108958FEF8093100108954B
:1040A00020911101822F90E0860F911D8F3F910585
:1040B00020F4260F2093110108958FEF80931101B2
:1040C000089520911201822F90E0860F911D8F3F5D
:1040D000910520F4260F2093120108958FEF80930D
:1040E0001201089520911301822F90E0860F911DF7
:1040F0008F3F910520F4260F2093130108958FEF31
:1041000080931301089520911401822F90E0860F6F
:10411000911D8F3F910520F4260F209314010895DF
:104120008FEF80931401089520911501822F90E064
:10413000860F911D8F3F910520F4260F20931501C6
:1041400008958FEF809315010895833031F1843005
:1041500030F4813061F0823009F04AC013C08530FC
:1041600091F1853028F1863009F042C037C0809146
:104170001001681720F4861B809310010895109297
:104180001001089580911101681720F4861B809317
:10419000110108951092110108958091120168177C
:1041A00020F4861B80931201089510921201089545
:1041B00080911301681720F4861B809313010895E2
:1041C00010921301089580911401681720F4861B42
:1041D000809314010895109214010895809115019F
:1041E000681720F4861B809315010895109215011D
:1041F000089521E030E040E050E004C0220F331F7A
:10420000441F551F8A95D2F7CA01B9010E943C1A72
:104210000E94221108958D3109F442C08E3118F5A3
:104220008E3009F470C08F3068F4873009F45BC0B9
:10423000883018F4863091F53FC08830C1F18B305A
:1042400069F595C0863109F492C0873130F4803128
:1042500009F465C0813111F578C0893109F487C04E
:104260008B31E1F446C0853309F478C0863348F4D5
:10427000873209F473C0873208F472C0893271F44E
:104280006DC0833430F48A3308F06CC0883331F465
:104290006EC0833409F462C08834B9F080E00895B8
:1042A0000E94A6220E94CC0F0E945E085EC00E945F
:1042B000D81D0E94CE1D59C08091AE01807F809391
:1042C000AE0181E08093BD0108950E94221180E13A
:1042D00097E220E931E0F9013197F1F70197D9F739
:1042E0000E940F1C42C08091AE0180FF2AC0807FD7
:1042F00029C08091AE01982F969590959170292FA5
:10430000220F8D7F19C08091AE01982F96959695BA
:1043100090959170292F220F220F8B7F0DC08091D5
:10432000AE01982F96959695969590959170292F18
:10433000220F220F220F877F822B8093AE019923B9
:10434000B1F081608093AE0110C00E942211809173
:104350000D0191E0892780930D0107C080E003C023
:104360008D5101C089530E94F92081E0089581E0B8
:1043700008951F93182F8091BD01813089F08130FD
:1043800020F0823009F0BFC03BC0E0910E01F091F7
:104390000F01E081E13169F0E23209F0B6C009C0F5
:1043A000E0910E01F0910F01E081E13111F0E23274
:1043B00049F4812F0E9428208823F9F4812F0E943C
:1043C0000B21A4C0812F0E942A208823B1F414312C
:1043D00061F0153128F41B3081F0103141F40AC02E
:1043E000193219F0183319F408C01092BD0180E099
:1043F00090E08CC082E08093BD0181E090E086C0B7
:10440000193201F11A3270F41431E1F0153120F44F
:10441000173009F064C065C0812F8E51863008F0D6
:104420005EC01BC01E3409F455C01F3420F41B3479
:1044300009F055C049C0113509F442C0123509F0E0
:104440004EC03AC08091BE01882319F01092BE017F
:1044500046C081E08093BD0159C01232F9F0133299
:1044600060F41F3199F0103218F41E3109F510C0B4
:10447000103281F01132E1F40FC0143299F014328D
:1044800078F0153289F0163299F410C082E011C02C
:1044900081E00FC083E00DC084E00BC085E009C05F
:1044A00086E007C087E005C088E003C089E001C05E
:1044B00080E08093BE0113C08091BE0161E007C01F
:1044C0008091BE0161E009C08091BE016AE00E9456
:1044D0002C2005C08091BE016AE00E94A52081E0E9
:1044E00015C09AE09093100184E18093110183E05C
:1044F000809312019093130188E08093140188E265
:1045000080931501ECCF1092BD0180E01F910895BA
:10451000E1E8F0E080818860808380818160808331
:104520009FB7F89483E08093890080ED80938800A2
:104530009FBF0895EFE6F0E0808182608083089558
:10454000EFE6F0E080818D7F80830895EFE6F0E074
:10455000808192E08927808308951F920F920FB681
:104560000F9211242F933F934F935F936F937F93F9
:104570008F939F93AF93BF93EF93FF938091BF016E
:104580009091C00101969093C0018093BF01882350
:1045900019F482E00E945E08E091C001E695E6957C
:1045A000F0E0E250FB4FE4918091BF018E1719F4C7
:1045B00080E00E945E08FF91EF91BF91AF919F91C3
:1045C0008F917F916F915F914F913F912F910F90BC
:1045D0000FBE0F901F90189504D06894B1118DC034
:1045E000089570D088F09F5790F0B92F9927B75150
:1045F000A0F0D1F0660F771F881F991F1AF0BA95A7
:10460000C9F712C0B13081F077D0B1E0089574C01D
:10461000672F782F8827B85F39F0B93FCCF386959C
:1046200077956795B395D9F73EF4909580957095F9
:1046300061957F4F8F4F9F4F0895E89409C097FB76
:104640003EF490958095709561957F4F8F4F9F4F69
:104650009923A9F0F92F96E9BB279395F6958795AD
:1046600077956795B795F111F8CFFAF4BB0F11F470
:1046700060FF1BC06F5F7F4F8F4F9F4F16C0882317
:1046800011F096E911C0772321F09EE8872F762F4D
:1046900005C0662371F096E8862F70E060E02AF08E
:1046A0009A95660F771F881FDAF7880F969587957A
:1046B00097F9089557FD9058440F551F59F05F3FE3
:1046C00071F04795880F97FB991F61F09F3F79F034
:1046D00087950895121613061406551FF2CF4695B6
:1046E000F1DF08C0161617061806991FF1CF869538
:1046F0007105610508940895E894BB27662777271C
:10470000CB0197F908950BD078C069D028F06ED00E
:1047100018F0952309F05AC05FC01124EECFCADF0C
:10472000A0F3959FD1F3950F50E0551F629FF001C4
:10473000729FBB27F00DB11D639FAA27F00DB11D1D
:10474000AA1F649F6627B00DA11D661F829F2227A6
:10475000B00DA11D621F739FB00DA11D621F839F2D
:10476000A00D611D221F749F3327A00D611D231F03
:10477000849F600D211D822F762F6A2F11249F5751
:1047800050408AF0E1F088234AF0EE0FFF1FBB1F74
:10479000661F771F881F91505040A9F79E3F510513
:1047A00070F014C0AACF5F3FECF3983EDCF386951F
:1047B00077956795B795F795E7959F5FC1F7FE2BBE
:1047C000880F911D9695879597F9089597F99F679A
:1047D00080E870E060E008959FEF80EC0895002489
:1047E0000A941616170618060906089500240A9456
:1047F00012161306140605060895092E0394000CDC
:1048000011F4882352F0BB0F40F4BF2B11F460FF6A
:1048100004C06F5F7F4F8F4F9F4F089597FB092E06
:1048200007260AD077FD04D00CD006D000201AF459
:10483000709561957F4F0895F6F7909581959F4FFC
:104840000895AA1BBB1B51E107C0AA1FBB1FA617D7
:10485000B70710F0A61BB70B881F991F5A95A9F729
:1048600080959095BC01CD010895F999FECF92BD38
:1048700081BDF89A992780B50895A8E1B0E042E09B
:1048800050E00C945824262FF999FECF1FBA92BD00
:1048900081BD20BD0FB6F894FA9AF99A0FBE019621
:1048A00008950E944324272F0C944424DC01CB015B
:1048B000FC01F999FECF06C0F2BDE1BDF89A319630
:1048C00000B40D9241505040B8F70895F894FFCFCE
:1048D0002002016308F808D2089C086608019B01C1
:0648E0000A14030A082877
:00000001FF
